:200000000C9410010C9476010C9476010C9476010C9476010C9476010C9476010C9476018E
:200020000C9476010C9476010C9476010C9476010C9476010C9476010C9476010C94760108
:200040000C9476010C9476010C9476010C9476010C9476010C9476010C9476010C947601E8
:200060000C9476010C9476010C9476010C9476010C9476010C9476010C9476010C947601C8
:200080000C94B5230C9476010C9476010C9476010C9476010C9476010C9476010C94760147
:2000A0000C9476010C9476010C9476010C9476010C9476010C9476010C9476010C94760188
:2000C0000C9476010C9476010C9476010C9476010C9476010C9476010C9476010C94760168
:2000E0000C9476010C9476010C947E060C9476010C9476010C9476010C9476010C9476013B
:200100000C9476010C9476010C9476010C9476010C9476010C9476010C9476010C94760127
:200120000C9476010C9476010C9476010C9476010C9476010C9476010C9476010C94760107
:200140000C9476010C9476010C9476010C9476010C9476010C9476010C9476010C947601E7
:200160000C9476010C9476010C9476010C9476010C9476010C9476010C9476010C947601C7
:200180000C9476010C9476010C9476010C9476010C9476010C9476010C9476010C947601A7
:2001A0000C9476010C9476010C9476010C9476010C9476010C9476010C9476010C94760187
:2001C0000C9476010C9476010C9476010C9476010C9476010C9476010C9476010C94760167
:2001E0000C9476010C9476010C9476010C9476010C9476010C9476010C947601244D4F445A
:2002000024204842572D444556202000F44F00000201B0F101027E018C017E1EB320D8230D
:2002200011241FBECFEFCDBFDFE2DEBF80E08CBF67E280E890E00E9460068091820080FD20
:20024000FCCF60E081E490E00E946006809150008660809350008091510086708630D9F72E
:2002600060914000687F616080E490E00E94600680914000809150008E7F80935000809196
:2002800050008091600081608093600010E2A0E0B0E2E8E1FFE402C005900D92AC3DB10702
:2002A000D9F722E2ACEDB0E201C01D92AE32B207E1F7EEE2F2E288E49AE28193EE32F9079E
:2002C000E0F383E590E38193E030F907E0F311E0C0E1D1E004C02197FE010E945326CB30A5
:2002E000D107C9F70E94A0050C948A270C940000FC0163817281818190810895ECEDF0E2FF
:200300001082118212821382148280ED97E08583968385E08783089580E098EE8093E620E9
:200320009093E72080E094EF8093E4209093E5200895FC012481FB012083FC018381FB0196
:20034000818382E00895CF93DF93EC010E94A725688379838A839B83DF91CF9108954F920B
:200360005F926F927F928F929F92AF92BF92CF92DF92EF92FF920F931F93CF93DF93CDB706
:20038000DEB7CD55D109CDBFDEBFDC011B962D913C911C97232B09F4ACC1962E8C010F9629
:2003A0000E94C925F801238534856901E12CF12C6C157D058E059F0508F49BC1CE010196C7
:2003C0005C010E94A30189819A81AB81BC81F8018787908BA18BB28B80E00E9471227C014F
:2003E000D80117968C918330C9F018F4823089F01AC0863019F0873031F015C06701B0E277
:20040000CB0ED11C11C06701E8E2CE0ED11C92E00CC06701F0E3CF0ED11C06C0670128E3CE
:20042000C20ED11C01C0FFCF91E0D8011A968C911A9781111DC0F7018181897E8183818132
:20044000818382818F7882838281828380E4838386E0848317968C918F70880F880F880F1C
:2004600091E0D6019C9311968C93F801928741C18130B9F4BFB6F894C7010E947622D701F2
:200480008C9181608C93BFBEF6018081806880838DE090E0D8011B968D939C931C9782E014
:2004A00047C0823009F047C0F7018681892309F420C19683E091F42081E08E0F8093F42037
:2004C0002FB7F894D60114968D919C9115972FBFF0E0EE0FFF1FE851FF4D8083918381E05C
:2004E000F80182878091F420863008F402C11092F42046E060E070E0CB014150E42FF0E0B4
:20050000EE0FFF1FE851FF4D20813181620F731F811D911D4111F1CF26E030E040E050E021
:200520000E942226D80113962D933C93149783E01A968C93DEC0833009F0DBC0D801189677
:20054000ED91FC91199782819381892BD1F0C80143960E94C9252B013C01D8011896ED91B4
:20056000FC91199722813381A8EEB3E00E944426FF24F394461657066806790620F4F12C31
:2005800002C0FF24F394D8011896ED91FC91199784819581892B49F4D8011896ED91FC910F
:2005A00019974181411119C02CC0C80143960E94C9252B013C01D8011896ED91FC911997D5
:2005C00024813581A8EEB3E00E944426461657066806790608F321E015C0F8018381948102
:2005E00025853685821B930B97FF03C0919581959109FAE04F9FA001112421E08417950756
:2006000008F420E0FF2009F469C0222309F466C0D801ED91FC910280F381E02DBE01645ACD
:200620007F4FC8010995882EE0916721F091682182819381A481B5816C968CAF9DAFAEAF74
:20064000BFAF6C97CE01885A9F4F0E9478012B013C01C0900720D0900820E0900920F090EE
:200660000A20CE0102960E94A30187E5F50111928A95E9F789E6888B998A482D50E0BE0196
:20068000645A7F4FCE0142960E947A2788EF8A87CB86DC86ED86FE864E825F826886798614
:2006A00082E0F82EF80CFF86C5010E940F1E882321F08AEF90E0D80118C0F801838194812C
:2006C00085879687C5010E94A30189819A81AB81BC81F801838B948BA58BB68B81E0D80186
:2006E0001A968C931A9786EE95E01B968D939C931C97C35ADF4FCDBFDEBFDF91CF911F91EA
:200700000F91FF90EF90DF90CF90BF90AF909F908F907F906F905F904F900895CF92DF9236
:20072000FF920F931F93CF93DF93EC016B01F42E89010E940E178DE190E288839983CD82DE
:20074000DE82FF82088719871A86CE010F960E94A301CE0143960E94A30186EE95E08B8746
:200760009C871F86188A198A1A8A1B821C82DF91CF911F910F91FF90DF90CF900895809162
:2007800008068095881F8827881F0895CF93DF93EC01865A9F4F0E946C24811107C0CE01B3
:2007A00083599F4F0E946C2491E0811190E0892FDF91CF910895CF93C62F8091F520811196
:2007C0000DC00E94A7256093FD207093FE208093FF209093002181E08093F520C53050F475
:2007E000C23078F4CC2349F0C13059F580E48093050627C0C53079F024C080E48093060606
:2008000020C08DEF90E20E94C925653F714081059105B8F009C08DEF90E20E94C925693C75
:2008200071058105910568F080E4809307060E94A7256093FD207093FE208093FF20909356
:200840000021CF9108950F931F93CF93DF9300D000D0CDB7DEB76115710509F453C0DB01C1
:20086000182F609364217093652160930D2270930E221296ED91FC911397178287E686836F
:2008800083E2858388E184831296ED91FC91139793819F7C9061938390916621916090932C
:2008A0006621ED91FC910280F381E02DCB010995109369218093672190936821FC018681C1
:2008C0009781A085B18589839A83AB83BC83CE0101960E9478018B019C011D532F48304608
:2008E000003816492849310540F460930720709308208093092090930A208091662182603E
:20090000809366212496CDBFDEBFDF91CF911F910F910895CF93DF931F92CDB7DEB7DC0122
:2009200013966C93139718968D919C911997009779F061110DC02FEC2983DC01ED91FC91CE
:200940000190F081E02DAE014F5F5F4F61E009950F90DF91CF9108950F931F93CF93DF936A
:2009600000D0CDB7DEB78C0141E06CE0CE0101960E94322440E06CE0CE0102960E9432246B
:2009800020E049816A81C8010E94EA0781E490E2F80180839183E0E0F6E080E4828381835C
:2009A00080E88283E6E1F6E0808180648083E7E1F6E08081877C80838081886180830F9014
:2009C0000F90DF91CF911F910F9108950F931F93CF93DF9300D01F92CDB7DEB7182F8091A1
:2009E00000108F3F51F41B8241E050E0BE016D5F7F4F80E090E10E947D23113B09F07AC0FB
:200A000080910010811148C083E393E00E946F228C0147E063E0CE0101960E94322441E099
:200A200064E0CE0102960E94322421E049816A81C8010E94EA0789E290E2F8018083918314
:200A400081E08093820680938106EEE0F1E2808D918DA191B19118968D939C93199781E2B0
:200A6000E632F807A1F781E0F8018087838F86A7EF5BFF4F8083739680837396808373966B
:200A8000808373968083739680837396808373968083739680834BC0813009F047C082E3F6
:200AA00093E00E946F228C0141E06CE0CE0101960E94322440E06CE0CE0102960E9432246D
:200AC00020E049816A81C8010E94EA0785E390E2F80180839183EEE0F1E2808D918DA1911D
:200AE000B19118968D939C93199781E2E632F807A1F71DC0123B61F4809100108230B0F4FF
:200B000084E393E00E946F228C010E94AC040FC0133B61F480910010811108C089EB90E018
:200B20000E946F228C010E94280701C0FFCFC8012396CDBFDEBFDF91CF911F910F9108952D
:200B4000CF93DF93CDB7DEB76897CDBFDEBF60E074E082E00E9461258091CF0187FDFCCF32
:200B60008091CC0188608093CC0148E150E0BE016F5F7F4F80E090E00E94DC23489711F0CA
:200B800080EB8F8B8F890E94E604BC018F890E9423048091A2008F7B9FB7F8941BBE28ED01
:200BA00024BF8093A2009FBF8091A20087608093A20078940E94501DFDCFFF920F931F9324
:200BC000CF93DF93CDB7DEB72697CDBFDEBF20910121261709F46BC0F62E8C0181E0681779
:200BE00041F1681758F082E0681709F443C085E068135BC086E0EDE0F0E23FC01982AE01D2
:200C00004F5F5F4F61E0C8018C5B9E4F0E948F0CAE014F5F5F4F61E0C801855A9E4F0E94DA
:200C20008F0CF801E05BFF4F81E08383739683833CC084E68983AE014F5F5F4F61E0C8019A
:200C40008C5B9E4F0E948F0CAE014F5F5F4F61E0C801855A9E4F0E948F0C60E0C801805B81
:200C60009F4F0E948A0460E0C8018D599F4F0E948A041BC086E0E3E1F0E2DE01119601905B
:200C80000D928A95E1F7AE014F5F5F4F66E0C8018C5B9E4F0E948F0CAE014F5F5F4F66E042
:200CA000C801855A9E4F0E948F0CF09201212696CDBFDEBFDF91CF911F910F91FF9008958D
:200CC000FC019FB7F8941BBE88ED84BF60839FBF089580E0089508952DE430E2FC01208369
:200CE0003183E0E8F6E024E0228328E02283218320EA3AE0FC012283338308951F920F923D
:200D00000FB60F9211242F933F934F935F936F937F938F939F93AF93BF93EF93FF938091AF
:200D2000A00A0E94B21E009739F10E94A81D811123C083EA91E20E94CD1D9C01892BE1F06C
:200D40008091A0218830C1F09091A2219F5F9093A2219091A22197709093A2219091A021DD
:200D60009F5F9093A021E091A221F0E0EE0FFF1FE057FE4D20833183FF91EF91BF91AF91F9
:200D80009F918F917F916F915F914F913F912F910F900FBE0F901F901895809108068295F6
:200DA000817091E08927089580E090E1089581E0662319F08093E50708958093E6070895EA
:200DC000CF93C62F8091062181110DC00E94A72560930221709303218093042190930521F9
:200DE00081E080930621C53050F4C23078F4CC2349F0C13059F582E08093E50727C0C5301D
:200E000079F024C082E08093E60720C082E091E20E94C925653F714081059105B8F009C0FC
:200E200082E091E20E94C925693C71058105910568F082E08093E7070E94A72560930221D7
:200E4000709303218093042190930521CF910895EF92FF920F93CF93DF931F92CDB7DEB79B
:200E60007C010E946C0689E590E2F7018083918340E060E0CE0101960E94322420E030E024
:200E800040E150E16981C70104960E94031541E060E0CE0101960E94322420E030E042E108
:200EA00050E16981C70147960E94031542E060E0CE0101960E94322420E030E044E150E192
:200EC0006981C7018A960E94031543E060E0CE0101960E94322420E030E046E150E1698173
:200EE000C701CD960E94031540E062E0CE0101960E94322400E420E048E250E16981C7015C
:200F0000805B9F4F0E94190C41E062E0CE0101960E94322420E04AE250E16981C70189598F
:200F20009F4F0E94190C42E062E0CE0101960E94322420E04CE250E16981C70182589F4F61
:200F40000E94190C43E062E0CE0101960E94322420E04EE250E16981C7018B569F4F0E9483
:200F6000190C40E750E168E2C70184559F4F0E94FC1640E651E168E2C7018F549F4F0E948A
:200F80002816E0EEF7E081E08283818382E08283818380E180930206E1EFF7E08081806491
:200FA0008083E4E1F6E08081877C80838081886180830F90DF91CF910F91FF90EF900895E5
:200FC00080E090E108958F5C9C4F61110C942E220C941C228F929F92AF92BF92DF92EF92B7
:200FE000FF920F931F93CF93DF931F92CDB7DEB77C01D62EB42E122F0E946C0685E690E2D9
:20100000F7018083918340E060E0CE0101960E94322420E030E040E150E16981C701049655
:201020000E94031541E060E0CE0101960E94322420E030E042E150E16981C70147960E94A2
:20104000031542E060E0CE0101960E94322420E030E044E150E16981C7018A960E940315C6
:2010600043E060E0CE0101960E94322420E030E046E150E16981C701CD960E94031544E054
:2010800060E0CE0101960E94322420E030E048E150E16981C701805B9F4F0E94031545E0EE
:2010A00060E0CE0101960E94322420E030E04AE150E16981C7018D599F4F0E94031540E0C6
:2010C00061E0CE0101960E94322420E030E04CE150E16981C7018A589F4F0E94031541E0A6
:2010E00061E0CE0101960E94322420E030E04EE150E16981C70187579F4F0E94031542E087
:2011000061E0CE0101960E94322420E030E040E250E16981C70184569F4F0E94031543E076
:2011200061E0CE0101960E94322420E030E042E250E16981C70181559F4F0E94031546E055
:2011400062E0CE0101960E94322420E030E044E250E16981C7018E539F4F0E94031547E026
:2011600062E0CE0101960E94322420E030E046E250E16981C7018B529F4F0E94031540E00F
:2011800062E0CE0101960E94322404E6212F48E250E16981C70188519F4F0E94190C41E0B9
:2011A00062E0CE0101960E943224212F4AE250E16981C70181509F4F0E94190C42E062E046
:2011C000CE0101960E943224212F4CE250E16981C7018A5E9E4F0E94190C43E062E0CE0180
:2011E00001960E943224212F4EE250E16981C701835D9E4F0E94190C44E062E0CE0101969D
:201200000E943224212F40E350E16981C7018C5B9E4F0E94190C45E062E0CE0101960E9476
:201220003224212F42E350E16981C701855A9E4F0E94190C40E063E0CE0101960E943224AC
:2012400020E044E350E16981C7018E589E4F0E94190C41E063E0CE0101960E94322420E028
:2012600046E350E16981C70187579E4F0E94190C42E063E0CE0101960E94322420E048E3E2
:2012800050E16981C70180569E4F0E94190C43E063E0CE0101960E94322420E04AE350E1BF
:2012A0006981C70189549E4F0E94190C44E063E0CE0101960E94322420E04CE350E16981DC
:2012C000C70182539E4F0E94190C45E063E0CE0101960E94322420E04EE350E16981C701E3
:2012E0008B519E4F0E94190C870104501E4F6B2DC8010E94C52040E450E1B801C701815086
:201300009E4F0E94C40F46E450E1B801C701835E9D4F0E94C40F4CE450E1B801C701855C8A
:201320009D4F0E94C40F42E550E1B801C701875A9D4F0E94C40F48E550E1B801C701895871
:201340009D4F0E94C40F4EE550E1B801C7018B569D4F0E94C40F09541F4F24E630E146E0F9
:2013600060E072E0C8010E948E034701F6E38F1AFDEF9F0A2AE630E147E060E072E0C401E1
:201380000E948E0357018FE1A81A8DEFB80A40EE53E1B801C5010E94C20B075B1F4F42EE02
:2013A00053E1B401C8010E94C20B44EE53E1B501C701895E9C4F0E94340B46EE53E1B80154
:2013C000C701815E9C4F0E94340B40E750E168E2C701895D9C4F0E94FC1640E651E168E209
:2013E000C701845D9C4F0E942816EFECEE1AECEFFE0A4D2D4F706D2D62956F70C7010E94A0
:201400003224F7018081803E18F4C7010E943924F7018081803E18F4C7010E944E240F90AE
:20142000DF91CF911F910F91FF90EF90DF90BF90AF909F908F9008950F931F93CF93DF936E
:201440001F92CDB7DEB78C01FC0183819481FC0121812F3F51F424E1298341E050E0BE010C
:201460006F5F7F4F01960E947D23F80117820F90DF91CF911F910F910895CF93DF93EC0148
:201480000E94A72587E5FE0111928A95E9F7DF91CF9108954F925F926F927F92AF92BF92EE
:2014A000CF92DF92EF92FF920F931F93CF93DF93CDB7DEB7C755D109CDBFDEBF182FF62E7D
:2014C000E42E40900720509008206090092070900A20CE0101960E943D0A8BE4888B198B43
:2014E0001A8AE11002C082E001C083E09F2D990F990F890F8B8B88EF8A874B865C866D8617
:201500007E868FEF9FEFDC018E839F83A887B98784E08F87CE0101960E940F1E082F809145
:201520006C2190916D210097E1F5E0916721F09168210081B0906921C0900720D0900820B5
:20154000E0900920F0900A20CE0101960E943D0ACB86DC86ED86FE868FEF9FEFDC018E8355
:201560009F83A887B98788EF8A8781E4888B198BBA8A0B8B82E08C8B81E08D8B88E48E8BE5
:2015800082E48F8B87E5888F8E01005E1F4F5E0189E1A80EB11C8AE0482E512C612C712C1A
:2015A0000DC0DC01ED91FC910190F081E02D2E2D4F2D612F09958823F1F0B7CFC701B601D1
:2015C000A30192010E942226605DF80162938F01C114D104E104F10459F4A016B10671F709
:2015E00080E18F87CE0101960E940F1E082F03C069017A01F2CF802FC95ADF4FCDBFDEBF76
:20160000DF91CF911F910F91FF90EF90DF90CF90BF90AF907F906F905F904F900895CF9365
:20162000DF93EC01ED81FE8183818823D1F0AB81BC812C91948111968C9127FF03C0891766
:2016400018F40EC0981760F0862F40E06F810E944A0A811106C08F818F5F8F83ED81FE81A1
:201660001382DF91CF910895EF92FF920F931F93CF93DF93EC018B017A010E940E1781E70B
:2016800090E288839983EB82FC820D831E831F82DF91CF911F910F91FF90EF900895FC012C
:2016A0008481FB01808381E008950F931F93CF93DF93EC01ED81FE81418128EE33E0429F5A
:2016C000C001439F900D112489879A87892B19F48FEF8C8345C0CE010B960E94C925298563
:2016E0003A85EAE0E29FA001E39F500D11248A0120E030E0601771078207930788F10E9463
:20170000A7256B877C878D879E87EF81F8858381948164E170E00E94FA25693C08F068EC82
:20172000298DFE01E20FF11D37858F89988D831B91096787860F911D8F8B988F2F5F27702D
:20174000298F2A8D283010F42F5F2A8F1816190634F46A8D70E00E940E266C8301C01C8297
:20176000DF91CF911F910F910895FC01DA018C91882331F0828D882321F081E0838308951C
:2017800013820895EF92FF920F931F93CF93DF93EC018B017A010E940E178DE790E2888331
:2017A0009983ED82FE820F8318870E94A725FE013F9688E0DF011D928A95E9F71B861C8672
:2017C0001D861E861C821F8A188E198E1A8E1B82DF91CF911F910F91FF90EF900895FC0121
:2017E0008781FB01808381E00895CF93DF931F92CDB7DEB7DC011396ED91FC911497308159
:20180000232F2F77253688F056969C919F77232F2078922B391749F0998341E050E0BE0172
:201820006F5F7F4FCF010E947D230F90DF91CF910895CF92DF92FF920F931F93CF93DF9363
:20184000EC01162F6A01F22E0E940E1789E890E288839983412F4F70612F62956F7024EC55
:2018600039E0CE0105960E949F24CE010D960E94A301CE0141960E94A3010E8B82E08A83D4
:20188000CB82DC828D81182F1F7082958F700E94CA23183060F44096E12FF0E0E80FF91FB3
:2018A0008081FF2011F0806401C08F7B80831E828AEC8D8B1F8288EC888719868AE08A87E9
:2018C0008B878FEF8C871D861E861F86188A198A1A8A1B8A1C8ADF91CF911F910F91FF9096
:2018E000DF90CF900895DC011396ED91FC91149720812F770596222349F0629FB0011124FA
:2019000023E0759567952A95E1F707C0611103C060E070E002C064EC79E00C942225FF92B8
:201920000F931F93CF93DF9300D000D0CDB7DEB78C01FA018081893C90F4D80117968C934F
:20194000179751961D921D921D921C9254978081811102C08AEC01C089ECF80150C08E3C78
:2019600049F468ECC8010E94730C81E0D80116968C93A7C08F3C19F4F8011682A2C066301F
:2019800008F45EC09181D80119969C931997828118968C93189723811A962C931A972481CC
:2019A0001B962C931B9725811C962C93F080BCECFB120FC0CE0101960E94A30189819A8129
:2019C000AB81BC81F801818B928BA38BB48BF58A44C0FDECFF1220C0D80155968C918C3C09
:2019E00081F0CE0101960E94A30189819A81AB81BC81F801818B928BA38BB48B8CEC858B25
:201A00002CC0D80151961D921D921D921C9254978AEC55968C9321C0BBECFB121EC0F80188
:201A200025892A3C21F097838AEC858B03C0878389EC858BF801118A128A138A148A0DC057
:201A4000D80117968C911797882319F017961C92F1CF88ECF8018783EDCFF8018585968515
:201A6000A785B089892B8A2B8B2B59F50380F481E02D808187FF25C0CE0101960E94A30177
:201A800049815A816B817C81D8011D964D935D936D937C935097E0916721F0916821918151
:201AA000B4E69B9FC0011124092E000CAA0BBB0B840F951FA61FB71FF80185879687A7876C
:201AC000B08B2496CDBFDEBFDF91CF911F910F91FF9008950F931F93CF938C01DC011396D3
:201AE000ED91FC911497C081CF770596CC2399F00E94EC2423E0880F991F2A95E1F7D80122
:201B00001396ED91FC91149760816F7770E00E94FA25C62F05C00E94EC24892B09F0C8ECC1
:201B20008C2FCF911F910F9108954F925F926F927F928F929F92AF92BF92CF92DF92EF9282
:201B4000FF920F931F93CF93DF93CDB7DEB7CC55D109CDBFDEBF8C01F62EFC0181899289BC
:201B6000A389B489892B8A2B8B2B59F1C80141960E94C925672B682B692B19F1C8010E9435
:201B80006A0DF80160858613A5C0D8011B968C91B4E68B9FC0011124092E000CAA0BBB0BD3
:201BA000F8014189528963897489840F951FA61FB71F818B928BA38BB48B6185C8010E94D5
:201BC000730CF8018681811109C081899289A389B489892B8A2B8B2B09F4B6C0F801858508
:201BE0009685A785B089892B8A2B8B2B09F4B1C0C8010D960E94C925672B682B692B09F426
:201C0000A8C0D801ED91FC910280F381E02DBE01645A7F4FC8010995E82EE0916721F09133
:201C2000682182819381A481B5816C968CAF9DAFAEAFBFAF6C97CE01885A9F4F0E94780198
:201C40004B015C0140900720509008206090092070900A20CE0102960E94A301FE01319626
:201C60006F0187E5DF011D928A95E9F789E6888BF98A4E2D50E0BE01645A7F4FCE01429658
:201C80000E947A2788EF8A874B865C866D867E868E829F82A886B986E394E394EF86C60107
:201CA0000E940F1E882371F0F80185859685A785B08986509F4FAF4FBF4F85879687A7879F
:201CC000B08B47C0D8011D961D921D921D921C9250973FC0D8011C968C911C97882329F175
:201CE0001A968C91B4E68B9FC0011124092E000CAA0BBB0BF80181889288A388B488880D87
:201D0000991DAA1DBB1D818B928BA38BB48BC8010E94730CD8011C968C911C978F3F09F4C8
:201D200050CF81501C968C934CCFF801118A128A138A148A8781681711F08AEC01C089EC28
:201D4000D80155968C933DCF6781C8010E94730C45CFC45ADF4FCDBFDEBFDF91CF911F91B9
:201D60000F91FF90EF90DF90CF90BF90AF909F908F907F906F905F904F900895FC012389E9
:201D8000FB012083FC018289FB01818382E008950F931F93CF93DF93CDB7DEB72797CDBF12
:201DA000DEBF8C01DC0115968D919C911697FC0121812B3F50F025E02F8341E050E0BE0169
:201DC000695F7F4F01960E947D23D80115968D919C911697FC01228133812115310529F03F
:201DE000255031092C303E4060F5D80115968D919C911697FC01248135812115310529F0AC
:201E0000255031092C303E4048F5D8011596ED91FC91169784819581009729F0228133819E
:201E20008217930740F1F801178284EF91E0808B918B2796CDBFDEBFDF91CF911F910F919B
:201E400008952AE030E02D833E8342E050E0BE016B5F7F4F02960E947D23C7CF26E930E022
:201E60002B833C8342E050E0BE016D5F7F4F04960E947D23CACF19821A8242E050E0BE018D
:201E80006F5F7F4FCF0104960E947D23CCCF4F925F926F927F928F929F92AF92BF92CF9236
:201EA000DF92EF92FF920F931F93CF93DF93CDB7DEB7CB55D109CDBFDEBF882EF62E6A01F6
:201EC0000115110521053105C1F4E0916721F091682182819381A481B5816C968CAF9DAFC7
:201EE000AEAFBFAF6C97CE01885A9F4F0E947801962EA72EB82EE92E04C0902EA12EB22E93
:201F0000E32E40900720509008206090092070900A20CE0102960E94A3018E010F5F1F4F56
:201F200087E5F80111928A95E9F789E6888B898A4F2D50E0B601CE0142960E947A2788EF41
:201F40008A874B865C866D867E869E82AF82B886E986F394F394FF86C8010E940F1EC55A7E
:201F6000DF4FCDBFDEBFDF91CF911F910F91FF90EF90DF90CF90BF90AF909F908F907F9023
:201F80006F905F904F900895EF92FF920F931F93CF93DF93EC017B018A010E940E1785E974
:201FA00090E288839983EB82FC821F82CE0146960E94A301CE014A960E94A30183E08A83A6
:201FC0000D831E8380ED97E0888B998B1E8A1F8A188E198EDF91CF911F910F91FF90EF90E9
:201FE0000895982F81E0983221F0903111F080E0089508951F93CF93DF93EC01162F8B8121
:202000009C810E94EB208B819C81DC011196ED91FC91129730852C912323E1F0111104C026
:20202000AE01485F5F4F02C040E050E064E40E94C3218091062081110FC0EB81FC8180813A
:20204000A181B28115968C9380810180F281E02D818302C081E001C080E0DF91CF911F9197
:202060000895FB0120813181DC0118968C91803161F42E7F43E0220F331F4A95E1F78681B5
:20208000281B3109245F3F4F10C0883271F48481982F9076903649F086FF02C02E7F05C039
:2020A00085FF02C02C7F01C0287FC90134E0969587953A95E1F7B4E68B02C0011124322F7D
:2020C00023FDC29632FD499631FD0D9630FD06960895AF92BF92CF92DF92EF92FF920F932B
:2020E0001F93CF93DF93CDB7DEB72997CDBFDEBF8C01FC01838194810E94EB20A801485FB8
:202100005F4F6EEBF801838194810E94C321CE0101967C015E019AE0A90EB11C67016FEF1A
:20212000F801838194810E945021F70181937F01EA15FB05A1F740E069E070E0C6010E9435
:20214000F321811109C0B601C8010E943110F801828B938B80E001C083E02996CDBFDEBF1D
:20216000DF91CF911F910F91FF90EF90DF90CF90BF90AF90089520915621EEE0F1E290E0FF
:20218000921781F0A191B19112963C911297333039F415960D90BC91A02D3C91831721F029
:2021A0009F5FEECF80E0089581E008958F929F92AF92BF92CF92DF92EF92FF920F931F934D
:2021C000CF93DF93CDB7DEB72697CDBFDEBFFC0180899189892B09F461C1A581B6818C91BF
:2021E000811104C08781833009F058C1D62E7F01CF0146960E94C925D70150962D913C91B3
:202200005197890120E030E0601771078207930708F444C1CE0101960E94A30189819A8158
:20222000AB81BC81F701868B978BA08FB18F8781811151C08DE495E9828B938B0FEF670170
:20224000F8E0CF0ED11C570120E1A20EB11CA601602FD70113968D919C9114970E946B212B
:20226000082F82E0800F823070F1F60110E08191180FEA15FB05D9F7F70180850E94F10F95
:20228000811103C00111E3CF1EC0D70115968D909C901697F40180818F3F31F4812F0E9493
:2022A000BB10882309F4F0C0D7011596ED91FC91169780811813E6CF81E017968C93179704
:2022C00084E690E0C1C088E893E1F701808B918B83E08783E3C08130B9F461E0C7010E9487
:2022E000FA0F81110BC088EE93E0D70150968D939C93519782E017968C93D0C08AEF90E0F3
:20230000F701808B918BCAC0823009F0A2C0C7010E94691011E0811110E0D7011596ED91B0
:20232000FC91169782819381892BC9F0C7014A960E94C9254B015C01D7011596ED91FC9170
:20234000169722813381A8EEB3E00E94442621E086169706A806B90618F420E001C021E0CF
:202360001223D7011596ED91FC91169784819581892B49F4D7011596ED91FC9116974181E4
:20238000411119C02CC0C7014A960E94C9254B015C01D7011596ED91FC91169724813581AF
:2023A000A8EEB3E00E94442686169706A806B90608F321E015C0F7018289938924893589E7
:2023C000821B930B97FF03C0919581959109FAE04F9FA001112421E08417950708F420E0C1
:2023E000112359F1222349F1D701ED91FC910280F381E02DBE016B5F7F4FC701099500E05D
:2024000010E09801AE014B5F5F4F682F8D2D0E94470F811112C0F70182899389848B958B31
:20242000CE0101960E94A30189819A81AB81BC81F701828F938FA48FB58F81E0D7011796DA
:202440008C93179788E893E150968D939C93519725C0833019F50190F081E02D0280F38103
:20246000E02DBE016F5F7F4FC701099500E010E09801AE014F5F5F4F682F8D2D0E94470FD1
:20248000F701108A118A0AC0198341E050E0BE016F5F7F4FC4010E947D2306CF2696CDBFD9
:2024A000DEBFDF91CF911F910F91FF90EF90DF90CF90BF90AF909F908F900895CF93FC01AB
:2024C0008081C82FCF7082958F700E94CA23C83050F4FC017096EC0FF11D8081877C8083D1
:2024E000808188618083CF910895FF920F931F93CF93DF9300D000D0CDB7DEB78C01F62ECF
:202500000A960E946C24F8018823F1F087859089A189B289892B8A2B8B2B21F01786108A73
:20252000118A128AF801138614861586168680859185009709F467C00680F781E02D20817F
:2025400027FF61C02FEC53C083859485A585B685892B8A2B8B2B71F4CE0101960E94A30150
:2025600089819A81AB81BC81F80183879487A587B6872EC0C8010B960E94C925643671054E
:202580008105910528F1F80187859089A189B289892B8A2B8B2BE1F440E0F80165818F2DD4
:2025A0000E944A0A811114C0D80115968C9115978F5F15968C93CE0101960E94A301898104
:2025C0009A81AB81BC81F8018787908BA18BB28BD80118968D919C9119970097A1F0169696
:2025E000ED91FC911797208127FF0DC02EEC2983DC01ED91FC910190F081E02DAE014F5F74
:202600005F4F61E009952496CDBFDEBFDF91CF911F910F91FF900895FF920F931F93CF93B7
:20262000DF9300D000D0CDB7DEB78C01F62E0A960E946C24F801882391F187859089A18977
:20264000B289892B8A2B8B2B99F040E065818F2D0E944A0A81110CC0D80115968C91159734
:202660008F5F15968C93F8011786108A118A128AD8011B961D921D921D921C921E97189693
:202680008D919C911997009709F468C01696ED91FC911797208127FF61C02FEC53C0838500
:2026A0009485A585B685892B8A2B8B2B71F4CE0101960E94A30189819A81AB81BC81F801E5
:2026C00083879487A587B6872EC0C8010B960E94C925643671058105910528F1F80187853A
:2026E0009089A189B289892B8A2B8B2BE1F440E0F80165818F2D0E944A0A811114C0D80178
:2027000015968C9115978F5F15968C93CE0101960E94A30189819A81AB81BC81F80187874C
:20272000908BA18BB28BD80118968D919C9119970097A1F01696ED91FC911797208127FF3F
:202740000DC02EEC2983DC01ED91FC910190F081E02DAE014F5F5F4F61E009952496CDBFBF
:20276000DEBFDF91CF911F910F91FF9008958F929F92AF92BF92FF920F931F93CF93DF93D3
:2027800000D000D0CDB7DEB78C01F62E0A960E946C24D8011B964D915D916D917C911E97E7
:2027A000882379F1452B462B472B09F4ABC0C8010B960E94C925623371058105910550F0E8
:2027C000F80187859089A189B289892B8A2B8B2B09F470C0D8011B961D921D921D921C92E5
:2027E0001E9718968D919C911997009709F48AC01696ED91FC911797208127FF83C02FEC13
:2028000075C0452B462B472BC1F1F80187859089A189B289892B8A2B8B2B99F0C8010F96E5
:202820000E94C9256C3271408105910508F46AC0D8011696ED91FC911797808186FD43C0B2
:2028400061C0C8010B960E94C9254B015C01D8011696ED91FC911797218130E0A4E6B0E0AA
:202860000E94442686169706A806B90608F44AC0F80185818F5F858326C0CE0101960E94BD
:20288000A30189819A81AB81BC81F80183879487A587B6871786108A118A128A80859185F6
:2028A000009781F10680F781E02D208127FF2AC02EEC1CC0F80165816F5F658340E08F2DEC
:2028C0000E944A0A87CFCE0101960E94A30189819A81AB81BC81F8018787908BA18BB28BE7
:2028E00041E065818F2D0E944A0A0CC02983DC01ED91FC910190F081E02DAE014F5F5F4FA5
:2029000061E009952496CDBFDEBFDF91CF911F910F91FF90BF90AF909F908F900895FC01D0
:20292000A681B7819C9193FF12C08381882379F0977019F4CF010C94B713913019F4CF01A3
:202940000C940C13923019F4CF010C9475120895FF920F931F93CF93DF93EC01EE81FF81C0
:2029600090818A8594FF16C08E01065F1F4F282F2F70F22E82958F700E94CA2327E02F1566
:2029800038F0FC017096EF0DF11D80818F7B8083C80114C0182F1F7082958F700E94CA23DC
:2029A000183038F4FC017096E10FF11D8081806480838C81882329F0CE010A960E945E1268
:2029C00013C08A85182F1F7082958F700E94CA23183050F4FC017096E10FF11D8081877C09
:2029E00080838081806180831B861C861D861E861F86188A198A1A8A1D82DF91CF911F91B8
:202A00000F91FF900895CF92DF92EF92FF921F93CF93DF93EC01162F6A0179010E940E17A2
:202A200081EA90E28883998381E08B831C821D82CE82DF82E886F9867E018AE0E80EF11C5C
:202A4000412F4F70612F62956F70C7010E9432248A85803E18F4C7010E943924CE010B9611
:202A60000E94A301CE010F960E94A30181E08A83CE01DF91CF911F91FF90EF90DF90CF90BD
:202A80000C94A8140F931F93CF93DF931F92CDB7DEB78C01FC018081861749F0698341E07A
:202AA00050E0BE016F5F7F4FC8010E947D23C8010F90DF91CF911F910F910895CF93DF9387
:202AC000EC01EE81FF81918194509F3280F48E819F81FC016081262F2770233018F0687FA4
:202AE0000E944215CE01DF91CF910C94A81464E0CF0101960E944215EACF2F923F924F9212
:202B00005F926F927F928F929F92AF92BF92CF92DF92EF92FF920F931F93CF93DF93CDB73E
:202B2000DEB72697CDBFDEBF7C013B01342ED22E10E0CE0101965C0122242A948BECC82EDB
:202B40009CEC592E2DEC422ED70112968C91181708F068C0B0E11B9F40011124D7011396AF
:202B6000ED91FC911497E80DF91D8481831158C085818D1155C080819181A281B3818F3FF2
:202B80009F4FAF4FBF4F09F44BC0CF010E947801D3012D913D914D915C916217730784079F
:202BA0009507F1F5F50126E011922A95E9F72982D7011396ED91FC911497E80DF91D908553
:202BC0009A8327812B8383858C8384858D8385858E83002349F092859A8321852B8386814C
:202BE00086958695869501C086818770833081F030F4882351F0813099F4998307C08430BC
:202C000049F0853069F4498206C0298361E004C0C98201C0598266E0A5018D2D0E94091AD5
:202C20001F5F92CF2696CDBFDEBFDF91CF911F910F91FF90EF90DF90CF90BF90AF909F9017
:202C40008F907F906F905F904F903F902F900895FC0180936A2190936B218DEA90E2808318
:202C6000918362834383548308952F923F924F925F926F927F928F929F92AF92BF92CF9266
:202C8000DF92EF92FF920F931F93CF93DF93CDB7DEB7CF55D109CDBFDEBF6E968EAF9FAFBA
:202CA0006E97162F6F962FAF6F97440F440F222311F083E001C082E0480FA0964FAFA097AD
:202CC000E12CF12CC12CD12C8BE09E012F5F3F4F19016E96AEADBFAD6E9712962C911297C2
:202CE00030E0C216D3060CF070C01396ED91FC911497EE0DFF1D90819F3F09F45FC09113C2
:202D00005DC0CF0101960E9478012B013C016C966CAF7DAF8EAF9FAF6C978090072090907D
:202D20000820A0900920B0900A206E96EEADFFAD6E9783819481481459046A047B04D9F4CC
:202D4000DC01AE0DBF1D80916A2190916B210097A1F1FC0120813181F901A080B1806F96ED
:202D60000FAD6F9715962C91412FBE01685A7F4FF501099522C0FC01EE0DFF1D05810E94B8
:202D8000A725D101E7E51D92EA95E9F7FBE4F88B198B0A8BA0962FADA0972B8B38EF3A8739
:202DA0008B869C86AD86BE864E825F826886798684E08F87C1010E940F1E80E09FEFC91AEF
:202DC000D90AA6E0EA0EF11C84CFC15ADF4FCDBFDEBFDF91CF911F910F91FF90EF90DF9023
:202DE000CF90BF90AF909F908F907F906F905F904F903F902F900895FC0180936C219093D1
:202E00006D2183EB90E2808391836283438354830895089580E008950895089529EB30E214
:202E2000FC0120833183E091562121E02E0F20935621F0E0EE0FFF1FE25FFE4D8083918360
:202E4000FC01128208958F929F92AF92BF92CF92DF92EF92FF920F931F93CF93DF936B01E8
:202E60007C01FA0188E4808382E4818387E582838A01065F1F4FEA0123968AE0882E912CB1
:202E8000A12CB12C0C171D0791F0C701B601A50194010E942226605DF80162938F01C1140C
:202EA000D104E104F10471F369017A01EBCFDF91CF911F910F91FF90EF90DF90CF90BF9015
:202EC000AF909F908F900895FC01808180FF03C081E09785961380E00895FC01818580FDE5
:202EE00007C08685823020F081E09785993609F080E008958091CF0187FDFCCF0895CF92CE
:202F0000DF92EF92FF920F931F93CF93DF93CDB7DEB7C755D109CDBFDEBF8091662181FFB6
:202F200046C088E092E20E94C9256830710581059105E8F1E0916721F091682110810091F7
:202F40006921C0900720D0900820E0900920F0900A20CE0101960E943D0ACB86DC86ED8630
:202F6000FE868FEF9FEFDC018E839F83A887B98788EF8A8781E4888B198A0A8B1B8B82E002
:202F80008C8B81E08D8BAE014A5E5F4FC701B6010E94231780E18F87CE0101960E940F1E95
:202FA000811105C0809166218D7F80936621C95ADF4FCDBFDEBFDF91CF911F910F91FF9053
:202FC000EF90DF90CF900895CF92DF92EF92FF920F931F93CF93DF93CDB7DEB72597CDBF9A
:202FE000DEBFE0916721F09168211081C680D780E084F1840091CC010E947A178091CC01BB
:20300000877F8093CC018FEF0E94C4220E947A1780E30E948D2203FF07C00E947A178091D0
:20302000CC0188608093CC0180916721909168211D8341E050E0BE016B5F7F4F0E947D232E
:203040008091672190916821C982DA82EB82FC8244E050E0BE016F5F7F4F06960E947D230E
:20306000809166218460809366212596CDBFDEBFDF91CF911F910F91FF90EF90DF90CF905A
:2030800008951F93CF93DF9300D000D0CDB7DEB78091642190916521892B09F4BAC08091DB
:2030A0005C21811107C088E591E20E94A30181E080935C218091642190916521DC01ED918B
:2030C000FC910480F581E02D0995182F80915721823009F441C028F4882361F0813001F183
:2030E0008BC0843009F46AC008F451C0853009F47DC082C0112319F081E080935721CE0174
:2031000001960E94A30189819A81AB81BC818093582190935921A0935A21B0935B216CC082
:2031200088E591E2112351F00E94C925693873418105910508F460C082E055C00E94C92516
:20314000653671058105910508F454C0809166218260809366214EC011114EC083E080936A
:203160005721CE0101960E94A30189819A81AB81BC818093582190935921A0935A21B09383
:203180005B218091662180628093662135C088E591E20E94C925643671058105910560F1BD
:2031A000112311F084E0A9CF88E591E20E94C9256938734181059105E8F41EC088E591E283
:2031C0000E94C9256436710581059105A8F0112389F088E591E20E94C925693B7B40810599
:2031E000910550F085E08093572106C0111104C00E94E41710925721809164219091652169
:20320000DC01ED91FC910680F781E02D6091572109952496CDBFDEBFDF91CF911F910895B4
:203220000F931F93CF93DF9300D000D0CDB7DEB7E0916721F091682186819781A085B18530
:2032400089839A83AB83BC83CE0101960E94780100910720109108202091092030910A2011
:203260006017710782079307B9F08B019C011D532F483046003816492849310540F46093A8
:203280000720709308208093092090930A2080916621826080936621E0916721F09168213C
:2032A00091819253993CB0F410E0809156211817E8F4E12FF0E0EE0FFF1FE25FFE4D808193
:2032C0009181DC01ED91FC910680F781E02D09951F5FEBCF82E3898341E050E0BE016F5FC4
:2032E0007F4FCF0101960E947D23DECF2496CDBFDEBFDF91CF911F910F910895CF92DF9238
:20330000EF92FF92CF93DF93CDB7DEB7C755D109CDBFDEBF8091662180FF07C00E941019E6
:20332000809166218E7F809366218091662183FF09C08FB7F8941BBE98ED94BF91E0909354
:2033400079008FBF8091662182FF0FC0A8958FB7F8941BBE98ED94BF9BE1909380008FBF91
:203360008091820080FDFCCFFFCF85FF27C0C0900720D0900820E0900920F0900A20CE0128
:2033800001960E943D0ACB86DC86ED86FE8682E090E0A0E0B0E08E839F83A887B98788EF08
:2033A0008A8783E2888B81E08F87CE0101960E940F1E809166218F7D809366210E94A7252C
:2033C0006D3D75408105910510F00E947F17C95ADF4FCDBFDEBFDF91CF91FF90EF90DF9073
:2033E000CF90089590915621891778F4E82FF0E0EE0FFF1FE25FFE4D80819181DC01ED9131
:20340000FC910280F381E02D0994DB011C9281E0089590915621891778F4E82FF0E0EE0F6F
:20342000FF1FE25FFE4D80819181DC01ED91FC910190F081E02D099408954F925F926F92CB
:203440007F928F929F92AF92BF92FF920F931F93CF93DF93EC010E94731DF82E811102C025
:20346000F12CA4C1898580FDFBCF65E7CE010E946417882321F080916621886021C062E5D9
:20348000CE010E946417882391F08E85843041F71A89412F50E06889798976276727762717
:2034A0007061CE010F960E947A271E872BC163E4CE010E946417882331F08091662181607B
:2034C0008093662121C166E7CE010E946417882329F082E08F8791E0988BFDC068E6CE018D
:2034E0000E946417882359F0E0916721F09168218081909169219F87888B82E0ECC065E47C
:20350000CE010E946417882309F451C00A891B89812F869586958695912F977011F48C5F17
:2035200001C08B5F8E8785E68F874E8550E04450510960E070E0CE0143960E948327402F66
:2035400050E060E070E180E090E0212F30E0412C512C32014394281739070CF4D3C0DB0198
:20356000E0E0F0E0E417F507F4F41D911F3FC9F0FC01A3E0F595E795AA95E1F73496EC0FB5
:20358000FD1FDC01A770BB275301420104C0880C991CAA1CBB1CAA95D2F7A7858A2A878603
:2035A00002C03196DFCF0196640F751FD4CF6BE4CE010E946417811106C06BECCE010E9438
:2035C00064178823C9F080916A2190916B21009709F49AC001E02A89211101C000E0DC0191
:2035E000ED91FC910190F081E02D29894889BE01665F7F4F099588C063E5CE010E946417C2
:20360000882321F0BE016F5E7F4F5FC067E5CE010E9464178823F1F04A892E8530E0842F68
:2036200090E004962817390709F01ACF88899989982789279827BE01009719F06D5E7F4FC6
:2036400005C06C5E7F4F415081E090E050E00E947D235AC06EE6CE010E946417882379F0CB
:2036600060910720709108208091092090910A20AE01415F5F4F0E9423178AE02CC061E212
:20368000CE010E946417882321F080916621846017CF69E6CE010E946417811135C063E714
:2036A000CE010E946417811106C068E7CE010E946417882391F06E8562508E010F5E1F4F50
:2036C000A80188890E94091AB80188890E94F21999E69F878E5F8E8715C06AE7CE010E94B6
:2036E0006417882321F0809166218064E9CE6AE5CE010E946417882309F4B2CE8091662165
:203700008F7BDECE10E001C011E08D819E81AF81B8858F3F9F4FAF4FBF4F09F4A1CE809172
:20372000662186FF07C065E7CE010E946417882309F496CE2985822F8770833021F023FB3A
:20374000222720F901C020E08A859B85AC85BD858D839E83AF83B887809107209091082081
:20376000A0910920B0910A208A879B87AC87BD87898586958370112321F099E199871E863B
:2037800002C098E999878370982F9295990F907E89858F79892B8987211102C0877F89874B
:2037A00081E02827888120FB84F988838F2DDF91CF911F910F91FF90BF90AF909F908F9066
:2037C0007F906F905F904F9008950F931F93CF93DF93DC0190E090962C919097921740F513
:2037E000FD01E90FF11DE90FF11DEB01088119814081518104171507C9F4892F422F50E0D0
:2038000041505109E82FF0E0E417F50754F4EE0FFF1FEA0FFB1FC281D381C083D1838F5F4D
:20382000F1CF9150215090962C9390979F5FD3CFDF91CF911F910F9108951F93CF93DF9387
:2038400000D0CDB7DEB710E080918F211817A0F5E12FF0E0EE0FFF1FE159FE4D8081918177
:2038600089839A83FC014181528163817481452B462B472BF9F001960E94C925672B682B2C
:20388000692BC1F089819A810E940F1EE981FA8180818C708C3081F4BE016F5F7F4F8FE60C
:2038A00091E20E94E51B67E570E089819A810E94BE1D02C01F5FC8CF0F900F90DF91CF91D0
:2038C0001F9108958F929F92AF92BF92DF92EF92FF920F931F93CF93DF9300D0CDB7DEB723
:2038E0007C01D12C80918F21D81608F060C0ED2DF0E0EE0FFF1FE159FE4D0081118109835E
:203900001A83F801818580FD50C0F70181858770813071F0F8018685843009F046C08785B4
:203920008B3409F042C0C7010E946D178823E9F191E0F80182849384A484B584F7014581B4
:2039400056816781708584169506A606B70609F090E081E0F80185809680A780B084F701E4
:20396000428553856485758584169506A606B70609F080E08923C9F0F8019185969593702C
:20398000F701818582958695837098130EC0BE016F5F7F4F8FE691E20E94E51B67E570E00A
:2039A00089819A810E94BE1D02C0D3949BCF0F900F90DF91CF911F910F91FF90EF90DF90F7
:2039C000BF90AF909F908F9008950F931F93CF93DF93CDB7DEB7C755D109CDBFDEBF8091FD
:2039E000A021882309F453C09FB7F8948091A0218823C1F0E091A12181E08E0F8093A12135
:203A0000F0E0EE0FFF1FE057FE4D008111818091A12187708093A1218091A02181508093D1
:203A2000A02102C000E010E09FBF0115110579F1C8010E94921D882351F0F8018185877043
:203A4000813009F1C8010E946D1781111CC0F80181858770813089F087E5DE0111960190BB
:203A60000D928A95E1F7CE0101960E941D1A882321F0CE0101960E940F1E67E570E0C8011B
:203A80000E94BE1D04C0C8010E94621CE0CFC95ADF4FCDBFDEBFDF91CF911F910F91089516
:203AA000CF93C0E080915621C817B0F4EC2FF0E0EE0FFF1FE25FFE4D80819181DC01ED91F9
:203AC000FC910480F581E02D6C2F09950E94E51C0E941D1CCF5FE6CF0E947E190E94411884
:203AE000A895CF910895FC01208120FF17C045815681678170858091072090910820A091CC
:203B00000920B0910A20481759076A077B0741F081E04F3F5F4F6F4F7F4F19F080E00895FF
:203B200081E0089521E0FC0145815681678170858091072090910820A0910920B0910A20C9
:203B4000481759076A077B0709F020E0822F089521E0FC01428553856485758580910720B4
:203B600090910820A0910920B0910A20481759076A077B0709F020E0822F0895CF93CFB756
:203B8000F8940E94502280916E21882319F0815080936E21CFBFCF910895DF92EF92FF92B0
:203BA0000F931F93CF93DF937C01DFB6F894FC01C685C15FD0E0CE010796887F0E9452229E
:203BC0008C01009749F0AE01B7010E947A2780916E218F5F80936E21DFBEC801DF91CF9178
:203BE0001F910F91FF90EF90DF900895FB0198E0408151819A01220F331F87FD216020838E
:203C0000318357FF08C02081318142E0242740E1342720833183880F915051F708951F9330
:203C2000CF93DF93EC010E941C20182F888181FF13C0CE0105960E9478016D837E838F83BA
:203C40009887CE010A960E9478016A877B878C879D8788818D7F88838881982F969596954B
:203C60009F5F9370990F990F837F892B88830E94A725DC01CB018A569F4FAF4FBF4F898335
:203C80009A83AB83BC83898580FD33C08D819E81AF81B8858F3F9F4FAF4FBF4F51F188816F
:203CA000869586958370813021F580918F21803100F5CE010E94CD1D0097D9F0E0918F21D1
:203CC000AFE6B1E220E0E21739F04D915D918417950779F02F5FF7CFE03158F421E02E0F3F
:203CE00020938F21F0E0EE0FFF1FE159FE4D80839183812FDF91CF911F910895CF93DF9339
:203D0000CDB7DEB76397CDBFDEBFE0E9F1E28FEF828B118A108A8B8B1A8A198A10928F215C
:203D20006396CDBFDEBFDF91CF910895CF93DF93FC01208121FF13C0EC0105960E947801EC
:203D40006D837E838F839887CE010A960E9478016A877B878C879D8788818D7F8883DF91FD
:203D6000CF910895CF93C82F0E94A725609308227093092280930A2290930B228091002272
:203D8000CC3F21F481608093002279C0CD3FD1F482608E7F809300221092FE218FEF9FEFF2
:203DA0008093FC219093FD218091A3218E7F82608093A3211092B1216CEF71E28DEF0E94B7
:203DC000F61D5DC081FF5BC080FF04C0C0688E7F809300226CEF71E28C2F0E94F61D40917C
:203DE000FE21E42FF0E0E855FE4DC083443049F48091AC21982F97709330C9F183FF37C0A3
:203E000039C08091B121493041F4893498F1809100228D7F809300222DC050E060E070E0B1
:203E200090E0A0E0B0E00996A11DB11D481759076A077B07F9F48091FC219091FD21892B17
:203E4000C9F483EA91E20E94961E8091B12182508093B121809100228D7F80930022809150
:203E6000A32181608093A32183EA91E20AC088E08093FE218091FE218F5F8093FE2180E0D2
:203E800090E0CF9108950F931F93CF93DF93C0910122D0910222209709F4BCC08C019091B6
:203EA00005228091072291112EC081FD2CC08260809307228FEF9FEF8093032290930422FC
:203EC000888181FD13C0CE0105960E9478016D837E838F839887CE010A960E9478016A8766
:203EE0007B878C879D87888182608883888184FD02C08DEF01C08EEFF801808363E072E2FA
:203F00000E94F61D82C081FF82C0888184FF84C0911182C0F801108283E08093052240913B
:203F20000522443049F48985982F9770933009F47AC083FF78C017C0493029F4F8018081B2
:203F40008E5F808310C050E060E070E08E8590E0A0E0B0E00B96A11DB11D84179507A6073D
:203F6000B70708F457C08091072280FD40C063E072E2F80180810E94F61D4091052250E04B
:203F800060E070E08E8590E0A0E0B0E00996A11DB11D481759076A077B07E1F463E072E2B5
:203FA00080E00E94F61D63E072E280E00E94F61D2596809105228F5FFE01E80FF11D80914A
:203FC00004228083809105228E5FC80FD11D809103228883F80180818C5F833088F4809168
:203FE00007228160809307228CEF80830EC0F80180818F778083809107228E7F80930722A9
:20400000809105228F5F8093052281E010C0CE010E94961E80E00BC0FE01E90FF11D8581B4
:20402000F80180837CCF88E0809305229CCFDF91CF911F910F910895EF92FF921F93CF9349
:20404000DF931F92CDB7DEB77C0180910D2290910E22892B81F088E092E20E94C9256830ED
:2040600071058105910548F4D70119968C918770813089F702C081E06FC0E0920122F0923D
:20408000022210920522809107228D7F80930722D70119968C9180FD06C0F7019081969596
:2040A00096959370B1F180910D2290910E22DC01ED91FC910190F081E02D61E0099510E0D9
:2040C000CE0101960E94431FA0910D22B0910E22882389F089811296ED91FC911397948105
:2040E00093FD05C012E0ECCF948193FF1BC0918195FFFACF17C01296ED91FC911397818197
:2041000080648183818186FD0FC0848183FF0CC0F9CF90910C229370990F897F892BF7019A
:204120008187C1CF8083CCCFED91FC9111970190F081E02D60E0CD01099511110AC0F701F7
:20414000818580FD08C080910C228F5F80930C2202C0812F01C080E00F90DF91CF911F91F4
:20416000FF90EF900895109208221092092210920A2210920B220E94A72587E5E3EAF1E2E4
:20418000DF011D928A95E9F708950F931F93CF93DF931F92CDB7DEB78C016983CE01019623
:2041A0000E946324F8018083898182958F700E94CA23F8018183928330812FB7F894309333
:2041C000B00038E1FC01308B2FBF0F90DF91CF911F910F910895FC018081A181B281169615
:2041E0008C938081A181B28111968C938FEB92E10197F1F700C000002FB7F8948081A181C2
:20420000B28112968C93AFE0B2E01197F1F700C000008081A181B28118963C91AFEEBCE029
:204220001197F1F700C00000A181B28118964C919081942311F0832301C081E02FBF089532
:20424000FC01862F2FB7F8949081A181B28111969C9395E19A95F1F70000662329F09081BE
:20426000A181B28112969C93A0E8AA95F1F7A181B28118963C919081932309F480E0A7E6E2
:20428000B1E01197F1F700C0000090810180F281E02D9283BAE6BA95F1F700C02FBF0895F4
:2042A0000F931F93CF93DF938C01C62FD8E06C2F6170C8010E9420212C2F30E03595279593
:2042C000C22F8111C068D15091F78C2FDF91CF911F910F910895BF92CF92DF92EF92FF92DD
:2042E0000F931F93CF93DF937C01C62E8A010E94EB2081113BC060EFC7010E945021D0E086
:20430000C0E498EFB92EBC0E61E0C7010E942021D82E61E0C7010E942021882319F0DD2032
:2043200071F026C0D1100BC0CC1530F0F801808180FF05C0CC1519F0DC2FDD24D3946D2D54
:20434000C7010E942021F801208130E035952795DD2011F02068F8012083C150CB11D4CFD0
:204360000F5F1F4FC111CDCF8D2F03C08FEF01C08EEFDF91CF911F910F91FF90EF90DF901B
:20438000CF90BF900895CF92DF92FF920F931F93CF93DF93EC01F62E8A010E94EB200115E8
:2043A000110591F065E5CE010E945021680188E0C80ED11CF80161918F01CE010E94502149
:2043C0000C151D05B9F704C06CECCE010E9450216F2DCE01DF91CF911F910F91FF90DF9063
:2043E000CF900C945021CF93FC01680F791F2CEB31E652ECADE9B3E2C6E48CE8E617F7072F
:20440000B9F09191942790FF02C04EE501C040E091FD422792FD432793FD452794FD4A27C3
:2044200095FD4B2796FD4C2797FFE8CF4827E6CF842FCF91089508951F93CF93DF93EC0141
:204440000E946324182F888182958F700E94CA23FC011683DF91CF911F9108951F93CF9377
:20446000DF93EC010E946324182F888182958F700E94CA23FC011583DF91CF911F9108950D
:20448000009769F020910B2030910C2042E28E329407E0F382179307C8F70C94F1260895CB
:2044A0000C944022CF93DF93EC010E94592620910B2030910C2042E28E329407E0F3821764
:2044C0009307C8F72197C80FD91F42E2CE32D407E0F3C217D307C8F7DF91CF9108950C94AB
:2044E00052228111FFCF80E092E008958115924099F480910F228F3F79F0811108C09FB75B
:20450000F894809171008D7F809371009FBF80910F228F5F80930F220895CF93DF93E0ECEE
:20452000F1E032852FB7F8948287A8E4B0E05C919C918C91809589238C93C0EAD0E0488122
:204540009A818A81887F84608A838C9181608C93858568ED64BF61E0638763E06587789438
:2045600088955C9348839A83858732872FBFDF91CF9108950E947A178091CF0181FF03C0D0
:2045800086E30C948D220895CF93DF93D82FC091CA010E94BA220E947A1783E38093CA01DA
:2045A0001092C2011092C10180E08093C001D093C4018F5F8032C9F7C093CA01DF91CF9188
:2045C00008958F929F92AF92BF92CF92DF92EF92FF920F931F93CF93DF938C015B017A01EA
:2045E00090518115944018F080E090E034C0CA019051800F911F81159440B0F7C12CD12CBE
:2046000080E2982EE114F10429F1802E802F8F71C92DC81B8C2F90E0E816F90608F4CE2D19
:204620000E94BA22D0E0AE01B501C8010E947A271092C2011093C1018092C00185E30E9434
:204640008D22AC0EBD1EEC1AFD0ACC0EDD1E0C0F1D1FD8CFC601DF91CF911F910F91FF90C0
:20466000EF90DF90CF90BF90AF909F908F900895FF920F931F93CF93DF931F92CDB7DEB7F1
:204680008C0169838091CC0183FF11C0011580E1180708F4105F41E050E0BE016F5F7F4FC3
:2046A000C8010E94E12221E0892BF9F404C0011584E0180710F020E018C0F090CA010E94C8
:2046C000BA220E947A1783E38093CA011092C2011093C1010093C00189818093C40185E31F
:2046E0000E948D22F092CA0121E0822F0F90DF91CF911F910F91FF900895EF92FF920F93CB
:204700001F93CF93DF938A012091CC0123FF0EC0811520E1920708F4905FA801DF91CF9186
:204720001F910F91FF90EF900C94E1227B01EC01C61BD70BCE018E0D9F1D0115110551F0B9
:20474000F70161917F010E943823882331F001501109F0CF80E090E001C0C801DF91CF91D2
:204760001F910F91FF90EF9008951F920F920FB60F9211248F93EF93FF93E0ECF1E0858574
:204780008C7F8587FF91EF918F910F900FBE0F901F9018958D3048F4E82FF0E0EE0FFF1F70
:2047A000EF53FF4D80819181089580E192E208958FEF809318220895CF92DF92EF92FF92FD
:2047C0000F931F93CF93DF939C01240F351F2130314098F48A01EB016B01C40ED51E7C011A
:2047E000E61AF70AB7016C0F7D1FCC15DD0541F081E00E940A248993F5CF80E090E001C053
:20480000C801DF91CF911F910F91FF90EF90DF90CF9008954091CA01E62FF72F8093CA0181
:2048200084914093CA010895833029F0843051F0823029F003C080E099E00895FFCF80E035
:2048400098E0089580E09AE00895823041F0833019F480E499E0089580E090E0089580E4DE
:2048600098E008956295607F4F70642BFC0160830895CF93DF93FC018081982F9F70C1E039
:20488000D0E001C0CC0F9A95EAF782958F700E94CA23FC01C283DF91CF910895CF93DF9394
:2048A000FC018081982F9F70C1E0D0E001C0CC0F9A95EAF782958F700E94CA23FC01C18341
:2048C000DF91CF910895FC0190819F7081E001C0880F9A95EAF70895CF93DF93EC0188811E
:2048E00082958F700E94CA23FC01308528812F7081E090E001C0880F2A95EAF78323DF913A
:20490000CF910895FC018081282F2F7030E02430310524F482958F700C94142480E090E036
:204920000895FC0180819CE0980F9F70923020F482958F700C94252480E090E00895CF9207
:20494000DF92EF92FF921F93CF93DF936C01142F79010E943224C6010E944E24C6010E94E8
:204960008224EC01C6010E949124FC012097B1F08881807F816088838981887F836089833D
:20498000EEA2FFA229811C5F81E090E001C0880F1A95EAF7807F822B898316C0892BA1F035
:2049A0008081807F816080838181887F83608183E6A2F7A2218181E090E001C0880F1A9588
:2049C000EAF78073822B8183DF91CF911F91FF90EF90DF90CF9008950F931F93CF93DF9331
:2049E0008C010E948224EC01C8010E9491242097A1F0F80180818F7019F488A599A51DC03F
:204A0000813019F48AA59BA518C0823019F48CA59DA513C08EA59FA510C0009761F0F80164
:204A200020812F70FC01243019F480A591A505C082A593A502C080E090E0DF91CF911F9147
:204A40000F910895EF92FF920F931F93CF93DF937C01EB010E9482248C01C7010E94912482
:204A60000115110579F0F70180818F70F80191F0813099F0823019F4C4AFD5AF10C0C6AFFA
:204A8000D7AF0DC0009759F0F70120812F70FC01243019F4C0AFD1AF02C0C2AFD3AFDF9139
:204AA000CF911F910F91FF90EF9008959091010490FDFCCF90910004987F892B8093000416
:204AC00008951F93CF93DF93182FEB0180E00E945625809143008E7F80934300153031F4E2
:204AE000C115D04219F483E09EE002C081E094E020914300217F2160922B90934300209160
:204B00000804309109043C5F40910804509109049091010490FDFCCF6FEF7FEF60930A040A
:204B200070930B049091010490FDFCCF40930804509309049091010490FDFCCF20930C04D5
:204B400030930D04DF91CF911F910C94562531E02FB7F8944091030440FF0CC04091282265
:204B6000509129224F5F5F4F4093282250932922309303044091080450910904BA012FBF24
:204B80002091030420FDE4CF80912822909129220895CF92DF92EF92FF920F931F93CF938F
:204BA000DF93EC010E94A725088119812A813B816B017C01C01AD10AE20AF30A6017710728
:204BC0008207930760F4C701B601615071098109910997FF06C060E070E0CB0102C0C7014E
:204BE000B601DF91CF911F910F91FF90EF90DF90CF900895AA1BBB1B51E107C0AA1FBB1F2E
:204C0000A617B70710F0A61BB70B881F991F5A95A9F780959095BC01CD01089597FB072E7F
:204C200016F4009407D077FD09D00E94FA2507FC05D03EF4909581959F4F08957095619526
:204C40007F4F0895A1E21A2EAA1BBB1BFD010DC0AA1FBB1FEE1FFF1FA217B307E407F50790
:204C600020F0A21BB30BE40BF50B661F771F881F991F1A9469F760957095809590959B0162
:204C8000AC01BD01CF010895A29FB001B39FC001A39F700D811D1124911DB29F700D811D8B
:204CA0001124911D0895EE0FFF1F0590F491E02D09940F931F93CF93DF938230910510F421
:204CC00082E090E0E0912C22F0912D2220E030E0A0E0B0E0309719F14081518102811381D8
:204CE00048175907C8F08417950769F4109731F012960C93129713961C9327C000932C22D1
:204D000010932D2222C02115310519F04217530718F49A01BD01EF01DF01F801DBCF211589
:204D20003105F9F0281B390B2430310580F48A819B816115710521F0FB018283938304C0D0
:204D400080932C2290932D22FE01329644C0FE01E20FF31F81939193225031092883398368
:204D60003AC020912A2230912B22232B41F4209102203091032020932A2230932B22209134
:204D80000020309101202115310541F42DB73EB74091042050910520241B350BE0912A2260
:204DA000F0912B22E217F307A0F42E1B3F0B2817390778F0AC014E5F5F4F2417350748F06D
:204DC0004E0F5F1F40932A2250932B228193919302C0E0E0F0E0CF01DF91CF911F910F912F
:204DE0000895CF93DF93009709F481C0FC01329712821382A0912C22B0912D22109781F453
:204E000020813181820F931F20912A2230912B222817390751F5E0932A22F0932B2267C076
:204E2000ED0120E030E0CE17DF0740F44A815B819E0141155105F1F0EA01F5CFC283D38358
:204E400040815181840F951FC817D90759F488819981840F951F0296808391838A819B812C
:204E6000828393832115310529F4E0932C22F0932D223DC0E901EA83FB8349915991C40F92
:204E8000D51FEC17FD0761F480819181840F951F0296E90188839983828193818A839B837D
:204EA000E0E0F0E012968D919C911397009719F0FD01DC01F7CF8D919C9111979D012E5F66
:204EC0003F4F820F931F20912A2230912B222817390769F4309729F410922C2210922D2255
:204EE00002C012821382A0932A22B0932B22DF91CF910895FB01DC0102C001900D924150EF
:204F00005040D8F70895DC0101C06D9341505040E0F70895F894FFCF00002E222000010097
:204F20003D8F602E2ACC00C80202FFCC00C80505FF0000000009179901AF010D170000002B
:204F400000E307E007C603DD0500000000E307E007C603DD0500000000E307E007BF03DBEB
:204F600003000000001B221B2269066B0600000000D706D406CD06E00600000000E307E09A
:204F800007C603DD050000000009170A170F0B1C0A00000000B50B4F0B550B0D1700000040
:204FA000008F0CEF0B950DF50B000000000917BE0ED610C80E0000000009170A178F145ED0
:204FC00015000000007D150000000035160000000009170A170C170D170006200640066085
:184FE0000680061022102210221022102210221022E00700038C1D003C
:00000001FF
