:200000000C9406405941F8410A46A34611241FBECFEFCDBFDFE2DEBF80E08CBF67E280E8D8
:2000200090E00E94A7418091820080FDFCCF60E081E490E00E94A7418091500086608093F2
:2000400050008091510086708630D9F760914000687F616080E490E00E94A74180914000EA
:20006000809150008E7F80935000809150008091600081608093600010E2A0E0B0E2EAE9B2
:20008000FEE802C005900D92AE30B107D9F720E2AEE0B0E201C01D92AA39B207E1F710E424
:2000A000C6E0D0E404C02197FE010E940947C230D107C9F70E94B9400C944B47FC01638141
:2000C0007281818190810895CF93DF93CDB7DEB76C97CDBFDEBF28E130E0AE014F5F5F4F40
:2000E0006CEF71E080E090E00E9418464897B9F58F898D7F803B99F589899A89AB89BC89DC
:200100000197A109B1091092C0011092C1011092C2018093C401492F5A2F6B2F77274093D3
:20012000C501CD01AA27BB278093C6018AE30E94A7468091C6018091C5018091C40110927B
:20014000CA0169897A898B899C8924E030E0AE01475E5F4F0E94184681E0809312206C96E8
:20016000CDBFDEBFDF91CF9108951CBEE0E0F0E00994CF93DF9300D000D0CDB7DEB780E0F5
:2001800090E00E941847813029F061E080E090E00E94284760E074E082E00E9468418091B0
:2001A000CF0187FDFCCF8091CC0188608093CC018EE090E28093802090938120E091102082
:2001C000F0911120178287E6868383E2858388E1848382EB8093192080E090E180931720AD
:2001E000909318208091061090910710A0910810B091091089839A83AB83BC83CE010196A6
:200200000E945E408B019C011D532F483046003816492849310540F460930120709302206D
:200220008093032090930420809116208260809316200E9464408FE7F82E809112208823FF
:2002400021F08091780085FF31C08091162084FF07C08F7E80931620F09278000E94644068
:200260000E9489448C010097C9F0FC01808180FF04C081E09585973709F080E08093132009
:20028000882321F0109212200E94C641C8010E94B742882319F0C8010E947A450E94A0425F
:2002A000809113200E94D141A895C7CF0E94B540CCCF8EE090E20C94B9419091010490FD14
:2002C000FCCF90910004987F892B80930004089580914300817F8560809343008091080403
:2002E000909109042091010420FDFCCF2FEF3FEF20930A0430930B042091010420FDFCCFB5
:2003000080930804909309048091010480FDFCCF10920C0410920D0481E00C945D4180911B
:2003200008049091090408952091080430910904FC0140815181C901841B950B241735074B
:2003400028F4019797FF02C080E090E00895FC019FB7F8941BBE88ED84BF60839FBF0895D6
:2003600081E0662319F08093E50708958093E607089529E030E2FC012083318320EA3AE0BE
:200380002283338380E4809301060895809100208F5F823018F48093002008951092002078
:2003A0000895E0910020882359F080910406F0E0E55FFF4D8F7B9081892B80930406089517
:2003C000EE2329F080E4809306061092002084E190E20E949441853F914048F080E480931C
:2003E00007060E948F4180931420909315200895E0EEF7E081E082838183E0E8F6E084E031
:20040000828388E0828381830E948F4180931420909315200895FC01808180FF03C081E017
:200420009585961380E008958091CF0187FDFCCF08954F925F926F927F928F929F92AF92B8
:20044000BF92CF92DF92EF92FF920F931F93CF93DF93CDB7DEB7C555D109CDBFDEBF982E43
:20046000E0911720F0911820108100911920C0900120D0900220E0900320F09004200E94F4
:200480008F41CE0101965C0185E5F50111928A95E9F7C986DA86EB86FC868FEF9FEFDC013C
:2004A0008C839D83AE83BF8388EF888781E48E879F86088B198B82E08A8B80E68B8B88E4DF
:2004C0008C8B82E48D8B87E58E8B8E01025E1F4F4E01F7E18F0E911C8AE0482E512C612C4A
:2004E000712CC701B601A30192010E94E746605DF80162938F01C114D104E104F104E9F43E
:200500008016910671F780E18D87C5010E947A45CB5ADF4FCDBFDEBFDF91CF911F910F910E
:20052000FF90EF90DF90CF90BF90AF909F908F907F906F905F904F90089569017A01E0CFF6
:200540008091162081FF12C08DE790E20E949441099708F4089580E00E941942811106C0B7
:20056000809116208D7F8093162008950895EF92FF920F931F93CF93DF93EC010E94954304
:20058000082F882309F4C8C08F8180FDC5C062E5CE010E940B42882399F08C85843009F0EB
:2005A000BBC01889412F50E06E857F857627672776277061CE010D960E940F471C875AC0C8
:2005C00065E7CE010E940B42882321F080911620886009C067E6CE010E940B42882331F086
:2005E0008091162080618093162028C060E7CE010E940B42882329F01D8680E48E8782E05B
:2006000038C067E7CE010E940B428823C9F08C85843008F481C0E888F12C6E857F8576274F
:200620006727762780E090E09701AE014F5E5F4F0E944546E816F90609F06EC011E01BC000
:2006400062E7CE010E940B42882309F465C08C85843009F061C0288930E06E857F85762792
:200660006727762780E090E0AE01435F5F4F0E9418468C8710E08B819C81AD81BE818F3F19
:200680009F4FAF4FBF4F09F447C08091162086FF06C065E7CE010E940B428823E9F12F818B
:2006A000822F8770833021F023FB222720F901C020E088859985AA85BB858B839C83AD8396
:2006C000BE838091012090910220A0910320B091042088879987AA87BB878F8186958370EB
:2006E000112321F099E19F831C8602C098E99F838370982F9295990F907E8F818F79892BAF
:200700008F83211102C0877F8F8381E02827888120FB84F9888301C000E0802FDF91CF913F
:200720001F910F91FF90EF900895FC01208120FF17C0438154816581768180910120909161
:200740000220A0910320B0910420481759076A077B0741F081E04F3F5F4F6F4F7F4F19F0A9
:2007600080E0089581E00895FB0198E0408151819A01220F331F87FD21602083318357FFA7
:2007800008C02081318142E0242740E1342720833183880F915051F70895CF93DF93FC01D0
:2007A000208121FF13C0EC0103960E945E406B837C838D839E83CE0108960E945E40688725
:2007C00079878A879B8788818D7F8883DF91CF910895FC01218125FD03C0248123FDF9CF48
:2007E0000895FC01818180648183818186FD03C0848183FDFACF0895CF93C82F0E948F4177
:2008000080937D2090937E2080917520CC3F21F481608093752079C0CD3FD1F482608E7F1F
:2008200080937520109273208FEF9FEF809371209093722080911A208E7F826080931A20EF
:200840001092262061E770E28DEF0E94B4435DC081FF5BC080FF04C0C0688E7F8093752029
:2008600061E770E28C2F0E94B44340917320E42FF0E0E35EFF4DC083443049F48091212070
:20088000982F97709330C9F183FF37C039C080912620493041F4893498F1809175208D7F9E
:2008A000809375202DC050E060E070E090E0A0E0B0E00996A11DB11D481759076A077B0786
:2008C000F9F48091712090917220892BC9F48AE190E20E94CD438091262082508093262054
:2008E000809175208D7F8093752080911A20816080931A208AE190E20AC088E08093732070
:20090000809173208F5F8093732080E090E0CF910895E0918020F0918120309779F00280ED
:20092000F381E02D818187FF09C0818187FFFDCF918180819C7111F40C94FC4380E090E0BD
:2009400008950F931F93CF93DF93C0917620D0917720209709F4BCC08C0190917A2080916A
:200960007C2091112EC081FD2CC0826080937C208FEF9FEF8093782090937920888181FD56
:2009800013C0CE0103960E945E406B837C838D839E83CE0108960E945E40688779878A8711
:2009A0009B87888182608883888184FD02C08DEF01C08EEFF801808368E770E20E94B443E3
:2009C00082C081FF82C0888184FF84C0911182C0F801108283E080937A2040917A204430E5
:2009E00049F48F81982F9770933009F47AC083FF78C017C0493029F4F80180818E5F8083D1
:200A000010C050E060E070E08C8590E0A0E0B0E00B96A11DB11D84179507A607B70708F4EA
:200A200057C080917C2080FD40C068E770E2F80180810E94B44340917A2050E060E070E016
:200A40008C8590E0A0E0B0E00996A11DB11D481759076A077B07E1F468E770E280E00E94B0
:200A6000B44368E770E280E00E94B443239680917A208F5FFE01E80FF11D809179208083E2
:200A800080917A208E5FC80FD11D809178208883F80180818C5F833088F480917C208160A3
:200AA00080937C208CEF80830EC0F80180818F77808380917C208E7F80937C2080917A2024
:200AC0008F5F80937A2081E010C0CE010E94CD4380E00BC0FE01E90FF11D8381F801808399
:200AE0007CCF88E080937A209CCFDF91CF911F910F910895CF92DF92EF92FF920F931F9336
:200B0000CF93DF931F92CDB7DEB77C018091802090918120892B69F08DE790E20E949441DD
:200B2000099748F4D70117968C9187708130A1F702C081E065C0E0927620F09277201092EC
:200B40007A2080917C208D7F80937C20D70117968C9180FD07C0F70190819695969593704B
:200B600009F444C08091802090918120DC01ED91FC910190F081E02D61E0099510E0CE016C
:200B800001960E94A144E0918020F0918120882379F0C280D380F601848183FD02C012E02B
:200BA000EECF0981C6010E94E943D6010C93E7CF828193810E94F1438091802090918120CD
:200BC000DC01ED91FC910190F081E02D60E0099511110AC0F701878180FD11C080917F2056
:200BE0008F5F80937F200BC0812F0AC090917F209370990F897F892BF7018783B3CF80E005
:200C00000F90DF91CF911F910F91FF90EF90DF90CF90089510927D2010927E200E948F41AB
:200C200085E5EAE1F0E2DF011D928A95E9F70895CF92DF92EF92FF926B017C01C20ED31EF4
:200C4000E11CF11CC114E0E9DE06E104F104A0F4DA01420F531FA417B50789F06B017C0123
:200C6000EFEFCE1ADE0AEE0AFE0A8BBFFB0167916D93C701B601EFCF80E090E001C0C901F0
:200C8000FF90EF90DF90CF9008958F929F92AF92BF92CF92DF92EF92FF920F931F93CF935D
:200CA000DF93CDB7DEB7DA95CDBFDEBF6B017C01C20ED31EE11CF11CE1E0CE16E0E8DE060C
:200CC000E104F10470F589015A016B017C014B019924C818D908E108F10820E031E0AE019B
:200CE0004F5F5F4FC701B6010E941846A801B50181E090E08C0F9D1F880D991D0E940F474F
:200D0000CE0101960E94B6468091CF0187FDFCCF45E2C701B6010E94DC471092CA01C801FE
:200D200002C080E090E0D395CDBFDEBFDF91CF911F910F91FF90EF90DF90CF90BF90AF9006
:200D40009F908F9008958FEF80938A200895E0ECF1E0928582878FB7F8941BBE28ED24BF70
:200D600021E02093CB018FBF92870895CF92DF92EF92FF92CF93DF937C010E94144246E29A
:200D800060E070E0CB010E94DC47E701C12CD12C76018881498150E0542F4427480F511D33
:200DA000C701B6010E94EB47229682E0C80ED11CE11CF11CC11481E0D806E104F10449F7CB
:200DC000DF91CF91FF90EF90DF90CF900895A1E21A2EAA1BBB1BFD010DC0AA1FBB1FEE1FE9
:200DE000FF1FA217B307E407F50720F0A21BB30BE40BF50B661F771F881F991F1A9469F779
:200E000060957095809590959B01AC01BD01CF010895EE0FFF1F0590F491E02D0994FB014F
:200E2000DC0102C001900D9241505040D8F7089503D0808199270895E0ECF1E0378537FD98
:200E4000FDCF348538603487FC01E050F04F0895262FE0ECF1E0378537FDFDCF3485377F94
:200E60003487378531FF09C036E3328738ED34BF31E03387378537FDFDCF33E332878083BF
:200E800091831282248325E3228728ED31E024BF338701960895F894FFCF01003D8F6000D4
:080EA000000000B04100400019
:00000001FF
