:200000000C940F010C9475010C9475010C9475010C9475010C9475010C9475010C94750196
:200020000C9475010C9475010C9475010C9475010C9475010C9475010C9475010C94750110
:200040000C9475010C9475010C9475010C9475010C9475010C9475010C9475010C947501F0
:200060000C9475010C9475010C9475010C9475010C9475010C9475010C9475010C947501D0
:200080000C94342D0C9475010C9475010C9475010C9475010C9475010C9475010C947501C5
:2000A0000C9475010C9475010C9475010C94CA020C9475010C9475010C9475010C9475013A
:2000C0000C9475010C9475010C9475010C9475010C9475010C9475010C9475010C94750170
:2000E0000C9475010C9475010C9476020C9475010C9475010C9475010C9475010C9475014E
:200100000C9475010C9475010C9475010C9475010C9475010C9475010C9475010C9475012F
:200120000C9475010C9475010C9475010C9475010C9475010C9475010C9475010C9475010F
:200140000C9475010C9475010C9475010C9475010C9475010C9475010C9475010C947501EF
:200160000C9475010C9475010C9475010C9475010C9475010C9475010C9475010C947501CF
:200180000C9475010C9475010C9475010C9475010C9475010C9475010C9475010C947501AF
:2001A0000C9475010C9475010C9475010C9475010C9475010C9475010C9475010C9475018F
:2001C0000C9475010C9475010C9475010C9475010C9475010C9475010C9475010C9475016F
:2001E0000C9475010C9475010C9475010C9475010C9475010C9475010C947501244D4F4461
:2002000024204842572D444556202000146800000248B0544802FB02DD28102B572D112463
:200220001FBECFEFCDBFDFE2DEBF80E08CBF67E280E890E00E9457028091820080FDFCCF97
:2002400060E081E490E00E945702809150008660809350008091510086708630D9F7609115
:200260004000687F616080E490E00E94570280914000809150008E7F809350008091500044
:200280008091600081608093600011E2A0E0B0E2E0E1F7E602C005900D92A430B107D9F7A4
:2002A00022E2A4E0B1E201C01D92A434B207E1F7E4E4F2E288E49AE28193E434F907E0F3C7
:2002C00083E590E38193E030F907E0F311E0CFE0D1E004C02197FE010E94CC31CB30D1070E
:2002E000C9F70E940C020C9486330C940000CF93FC01680F791F2CEB31E652ECADE9B3E290
:20030000C6E48CE8E617F707B9F09191942790FF02C04EE501C040E091FD422792FD4327E9
:2003200093FD452794FD4A2795FD4B2796FD4C2797FFE8CF4827E6CF842FCF910895FC0197
:20034000638172818181908108950F931F93CF93DF9300D000D0CDB7DEB76115710509F44C
:2003600053C0DB01182F609377217093782160932322709324221296ED91FC9113971782A9
:2003800087E6868383E2858388E184831296ED91FC91139793819F7C9061938390917921BC
:2003A000916090937921ED91FC910280F381E02DCB01099510937C2180937A2190937B216A
:2003C000FC0186819781A085B18589839A83AB83BC83CE0101960E949F018B019C011D53CF
:2003E0002F483046003816492849310540F460930A2070930B2080930C2090930D208091B3
:2004000079218260809379212496CDBFDEBFDF91CF911F910F910895CF93DF93CDB7DEB726
:200420006897CDBFDEBF60E074E082E00E9422318091CF0187FDFCCF8091CC0188608093A0
:20044000CC0148E150E0BE016F5F7F4F80E090E00E945B2D489711F080EB8F8B8F890E9402
:2004600024088C01BC018F890E94A501D801ED91FC910280F381E02DC8010995FC01868154
:2004800097810E9444338091A2008F7B9FB7F8941BBE28ED24BF8093A2009FBF8091A200F5
:2004A00087608093A20078940E943214FDCFFC019FB7F8941BBE88ED84BF60839FBF089592
:2004C00080E00895089522E230E2FC012083318320EA3AE022833383E0E8F6E081858C7FEA
:2004E0008160818782858460828708951F920F920FB60F9211242F933F934F935F936F932B
:200500007F938F939F93AF93BF93EF93FF938091A00A0E940229009761F10E944A248111BA
:2005200023C088EB91E20E946F249C01892BE1F08091B5218830C1F09091B7219F5F909331
:20054000B7219091B72197709093B7219091B5219F5F9093B521E091B721F0E0EE0FFF1FA6
:20056000EB55FE4D2083318380918A06846080938A06FF91EF91BF91AF919F918F917F9171
:200580006F915F914F913F912F910F900FBE0F901F9018951F920F920FB60F9211242F93E5
:2005A0003F934F935F936F937F938F939F93AF93BF93EF93FF930E94CF3060931D227093AF
:2005C0001E2280931F2290932022E0E8F6E082858B7F8287FF91EF91BF91AF919F918F917A
:2005E0007F916F915F914F913F912F910F900FBE0F901F901895E0E8F6E084E0828388E0B5
:20060000828381830895809108068295817091E08927089580E090E1089581E0662319F0EE
:200620008093E50708958093E6070895CF93C62F8091082181110DC00E94CF3060930421D8
:2006400070930521809306219093072181E080930821C53050F4C23078F4CC2349F0C1309F
:2006600059F582E08093E50727C0C53079F024C082E08093E60720C084E091E20E94F130C6
:20068000653F714081059105B8F009C084E091E20E94F130693C71058105910568F082E0ED
:2006A0008093E7070E94CF3060930421709305218093062190930721CF910895CF92DF9203
:2006C000EF92FF920F93CF93DF9300D0CDB7DEB77C016B010E9463028EE290E2F7018083DC
:2006E000918340E060E0CE0101960E944D2E20E030E040E150E16981C70104960E943D2056
:2007000041E060E0CE0101960E944D2E20E030E042E150E16981C70183960E943D2042E0A5
:2007200060E0CE0101960E944D2E20E030E044E150E16981C7018E5B9F4F0E943D2043E0E5
:2007400060E0CE0101960E944D2E20E030E046E150E16981C7018F599F4F0E943D2040E0C7
:200760006DE0CE0101960E944D2E40E062E0CE0102960E944D2E08E028E130E149816A810C
:20078000C70180589F4F0E94021541E06DE0CE0101960E944D2E41E062E0CE0102960E94B5
:2007A0004D2E2AE130E149816A81C7018E559F4F0E94021542E06DE0CE0101960E944D2EA9
:2007C00042E062E0CE0102960E944D2E2CE130E149816A81C7018C539F4F0E94021543E0ED
:2007E0006DE0CE0101960E944D2E43E062E0CE0102960E944D2E2EE130E149816A81C701A3
:200800008A519F4F0E94021540E250E16EE1C701885F9E4F0E944F2344ED50E16FE0C7018B
:20082000835F9E4F0E94922BE0EEF7E081E08283818382E08283818380E180930206E1EFC4
:20084000F7E0808180648083E4E1F6E08081877C8083808188618083F701148A13AAEE5AAF
:20086000FF4F10827F96108260E082E00E94932DFC018181887F8360818380ECC81A89EF3A
:20088000D80AC6A2D7A28081807F816080830F900F90DF91CF910F91FF90EF90DF90CF9027
:2008A000089580E090E1089589599B4F61110C94B22B0C94A02BCF93DF93EC018A569F4F78
:2008C0000E94B42E811107C0CE018B549F4F0E94B42E91E0811190E0892FDF91CF91089583
:2008E000CF93DF931F92CDB7DEB7DC011F966C931F9754968D919C915597009779F0611180
:200900000DC02DEF2983DC01ED91FC910190F081E02DAE014F5F5F4F61E009950F90DF9152
:20092000CF9108958F929F92AF92BF92CF92DF92EF92FF920F931F93CF93DF931F92CDB795
:20094000DEB77C01C62EB42E122FD02E0E9463028AE390E2F7018083918340E060E0CE014C
:2009600001960E944D2E20E030E040E150E16981C70104960E943D2041E060E0CE0101964F
:200980000E944D2E20E030E042E150E16981C70183960E943D2042E060E0CE0101960E94A2
:2009A0004D2E20E030E044E150E16981C7018E5B9F4F0E943D2043E060E0CE0101960E9463
:2009C0004D2E20E030E046E150E16981C7018F599F4F0E943D2044E060E0CE0101960E9441
:2009E0004D2E20E030E048E150E16981C70180589F4F0E943D2045E060E0CE0101960E942E
:200A00004D2E20E030E04AE150E16981C70181569F4F0E943D2040E061E0CE0101960E9410
:200A20004D2E20E030E04CE150E16981C70182549F4F0E943D2041E061E0CE0101960E94EE
:200A40004D2E20E030E04EE150E16981C70183529F4F0E943D2042E061E0CE0101960E94CC
:200A60004D2E20E030E040E250E16981C70184509F4F0E943D2043E061E0CE0101960E94B9
:200A80004D2E20E030E042E250E16981C701855E9E4F0E943D2046E062E0CE0101960E9485
:200AA0004D2E20E030E044E250E16981C701865C9E4F0E943D2047E062E0CE0101960E9463
:200AC0004D2E20E030E046E250E16981C701875A9E4F0E943D2040E062E0CE0101960E9449
:200AE0004D2E04E6212F48E250E16981C70188589E4F0E94F52041E062E0CE0101960E9445
:200B00004D2E212F4AE250E16981C7018D569E4F0E94F52042E062E0CE0101960E944D2E8D
:200B2000212F4CE250E16981C70182559E4F0E94F52043E062E0CE0101960E944D2E212FA1
:200B40004EE250E16981C70187539E4F0E94F52044E062E0CE0101960E944D2E212F40E3A8
:200B600050E16981C7018C519E4F0E94F52045E062E0CE0101960E944D2E212F42E350E181
:200B80006981C70181509E4F0E94F52040E063E0CE0101960E944D2E20E044E350E1698106
:200BA000C701865E9D4F0E94F52041E063E0CE0101960E944D2E20E046E350E16981C701F3
:200BC0008B5C9D4F0E94F52042E063E0CE0101960E944D2E20E048E350E16981C701805BBA
:200BE0009D4F0E94F52043E063E0CE0101960E944D2E20E04AE350E16981C70185599D4F8F
:200C00000E94F52044E063E0CE0101960E944D2E20E04CE350E16981C7018A579D4F0E94B2
:200C2000F52045E063E0CE0101960E944D2E20E04EE350E16981C7018F559D4F0E94F52019
:200C4000870104541D4F6B2DC8010E94CA2E40E450E1B801C70183549D4F0E94B91946E416
:200C600050E1B801C70183529D4F0E94B9194CE450E1B801C70183509D4F0E94B91942E551
:200C800050E1B801C701835E9C4F0E94B91948E550E1B801C701835C9C4F0E94B9194EE512
:200CA00050E1B801C701835A9C4F0E94B91940E750E160EA74E0C70183589C4F0E94632598
:200CC00004521F4F24E630E146E060E0C8010E94A80A4701F4E48F1AFCEF9F0A2AE630E134
:200CE00047E060E0C4010E94A80A4CE750E168E2C70180529C4F0E944F234CE651E168E27F
:200D0000C7018B519C4F0E94082446E750E169E2C70186519C4F0E945628570121E1A21A0D
:200D20002CEFB20A4CEE53E1B801C5010E94420C01581F4F4EEE53E1B401C8010E94420C5A
:200D400040EF53E1B501C701815C9B4F0E94680B42EF53E1B801C7018D5A9B4F0E94680B0A
:200D6000C70189599B4FFC01C082FFEDFC15C8F586E58093800187E08093880197E5909345
:200D800081018093890160E084E00E94932DFC018181887F81838FEF9FEF86A397A38081B4
:200DA000807F876080838381807188628383DD20D9F083E08093B00088E18093900688E3FC
:200DC0008093A1049BE99093A50491E09093A4048093A8048BEA8093AB048CEC8093AA04A0
:200DE00003C00E94692EC4CF0F90DF91CF911F910F91FF90EF90DF90CF90BF90AF909F900C
:200E00008F900895FF920F931F93CF93DF93CDB7DEB72697CDBFDEBF20911021261709F442
:200E20006BC0F62E8C0181E0681741F1681758F082E0681709F443C085E068135BC086E0BB
:200E4000E1E1F0E23FC01982AE014F5F5F4F61E0C8018C519E4F0E946F21AE014F5F5F4F48
:200E600061E0C80181509E4F0E946F21F801E058FF4F81E087877F9687873CC084E68983F5
:200E8000AE014F5F5F4F61E0C8018C519E4F0E946F21AE014F5F5F4F61E0C80181509E4F6E
:200EA0000E946F2160E0C80180589F4F0E94700460E0C80181569F4F0E9470041BC086E0F6
:200EC000E7E1F0E2DE01119601900D928A95E1F7AE014F5F5F4F66E0C8018C519E4F0E9445
:200EE0006F21AE014F5F5F4F66E0C80181509E4F0E946F21F09210212696CDBFDEBFDF9150
:200F0000CF911F910F91FF900895809108068095881F8827881F0895CF93C62F809111218D
:200F200081110DC00E94CF306093192170931A2180931B2190931C2181E080931121C530FC
:200F400050F4C23078F4CC2349F0C13059F580E48093050627C0C53079F024C080E4809366
:200F6000060620C089E191E20E94F130653F714081059105B8F009C089E191E20E94F13063
:200F8000693C71058105910568F080E4809307060E94CF306093192170931A2180931B21E3
:200FA00090931C21CF910895EF92FF920F93CF93DF9300D0CDB7DEB77C0141E06CE0CE01AA
:200FC00001960E944D2E40E06CE0CE0102960E944D2E00E020E049816A81C7010E949204D8
:200FE0008EE590E2F7018083918380E4809302068093010680E880930206ED57FC4F1082C0
:201000001182128213828091160680648093160680911706877C809317068091170688615C
:2010200080931706EDE1F1E2A191B19150961C9281E2E533F807C1F70F900F90DF91CF9197
:201040000F91FF90EF900895EF92FF920F931F93CF93DF9300D01F92CDB7DEB7182F809119
:2010600000108F3F51F41B8241E050E0BE016D5F7F4F80E090E10E94FC2C113B09F06DC0F9
:2010800080910010811137C089E694E00E94F32B7C0147E063E0CE0101960E944D2E41E078
:2010A00064E0CE0102960E944D2E00E021E049816A81C7010E94920486E490E2F7018083FB
:2010C000918381E08093820680938106ED57FC4F1082118212821382EDE1F1E2A191B19174
:2010E0008689978954968D939C93559781E2E533F807A1F767C0813009F059C088E694E0BE
:201100000E94F32B7C0141E06CE0CE0101960E944D2E40E06CE0CE0102960E944D2E01E0D1
:2011200020E049816A81C7010E94920482E590E2F70180839183EDE1F1E285E391E2A19164
:20114000B1912689378954962D933C93559750961C928E179F0799F735C0123B61F4809162
:201160000010823020F58AE694E00E94F32B8C010E94D4071AC0133BD1F48091001081114A
:2011800008C085E191E00E94F32B8C0168EE73E009C0813061F485E191E00E94F32B8C01C7
:2011A00068E270E0C8010E945E03C8010CC08091CF0187FDFCCF40E260E070E0CB010E94E4
:2011C000DC47FFCFC7012396CDBFDEBFDF91CF911F910F91FF90EF900895FC012089FB0107
:2011E0002083FC018785FB01818382E00895DF92EF92FF920F931F93CF93DF93FC014681D5
:20120000578160857185452B462B472B09F407C1EC0106960E94F130672B682B692B09F401
:20122000FEC08C890E94F52B8C018B89833029F47801E8E3EE0EF11C1AC0843040F48230E7
:2012400029F4780180E3E80EF11C11C0FFCF863029F47801F0E2EF0EF11C09C0873009F052
:20126000DDC0780148E2E40EF11C92E001C091E08C8181111AC0F8018181897E818381810A
:20128000818382818F7882838281828380E4838386E084838B898F70880F880F880F91E013
:2012A000F701908381839C83BAC08130E1F4DFB6F894C8010E94FA2BF80180818160808371
:2012C000DFBEF7018081806880830E94CF30DC01CB0184589E4FAF4FBF4F8E839F83A8870C
:2012E000B98782E041C0823009F040C0F8018681892309F494C096838BA191E0980F9BA308
:201300009FB7F894F701248135819FBFFE01E80FF11DE80FF11D238F348F81E08C838BA120
:20132000843008F47CC01BA229A13AA18F8D98A1A0E0B0E0820F931FA11DB11D2D8D3E8DA6
:20134000820F931FA11DB11D2B8D3C8D820F931FA11DB11D22E0B695A795979587952A95DE
:20136000D1F78F87988B83E08C8359C0833009F056C0ED89FE8984819581892B31F4ED89B8
:20138000FE89218121111EC042C0CE010A960E94F130ED89FE89AB01BC018AE07695679509
:2013A000579547958A95D1F78481958122813381821B930BA0E0B0E0481759076A077B070F
:2013C00098F4DDCF8F859889498D5A8D841B950B97FF03C0919581959109FAE02F9F90013C
:2013E00011248217930798F0ED89FE89828140E050E0582F550F550F60E070E0CE010E945D
:20140000030D882321F08F859889898F9A8F81E08C8388E893E18F8B988F01C017CFDF91DE
:20142000CF911F910F91FF90EF90DF9008950F931F93CF93DF93CDB7DEB72797CDBFDEBFBA
:201440008C01DC0155968D919C915697FC0121812B3F50F022E32F8341E050E0BE01695F27
:201460007F4F01960E94FC2CD80155968D919C915697FC01228133812115310529F02550F3
:2014800031092C303E40F0F5D80155968D919C915697FC01248135812115310529F0255005
:2014A00031092C303E40D8F5D8015596ED91FC91569784819581009729F0228133818217D4
:2014C0009307D0F10E94CF30D8015596ED91FC915697428120E030E0342F330F330FDC01BD
:2014E000CB01820F931FA11DB11DF80182879387A487B5872796CDBFDEBFDF91CF911F9168
:201500000F9108952AE030E02D833E8342E050E0BE016B5F7F4F02960E94FC2CB5CF26E965
:2015200030E02B833C8342E050E0BE016D5F7F4F04960E94FC2CB8CF19821A8242E050E00F
:20154000BE016F5F7F4FCF0104960E94FC2CBACFEF92FF920F931F93CF93DF93EC01F62E28
:20156000E42E89010E94720C8AE690E28883998380E092E0898B9A8BEB8AFC8A0D8B1E8B5F
:20158000198E1A8EFE017B9688E0DF011D928A95E9F71BA21C820E94CF30DC01CB018C5372
:2015A000964FAF4FBF4F8E839F83A887B9871F86188ADF91CF911F910F91FF90EF90089586
:2015C00021E0DC0153962C9353975196ED91FC915297178608958F929F92AF92BF92EF9221
:2015E000FF920F931F93CF93DF93CDB7DEB7C755D109CDBFDEBFDC015196ED91FC91529742
:2016000020892F3F09F455C02785222309F451C08C01FC01F388E38080900A2090900B20B5
:20162000A0900C20B0900D200E94CF30FE01319687E5DF011D928A95E9F78BE4888BE98A8B
:201640009F2D990F990F9E5F9B8B88EF8A878B869C86AD86BE868FEF9FEFDC018E839F83FD
:20166000A887B98784E08F87CF010E946328811120C080917F2190918021009751F0DC01EA
:20168000ED91FC910190F081E02D20E04F2D6E2D0995B1E0BF1528F080917921826080935E
:2016A0007921F80183898F5F838B0188F289E02D1786C95ADF4FCDBFDEBFDF91CF911F91E7
:2016C0000F91FF90EF90BF90AF909F908F900895EF92FF920F931F93CF93DF93EC018B0130
:2016E0007A010E94720C86E790E288839983EF86F88A098B1A8B81E08B8BF8011786DF919C
:20170000CF911F910F91FF90EF900895FC012089FB012083FC0187A1FB01818382E0089505
:20172000FC01A189B28911964C9128EE33E0429FC001439F900D1124858B968B17A20895BD
:201740000F931F93CF93DF93EC018D899E89892B19F48FEF888B57C0CE0147960E94F1305F
:201760002D893E89EAE0E29FA001E39F500D11248A0120E030E0601771078207930708F443
:2017800042C00E94CF306F8B788F898F9A8F8FA186FF0EC08F7B8FA3E989FA89418128EED8
:2017A00033E0429FC001439F900D11248D8B9E8BEB89FC898785908964E170E00E94683191
:2017C000693C08F068EC2DA1FE01E20FF11D338D8BA19CA1831B9109638F860F911D8BA388
:2017E0009CA32F5F27702DA32EA1283010F42F5F2EA31816190634F46EA170E00E947C3108
:20180000688B01C0188ADF91CF911F910F910895FC01DA0186A18823A1F1663090F11786C5
:2018200087A18F7E87A39C919B3C19F09C3C59F014C0208912969C911297921770F091E0A6
:201840009787806209C0208912969C911297291720F091E097878F7D87A38785882389F053
:2018600087A1806187A315962C91222341F094E6299F90011124258B368B806401C08F7B2F
:2018800087A30895EF92FF920F931F93CF93DF93EC018B017A010E94720C82E890E288834C
:2018A0009983E98AFA8A0B8B1C8B1F8A188E198E1A8EFE017B9688E0DF011D928A95E9F734
:2018C0001BA21CA21DA21EA2188A1F861FA2DF91CF911F910F91FF90EF900895089580E03E
:2018E00008950895DC018EE890E28D939C93119712961C921297E09169211396EC93139726
:2019000014961C92149715961C92159716961D921D921D921C9219971A961D921D921D92EB
:201920001C921D971E961C921E9781E08E0F80936921F0E0EE0FFF1FE35EFE4DA083B183C5
:2019400008959B013F7364E0769F612D772711246130710509F158F06230710511F5D901B1
:2019600020E030EA4FE050E00E94C1310895C901A0E0B0E0BC01CD012AE0660F771F881F9C
:20198000991F2A95D1F72AE030E040E050E00E949031CA01B9010895A0E0B0EF0E94B23175
:2019A000089560E070E0CB0108950F931F93CF93DF93FC010285138524853585012B022B91
:2019C000032BE1F46623D1F0EC010E94CF30E0917A21F0917B212181F4E62F9FA0011124E3
:2019E0008A01550F220B330BAB01BC01400F511F621F731F4A875B876C877D87DF91CF91D8
:201A00001F910F9108952F923F924F925F926F927F928F929F92AF92BF92CF92DF92EF922C
:201A2000FF920F931F93CF93DF93CDB7DEB7CD57D109CDBFDEBFDC011A960D911D912D9116
:201A40003C911D97012B022B032B09F478C06A017B018C010A960E94F130672B682B692BB9
:201A600009F46DC0D801ED91FC910280F381E02DBE01685A7F4FC8010995ED968FAFED975A
:201A8000F801F381EE96FFAFEE97E0917A21F0917B2182819381A481B581EC968CAF9DAF7E
:201AA000AEAFBFAFEC97CE0188589F4F0E949F014B015C0140900A2050900B2060900C202F
:201AC00070900D200E94CF30CE0101961C0187E5D1011D928A95E9F789E6888BEE96BFAD57
:201AE000EE97B98BED96EFADED974E2F50E0BE01685A7F4FCE0142960E944F3388EF8A872B
:201B00004B865C866D867E868E829F82A886B986ED968FADED978E5F8F87C1010E94632848
:201B2000882379F0F80182859385A485B58586509F4FAF4FBF4F82879387A487B58780E05C
:201B400019C0C114D104E104F10461F00E94CF30C60ED71EE81EF91EF801C286D386E4864C
:201B6000F58607C0D8011A961D921D921D921C921D9781E0C358DF4FCDBFDEBFDF91CF9188
:201B80001F910F91FF90EF90DF90CF90BF90AF909F908F907F906F905F904F903F902F90D3
:201BA0000895FC0166870895FC01868508958F929F92AF92BF92CF92DF92EF92FF920F93F2
:201BC0001F93CF93DF936B017C01FA0188E4808382E4818387E582838A01065F1F4FEA0108
:201BE00023968AE0882E912CA12CB12C0C171D0791F0C701B601A50194010E949031605D03
:201C0000F80162938F01C114D104E104F10471F369017A01EBCFDF91CF911F910F91FF9010
:201C2000EF90DF90CF90BF90AF909F908F900895CF93DF93EC010E94CF30688379838A8388
:201C40009B83DF91CF910895FC01808180FF03C081E09785961380E00895FC01818580FD16
:201C600007C08685823020F081E09785993609F080E008958091CF0187FDFCCF0895AF9280
:201C8000BF92CF92DF92EF92FF920F931F93CF93DF93CDB7DEB7C755D109CDBFDEBF80919E
:201CA000792181FF58C08091222218E0180F0FB7F8948DE192E20E94F1300FBF012F10E099
:201CC00020E030E0061717072807390708F043C0E0917A21F0917B21B080A0907C21C090D9
:201CE0000A20D0900B20E0900C20F0900D20CE0102960E94180E8E010F5F1F4F87E5F801E7
:201D000011928A95E9F7CB86DC86ED86FE868FEF9FEFDC018E839F83A887B98788EF8A8764
:201D200081E4888BAA8ABB8A82E08C8B88E48D8BAE014A5E5F4FC701B6010E94D70D80E14A
:201D40008F87C8010E946328811105C0809179218D7F80937921C95ADF4FCDBFDEBFDF91D2
:201D6000CF911F910F91FF90EF90DF90CF90BF90AF900895CF92DF92EF92FF920F931F9374
:201D8000CF93DF93CDB7DEB72597CDBFDEBFE0917A21F0917B211081C680D780E084F18441
:201DA0000091CC010E943A0E8091CC01877F8093CC018FEF0E944C2C0E943A0E80E30E9490
:201DC000112C03FF07C00E943A0E8091CC0188608093CC0180917A2190917B211D8341E043
:201DE00050E0BE016B5F7F4F0E94FC2C80917A2190917B21C982DA82EB82FC8244E050E043
:201E0000BE016F5F7F4F06960E94FC2C8091792184608160809379212596CDBFDEBFDF9190
:201E2000CF911F910F91FF90EF90DF90CF9008951F93CF93DF9300D000D0CDB7DEB7809129
:201E4000772190917821892B09F4A1C080916F21811107C08BE691E20E94180E81E0809304
:201E60006F218091772190917821DC01ED91FC910480F581E02D0995182F80916A2182304D
:201E800009F43FC028F4882359F08130F9F072C0843009F451C0C8F1853009F465C06AC0EE
:201EA000112319F081E080936A21CE0101960E94180E89819A81AB81BC8180936B21909368
:201EC0006C21A0936D21B0936E2154C08BE691E2112351F00E94F130693873418105910541
:201EE00008F448C082E03DC00E94F1306536710581059105E8F1809179218260809379217C
:201F000037C0111137C083E0CECF8BE691E20E94F130643671058105910560F1112311F058
:201F200084E0C1CF8BE691E20E94F1306938734181059105E8F41EC08BE691E20E94F13034
:201F40006436710581059105A8F0112389F08BE691E20E94F130693B7B408105910550F0AE
:201F600085E080936A2106C0111104C00E94BA0E10926A218091772190917821DC01ED915D
:201F8000FC910680F781E02D60916A2109952496CDBFDEBFDF91CF911F9108950F931F933B
:201FA000CF93DF9300D000D0CDB7DEB7E0917A21F0917B2186819781A085B18589839A83C8
:201FC000AB83BC83CE0101960E949F0100910A2010910B2020910C2030910D2060177107AB
:201FE00082079307B9F08B019C011D532F483046003816492849310540F460930A207093FD
:202000000B2080930C2090930D2080917921826080937921E0917A21F0917B2191819150B0
:202020009A3FB0F410E0809169211817E8F4E12FF0E0EE0FFF1FE35EFE4D80819181DC0116
:20204000ED91FC910680F781E02D09951F5FEBCF82E3898341E050E0BE016F5F7F4FCF01A7
:2020600001960E94FC2CDECF2496CDBFDEBFDF91CF911F910F9108958091792180FF07C0C1
:202080000E94CE0F809179218E7F809379218091792183FF09C08FB7F8941BBE98ED94BFE3
:2020A00091E0909379008FBF8091792182FF0FC0A8958FB7F8941BBE98ED94BF9BE190936B
:2020C00080008FBF8091820080FDFCCFFFCF0E94CF306D3D75408105910548F080917800AC
:2020E000882319F08FE7809378000C943F0E089590916921891778F4E82FF0E0EE0FFF1FE8
:20210000E35EFE4D80819181DC01ED91FC910280F381E02D0994DB011C9281E008959091EF
:202120006921891778F4E82FF0E0EE0FFF1FE35EFE4D80819181DC01ED91FC910190F0817E
:20214000E02D0994089590916921891750F4E82FF0E0EE0FFF1FE35EFE4D808191810C9468
:20216000D40D81E0089590916921891750F4E82FF0E0EE0FFF1FE35EFE4D808191810C94B0
:20218000D10D0895BF92CF92DF92EF92FF920F931F93CF93DF93EC010E941524D82E811107
:2021A00002C0D12CE9C1898580FDFBCF65E7CE010E94240E882321F0809179218860C3C0A0
:2021C00062E5CE010E94240E882391F08E85843041F71A89412F50E0688979897627672789
:2021E00076277061CE010F960E944F331E87C2C163E4CE010E94240E882321F08091792160
:202200008160A1C066E7CE010E94240E882389F080910A2090910B20A0910C20B0910D2016
:202220008D839E83AF83B88782E08F8798E4988B8AC168E6CE010E94240E882359F0E09144
:202240007A21F0917B21808190917C219F87888B82E079C16CE6CE010E94240E882331F071
:202260006A89617089890E94B3106FC065E4CE010E94240E882309F44FC00A891B89812F6A
:20228000869586958695912F977011F48C5F01C08B5F8E8785E68F874E8550E04450510904
:2022A00060E070E0CE0143960E945833402F50E060E070E180E090E0212F30E001E010E088
:2022C000281739070CF456C1DB01E0E0F0E0E417F507F4F4FD90EE24EA94FE14B9F0FC0148
:2022E000A3E0F595E795AA95E1F73496EC0FFD1FDC01A770BB27780102C0EE0CFF1CAA95F8
:20230000E2F7D701B785AB2BA78702C03196DFCF0196640F751FD4CF6BE4CE010E94240E62
:202320008111CBC06BECCE010E94240E8111C5C05FC061E2CE010E94240E882309F4AAC058
:202340008091792184608093792111E08D819E81AF81B8858F3F9F4FAF4FBF4F09F421CF01
:202360008091792186FF07C065E7CE010E94240E882309F416CF2985822F8770833021F0D0
:2023800023FB222720F901C020E08A859B85AC85BD858D839E83AF83B88780910A2090915C
:2023A0000B20A0910C20B0910D208A879B87AC87BD87898586958370112321F099E1998782
:2023C0001E8602C098E999878370982F9295990F907E89858F79892B8987211102C0877F8B
:2023E000898781E02827888120FB84F98883C4C063E5CE010E94240E882321F0BE016F5EBA
:202400007F4F9BC067E5CE010E94240E882361F12A898E8590E0422F50E0BA016C5F7F4F7C
:202420008617970709F0BDCE88899989982789279827BE016D5E7F4F009799F4E0917A21F4
:20244000F0917B2130813B8B273058F0298D2F3F41F4369624E0DE01599601900D922A9563
:20246000E1F70E94FC2C71CF6EE6CE010E94240E882309F45ECF60910A2070910B20809156
:202480000C2090910D20AE01415F5F4F0E94D70D8AE059C069E6CE010E94240E811155CF14
:2024A00063E7CE010E94240E81113CC068E7CE010E94240E811136C048C01A89012F0370D9
:2024C000033051F08D819E81AF81B8858F3F9F4FAF4FBF4F09F439CFC988B8888C2D0E9435
:2024E000A310811132CF80917D2190917E21009709F42BCFE12EF12CF594E794F594E79465
:2025000021E0033009F020E0DC01ED91FC910190F081E02D022F2C2D4B2DBE01665F7F4F43
:20252000099513CF6E8562507E0181E1E80EF11CA70188890E948F10B70188890E947810A5
:2025400099E69F878E5F8E8715C06AE7CE010E94240E882321F0809179218064F4CE6AE5AF
:20256000CE010E94240E882309F41BCE809179218F7BE9CE10E0EACE8D2DDF91CF911F91D9
:202580000F91FF90EF90DF90CF90BF9008950F931F93CF93DF93DC0190E090962C91909754
:2025A000921740F5FD01E90FF11DE90FF11DEB01088119814081518104171507C9F4892FE5
:2025C000422F50E041505109E82FF0E0E417F50754F4EE0FFF1FEA0FFB1FC281D381C08341
:2025E000D1838F5FF1CF9150215090962C9390979F5FD3CFDF91CF911F910F9108951F936C
:20260000CF93DF9300D0CDB7DEB710E08091A4211817A0F5E12FF0E0EE0FFF1FEC57FE4DEA
:202620008081918189839A83FC014181528163817481452B462B472BF9F001960E94F1305D
:20264000672B682B692BC1F089819A810E946328E981FA8180818C708C3081F4BE016F5F1E
:202660007F4F84E891E20E94C71267E570E089819A810E94602402C01F5FC8CF0F900F9036
:20268000DF91CF911F9108958F929F92AF92BF92DF92EF92FF920F931F93CF93DF9300D0BE
:2026A000CDB7DEB77C01D12C8091A421D81608F060C0ED2DF0E0EE0FFF1FEC57FE4D008197
:2026C000118109831A83F801818580FD50C0F70181858770813071F0F8018685843009F0FB
:2026E00046C087858B3409F042C0C7010E942D0E8823E9F191E0F80182849384A484B584FC
:20270000F701458156816781708584169506A606B70609F090E081E0F80185809680A780A4
:20272000B084F701428553856485758584169506A606B70609F080E08923C9F0F801918580
:2027400096959370F701818582958695837098130EC0BE016F5F7F4F84E891E20E94C712FA
:2027600067E570E089819A810E94602402C0D3949BCF0F900F90DF91CF911F910F91FF90F2
:20278000EF90DF90BF90AF909F908F9008950F931F93CF93DF93CDB7DEB7C755D109CDBF0F
:2027A000DEBF8091B521882309F453C09FB7F8948091B5218823C1F0E091B62181E08E0F6F
:2027C0008093B621F0E0EE0FFF1FEB55FE4D008111818091B62187708093B6218091B521D6
:2027E00081508093B52102C000E010E09FBF0115110579F1C8010E943424882351F0F801F1
:2028000081858770813009F1C8010E942D0E81111CC0F80181858770813089F087E5DE0191
:20282000119601900D928A95E1F7CE0101960E94C210882321F0CE0101960E94632867E555
:2028400070E0C8010E94602404C0C8010E944413E0CFC95ADF4FCDBFDEBFDF91CF911F910A
:202860000F910895CF93C0E080916921C817A8F4EC2FF0E0EE0FFF1FE35EFE4D808191815E
:20288000DC01ED91FC910480F581E02D09950E94C7130E94FF12CF5FE7CF0E943C100E9408
:2028A000180FA895CF9108950F931F93FC0190E081E00681178120853185012B022B032B94
:2028C00009F480E080FB96F98481813021F0843039F422E001C021E02295207F9F7C922BF7
:2028E0008589FB018083918382E01F910F910895CF93DF93D62FFC018081C82FCF70829544
:202900008F700E94492DC83060F44096EC2FF0E0E80FF91F8081DD2311F0806401C08F7BD3
:202920008083DF91CF910895FC01808183700895DC0155962C91559730E05896ED91FC911F
:2029400059978489662319F0280F311D02C0281B31098389482F50E0241735073CF48289BF
:20296000482F50E0421753070CF4822F08950F931F93CF93DF93EC01162F042F8D8986176F
:20298000E1F1CE014496662319F00E94B22B02C00E94A02B1D8B8E899F890E949414282FF4
:2029A000CE014396223040F4112319F00E94B22B13C060E070E00EC0223019F428EC211B4D
:2029C000122F1123B1F3288969897A89129F600D711D11240E946B30002339F0EE89FF89CF
:2029E0006081661F6627661F01C060E0CE01DF91CF911F910F910C94D50CDF91CF911F916E
:202A00000F910895BF92CF92DF92EF92FF920F931F93CF93DF93EC01162FB42E69010E94FC
:202A2000720C8AE990E2888399830F87088B198A1A8A7E0183E1E80EF11C412F4F70612FF7
:202A400062956F70C7010E944D2E8B89803E50F1BC8A8FED8B1550F58FEF8D8BCE8ADF8AAA
:202A6000188E198E1A8E1C8E1D8E83E08A83C6010E94941461E0823009F060E0C7010E94F5
:202A8000781440E060E0CE010E94B71485E08C83DF91CF911F910F91FF90EF90DF90CF909E
:202AA000BF900895C7010E94692ED2CFCE0144960E94692ED1CFFC01633009F443C028F45A
:202AC0006130A1F0A0F51482A2C0653041F0E0F1673009F459C0683009F474C098C06483FB
:202AE000A08DB18D41E011966C9128C064834681578160857185868D978DA0A1B1A1840F00
:202B0000951FA61FB71F86839783A087B1876589838D482F50E0460F511DA08DB18D139668
:202B20002C9130E04217530708F071C049C082E08483A08DB18D41E013966C91CF010E94D6
:202B4000B71465C0648363C084E084834681578160857185868D978DA0A1B1A1840F951F85
:202B6000A61FB71F86839783A087B1876589838D681708F44CC0462F50E0481B5109A08D24
:202B8000B18D11962C9138C064834681578160857185868D978DA0A1B1A1840F951FA61F64
:202BA000B71F86839783A087B1876589838D482F50E0460F511D258D30E02417350738F1F3
:202BC000680F1FC064834681578160857185868D978DA0A1B1A1840F951FA61FB71F868389
:202BE0009783A087B1876589838D681780F0462F50E0481B5109258D30E0421753073CF06C
:202C0000681B40E0CF010E94B71480E0089581E00895BF92CF92DF92EF92FF920F931F9350
:202C2000CF93DF93EC01EE89FF899081392F36953695337023E0122F131B92959370022F55
:202C4000091BBF84EB2CF12C24E1B29E60011124C98ADA8ACF010E949414202F30E0412F4E
:202C600050E0823041F42C9DC0012D9D900D3C9D900D112407C04C9DC0014D9D900D5C9DB0
:202C8000900D1124898B9A8B240F351F2E9DA0012F9D500D3E9D500D11242CEE2403C0019E
:202CA000259F900D112428ECB29E800D911D112468EC70E00E946831688BDF91CF911F9158
:202CC0000F91FF90EF90DF90CF90BF900895EF92FF920F931F93CF93DF9300D0CDB7DEB769
:202CE0008C01FC01E688F788F701808186FD0BC080911D208A8341E050E0BE016E5F7F4F10
:202D0000C7010E94FC2CF70181818F3F59F08FEF898341E050E0BE016F5F7F4FC70101967B
:202D20000E94FC2CF801868997890E94941461E0823009F060E0C80143960E947814C80192
:202D40000E9409160F900F90DF91CF911F910F91FF90EF9008958F929F92AF92BF92EF9244
:202D6000FF920F93CF93DF93EC01613019F0643009F065C0E88CF98CF70103818181081B79
:202D80000B8F80859185A0E0B0E08E8F9F8FA8A3B9A3643041F486859785A0E0B0E08E8F5F
:202DA0009F8FA8A3B9A38E8D9F8DA8A1B9A1BC01CD013AE0660F771F881F991F3A95D1F7AE
:202DC0002AE030E040E050E00E949031CA01B901F8E00F9F40011124092C000CAA08BB08EF
:202DE000281539054A055B0568F0202F30E040E050E00E9490312E8F3F8F48A359A381E06C
:202E00008B8F1DC02E8F3F8F48A359A38E8D9F8DA8A1B9A180319105A105B10580F02B8D94
:202E2000F7013489231758F026952B8FB695A795979587958E8F9F8FA8A3B9A3E7CFDF91FF
:202E4000CF910F91FF90EF90BF90AF909F908F9008958F929F92AF92BF92EF92FF920F9353
:202E60001F93CF93DF938C01DC0114968C911497833009F447C048F4813061F15896ED918E
:202E8000FC9159978230E8F030C0853039F008F448C08750823008F451C07AC0D8015896C2
:202EA000ED91FC915997662321F0C789C295CF7001C0C0E0E088F188D081D6FBDD27D0F966
:202EC0006BC0662319F0C589CF7001C0C1E0E680F78032C0662309F456C0D8015896ED9196
:202EE000FC915997C589C29524C0662319F0C689CF7001C0C3E0E284F384D081D7FBDD2744
:202F0000D0F94AC0D8015896ED91FC915997662321F0C689C295CF7001C0C4E0E484F58457
:202F20000BC06623A9F1D8015896ED91FC915997C789CF70E12CF12CD0E02EC0F801858983
:202F4000882319F082E0848302C085E08483D8015696ED91FC9157976081661F6627661FF0
:202F6000C8010E94D50CF8011682178210861186DF91CF911F910F91FF90EF90BF90AF90F2
:202F80009F908F900895E12CF12CD0E0C2E004C0E12CF12CD0E0C5E00E94CF304B015C013D
:202FA000B701C8010E94A10CE114F0ECFF0660F4DC01CB01880D991DAA1DBB1DF801868382
:202FC0009783A087B18707C0D80116961D921D921D921C921997C63020F4F801C583D28F15
:202FE00009C0C63039F0D80116961D921D921D921C9219976C2FC801DF91CF911F910F9175
:20300000FF90EF90BF90AF909F908F900C94AB16CF93DF93EC01888D998D892B29F41E82F8
:203020001F82188619860CC06D81CE010E945B15882331F060E0CE01DF91CF910C9429178C
:20304000DF91CF910895CF93DF93EC018E819F81A885B985892B8A2B8B2B41F0CE010696ED
:203060000E94F130672B682B692B41F440E050E0BA01CE01DF91CF910C94030DCE010E94D4
:203080000818F4CFFF920F931F93CF93DF93EC018A016130A9F4DA016C91693C08F0A7C012
:2030A00041E00E94B7141E821F8218861986F8018081882311F082E001C085E08C8397C070
:2030C000633009F094C0DA011196ED91FC911297E88FF98F9081892F8F706C912C8D8230AB
:2030E00008F44FC0261302C094FF66C08530C9F030F4833071F098F4823041F05DC0883027
:20310000C0F0883009F058C0609513C060FF03C004C060FF02C0F18057C0F38055C061E016
:2031200001C060E0CE010E949814282F893C18F043C06170F7CF81E08B8F6D8970E0621B75
:20314000710977FF03C07195619571098CE291E00E946831CB01A0E0B0E08E8F9F8FA8A3BA
:20316000B9A32D8F0E94CF306E837F83888799879D8D8D89891710F088E001C087E08D83F4
:2031800018C0261302C094FF17C09F709130A1F48E819F81A885B985892B8A2B8B2B29F0BB
:2031A0008C81813011F0843059F461E0CE010E942917CE010E940818F80180818C8F17C0E0
:2031C0008A8D8130B1F7F1CFF8ECFF15A8F341E06F2DCE010E94B7141E821F8218861986B5
:2031E000FF2011F082E001C085E08C83E5CFDF91CF911F910F91FF900895FC01258DFB016D
:203200002083FC01848DFB01818382E008950F931F93CF93DF93EC018B010E94CF30DC01DF
:20322000CB01800F911FA11DB11D8E839F83A887B987DF91CF911F910F9108950F931F9344
:20324000CF93DF93CDB7DEB72797CDBFDEBF8C01DC0151968D919C915297FC0121812B3F0C
:2032600050F025E02F8341E050E0BE01695F7F4F01960E94FC2CD80151968D919C9152975C
:20328000FC01228133812115310531F0255031092C303E4008F047C0D80151968D919C91BA
:2032A0005297FC01248135812115310531F0255031092C303E4008F043C0D8015196ED917E
:2032C000FC91529784819581009731F0228133818217930708F441C0F801148264EF71E0EB
:2032E000C8010E9407190E94CF30D8015196ED91FC915297428120E030E0342F330F330F34
:20330000DC01CB01820F931FA11DB11DF80182879387A487B5872796CDBFDEBFDF91CF91FC
:203320001F910F9108952AE030E02D833E8342E050E0BE016B5F7F4F02960E94FC2CACCF8F
:2033400026E930E02B833C8342E050E0BE016D5F7F4F04960E94FC2CB0CF19821A8242E0FA
:2033600050E0BE016F5F7F4FCF0104960E94FC2CB3CFEF92FF920F931F93CF93DF93EC01E5
:203380007B018A010E94720C86EA90E288839983EF86F88A81E08B8B84E08A83098B1A8BE5
:2033A0001C8264EF71E0CE01DF91CF911F910F91FF90EF900C940719982F81E0983221F00B
:2033C000903111F080E008950895FF920F931F93CF93DF931F92CDB7DEB78C01F62EDC0180
:2033E0001F968D919C9150970E94E22EF801878590890E94B42E882311F1F11004C0A80177
:203400004C5E5F4F02C040E050E064E4D8011F968D919C9150970E94D02F80910E208111C8
:2034200010C0D8011F96ED91FC91509780818983803E48F0CE0101960E94B22B02C081E031
:2034400007C080E005C0CE0101960E94692EF2CF0F90DF91CF911F910F91FF900895FB0139
:2034600020813181DC0154968C91803161F42E7F43E0220F331F4A95E1F78681281B310981
:20348000245F3F4F10C0883271F48481982F9076903649F086FF02C02E7F05C085FF02C05C
:2034A0002C7F01C0287FC90134E0969587953A95E1F7B4E68B02C0011124322F23FDC29637
:2034C00032FD499631FD0D9630FD06960895AF92BF92CF92DF92EF92FF920F931F93CF937B
:2034E000DF93CDB7DEB72997CDBFDEBF8C01FC01878590890E94E22EA8014C5E5F4F6EEB9D
:20350000F801878590890E94D02FCE0101967C015E019AE0A90EB11C67016FEFF8018785E1
:2035200090890E945D2FF70181937F01EA15FB05A1F740E069E070E0C6010E9477018111F5
:2035400009C0B601C8010E942F1AF801848F958F80E001C083E02996CDBFDEBFDF91CF91CB
:203560001F910F91FF90EF90DF90CF90BF90AF90089520916921EDE1F1E290E0921781F08E
:20358000A191B19112963C911297343039F451960D90BC91A02D3C91831721F09F5FEECF37
:2035A00080E0089581E008954F925F926F927F928F929F92AF92BF92CF92DF92EF92FF9264
:2035C0000F931F93CF93DF93CDB7DEB7CD55D109CDBFDEBFDC0116964D915D916D917C9125
:2035E0001997452B462B472B09F47FC18C0106960E94F130672B682B692B09F476C1D801D9
:203600005196ED91FC915297908114968C91992309F407C181114EC08DE495E9F801848FDB
:20362000958FEE24EA946801F4E1CF0ED11C58014CE1A40EB11CA6016E2DD8011F968D91DB
:203640009C9150970E94782FE82E82E08E0D823068F1F601F12C8191F80EAE16BF06D9F76A
:20366000F80184890E94DC19811103C0E110E3CF1DC0D80151968D909C905297F4018081F0
:203680008F3F31F48F2D0E94B91A882309F423C1D8015196ED91FC9152978081F812E6CF06
:2036A00081E014968C9364E670E0B7C083E0F8018483B1C0813081F461E0C8010E94E5192B
:2036C000811107C082E0D80114968C9368EE73E0A4C06AEF70E0A1C0823009F0A2C0C801A0
:2036E0000E94671AFF24F3948111F12CD8015196ED91FC91529784819581892B49F4D801B5
:203700005196ED91FC915297218121111DC07FC0C8010A960E94F130AB01BC018AE07695D4
:203720006795579547958A95D1F7D8015196ED91FC91529784819581A0E0B0E04817590740
:203740006A077B07E8F4DBCFF801848D958D468D578D841B950B092E000CAA0BBB0BB7FF5A
:2037600007C0B095A095909581959F4FAF4FBF4FFAE02F9F900111248217930708F447C02F
:20378000FF2009F444C0D80153968C915397882329F1ED91FC910280F381E02DBE016F5FE0
:2037A0007F4FC8010995F801138A8091822190918321009799F0DC01ED91FC910190F081BB
:2037C000E02D22E0AE014F5F5F4FD80113966C910995811103C064EF71E01FC0D80151961A
:2037E000ED91FC915297828140E050E0582F550F550F60E070E0C8010E94030D882339F054
:2038000081E0F801838B848D958D868F978F81E0D80114968C9368E873E1C8010E940719A0
:2038200064C0833009F061C0D801ED91FC910280F381E02DBE01645A7F4FC8010995F82ED8
:20384000F801E380E0917A21F0917B2182819381A481B5816C968CAF9DAFAEAFBFAF6C971A
:20386000CE01885A9F4F0E949F014B015C0140900A2050900B2060900C2070900D200E94CE
:20388000CF30CE0101966C0187E5D6011D928A95E9F789E6888BE98A4F2D50E0BE01645A47
:2038A0007F4FCE0142960E944F3388EF8A874B865C866D867E868E829F82A886B986F39418
:2038C000F394FF86C6010E946328F80116821782108611860AC0F98241E050E0BE016F5F6E
:2038E0007F4FC4010E94FC2CD3CEC35ADF4FCDBFDEBFDF91CF911F910F91FF90EF90DF90B9
:20390000CF90BF90AF909F908F907F906F905F904F900895CF93DF93EB0146960E94B42ED3
:20392000882311F080E001C088EC8883198282E0DF91CF910895CF93FC018081C82FCF703B
:2039400082958F700E94492DC83050F4FC017096EC0FF11D8081877C8083808188618083FD
:20396000CF910895CF93DF931F92CDB7DEB76983FC01A489B589109791F082899389FC010C
:20398000808187FF0CC0ED91FC9111970190F081E02DAE014F5F5F4F61E0CD0109950F90BB
:2039A000DF91CF910895CF93DF93EC0101960E94180E87E5FE0111928A95E9F7DF91CF919D
:2039C00008958F929F92AF92BF92DF92EF92FF920F931F93CF93DF93CDB7DEB7C755D109AC
:2039E000CDBFDEBFF82E162FE42ED22E80900A2090900B20A0900C20B0900D20CE0101966D
:203A00000E94D31C8BE4888BF98A1A8AE11002C082E001C083E0912F990F990F890F8B8B75
:203A200088EF8A878B869C86AD86BE868FEF9FEFDC018E839F83A887B98784E08F87CE0180
:203A400001960E946328082F811119C080917F2190918021009751F0DC01ED91FC9101903C
:203A6000F081E02D2E2D412F6F2D0995D11007C0123028F480917921826080937921802FD4
:203A8000C95ADF4FCDBFDEBFDF91CF911F910F91FF90EF90DF90BF90AF909F908F90089596
:203AA0004F925F926F927F929F92AF92BF92CF92DF92EF92FF920F931F93CF93DF93CDB7CF
:203AC000DEB7CB55D109CDBFDEBF982EF62E6A010115110521053105B9F4E0917A21F09117
:203AE0007B2182819381A481B5816C968CAF9DAFAEAFBFAF6C97CE01885A9F4F0E949F0180
:203B00005B01E82E192F03C05801E22E132F40900A2050900B2060900C2070900D20CE0160
:203B200001960E94D31C89E6888B998A4F2D50E0B601CE0142960E944F3388EF8A874B8631
:203B40005C866D867E86AE82BF82E8861987F394F394FF86CE0101960E946328C55ADF4F9A
:203B6000CDBFDEBFDF91CF911F910F91FF90EF90DF90CF90BF90AF909F907F906F905F9066
:203B80004F900895EF92FF920F931F93CF93DF93CDB7DEB72C97CDBFDEBF7C01DC01519629
:203BA0008C9151978F7319F481E051968C93C70146960E94B42EF7018823E9F1838D948DB4
:203BC000A58DB68D892B8A2B8B2B61F10190F081E02D0280F381E02DBE016F5F7F4FC701CA
:203BE000099500E010E09801AE014F5F5F4F682FD70113968C910E94501D20E040E0F70157
:203C0000618983810E94E11C81110CC0D70151968C9151978F5F51968C93F701138E148EC6
:203C2000158E168ED70157961D921D921D921C925A976DEF60C08789908DA18DB28D892B02
:203C40008A2B8B2B71F4CE0101960E94180E89819A81AB81BC81F701878B908FA18FB28F3E
:203C600049C0C70147960E94F130643671058105910508F43FC0F701838D948DA58DB68D0E
:203C8000892B8A2B8B2BB1F50190F081E02D0280F381E02DBE016F5F7F4FC701099500E0AC
:203CA00010E09801AE014F5F5F4F682FF70183810E94501D20E040E0D70151966C9151970A
:203CC00013968C910E94E11C811114C0D70151968C9151978F5F51968C93CE0109960E9451
:203CE000180E89859A85AB85BC85F701838F948FA58FB68F6CEFC7010E94B21C2C96CDBF79
:203D0000DEBFDF91CF911F910F91FF90EF900895CF92DF92EF92FF920F931F93CF93DF932F
:203D200000D000D0CDB7DEB78C0146960E94B42ED80157964D915D916D917C915A978823A4
:203D400099F1452B462B472B09F495C0C80147960E94F1306436710581059105E0F0F801D6
:203D6000838D948DA58DB68D41E00097A105B10509F440E0892B8A2B8B2B39F4D801519660
:203D80008C9151978F5F51968C9320E0F801618983810E94E11CD80157961D921D921D92D1
:203DA0001C925A976DEF53C0452B462B472BE9F1F801838D948DA58DB68D892B8A2B8B2B0A
:203DC000B9F0C8014B960E94F1306C3271408105910508F450C0D8015296ED91FC915397A0
:203DE000808186FF48C021E041E0F801618933C0C80147960E94F1306B017C01D80152962A
:203E0000ED91FC915397218130E0A4E6B0E00E94B231C616D706E806F90668F1F80161897A
:203E20006F5F618B21E041E016C0CE0101960E94180E89819A81AB81BC81F801878B908FEA
:203E4000A18FB28F138E148E158E168E6CEFC8010E94B21C10C083810E94E11CCE010196FA
:203E60000E94180E89819A81AB81BC81F801838F948FA58FB68F2496CDBFDEBFDF91CF9192
:203E80001F910F91FF90EF90DF90CF9008950F931F93CF93DF9300D000D0CDB7DEB78C01EB
:203EA00046960E94B42EF801882399F0838D948DA58DB68D892B8A2B8B2B21F0138E148E5C
:203EC000158E168EF801178A108E118E128E6DEF4AC08789908DA18DB28D892B8A2B8B2B05
:203EE00071F4CE0101960E94180E89819A81AB81BC81F801878B908FA18FB28F33C0C8014A
:203F000047960E94F130643671058105910550F1F801838D948DA58DB68D892B8A2B8B2BD6
:203F200009F5F80181898F7319F481E0F801818B20E040E0F801618983810E94E11C8111D3
:203F400011C0F80181898F5F818BCE0101960E94180E89819A81AB81BC81F801838F948FA9
:203F6000A58FB68F6CEFC8010E94B21C2496CDBFDEBFDF91CF911F910F910895FC01A2896C
:203F8000B3899C9193FF13C08785882381F09770913019F4CF010C94881E911103C0CF010B
:203FA0000C94C21D923019F4CF010C94471F0895EF92FF920F931F93CF93DF938C01DC019C
:203FC00050968C915097F80176967F01882339F05296ED91FC915397808184FF04C0C701B1
:203FE0000E949B1C14C0F8018689C82FCF7082958F700E94492DC83050F4FC017096EC0FEE
:20400000F11D8081877C8083808180618083D8015296ED91FC915397D08156968C91C82F9F
:20402000CF7082958F700E94492DC83060F44096EC2FF0E0E80FF91F8081D5FD02C080647E
:2040400001C08F7B8083F801178A108E118E128E138E148E158E168EC7010E94B42E88239A
:2040600011F06DEF01C06CEFC801DF91CF911F910F91FF90EF900C94B21CCF92DF92EF920F
:20408000FF921F93CF93DF93EC01162F6A0179010E94720C82EB90E28883998381E08F8755
:2040A000888B198ACA8ADB8AEC8AFD8A1E8B103EA0F0CE0147960E94180ECE014B960E9447
:2040C000180E81E08A83CE01DF91CF911F91FF90EF90DF90CF900C94D81FCE0146960E943D
:2040E000542EE7CF0F931F93CF93DF931F92CDB7DEB78C01FC018081861749F0698341E028
:2041000050E0BE016F5F7F4FC8010E94FC2CC8010F90DF91CF911F910F910895CF93DF9388
:20412000EC01EA89FB89918194509F3288F48A899B89FC016081262F2770233020F0687F0D
:2041400061600E947220CE01DF91CF910C94D81F64E0CF0101960E947220E9CFCF92DF92CB
:20416000EF92FF92FC0120E081E0C680D780E084F184CD28CE28CF2809F480E080FB27F97F
:204180009481995C97709295907F2F78292B8389FB018083218382E0FF90EF90DF90CF90F0
:2041A0000895CF93DF931F92CDB7DEB7DC011F96ED91FC9150973081232F2F77253688F0C4
:2041C0005A969C919F77232F2078922B391749F0998341E050E0BE016F5F7F4FCF010E9442
:2041E000FC2C0F90DF91CF910895AF92BF92DF92EF92FF920F931F93CF93DF93EC01162F1C
:204200005A01D22E0E94720C8EEB90E2888399837E0181E1E80EF11C412F4F70612F629577
:204220006F7024EC39E0C7010E9415300A8F82E08A83AF86B88A8989182F1F7082958F704A
:204240000E94492D183060F44096E12FF0E0E80FF91F8081DD2011F0806401C08F7B808334
:20426000C7010E94A02B60E070E0C7010E946B301A8A8AEC8C831B8A88EC8C8B1D8A8AE00A
:204280008E8B8F8B8FEF888F898F1E821F8218861986DF91CF911F910F91FF90EF90DF9023
:2042A000BF90AF900895DC011F96ED91FC91509720812F774196222349F0629FB0011124CC
:2042C00023E0759567952A95E1F707C0611103C060E070E002C064EC79E00C946B30CF93AA
:2042E000DF93EC01FA018081893C50F48B8B1E821F821886198680818823A9F189EC28C023
:204300008C3F39F468ECCE010E94532181E08A8B4FC08D3F11F41A8A4BC06630B0F1868129
:20432000998D9817D1F1898F21812D8B92819C8B83818E8B84818F8B8581888F80818C3C18
:2043400049F40E94CF306E837F83888799878CEC8C8323C08D3C49F48C818C3C91F71E82F0
:204360001F82188619868AECF3CF8B3CB1F48C818A3C19F02B8B8AEC02C09B8B89EC8C8347
:204380001E821F821886198608C08B89882311F01B8AF6CF88EC8B8BF3CFEF85F88960818B
:2043A000661F6627661FCE01DF91CF910C94D50CDF91CF9108950F931F93CF938C01DC01B9
:2043C0001F96ED91FC915097C081CF774196CC2399F00E944B3023E0880F991F2A95E1F75A
:2043E000D8011F96ED91FC91509760816F7770E00E946831C62F05C00E944B30892B09F067
:20440000C8EC8C2FCF911F910F9108950F931F93CF93DF93EC018E819F81A885B985892B7D
:204420008A2B8B2B39F1CE0106960E94F130672B682B692BF9F0CE010E94DB216C8986131C
:204440002EC08F8924E6829FC0011124092E000CAA0BBB0B4E815F8168857985840F951F96
:20446000A61FB71F8E839F83A887B9876D89CE010E9453218A89811108C08E819F81A8855B
:20448000B985892B8A2B8B2BB9F140E050E0BA01CE01DF91CF911F910F910C94030D888D56
:2044A0008823F1F08E8924E6829FC0011124092E000CAA0BBB0B0E811F8128853985800F51
:2044C000911FA21FB31F8E839F83A887B987CE010E945321888D8F3F69F28150888FCACF53
:2044E0001E821F82188619868B89681302C089EC01C08AEC8C83BECF6B89CE010E945321CC
:20450000C4CF2F923F924F925F926F927F928F929F92AF92BF92CF92DF92EF92FF920F9328
:204520001F93CF93DF93CDB7DEB7C156D109CDBFDEBF4C01162F342EF22E942F990F990F9B
:20454000222311F083E001C082E0292E280EC12CD12CA12CB12C8BE09E012F5F3F4F6E9644
:204560002EAF3FAF6E97D40112962C91129730E0A216B3060CF07CC01396ED91FC91149770
:20458000EC0DFD1D90819F3F09F46BC0911369C0CF0101960E949F012B013C016C966CAFF5
:2045A0007DAF8EAF9FAF6C9720910A2030910B2040910C2050910D20A2962CAF3DAF4EAF73
:2045C0005FAFA297D40113968D919C911497FC01EC0DFD1D4216530664067506D9F47580B8
:2045E000872D0E94A31081113BC080917D2190917E210097A9F1DC01ED91FC910190F0819B
:20460000E02DE32C0F2D272D412FBE01685A7F4F099526C005810E94CF306E96EEADFFAD39
:204620006E9727E511922A95E9F73BE4388B198B0A8B2B8A48EF4A87A2968CAD9DADAEAD39
:20464000BFADA2978B879C87AD87BE874E825F826886798694E09F87CE0101960E9463283C
:2046600080E0AFEFAA1ABA0AB6E0CB0ED11C7BCFCF59DF4FCDBFDEBFDF91CF911F910F916F
:20468000FF90EF90DF90CF90BF90AF909F908F907F906F905F904F903F902F900895FC015E
:2046A00080937F21909380218AEC90E28083918362834383548308952F923F924F925F9201
:2046C0006F927F928F929F92AF92BF92CF92DF92EF92FF920F931F93CF93DF93CDB7DEB7BF
:2046E0002797CDBFDEBF6C014B01242EF22E10E0CE0101965C018BEC582E9CEC492E2DECE0
:20470000322ED60112968C91181708F06BC0B0E11B9F30011124D6011396ED91FC91149764
:20472000E60DF71D848182115BC085818F1158C080819181A281B3818F3F9F4FAF4FBF4FCF
:2047400009F44EC0CF010E949F01D4012D913D914D915C91621773078407950709F040C0FD
:20476000F50127E011922A95E9F78FEF8983D6011396ED91FC911497E60DF71D90859A8301
:2047800027812B8383858C8384858D8385858E83EF82002349F092859A8321852B8386811C
:2047A00086958695869501C086818770833081F030F4882351F0813099F4998307C08430E0
:2047C00049F0853069F4398206C0298361E004C0598201C0498267E0A5018F2D0E948F100B
:2047E0001F5F8FCF2796CDBFDEBFDF91CF911F910F91FF90EF90DF90CF90BF90AF909F903E
:204800008F907F906F905F904F903F902F900895FC0180937D2190937E2180ED90E2808320
:2048200091836283438354830895FC01208120FF17C0458156816781708580910A209091DB
:204840000B20A0910C20B0910D20481759076A077B0741F081E04F3F5F4F6F4F7F4F19F04D
:2048600080E0089581E0089521E0FC01458156816781708580910A2090910B20A0910C20E1
:20488000B0910D20481759076A077B0709F020E0822F089521E0FC01428553856485758531
:2048A00080910A2090910B20A0910C20B0910D20481759076A077B0709F020E0822F0895AD
:2048C000CF93CFB7F8940E94D42B80918121882319F0815080938121CFBFCF910895DF92DA
:2048E000EF92FF920F931F93CF93DF937C01DFB6F894FC01C685C15FD0E0CE010796887F55
:204900000E94D62B8C01009749F0AE01B7010E944F33809181218F5F80938121DFBEC80150
:20492000DF91CF911F910F91FF90EF90DF900895FB0198E0408151819A01220F331F87FD94
:2049400021602083318357FF08C02081318142E0242740E1342720833183880F915051F70E
:204960000895DC01FB0156968C915697808355968C915597818353968C91828383E00895C5
:204980000F931F93CF93DF93CDB7DEB72897CDBFDEBF8C01DC0159968D919C915A97FC015C
:2049A0002081253648F022E0288741E050E0BE01685F7F4F0E94FC2CD80159968D919C9190
:2049C0005A97FC0121812B3F50F025E02F8341E050E0BE01695F7F4F01960E94FC2CD80106
:2049E00059968D919C915A97FC01228133812115310529F0255031092C303E40F0F5D8016C
:204A000059968D919C915A97FC01248135812115310529F0255031092C303E40D8F5D8015F
:204A20005996ED91FC915A9784819581009729F02281338182179307D0F10E94CF30D801FB
:204A40005996ED91FC915A97428120E030E0342F330F330FDC01CB01820F931FA11DB11D39
:204A6000F80182879387A487B5872896CDBFDEBFDF91CF911F910F9108952AE030E02D8345
:204A80003E8342E050E0BE016B5F7F4F02960E94FC2CB5CF26E930E02B833C8342E050E0E8
:204AA000BE016D5F7F4F04960E94FC2CB8CF19821A8242E050E0BE016F5F7F4FCF01049664
:204AC0000E94FC2CBACFEF92FF920F931F93CF93DF93EC017B018A010E94720C86ED90E250
:204AE00088839983EF86F88A81E08A8B1B8A1C8A8DE495E98D8B9E8B8F8B988F098F1A8F25
:204B000088E08A831C8264EF71E0CE01DF91CF911F910F91FF90EF900C9407198FEFA42FD0
:204B2000B0E0119631E3E42FF0E0AE17BF077CF0E60FF71F9081892798E087FF03C0880F2C
:204B4000832701C0880F9150C1F74F5FECCF821302C080E0089582E00895EF92FF920F934A
:204B6000CF93DF93CDB7DEB72697CDBFDEBF7C01FC018785908901E026E030E0AE014F5F6F
:204B80005F4F64E401960E94FE2D069789F52B8140E0BE016F5F7F4FC7010E948E258111CA
:204BA00027C0298130E0322F22278A81282BACE5B4E40E94B23184599141F701858B968BC6
:204BC0002E8143E0BE016F5F7F4FC7010E948E25482F81110DC02C8130E0322F22278D8140
:204BE000282BA4E6B0E00E94B231F701838B01C042E0842F2696CDBFDEBFDF91CF910F91D2
:204C0000FF90EF9008950F93CF93DF9300D0CDB7DEB769837A83FC018785908901E022E09C
:204C200030E0AE014F5F5F4F64E401960E94BC2D029711F480E001C082E00F900F90DF9120
:204C4000CF910F910895EF92FF920F93CF93DF93CDB7DEB72697CDBFDEBF7C0167E370E811
:204C60000E94032681111DC0F7018785908901E026E030E0AE014F5F5F4F64E401960E945A
:204C8000FE2D069771F42B8140E0BE016F5F7F4FC7010E948E25811104C029813A81232B9A
:204CA00009F482E02696CDBFDEBFDF91CF910F91FF90EF9008956CE276E00E940326811194
:204CC00082E0089560E372EA0E940326EFE9FFE03197F1F700C0000008950F931F93CF93F1
:204CE000DF9300D01F92CDB7DEB7DC0116964D915D916D917C911997452B462B472B09F448
:204D00001BC18C0106960E94F130672B682B692B09F412C1F80184818230A9F4C8010E948A
:204D20005B2681110AC064E170E0C8010E94071983E0D80114968C93FFC068EE73E0C80140
:204D40000E940719F9C0833080F48111F5C0C8010E942326882319F060E177E2F0CF8AE03F
:204D6000F801818B82E08483D9CF833009F0CDC0C8010E94AD25882301F168EE73E0C80198
:204D80000E940719F80181898150818B811111C0C8010E94622685E0D80114968C93149769
:204DA0008DE495E955968D939C93569753961C92C3C082E0F8018483BFC08AE0D8015196B8
:204DC0008C93519785E014968C93D8015996ED91FC915A9784819581892B49F4D801599606
:204DE000ED91FC915A972081211121C032C0C8010A960E94F130D8015996ED91FC915A9721
:204E0000AB01BC018AE076956795579547958A95D1F78481958122813381821B930BA0E0DC
:204E2000B0E0481759076A077B0750F5D7CFD80153968C91539790E054963C91831B91091D
:204E400097FF03C091958195910930E082179307BCF42181222309F446C0F8018589968920
:204E60004789508D841B950B97FF03C0919581959109FAE02F9F90011124821793079CF1E9
:204E8000D80152968C91882399F0D801ED91FC910280F381E02DBE016F5F7F4FC801099557
:204EA000F801128A8091822190918321009789F5D8015996ED91FC915A97828140E050E0B8
:204EC000582F550F550F60E070E0C8010E94030D882349F081E0F801828B85899689878BEE
:204EE000908F8389848BD80155968D919C9156978D34954919F4F80114821EC082E0D80128
:204F000014968C9368E873E11ACF853009F45DCF13C0DC01ED91FC910190F081E02D22E091
:204F2000AE014F5F5F4FD80113966C9109958111BFCF64EF71E003CF2396CDBFDEBFDF9161
:204F4000CF911F910F9108952F923F924F925F926F927F928F929F92AF92BF92CF92DF92D8
:204F6000EF92FF920F931F93CF93DF93CDB7DEB7CE55D109CDBFDEBF6C0169966FAF69972E
:204F80006C964EAF5FAF6C9700E010E0E12CF12C8BE0AE014F5F5F4F1A01A22FB0E06E9611
:204FA000AEAFBFAF6E972D5F6F962FAF6F97F601228130E0E216F3060CF061C00380F481FC
:204FC000E02DE00FF11F90819F3F09F452C069962FAD699792134DC0CF0101960E949F0191
:204FE0002B013C0180900A2090900B20A0900C20B0900D20681579058A059B05C9F1D6013F
:205000001396ED91FC911497E00FF11FB5816A96BFAF6A970E94CF30F10127E511922A958C
:20502000E9F744EB488B69965FAD6997598B6A968FAD6A978A8B6E964EAD5FAD6E976C963B
:205040006EAD7FAD6C97CE0143960E944F3398EF9A878B869C86AD86BE864E825F82688649
:2050600079866F96AFAD6F97AF87C1010E94632880E0BFEFEB1AFB0A0A5F1F4F98CFC25A33
:20508000DF4FCDBFDEBFDF91CF911F910F91FF90EF90DF90CF90BF90AF909F908F907F90D2
:2050A0006F905F904F903F902F900895FC01809382219093832182EE90E2808391836283A0
:2050C0004383548308951F93CF93DF93EC010E943F338F709091A421911198E0890F809365
:2050E0002222CE010E946C2A182F888181FF13C0CE0105960E949F016D837E838F839887F4
:20510000CE010A960E949F016A877B878C879D8788818D7F88838881982F969596959F5F70
:205120009370990F990F837F892B88830E94CF30DC01CB018A569F4FAF4FBF4F89839A830E
:20514000AB83BC83898580FD33C08D819E81AF81B8858F3F9F4FAF4FBF4F51F1888186959C
:2051600086958370813021F58091A421803100F5CE010E946F240097D9F0E091A421A4E8B8
:20518000B1E220E0E21739F04D915D918417950779F02F5FF7CFE03158F421E02E0F20934C
:2051A000A421F0E0EE0FFF1FEC57FE4D80839183812FDF91CF911F910895E5EAF1E28FEFAD
:2051C000828B118A108A1092A4210895CF93DF93FC01208121FF13C0EC0105960E949F015A
:2051E0006D837E838F839887CE010A960E949F016A877B878C879D8788818D7F8883DF9122
:20520000CF910895CF93C82F0E94CF3060931D2270931E2280931F22909320228091152221
:20522000CC3F21F481608093152279C0CD3FD1F482608E7F80931522109213228FEF9FEFFD
:2052400080931122909312228091B8218E7F82608093B8211092C62161E172E28DEF0E94AF
:2052600098245DC081FF5BC080FF04C0C0688E7F8093152261E172E28C2F0E949824409178
:205280001322E42FF0E0E354FE4DC083443049F48091C121982F97709330C9F183FF37C0C9
:2052A00039C08091C621493041F4893498F1809115228D7F809315222DC050E060E070E0BE
:2052C00090E0A0E0B0E00996A11DB11D481759076A077B07F9F48091112290911222892B37
:2052E000C9F488EB91E20E94E6288091C62182508093C621809115228D7F809315228091E8
:20530000B82181608093B82188EB91E20AC088E080931322809113228F5F8093132280E0AB
:2053200090E0CF9108950F931F93CF93DF93C0911622D0911722209709F4BCC08C019091D7
:205340001A2280911C2291112EC081FD2CC0826080931C228FEF9FEF8093182290931922DE
:20536000888181FD13C0CE0105960E949F016D837E838F839887CE010A960E949F016A8763
:205380007B878C879D87888182608883888184FD02C08DEF01C08EEFF801808368E172E23F
:2053A0000E94982482C081FF82C0888184FF84C0911182C0F801108283E080931A224091C9
:2053C0001A22443049F48985982F9770933009F47AC083FF78C017C0493029F4F8018081E9
:2053E0008E5F808310C050E060E070E08E8590E0A0E0B0E00B96A11DB11D84179507A60789
:20540000B70708F457C080911C2280FD40C068E172E2F80180810E94982440911A2250E0BD
:2054200060E070E08E8590E0A0E0B0E00996A11DB11D481759076A077B07E1F468E172E2FA
:2054400080E00E94982468E172E280E00E949824259680911A228F5FFE01E80FF11D809128
:205460001922808380911A228E5FC80FD11D809118228883F80180818C5F833088F4809174
:205480001C22816080931C228CEF80830EC0F80180818F77808380911C228E7F80931C22A0
:2054A00080911A228F5F80931A2281E010C0CE010E94E62880E00BC0FE01E90FF11D85817C
:2054C000F80180837CCF88E080931A229CCFDF91CF911F910F910895EF92FF920F931F9340
:2054E000CF93DF931F92CDB7DEB77C018091232290912422892BD9F08091222218E0180FE3
:205500000FB7F8948DE192E20E94F1300FBF012F10E020E030E0061717072807390748F0B4
:20552000D70119968C918770813031F702C081E06FC0E0921622F092172210921A22809151
:205540001C228D7F80931C22D70119968C9180FD06C0F7019081969596959370B1F18091B4
:20556000232290912422DC01ED91FC910190F081E02D61E0099510E0CE0101960E949329F5
:20558000A0912322B0912422882389F089811296ED91FC911397948193FD05C012E0ECCF6C
:2055A000948193FF1BC0918195FFFACF17C01296ED91FC911397818180648183818186FD57
:2055C0000FC0848183FF0CC0F9CF909121229370990F897F892BF7018187C1CF8083CCCFE8
:2055E000ED91FC9111970190F081E02D60E0CD01099511110AC0F701818580FD08C08091FD
:2056000021228F5F8093212202C0812F01C080E00F90DF91CF911F910F91FF90EF90089506
:2056200010921D2210921E2210921F22109220220E94CF3087E5E8EBF1E2DF011D928A957F
:20564000E9F708957F928F929F92AF92BF92CF92DF92EF92FF920F931F93CF93DF9300D0FC
:205660001F92CDB7DEB75C014B01F42E722E10E0D50112968C91181708F043C0B6E31B9FED
:2056800060011124D5011396ED91FC911497EC0DFD1D84818F1133C08581871511F00023CE
:2056A00071F180819181A281B3818F3F9F4FAF4FBF4F29F1CF010E949F01D4012D913D91C9
:2056C0004D915C916217730784079507C1F4E982F50123813481C9018C0D9D1D002311F035
:2056E0004E9601C006968A839B83F901EC0DFD1DAE014F5F5F4F63E085810E948F101F5F1E
:20570000B7CF2396CDBFDEBFDF91CF911F910F91FF90EF90DF90CF90BF90AF909F908F9049
:205720007F900895FC0180937D2190937E2188EE90E2808391836283438354830895089592
:205740001F93CF93DF93EC010E947E2E182F888182958F700E94492DFC011683DF91CF91A4
:205760001F9108951F93CF93DF93EC010E947E2E182F888182958F700E94492DFC01158308
:20578000DF91CF911F910895009769F020910F203091102042E284349407E0F382179307AE
:2057A000C8F70C946A3208950C94C42BCF93DF93EC010E94D23120910F203091102042E267
:2057C00084349407E0F382179307C8F72197C80FD91F42E2C434D407E0F3C217D307C8F7EE
:2057E000DF91CF9108950C94D62B8111FFCF80E092E008958115924099F4809125228F3FB1
:2058000079F0811108C09FB7F894809171008D7F809371009FBF809125228F5F80932522D3
:2058200008951F93CF93DF93E0ECF1E022851FB7F8948287A8E4B0E04C919C918C9180953E
:2058400089238C93C0EAD0E038819A818A81887F84608A838C9181608C93858558ED54BFCD
:2058600051E0538753E05587789488954C9338839A83858722870E943A0E1FBFDF91CF91E1
:205880001F9108950E943A0E8091CF0181FF03C086E30C94112C0895CF93DF93D82FC0919E
:2058A000CA010E94422C83E38093CA011092C2011092C10180E08093C001D093C4018F5FB6
:2058C0008032C9F7C093CA01DF91CF910C943A0E8F929F92AF92BF92CF92DF92EF92FF92B8
:2058E0000F931F93CF93DF938C015B017A0190518115944018F080E090E034C0CA01905159
:20590000800F911F81159440B0F7C12CD12C80E2982EE114F10429F1802E802F8F71C92DCE
:20592000C81B8C2F90E0E816F90608F4CE2D0E94422CD0E0AE01B501C8010E944F331092B1
:20594000C2011093C1018092C00185E30E94112CAC0EBD1EEC1AFD0ACC0EDD1E0C0F1D1F37
:20596000D8CFC601DF91CF911F910F91FF90EF90DF90CF90BF90AF909F908F9008950F93A2
:205980001F93CF93DF931F92CDB7DEB78C0169838091CC0183FF11C0011580E1180708F47B
:2059A000105F41E050E0BE016F5F7F4FC8010E94682C21E0892BC9F404C0011584E01807FE
:2059C00010F020E012C00E94422C83E38093CA011092C2011093C1010093C0018981809366
:2059E000C40185E30E94112C21E0822F0F90DF91CF911F910F910895EF92FF920F931F9327
:205A0000CF93DF938A012091CC0123FF0EC0811520E1920708F4905FA801DF91CF911F9175
:205A20000F91FF90EF900C94682C7B01EC01C61BD70BCE018E0D9F1D0115110551F0F701CD
:205A400061917F010E94BF2C882331F001501109F0CF80E090E001C0C801DF91CF911F9177
:205A60000F91FF90EF9008951F920F920FB60F9211248F93EF93FF93E0ECF1E085858C7F06
:205A80008587FF91EF918F910F900FBE0F901F9018958D3048F4E82FF0E0EE0FFF1FE65131
:205AA000FF4D80819181089586E292E208958FEF80932E220895CF92DF92EF92FF920F936D
:205AC0001F93CF93DF939C01240F351F2130314098F48A01EB016B01C40ED51E7C01E61AA9
:205AE000F70AB7016C0F7D1FCC15DD0541F081E00E94892D8993F5CF80E090E001C0C801EF
:205B0000DF91CF911F910F91FF90EF90DF90CF9008954091CA01E62FF72F8093CA01849122
:205B20004093CA010895611110C0833059F028F48230B9F480E098E00895843091F480E063
:205B40009AE0089580E099E00895613051F4833029F08D3031F0823021F406C080E499E0CE
:205B6000089580E090E0089580E498E00895FC019381907CE9F30895AF92BF92CF92DF92A8
:205B8000EF92FF920F93CF93DF93EC019B8193709130B1F469017A01660F6D83CE010E9450
:205BA000B72D5701E12CF12C8B8180FD03C0EC14FD0449F4011115C08B8180FD12C013C0E0
:205BC00080E090E011C0F50181915F018E83CE010E94B72D8B8180FDEDCF8FEFE81AF80A8F
:205BE000E3CF83E08A83C701DF91CF910F91FF90EF90DF90CF90BF90AF900895AF92BF92B2
:205C0000CF92DF92EF92FF920F931F93CF93DF93EC018B818370813039F08B818370823001
:205C200019F080E090E02EC0B02E79018A01660F61606D83CE010E94B72D8E81F801819323
:205C40006F0101E010E082E0A82E8B8180FD03C00E151F0530F0B11012C08B8180FD0FC02D
:205C600010C0AA82CE010E94B72D8B8180FDF3CF0F5F1F4F8E81F60181936F01E6CF87E006
:205C80008A83C801DF91CF911F910F91FF90EF90DF90CF90BF90AF9008956295607F4F7072
:205CA000642BFC0160830895CF93DF93FC018081982F9F70C1E0D0E001C0CC0F9A95EAF733
:205CC00082958F700E94492DFC01C283DF91CF910895CF93DF93FC018081982F9F70C1E09E
:205CE000D0E001C0CC0F9A95EAF782958F700E94492DFC01C183DF91CF910895FC0190815E
:205D00009F7081E001C0880F9A95EAF70895FF920F931F93CF93DF93EB01F42EFC01808149
:205D2000982F9F7001E010E001C0000F9A95EAF782958F700E94492DFC013896CE01FF20F5
:205D400039F00080002219F400000197D1F706C00080002219F000000197D1F7DF91CF916A
:205D60001F910F91FF900895CF93DF93EC01888182958F700E94492DFC01308528812F70B5
:205D800081E090E001C0880F2A95EAF78323DF91CF910895CF93FC016083C62FCF70862FFC
:205DA00082958F700E94492DC83050F4FC017096EC0FF11D8081877C808380818861808379
:205DC000CF910895FF920F931F93CF93DF931F92CDB7DEB78C01FC0180818983803E80F17D
:205DE000CE0101960E94A02B8FEB92E10197F1F700C00000FFB6F894C8010E94542E90EAFB
:205E00009A95F1F740E068E071E0C8010E94872EFFBE892B11F48FEF18C0EFEFFEE0319742
:205E2000F1F700C00000C8010E94B42E882331F0FAE6FA95F1F700C080E007C08DEF05C022
:205E4000CE0101960E94692ECBCF0F90DF91CF911F910F91FF9008950F931F93CF93DF93F6
:205E6000EC01162F0FB7F8940E94692E85E18A95F1F70000112319F0CE010E94542E9AE846
:205E80009A95F1F700C0CE010E94B42E811101C010E087E691E00197F1F700C00000CE01A8
:205EA0000E94542E9AE69A95F1F700C00FBF812FDF91CF911F910F9108950F931F93CF9376
:205EC000DF938C01C62FD8E06C2F6170C8010E942C2F2C2F30E035952795C22F8111C06848
:205EE000D15091F78C2FDF91CF911F910F910895BF92CF92DF92EF92FF920F931F93CF9396
:205F0000DF937C01C62E8A010E94E22E81113BC060EFC7010E945D2FD0E0C0E498EFB92ECD
:205F2000BC0E61E0C7010E942C2FD82E61E0C7010E942C2F882319F0DD2071F026C0D110AC
:205F40000BC0CC1530F0F801808180FF05C0CC1519F0DC2FDD24D3946D2DC7010E942C2F7B
:205F6000F801208130E035952795DD2011F02068F8012083C150CB11D4CF0F5F1F4FC11191
:205F8000CDCF8D2F03C08FEF01C08EEFDF91CF911F910F91FF90EF90DF90CF90BF90089542
:205FA000CF92DF92FF920F931F93CF93DF93EC01F62E8A010E94E22E0115110591F065E511
:205FC000CE010E945D2F680188E0C80ED11CF80161918F01CE010E945D2F0C151D05B9F7C5
:205FE00004C06CECCE010E945D2F6F2DCE01DF91CF911F910F91FF90DF90CF900C945D2F74
:20600000FC018081282F2F7030E02430310514F460E004C0263031052CF461E082958F70E3
:206020000C94932D80E090E008950F931F93CF93DF93EC0189010E944D2E8881803E10F10F
:20604000CE010E940030FC01892B01F18081807F816080838181887F8360818306A317A3C5
:2060600088818F70843008F08450418120E130E0B90102C0660F771F8A95E2F7CB01842BCB
:20608000818304C0CE010E94692EDACFDF91CF911F910F910895CF93DF93EC010E94003037
:2060A000009721F0FC012081211105C0CE010E94B42E90E00DC028812F70243008F024500B
:2060C000C896FC01E20FF11DE20FF11D80819181DF91CF9108950F931F93CF93DF93EC01D2
:2060E0008B010E940030FC0198819F70943008F094503097D9F0492F50E09A01220F331F27
:20610000DF01D896A20FB31F0D931C9380818823E1F001151105C9F0818120E130E0092EB3
:2061200001C0220F0A94EAF7282B19C0CE01012B31F0DF91CF911F910F910C94B22BDF9199
:20614000CF911F910F910C94A02B818120E130E0092E01C0220F0A94EAF7209528232183C5
:20616000218140E150E0BA0102C0660F771F9A95E2F7CB0130E082239323892BB9F2DF9196
:20618000CF911F910F9108959091010490FDFCCF90910004987F892B80930004089531E07F
:2061A0002FB7F8944091030440FF0CC040913E2250913F224F5F5F4F40933E2250933F2244
:2061C000309303044091080450910904BA012FBF2091030420FDE4CF80913E2290913F2206
:2061E0000895CF92DF92EF92FF920F931F93CF93DF93EC010E94CF30088119812A813B81DE
:206200006B017C01C01AD10AE20AF30A601771078207930760F4C701B6016150710981095D
:20622000910997FF06C060E070E0CB0102C0C701B601DF91CF911F910F91FF90EF90DF902E
:20624000CF9008951F93CF93DF93182FEB0180E00E94C430809143008E7F80934300153097
:2062600031F4C115D04219F483E09EE002C081E094E020914300217F2160922B9093430054
:2062800020910804309109043C5F40910804509109049091010490FDFCCF6FEF7FEF6093D0
:2062A0000A0470930B049091010490FDFCCF40930804509309049091010490FDFCCF209340
:2062C0000C0430930D04DF91CF911F910C94C430AA1BBB1B51E107C0AA1FBB1FA617B70714
:2062E00010F0A61BB70B881F991F5A95A9F780959095BC01CD01089597FB072E16F4009466
:2063000007D077FD09D00E94683107FC05D03EF4909581959F4F0895709561957F4F0895E8
:20632000A1E21A2EAA1BBB1BFD010DC0AA1FBB1FEE1FFF1FA217B307E407F50720F0A21B37
:20634000B30BE40BF50B661F771F881F991F1A9469F760957095809590959B01AC01BD01CD
:20636000CF010895A29FB001B39FC001A39F700D811D1124911DB29F700D811D1124911D1C
:2063800008950E94B231A59F900DB49F900DA49F800D911D11240895EE0FFF1F0590F49185
:2063A000E02D09940F931F93CF93DF938230910510F482E090E0E0914222F091432220E032
:2063C00030E0A0E0B0E0309719F1408151810281138148175907C8F08417950769F4109770
:2063E00031F012960C93129713961C9327C0009342221093432222C02115310519F042179E
:20640000530718F49A01BD01EF01DF01F801DBCF21153105F9F0281B390B2430310580F470
:206420008A819B816115710521F0FB018283938304C08093422290934322FE01329644C093
:20644000FE01E20FF31F8193919322503109288339833AC02091402230914122232B41F43B
:206460002091022030910320209340223093412220910020309101202115310541F42DB7F2
:206480003EB74091042050910520241B350BE0914022F0914122E217F307A0F42E1B3F0BBC
:2064A0002817390778F0AC014E5F5F4F2417350748F04E0F5F1F40934022509341228193D4
:2064C000919302C0E0E0F0E0CF01DF91CF911F910F910895CF93DF93009709F481C0FC0113
:2064E000329712821382A0914222B0914322109781F420813181820F931F209140223091E9
:2065000041222817390751F5E0934022F093412267C0ED0120E030E0CE17DF0740F44A81A9
:206520005B819E0141155105F1F0EA01F5CFC283D38340815181840F951FC817D90759F423
:2065400088819981840F951F0296808391838A819B81828393832115310529F4E093422280
:20656000F09343223DC0E901EA83FB8349915991C40FD51FEC17FD0761F480819181840FD4
:20658000951F0296E90188839983828193818A839B83E0E0F0E012968D919C911397009798
:2065A00019F0FD01DC01F7CF8D919C9111979D012E5F3F4F820F931F20914022309141220B
:2065C0002817390769F4309729F4109242221092432202C012821382A0934022B0934122C8
:2065E000DF91CF9108958F929F92AF92BF92CF92DF92EF92FF92CF93DF93EC0168817981C2
:206600008A819B81611571058105910521F464E279ED8BE597E02DE133EF41E050E00E9480
:206620005F3349015A019B01AC01A7EAB1E40E94C1316B017C01ACEEB4EFA50194010E941D
:206640008133DC01CB018C0D9D1DAE1DBF1DB7FF03C00197A109B04888839983AA83BB839E
:206660009F77DF91CF91FF90EF90DF90CF90BF90AF909F908F9008950E94F332089586E015
:2066800090E20E94F3320895A0E0B0E08093062090930720A0930820B09309200895FB0131
:2066A000DC0102C001900D9241505040D8F70895DC0101C06D9341505040E0F70895052E18
:2066C00097FB1EF400940E94763357FD07D00E94903107FC03D04EF40C947633509540958E
:2066E000309521953F4F4F4F5F4F089590958095709561957F4F8F4F9F4F0895B7FF0C94E6
:20670000C1310E94C131821B930B0895F894FFCF00004422200001000000003D8F600144C9
:206720002ACC00C80202FFCC00C80505FFFF000000009F2B9F2B60026202000000000D0392
:206740000A030303160300000000540451045B04020700000000540451045B0402070000E3
:206760000000540451045B040207000000005404510485078C07000000006E0CED08F708CA
:20678000170A000000006E0C6F0CEB0AE00A00000000080C860BA00B900B000000006E0C9F
:2067A0006F0C710C710C000000004218541423186716000000006E0CFD18D41A1E19000036
:2067C00000006E0C8A1CBE1F8E20000000006F21AE200622D12000000000812200000000F4
:2067E0005C23000000006E0CB1246D26C02400000000A42700000000222B000620064006CA
:18680000600680062622262226222622262226222622E0076A842B009C
:00000001FF
