:200000000C940F010C9475010C9475010C9475010C9475010C9475010C9475010C94750196
:200020000C9475010C9475010C9475010C9475010C9475010C9475010C9475010C94750110
:200040000C9475010C9475010C9475010C9475010C9475010C9475010C9475010C947501F0
:200060000C9475010C9475010C9475010C9475010C9475010C9475010C9475010C947501D0
:200080000C94FA2B0C9475010C9475010C9475010C9475010C9475010C9475010C94750101
:2000A0000C9475010C9475010C9475010C94CA020C9475010C9475010C9475010C9475013A
:2000C0000C9475010C9475010C9475010C9475010C9475010C9475010C9475010C94750170
:2000E0000C9475010C9475010C9476020C9475010C9475010C9475010C9475010C9475014E
:200100000C9475010C9475010C9475010C9475010C9475010C9475010C9475010C9475012F
:200120000C9475010C9475010C9475010C9475010C9475010C9475010C9475010C9475010F
:200140000C9475010C9475010C9475010C9475010C9475010C9475010C9475010C947501EF
:200160000C9475010C9475010C9475010C9475010C9475010C9475010C9475010C947501CF
:200180000C9475010C9475010C9475010C9475010C9475010C9475010C9475010C947501AF
:2001A0000C9475010C9475010C9475010C9475010C9475010C9475010C9475010C9475018F
:2001C0000C9475010C9475010C9475010C9475010C9475010C9475010C9475010C9475016F
:2001E0000C9475010C9475010C9475010C9475010C9475010C9475010C947501244D4F4461
:2002000024204842572D444556202000F86400000207B0100702FB02B027F4291D2C1124D0
:200220001FBECFEFCDBFDFE2DEBF80E08CBF67E280E890E00E9457028091820080FDFCCF97
:2002400060E081E490E00E945702809150008660809350008091510086708630D9F7609115
:200260004000687F616080E490E00E94570280914000809150008E7F809350008091500044
:200280008091600081608093600010E2A0E0B0E2ECE0F4E602C005900D92AC3EB107D9F787
:2002A00022E2ACEEB0E201C01D92A632B207E1F7E6E2F2E288E49AE28193E632F907E0F3B2
:2002C00083E590E38193E030F907E0F311E0CFE0D1E004C02197FE010E944A30CB30D10791
:2002E000C9F70E940C020C9404320C940000CF93FC01680F791F2CEB31E652ECADE9B3E213
:20030000C6E48CE8E617F707B9F09191942790FF02C04EE501C040E091FD422792FD4327E9
:2003200093FD452794FD4A2795FD4B2796FD4C2797FFE8CF4827E6CF842FCF910895FC0197
:20034000638172818181908108950F931F93CF93DF9300D000D0CDB7DEB76115710509F44C
:2003600053C0DB01182F60935B2170935C2160930622709307221296ED91FC91139717821B
:2003800087E6868383E2858388E184831296ED91FC91139793819F7C9061938390915D21D8
:2003A000916090935D21ED91FC910280F381E02DCB0109951093602180935E2190935F21DA
:2003C000FC0186819781A085B18589839A83AB83BC83CE0101960E949F018B019C011D53CF
:2003E0002F483046003816492849310540F460930A2070930B2080930C2090930D208091B3
:200400005D21826080935D212496CDBFDEBFDF91CF911F910F910895CF93DF93CDB7DEB75E
:200420006897CDBFDEBF60E074E082E00E94B42F8091CF0187FDFCCF8091CC018860809310
:20044000CC0148E150E0BE016F5F7F4F80E090E00E94212C489711F080EB8F8B8F890E943D
:20046000A7078C01BC018F890E94A501D801ED91FC910280F381E02DC8010995FC018681D2
:2004800097810E94C2318091A2008F7B9FB7F8941BBE28ED24BF8093A2009FBF8091A20079
:2004A00087608093A20078940E941F12FDCFFC019FB7F8941BBE88ED84BF60839FBF0895A7
:2004C00080E00895089522E230E2FC012083318320EA3AE022833383E0E8F6E081858C7FEA
:2004E0008160818782858460828708951F920F920FB60F9211242F933F934F935F936F932B
:200500007F938F939F93AF93BF93EF93FF938091A00A0E94E427009761F10E949E22811188
:2005200023C08CE991E20E94C3229C01892BE1F0809199218830C1F090919B219F5F909315
:200540009B2190919B21977090939B21909199219F5F90939921E0919B21F0E0EE0FFF1F4E
:20056000E757FE4D2083318380918A06846080938A06FF91EF91BF91AF919F918F917F9173
:200580006F915F914F913F912F910F900FBE0F901F9018951F920F920FB60F9211242F93E5
:2005A0003F934F935F936F937F938F939F93AF93BF93EF93FF930E94612F6093012270933A
:2005C00002228093032290930422E0E8F6E082858B7F8287FF91EF91BF91AF919F918F91CE
:2005E0007F916F915F914F913F912F910F900FBE0F901F901895E0E8F6E084E0828388E0B5
:20060000828381830895809108068295817091E08927089580E090E1089581E0662319F0EE
:200620008093E50708958093E6070895CF93C62F8091F02081110DC00E94612F6093EC2079
:200640007093ED208093EE209093EF2081E08093F020C53050F4C23078F4CC2349F0C13003
:2006600059F582E08093E50727C0C53079F024C082E08093E60720C08CEE90E20E94832F20
:20068000653F714081059105B8F009C08CEE90E20E94832F693C71058105910568F082E047
:2006A0008093E7070E94612F6093EC207093ED208093EE209093EF20CF910895CF92DF92D6
:2006C000EF92FF920F93CF93DF9300D0CDB7DEB77C016B010E9463028EE290E2F7018083DC
:2006E000918340E060E0CE0101960E940F2D20E030E040E150E16981C70104960E94A21D33
:2007000041E060E0CE0101960E940F2D20E030E042E150E16981C7014A960E94A21D42E0BB
:2007200060E0CE0101960E940F2D20E030E044E150E16981C701C0960E94A21D43E060E003
:20074000CE0101960E940F2D20E030E046E150E16981C7018A5B9F4F0E94A21D40E06DE09A
:20076000CE0101960E940F2D40E062E0CE0102960E940F2D08E028E130E149816A81C7010F
:20078000845A9F4F0E946E1241E06DE0CE0101960E940F2D41E062E0CE0102960E940F2D11
:2007A0002AE130E149816A81C70187589F4F0E946E1242E06DE0CE0101960E940F2D42E0DC
:2007C00062E0CE0102960E940F2D2CE130E149816A81C7018A569F4F0E946E1243E06DE097
:2007E000CE0101960E940F2D43E062E0CE0102960E940F2D2EE130E149816A81C7018D548D
:200800009F4F0E946E1240E250E16EE1C70180539F4F0E949D2144ED50E16FE0C7018B52E7
:200820009F4F0E94742AE0EEF7E081E08283818382E08283818380E180930206E1EFF7E0ED
:20084000808180648083E4E1F6E08081877C808380818861808360E082E00E94592CFC015B
:200860008181887F8360818380ECC81A89EFD80AC6A2D7A28081807F816080830F900F90DD
:20088000DF91CF910F91FF90EF90DF90CF90089580E090E10895885B9C4F61110C94942A63
:2008A0000C94822ACF93DF93EC0187599F4F0E94492D811107C0CE0181589F4F0E94492D3E
:2008C00091E0811190E0892FDF91CF910895CF93DF931F92CDB7DEB7DC0116966C931697AD
:2008E0001B968D919C911C97009779F061110DC02FEC2983DC01ED91FC910190F081E02D4C
:20090000AE014F5F5F4F61E009950F90DF91CF910895BF92CF92DF92EF92FF920F931F9358
:20092000CF93DF931F92CDB7DEB77C01D62EC42E122F0E9463028AE390E2F7018083918370
:2009400040E060E0CE0101960E940F2D20E030E040E150E16981C70104960E94A21D41E0C3
:2009600060E0CE0101960E940F2D20E030E042E150E16981C7014A960E94A21D42E060E03A
:20098000CE0101960E940F2D20E030E044E150E16981C701C0960E94A21D43E060E0CE0112
:2009A00001960E940F2D20E030E046E150E16981C7018A5B9F4F0E94A21D44E060E0CE0141
:2009C00001960E940F2D20E030E048E150E16981C701845A9F4F0E94A21D45E060E0CE0125
:2009E00001960E940F2D20E030E04AE150E16981C7018E589F4F0E94A21D40E061E0CE01FF
:200A000001960E940F2D20E030E04CE150E16981C70188579F4F0E94A21D41E061E0CE01E2
:200A200001960E940F2D20E030E04EE150E16981C70182569F4F0E94A21D42E061E0CE01C6
:200A400001960E940F2D20E030E040E250E16981C7018C549F4F0E94A21D43E061E0CE01AA
:200A600001960E940F2D20E030E042E250E16981C70186539F4F0E94A21D46E062E0CE018B
:200A800001960E940F2D20E030E044E250E16981C70180529F4F0E94A21D47E062E0CE016F
:200AA00001960E940F2D20E030E046E250E16981C7018A509F4F0E94A21D40E062E0CE014C
:200AC00001960E940F2D04E6212F48E250E16981C701845F9E4F0E941F1E41E062E0CE0179
:200AE00001960E940F2D212F4AE250E16981C7018A5D9E4F0E941F1E42E062E0CE010196A5
:200B00000E940F2D212F4CE250E16981C701805C9E4F0E941F1E43E062E0CE0101960E9481
:200B20000F2D212F4EE250E16981C701865A9E4F0E941F1E44E062E0CE0101960E940F2DC0
:200B4000212F40E350E16981C7018C589E4F0E941F1E45E062E0CE0101960E940F2D212F94
:200B600042E350E16981C70182579E4F0E941F1E40E063E0CE0101960E940F2D20E044E3FA
:200B800050E16981C70188559E4F0E941F1E41E063E0CE0101960E940F2D20E046E350E1C7
:200BA0006981C7018E539E4F0E941F1E42E063E0CE0101960E940F2D20E048E350E16981E7
:200BC000C70184529E4F0E941F1E43E063E0CE0101960E940F2D20E04AE350E16981C701F1
:200BE0008A509E4F0E941F1E44E063E0CE0101960E940F2D20E04CE350E16981C701805FB3
:200C00009D4F0E941F1E45E063E0CE0101960E940F2D20E04EE350E16981C701865D9D4F7A
:200C20000E941F1E87010C5B1D4F6C2DC8010E945F2D40E450E1B801C701895B9D4F0E94A2
:200C4000B71746E450E1B801C7018A599D4F0E94B7174CE450E1B801C7018B579D4F0E9459
:200C6000B71742E550E1B801C7018C559D4F0E94B71748E550E1B801C7018D539D4F0E9443
:200C8000B7174EE550E1B801C7018E519D4F0E94B71760E084E00E94592CB82EC92E46E098
:200CA00060E0CE0101960E940F2D04E610E12B2D3C2D40E06981C7018F5F9C4F0E94180BA4
:200CC0004AE650E160EA74E0C701845E9C4F0E949F2346E750E168E2C701875C9C4F0E943C
:200CE0009D2146E651E168E2C701825C9C4F0E945C2240E750E169E2C7018D5B9C4F0E94FD
:200D00003427F8EBEF1AFCEFFF0AF701D082FFEDFD1518F0C7010E94162DF7018081803EE4
:200D200018F4C7010E942B2D86E58093800187E08093880197E5909381018093890160E0E5
:200D400084E00E94592CFC018181887F81838FEF9FEF86A397A38081807F876080838381A1
:200D600080718862838383E08093B00088E18093900688E38093A1049BE99093A50491E076
:200D80009093A4048093A8048BEA8093AB048CEC8093AA040F90DF91CF911F910F91FF900B
:200DA000EF90DF90CF90BF900895FF920F931F93CF93DF93CDB7DEB72697CDBFDEBF209191
:200DC000F820261709F46BC0F62E8C0181E0681741F1681758F082E0681709F443C085E0C6
:200DE00068135BC086E0E2E1F0E23FC01982AE014F5F5F4F61E0C8018C589E4F0E94A11E81
:200E0000AE014F5F5F4F61E0C80182579E4F0E94A11EF801E45AFF4F81E086837696868392
:200E20003CC084E68983AE014F5F5F4F61E0C8018C589E4F0E94A11EAE014F5F5F4F61E0AD
:200E4000C80182579E4F0E94A11E60E0C801845A9F4F0E94670460E0C8018E589F4F0E9441
:200E600067041BC086E0E8E1F0E2DE01119601900D928A95E1F7AE014F5F5F4F66E0C80164
:200E80008C589E4F0E94A11EAE014F5F5F4F66E0C80182579E4F0E94A11EF092F820269689
:200EA000CDBFDEBFDF91CF911F910F91FF900895809108068095881F8827881F0895CF938D
:200EC000C62F8091F92081110DC00E94612F6093012170930221809303219093042181E047
:200EE0008093F920C53050F4C23078F4CC2349F0C13059F580E48093050627C0C53079F001
:200F000024C080E48093060620C081E091E20E94832F653F714081059105B8F009C081E01F
:200F200091E20E94832F693C71058105910568F080E4809307060E94612F6093012170938D
:200F400002218093032190930421CF9108950F931F93CF93DF9300D01F92CDB7DEB7182FE9
:200F6000809100108F3F51F41B8241E050E0BE016D5F7F4F80E090E10E94C22B113B09F051
:200F80007AC080910010811148C08AE493E00E94D52A8C0147E063E0CE0101960E940F2D9F
:200FA00041E064E0CE0102960E940F2D21E049816A81C8010E94890486E490E2F801808301
:200FC000918381E08093820680938106E5E0F1E2808D918DA191B1911B968D939C931C977D
:200FE00081E2ED31F807A1F781E0F801838781A387ABE35BFF4F8083769680837696808372
:2010000076968083769680837696808376968083769680837696808397C0813009F089C02C
:2010200089E493E00E94D52A8C0141E06CE0CE0101960E940F2D40E06CE0CE0102960E947C
:201040000F2D20E049816A81C8010E94890482E590E2F80180839183E5E0F1E2808D918DFB
:20106000A191B1911B968D939C931C9781E2ED31F807A1F769C0123B09F040C080910010A1
:20108000823008F056C08BE493E00E94D52A8C0141E06CE0CE0101960E940F2D40E06CE063
:2010A000CE0102960E940F2D20E049816A81C8010E9489048EE590E2F8018083918380E4E5
:2010C000809302068093010680E880930206EB5FFC4F108211827B9610821182809116063B
:2010E00080648093160680911706877C809317068091170688618093170626C0133BC9F444
:2011000080910010811108C08DED90E00E94D52A8C0168EE73E009C0813059F48DED90E0E2
:201120000E94D52A8C0168E270E0C8010E945E030BC08091CF0187FDFCCF40E260E070E06E
:20114000CB010E94DC47FFCFC8012396CDBFDEBFDF91CF911F910F910895FC012089FB0126
:201160002083FC018785FB01818382E008950F931F93CF93DF93CDB7DEB72797CDBFDEBF9C
:201180008C01DC011B968D919C911C97FC0121812B3F50F025E02F8341E050E0BE01695F5E
:2011A0007F4F01960E94C22BD8011B968D919C911C97FC01228133812115310529F0255065
:2011C00031092C303E4050F5D8011B968D919C911C97FC01248135812115310529F02550DC
:2011E00031092C303E4038F5D8011B96ED91FC911C9784819581009759F12281338182177A
:20120000930730F519821A8242E050E0BE016F5F7F4FCF0104960E94C22B1AC02AE030E03E
:201220002D833E8342E050E0BE016B5F7F4F02960E94C22BC9CF26E930E02B833C8342E027
:2012400050E0BE016D5F7F4F04960E94C22BCCCF2796CDBFDEBFDF91CF911F910F9108959E
:20126000CF93DF93EC010E94612F688379838A839B83DF91CF9108954F925F926F927F9218
:201280008F929F92AF92BF92CF92DF92EF92FF920F931F93CF93DF93CDB7DEB7CD55D10949
:2012A000CDBFDEBFDC011B96ED91FC911C972181211109C022813381232B29F424813581FF
:2012C000232B09F4A0C1F62E8C0143960E94832FF801448155814A01A12CB12C6815790500
:2012E0008A059B0508F48FC1F8012285211140C0EFB6F894D8010780F085E02D80E190E0BD
:201300009C0119960C90199702C0220F331F0A94E2F724871796ED91FC91189720A131A1D4
:201320001D962D933C931E97218119960C9002C0880F991F0A94E2F7822B8183C80106962B
:201340000E94162D8AE090E0F80184839583CE0101960E94300989819A81AB81BC81F801EE
:20136000838B948BA58BB68B81E08287EFBE4CC0213009F049C0CA010A96848395839185B9
:20138000A781B0851C962C911C97E92FF0E040E150E0BA0102C0660F771F9A95E2F7CB0139
:2013A000262391F1EE0FFF1F9D01285D3F4FE20FF31F20813181F80145855685241B350B23
:2013C00043E0369527954A95E1F72130F0E13F0720F0F8011786108A08C040E050E1BA0130
:2013E000621B730BF8016787708B11969C9111978095892311968C93C80106960E942B2DAE
:2014000082E0D8011A968C93F80184819581813D9740C0F0D8011796ED91FC911897218187
:2014200080E190E019960C9002C0880F991F0A94E2F7809582238183C80106960E942B2DEB
:20144000F8011286D8011A968C911A97823009F0DAC01B96ED91FC911C9782819381892B25
:20146000D1F0C80147960E94832F4B015C01D8011B96ED91FC911C9722813381A8EEB3E040
:201480000E943030EE24E39486169706A806B90620F4E12C02C0EE24E394D8011B96ED91A7
:2014A000FC911C9784819581892B49F4D8011B96ED91FC911C974181411119C029C0C801F9
:2014C00047960E94832F4B015C01D8011B96ED91FC911C9724813581A8EEB3E00E94303064
:2014E00086169706A806B90608F321E012C0F8018785908921893289821B930B97FF03C061
:2015000091958195910950E021E08417950708F420E0EE2009F467C0222309F464C0D80120
:20152000ED91FC910280F381E02DBE01645A7F4FC8010995E82EE0915E21F0915F218281E1
:201540009381A481B5816C968CAF9DAFAEAFBFAF6C97CE01885A9F4F0E949F014B015C013B
:2015600040900A2050900B2060900C2070900D20CE0102960E943009FE0131966F0187E539
:20158000DF011D928A95E9F789E6888BF98A4E2D50E0BE01645A7F4FCE0142960E94CD317B
:2015A00088EF8A874B865C866D867E868E829F82A886B986E394E394EF86C6010E94412727
:2015C000811111C0F80187859089818B928BC6010E94300989819A81AB81BC81F801878B26
:2015E000908FA18FB28FD80114968D919C911597883E934028F488EE93E0F801848395832B
:20160000D8011A961C92C35ADF4FCDBFDEBFDF91CF911F910F91FF90EF90DF90CF90BF90D4
:20162000AF909F908F907F906F905F904F9008956F927F928F92DF92EF92FF920F931F939A
:20164000CF93DF93EC01D62E3901842E0E946B0B8AE690E2888399837E0186E0E80EF11CD0
:20166000DE828FED8D1518F0C7010E94162D8E81803E18F4C7010E942B2D6F82788689869E
:201680001A860B871C871D861E861F86188A198A1A8ACE0143960E943009CE0147960E94CF
:2016A00030091B8A1C8A1D8A1E8A1F8A188E198E1A8EC701DF91CF911F910F91FF90EF90C3
:2016C000DF908F907F906F900C94942A089580E0089508950895DC0186E790E28D939C9331
:2016E000119712961C921297E0914D211396EC93139788EE93E014968D939C93159781E0A3
:201700008E0F80934D21F0E0EE0FFF1FEB5FFE4DA083B18308959B013F7364E0769F612D02
:20172000772711246130710509F158F06230710511F5D90120E030EA4FE050E00E943F301B
:201740000895C901A0E0B0E0BC01CD012AE0660F771F881F991F2A95D1F72AE030E040E052
:2017600050E00E940E30CA01B9010895A0E0B0EF0E943030089560E070E0CB0108958F925F
:201780009F92AF92BF92CF92DF92EF92FF920F931F93CF93DF936B017C01FA0188E4808327
:2017A00082E4818387E582838A01065F1F4FEA0123968AE0882E912CA12CB12C0C171D077E
:2017C00091F0C701B601A50194010E940E30605DF80162938F01C114D104E104F10471F3CB
:2017E00069017A01EBCFDF91CF911F910F91FF90EF90DF90CF90BF90AF909F908F900895D5
:20180000CF93DF93EC0101960E94300987E5FE0111928A95E9F7DF91CF910895FC0180811D
:2018200080FF03C081E09785961380E00895FC01818580FD07C08685823020F081E09785B2
:20184000993609F080E008958091CF0187FDFCCF0895CF92DF92EF92FF920F931F93CF935C
:20186000DF93CDB7DEB7C755D109CDBFDEBF80915D2181FF53C00E94BD31182F0FB7F89473
:2018800081E092E20E94832F0FBF212F2F70295F022F10E020E030E00617170728073907FF
:2018A000E8F5E0915E21F0915F21108100916021C0900A20D0900B20E0900C20F0900D2069
:2018C000CE0101960E94000CCB86DC86ED86FE868FEF9FEFDC018E839F83A887B98788EF48
:2018E0008A8781E4888B198A0A8B1B8B82E08C8B87E08D8BAE014A5E5F4FC701B6010E9463
:20190000BF0B80E18F87CE0101960E944127811105C080915D218D7F80935D21C95ADF4F42
:20192000CDBFDEBFDF91CF911F910F91FF90EF90DF90CF900895CF92DF92EF92FF920F935F
:201940001F93CF93DF93CDB7DEB72597CDBFDEBFE0915E21F0915F211081C680D780E08480
:20196000F1840091CC010E94240C8091CC01877F8093CC018FEF0E94122B0E94240C80E36C
:201980000E94D72A03FF07C00E94240C8091CC0188608093CC0180915E2190915F211D8392
:2019A00041E050E0BE016B5F7F4F0E94C22B80915E2190915F21C982DA82EB82FC8244E009
:2019C00050E0BE016F5F7F4F06960E94C22B80915D21846080935D212596CDBFDEBFDF91F9
:2019E000CF911F910F91FF90EF90DF90CF9008951F93CF93DF9300D000D0CDB7DEB780916E
:201A00005B2190915C21892B09F4BAC080915321811107C08FE491E20E94300981E080936E
:201A2000532180915B2190915C21DC01ED91FC910480F581E02D0995182F80914E21823001
:201A400009F441C028F4882361F0813001F18BC0843009F46AC008F451C0853009F47DC0AB
:201A600082C0112319F081E080934E21CE0101960E94300989819A81AB81BC8180934F21B2
:201A800090935021A0935121B09352216CC08FE491E2112351F00E94832F693873418105A1
:201AA000910508F460C082E055C00E94832F653671058105910508F454C080915D218260FB
:201AC00080935D214EC011114EC083E080934E21CE0101960E94300989819A81AB81BC8183
:201AE00080934F2190935021A0935121B093522180915D21806280935D2135C08FE491E297
:201B00000E94832F643671058105910560F1112311F084E0A9CF8FE491E20E94832F693808
:201B2000734181059105E8F41EC08FE491E20E94832F6436710581059105A8F0112389F070
:201B40008FE491E20E94832F693B7B408105910550F085E080934E2106C0111104C00E945B
:201B60009B0C10924E2180915B2190915C21DC01ED91FC910680F781E02D60914E21099591
:201B80002496CDBFDEBFDF91CF911F9108950F931F93CF93DF9300D000D0CDB7DEB7E091F3
:201BA0005E21F0915F2186819781A085B18589839A83AB83BC83CE0101960E949F0100915C
:201BC0000A2010910B2020910C2030910D206017710782079307B9F08B019C011D532F4879
:201BE0003046003816492849310540F460930A2070930B2080930C2090930D2080915D2194
:201C0000826080935D21E0915E21F0915F2191819253993CB0F410E080914D211817E8F476
:201C2000E12FF0E0EE0FFF1FEB5FFE4D80819181DC01ED91FC910680F781E02D09951F5FF2
:201C4000EBCF82E3898341E050E0BE016F5F7F4FCF0101960E94C22BDECF2496CDBFDEBF27
:201C6000DF91CF911F910F910895CF92DF92EF92FF92CF93DF93CDB7DEB7C755D109CDBF54
:201C8000DEBF80915D2180FF07C00E94C70D80915D218E7F80935D2180915D2183FF09C055
:201CA0008FB7F8941BBE98ED94BF91E0909379008FBF80915D2182FF0FC0A8958FB7F89458
:201CC0001BBE98ED94BF9BE1909380008FBF8091820080FDFCCFFFCF85FF27C0C0900A2058
:201CE000D0900B20E0900C20F0900D20CE0101960E94000CCB86DC86ED86FE8682E090E080
:201D0000A0E0B0E08E839F83A887B98788EF8A8783E2888B81E08F87CE0101960E9441272A
:201D200080915D218F7D80935D210E94612F6D3D75408105910510F00E94290CC95ADF4FA2
:201D4000CDBFDEBFDF91CF91FF90EF90DF90CF90089590914D21891778F4E82FF0E0EE0F92
:201D6000FF1FEB5FFE4D80819181DC01ED91FC910280F381E02D0994DB011C9281E008958D
:201D800090914D21891778F4E82FF0E0EE0FFF1FEB5FFE4D80819181DC01ED91FC91019085
:201DA000F081E02D09940895DF92EF92FF920F931F93CF93DF93EC010E946922D82E81110E
:201DC00002C0D12CC8C1898580FDFBCF65E7CE010E940E0C882321F080915D218860B7C0E5
:201DE00062E5CE010E940E0C882391F08E85843041F71A89412F50E0688979897627672785
:201E000076277061CE010F960E94CD311E87A1C163E4CE010E940E0C882321F080915D211C
:201E2000816095C066E7CE010E940E0C882389F080910A2090910B20A0910C20B0910D201E
:201E40008D839E83AF83B88782E08F8797E0988B69C168E6CE010E940E0C882359F0E09166
:201E60005E21F0915F218081909160219F87888B82E058C165E4CE010E940E0C882309F40F
:201E80004FC00A891B89812F869586958695912F977011F48C5F01C08B5F8E8785E68F8703
:201EA0004E8550E04450510960E070E0CE0143960E94D631402F50E060E070E180E090E050
:201EC000212F30E001E010E0281739070CF441C1DB01E0E0F0E0E417F507F4F4FD90EE2466
:201EE000EA94FE14B9F0FC01A3E0F595E795AA95E1F73496EC0FFD1FDC01A770BB277801DC
:201F000002C0EE0CFF1CAA95E2F7D701B785AB2BA78702C03196DFCF0196640F751FD4CF42
:201F20006BE4CE010E940E0C8111BDC06BECCE010E940E0C8111B7C05FC061E2CE010E94FA
:201F40000E0C882309F49CC080915D21846080935D2111E08D819E81AF81B8858F3F9F4F18
:201F6000AF4FBF4F09F42DCF80915D2186FF07C065E7CE010E940E0C882309F422CF298563
:201F8000822F8770833021F023FB222720F901C020E08A859B85AC85BD858D839E83AF838F
:201FA000B88780910A2090910B20A0910C20B0910D208A879B87AC87BD87898586958370CA
:201FC000112321F099E199871E8602C098E999878370982F9295990F907E89858F79892BBA
:201FE0008987211102C0877F898781E02827888120FB84F98883AFC063E5CE010E940E0C29
:20200000882321F0BE016F5E7F4F86C067E5CE010E940E0C8823F1F04A892E8530E0842FB8
:2020200090E004962817390709F0CBCE88899989982789279827BE01009719F06D5E7F4F2C
:2020400005C06C5E7F4F415081E090E050E00E94C22B7FCF6EE6CE010E940E0C882309F42D
:202060006CCF60910A2070910B2080910C2090910D20AE01415F5F4F0E94BF0B8AE052C06E
:2020800069E6CE010E940E0C811163CF63E7CE010E940E0C811135C068E7CE010E940E0C6C
:2020A00081112FC041C09A89892F8370833051F04D815E816F8178854F3F5F4F6F4F7F4F7A
:2020C00009F447CFA0916121B0916221109709F440CFE92EF12CF594E794F594E79401E0A6
:2020E000833009F000E0ED91FC9111970190F081E02D29894889BE01665F7F4FCD01099551
:2021000028CF6E8562507E0181E1E80EF11CA70188890E94C00EB70188890E94A90E99E675
:202120009F878E5F8E8715C06AE7CE010E940E0C882321F080915D21806409CF6AE5CE01A1
:202140000E940E0C882309F43CCE80915D218F7BFECE10E0FFCE8D2DDF91CF911F910F9115
:20216000FF90EF90DF9008950F931F93CF93DF93DC0190E090962C919097921740F5FD01EA
:20218000E90FF11DE90FF11DEB01088119814081518104171507C9F4892F422F50E04150B3
:2021A0005109E82FF0E0E417F50754F4EE0FFF1FEA0FFB1FC281D381C083D1838F5FF1CF95
:2021C0009150215090962C9390979F5FD3CFDF91CF911F910F9108951F93CF93DF9300D0EE
:2021E000CDB7DEB710E0809188211817A0F5E12FF0E0EE0FFF1FE859FE4D808191818983B2
:202200009A83FC014181528163817481452B462B472BF9F001960E94832F672B682B692B56
:20222000C1F089819A810E944127E981FA8180818C708C3081F4BE016F5F7F4F88E691E26F
:202240000E94B41067E570E089819A810E94B42202C01F5FC8CF0F900F90DF91CF911F914A
:2022600008958F929F92AF92BF92DF92EF92FF920F931F93CF93DF9300D0CDB7DEB77C01CC
:20228000D12C80918821D81608F060C0ED2DF0E0EE0FFF1FE859FE4D0081118109831A83B4
:2022A000F801818580FD50C0F70181858770813071F0F8018685843009F046C087858B3409
:2022C00009F042C0C7010E94170C8823E9F191E0F80182849384A484B584F7014581568174
:2022E0006781708584169506A606B70609F090E081E0F80185809680A780B084F70142856B
:2023000053856485758584169506A606B70609F080E08923C9F0F801918596959370F70171
:20232000818582958695837098130EC0BE016F5F7F4F88E691E20E94B41067E570E08981B1
:202340009A810E94B42202C0D3949BCF0F900F90DF91CF911F910F91FF90EF90DF90BF902D
:20236000AF909F908F9008950F931F93CF93DF93CDB7DEB7C755D109CDBFDEBF8091992108
:20238000882309F453C09FB7F894809199218823C1F0E0919A2181E08E0F80939A21F0E0B1
:2023A000EE0FFF1FE757FE4D0081118180919A21877080939A21809199218150809399216C
:2023C00002C000E010E09FBF0115110579F1C8010E948822882351F0F801818587708130CF
:2023E00009F1C8010E94170C81111CC0F80181858770813089F087E5DE01119601900D92A5
:202400008A95E1F7CE0101960E94D40E882321F0CE0101960E94412767E570E0C8010E94A8
:20242000B42204C0C8010E943111E0CFC95ADF4FCDBFDEBFDF91CF911F910F910895CF930D
:20244000C0E080914D21C817B0F4EC2FF0E0EE0FFF1FEB5FFE4D80819181DC01ED91FC9144
:202460000480F581E02D6C2F09950E94B4110E94EC10CF5FE6CF0E94350E0E94F80CA8956C
:20248000CF910895FC018185FB01808381E00895CF93DF93D62FFC018081C82FCF7082951B
:2024A0008F700E940F2CC83060F44096EC2FF0E0E80FF91F8081DD2311F0806401C08F7B73
:2024C0008083DF91CF910895FC018689861304C0128A138A148A158A668B0895CF92DF924D
:2024E000EF92FF920F931F93CF93DF93EC01F62EE42E69010E946B0B82E890E288839983FA
:202500000E838E01095F1F4F4F2D4F706F2D62956F70C8010E940F2D8F81803E18F4C801CE
:202520000E94162D8F81803E18F4C8010E942B2DE8868FED8E1520F0CE0108960E94162D2A
:202540008885803E20F4CE0108960E942B2D1986CA86DB861C861D861E861F86188A198A12
:202560001A8A1B8A1C8A1D8A188E83E08A83F6018081837061E0823009F060E0C8010E942D
:20258000481267E0CE01DF91CF911F910F91FF90EF90DF90CF900C946412FC019185292F4E
:2025A00030E00484F585E02D6623C9F08389981758F59489290F311D290F311D482F50E0E2
:2025C0002417350708F5818190E082179307D8F48281482F50E024173507A8F408958289B1
:2025E000891790F4948942E0949F201931091124482F50E04217530738F48281482F50E06D
:202600002417350708F0822F0895EF92FF920F931F93CF93DF93EC01162F8985861304C026
:202620008E89873009F05AC0CE010896112319F00E94942A02C00E94822A1987EA85FB8510
:20264000808183709E01295F3F4F79018230B8F1823019F488EC811B182F6E81169FB00191
:202660001124C7010E94FD2E8E859F85A889B989892B8A2B8B2B91F5EA85FB85808187FFCB
:202680002DC00E94612F6E877F87888B998BE0915E21F0915F21218144E6249F90011124A3
:2026A0008901330F220B330BDC01CB01800F911FA21FB31F8E879F87A88BB98B0FC060E0A7
:2026C00070E0C9010E94FD2E112321F0C7010E94942ACACFC7010E94822AC6CFDF91CF9192
:2026E0001F910F91FF90EF9008958F929F92AF92BF92EF92FF920F93CF93DF93EC018E896F
:20270000813019F0843009F065C0EC84FD84F70103819181091B0F8B4085518560E070E0C5
:20272000498F5A8F6B8F7C8F843041F486859785A0E0B0E0898F9A8FAB8FBC8F898D9A8DB0
:20274000AB8DBC8DBC01CD013AE0660F771F881F991F3A95D1F72AE030E040E050E00E9446
:202760000E30CA01B901F8E00F9F40011124092C000CAA08BB08281539054A055B0568F062
:20278000202F30E040E050E00E940E30298F3A8F4B8F5C8F81E08F8B1DC0298F3A8F4B8FB1
:2027A0005C8F898D9A8DAB8DBC8D80319105A105B10580F02F89F7013489231758F02695B3
:2027C0002F8BB695A79597958795898F9A8FAB8FBC8FE7CFDF91CF910F91FF90EF90BF9027
:2027E000AF909F908F9008950F931F93CF93DF93EC01162F0E94612F6A8B7B8B8C8B9D8BE9
:20280000111124C0EC85FD8566817781CB0101978F3F9F4B10F011E0EDCFCE010E948B0B10
:202820000A891B892C893D89DC01CB01800F911FA21FB31F8A8B9B8BAC8BBD8B60E0CE01A2
:20284000DF91CF911F910F910C946412113061F4EC85FD858085918501978F3F9F4B10F04E
:2028600012E0C8CF61E02DC0123049F462E0CE010E946412EC85FD85628573853BC01330E9
:2028800099F4EC85FD858485958501978F3F9F4B10F014E0AFCF63E0CE010E946412EC8538
:2028A000FD85648575852BC01430A9F4EC85FD858685978501978F3F9F4B10F015E09ACF1F
:2028C00064E0CE010E946412CE01DF91CF911F910F910C947513153029F01A8A1B8A1C8A69
:2028E0001D8A1EC065E0CE010E946412EC85FD8560897189CB0101978F3F9F4B70F7CE01FF
:202900000E948B0B0A891B892C893D89DC01CB01800F911FA21FB31F8A8B9B8BAC8BBD8B98
:20292000DF91CF911F910F910895CF93DF93EC01EC85FD858E89309769F4873009F095C0E6
:2029400060E0CE010E94051365E0CE01DF91CF910C946412823009F441C028F4882399F0B4
:202960008130D1F082C0843009F445C008F43EC0853009F07AC06181CE010E940513EC852F
:20298000FD85678936C0662391F065896F70CE01DF91CF910C94F413662349F099856381EE
:2029A000961728F4AA85BB858C91837051F4658962956F70CE010E94F413EC85FD85638177
:2029C0003AC08F89282F30E0290F311D462F50E02417350780F5692F680F34C06381CE01B1
:2029E0000E940513EC85FD856689D0CF662371F066896295CBCF662349F089856181681701
:202A000028F4AA85BB859C91937049F467896F70CE010E94F413EC85FD8561810CC09F89AE
:202A2000981748F4282F30E0291B3109462F50E0421753072CF0CE01DF91CF910C940513FB
:202A4000682F691BCE010E9405134A895B896C897D89898D9A8DAB8DBC8D840F951FA61F56
:202A6000B71F8A8B9B8BAC8BBD8BDF91CF9108957F928F929F92AF92BF92CF92DF92EF9211
:202A8000FF920F931F93CF93DF93CDB7DEB7CB55D109CDBFDEBF8C01762EFC0182899389EC
:202AA000A489B589892B8A2B8B2B29F4F8018689873069F408C0C80142960E94832F672B04
:202AC000682B692B99F361E0C8010E949514F80186859785A089B189892B8A2B8B2B09F44F
:202AE00058C0C8010E960E94832F672B682B692B09F44FC0E0915E21F0915F218281938130
:202B0000A481B5816C968CAF9DAFAEAFBFAF6C97CE01885A9F4F0E949F016B017C01809029
:202B20000A2090900B20A0900C20B0900D200E94612FCE01019627E5FC0111922A95E9F774
:202B400029E6288B798AF80121852A8B28EF2A878B869C86AD86BE86CE82DF82E886F9864C
:202B600023E02F870E944127882371F0F80186859785A089B18986509F4FAF4FBF4F868726
:202B80009787A08BB18B05C0F80116861786108A118AC55ADF4FCDBFDEBFDF91CF911F918E
:202BA0000F91FF90EF90DF90CF90BF90AF909F908F907F900895EF92FF920F931F93CF9349
:202BC000DF93EC017A016130D9F4DA016C91693C08F077C00E9405131A8A1B8A1C8A1D8AC1
:202BE000F7018081882311F062E001C065E0CE01DF91CF911F910F91FF90EF900C946412D5
:202C0000633009F05EC0DA011196ED91FC911297EC87FD879081892F8F706C91823070F006
:202C20000A891B892C893D89012B022B032B91F4288D261313C094FD11C00CC0888D861339
:202C400002C094FF07C09F70913021F460E0CE010E949514F7018081888F33C0853011F45C
:202C600060E006C0863028F58330C9F0E0F061E0CE010E94CD12182F193C60F7612FCE015C
:202C80000E9405131A8A1B8A1C8A1D8A112311F062E001C065E0CE010E946412DBCF60FF77
:202CA00006C01181E9CF8230A9F660FFFACF1381E3CF883010F46170DBCF883059F6609512
:202CC000FACFDF91CF911F910F91FF90EF9008950F931F93CF93DF931F92CDB7DEB78C01E1
:202CE000FC018081861749F0698341E050E0BE016F5F7F4FC8010E94C22BC8010F90DF9138
:202D0000CF911F910F9108950F931F93CF93DF938C01DC011A96CD91DC911B9788818C779B
:202D20008C3721F06FEFCE010E94681689818F3F29F06FEFCE0101960E946816D8011A9614
:202D4000ED91FC911B978081837061E0823009F060E0C8010796DF91CF911F910F910C9470
:202D60004812FC012489FB012083FC018389FB01818382E008950F931F93CF93DF93CDB7FC
:202D8000DEB72797CDBFDEBF8C01DC0118968D919C911997FC0121812B3F50F025E02F83A4
:202DA00041E050E0BE01695F7F4F01960E94C22BD80118968D919C911997FC012281338171
:202DC0002115310529F0255031092C303E4060F5D80118968D919C911997FC0124813581B6
:202DE0002115310529F0255031092C303E4048F5D8011896ED91FC91199784819581009794
:202E000029F0228133818217930740F1F801128684EF91E0848395832796CDBFDEBFDF91F4
:202E2000CF911F910F9108952AE030E02D833E8342E050E0BE016B5F7F4F02960E94C22BEA
:202E4000C7CF26E930E02B833C8342E050E0BE016D5F7F4F04960E94C22BCACF19821A82AC
:202E600042E050E0BE016F5F7F4FCF0104960E94C22BCCCF4F925F926F927F928F929F92DB
:202E8000AF92BF92CF92DF92EF92FF920F931F93CF93DF93CDB7DEB7CB55D109CDBFDEBF58
:202EA000882EF62E6A010115110521053105C1F4E0915E21F0915F2182819381A481B5812D
:202EC0006C968CAF9DAFAEAFBFAF6C97CE01885A9F4F0E949F01962EA72EB82EE92E04C060
:202EE000902EA12EB22EE32E40900A2050900B2060900C2070900D20CE0102960E943009C4
:202F00008E010F5F1F4F87E5F80111928A95E9F789E6888B898A4F2D50E0B601CE014296A0
:202F20000E94CD3188EF8A874B865C866D867E869E82AF82B886E986F394F394FF86C80165
:202F40000E944127C55ADF4FCDBFDEBFDF91CF911F910F91FF90EF90DF90CF90BF90AF9067
:202F60009F908F907F906F905F904F900895EF92FF920F931F93CF93DF93EC017B018A015C
:202F80000E946B0B8EE890E288839983EE82FF821A86CE0147960E943009CE014B960E94A0
:202FA000300984E08A83088719871F8A188E198E1A8EDF91CF911F910F91FF90EF900895CF
:202FC000982F81E0983221F0903111F080E0089508951F93CF93DF93EC01162F8E819F81AB
:202FE0000E94852D8E819F81DC011196ED91FC91129730852C912323E1F0111104C0AE01F8
:20300000455F5F4F02C040E050E064E40E945E2E80910E2081110FC0EE81FF818081A18124
:20302000B28115968C9380810180F281E02D818302C081E001C080E0DF91CF911F9108952C
:20304000FB0120813181DC011B968C91803161F42E7F43E0220F331F4A95E1F78681281B1C
:203060003109245F3F4F10C0883271F48481982F9076903649F086FF02C02E7F05C085FF08
:2030800002C02C7F01C0287FC90134E0969587953A95E1F7B4E68B02C0011124322F23FDF1
:2030A000C29632FD499631FD0D9630FD06960895AF92BF92CF92DF92EF92FF920F931F93A9
:2030C000CF93DF93CDB7DEB72997CDBFDEBF8C01FC01868197810E94852DA801455F5F4F22
:2030E0006EEBF801868197810E945E2ECE0101967C015E019AE0A90EB11C67016FEFF80132
:20310000868197810E94EB2DF70181937F01EA15FB05A1F740E069E070E0C6010E94770119
:20312000811109C0B601C8010E942018F801838B948B80E001C083E02996CDBFDEBFDF91D8
:20314000CF911F910F91FF90EF90DF90CF90BF90AF90089520914D21E5E0F1E290E09217E8
:2031600081F0A191B19112963C911297343039F418960D90BC91A02D3C91831721F09F5FE0
:20318000EECF80E0089581E008958F929F92AF92BF92CF92DF92EF92FF920F931F93CF93F9
:2031A000DF93CDB7DEB72697CDBFDEBFFC0184819581892B09F461C1A085B1858C918111A9
:2031C00004C08285833009F058C1D62E7F01CF0147960E94832FD70114962D913C91159721
:2031E000890120E030E0601771078207930708F444C1CE0101960E94300989819A81AB8190
:20320000BC81F701878B908FA18FB28F8285811151C08DE495E9838B948B0FEF6701FBE0D0
:20322000CF0ED11C570123E1A20EB11CA601602FD70116968D919C9117970E94062E082F2B
:2032400082E0800F823070F1F60110E08191180FEA15FB05D9F7F70183850E94E017811150
:2032600003C00111E3CF1EC0D70118968D909C901997F40180818F3F31F4812F0E94AA186D
:20328000882309F4F0C0D7011896ED91FC91199780811813E6CF81E01A968C931A9784E669
:2032A00090E0C1C088E893E1F7018483958383E08287E3C08130B9F461E0C7010E94E9170A
:2032C00081110BC088EE93E0D70114968D939C93159782E01A968C93D0C08AEF90E0F70189
:2032E00084839583CAC0823009F0A2C0C7010E94581811E0811110E0D7011896ED91FC913A
:20330000199782819381892BC9F0C7014B960E94832F4B015C01D7011896ED91FC91199792
:2033200022813381A8EEB3E00E94303021E086169706A806B90618F420E001C021E0122361
:20334000D7011896ED91FC91199784819581892B49F4D7011896ED91FC91199741814111CB
:2033600019C02CC0C7014B960E94832F4B015C01D7011896ED91FC91199724813581A8EEB0
:20338000B3E00E94303086169706A806B90608F321E015C0F7018389948925893689821BF6
:2033A000930B97FF03C0919581959109FAE04F9FA001112421E08417950708F420E011233A
:2033C00059F1222349F1D701ED91FC910280F381E02DBE016B5F7F4FC701099500E010E0B1
:2033E0009801AE014B5F5F4F682F8D2D0E943A17811112C0F70183899489858B968BCE0164
:2034000001960E94300989819A81AB81BC81F701838F948FA58FB68F81E0D7011A968C93FE
:203420001A9788E893E114968D939C93159725C0833019F50190F081E02D0280F381E02D9A
:20344000BE016F5F7F4FC701099500E010E09801AE014F5F5F4F682F8D2D0E943A17F701FB
:20346000148215820AC0198341E050E0BE016F5F7F4FC4010E94C22B06CF2696CDBFDEBFFF
:20348000DF91CF911F910F91FF90EF90DF90CF90BF90AF909F908F900895CF93FC01808157
:2034A000C82FCF7082958F700E940F2CC83050F4FC017096EC0FF11D8081877C8083808193
:2034C00088618083CF9108954F925F926F927F928F929F92AF92BF92CF92DF92EF92FF9257
:2034E0000F931F93CF93DF93CDB7DEB7C755D109CDBFDEBFC82EF62ED42E480159014090DD
:203500000A2050900B2060900C2070900D20CE0102960E943009FE01319687E5DF011D922A
:203520008A95E9F78BE4888BC98AEA8AD11002C092E001C093E0FF0CFF0C9F0D9B8B88EF9B
:203540008A874B865C866D867E868E829F82A886B98684E08F87CF010E944127C95ADF4F6D
:20356000CDBFDEBFDF91CF911F910F91FF90EF90DF90CF90BF90AF909F908F907F906F903C
:203580005F904F900895DF92EF92FF920F931F93CF93DF93D82FF62ED42EE12C222339F06D
:2035A0000FEF1FEF98010E94641AC82F1DC00FEF1FEF98010E94641AC82F811115C080913E
:2035C000632190916421009751F0DC01ED91FC910190F081E02D2D2D4F2D6D2F09958091D1
:2035E0005D21826080935D218C2FDF91CF911F910F91FF90EF90DF900895FF920F931F9300
:20360000CF93DF9300D000D0CDB7DEB78C01F62E0D960E94492DF8018823F1F08289938905
:20362000A489B589892B8A2B8B2B21F0128A138A148A158AF80116861786108A118A83850A
:203640009485009709F468C00184F285E02D208127FF62C02FEC54C086859785A089B189EA
:20366000892B8A2B8B2B71F4CE0101960E94300989819A81AB81BC81F80186879787A08BA8
:20368000B18B2FC0C8010E960E94832F643671058105910530F1F80182899389A489B58966
:2036A000892B8A2B8B2BE9F420E040E0F80160858F2D0E94C31A811114C0D80118968C91CB
:2036C00018978F5F18968C93CE0101960E94300989819A81AB81BC81F801828B938BA48B5E
:2036E000B58BD8011B968D919C911C970097A1F01996ED91FC911A97208127FF0DC02EECC1
:203700002983DC01ED91FC910190F081E02DAE014F5F5F4F61E009952496CDBFDEBFDF91C9
:20372000CF911F910F91FF900895FF920F931F93CF93DF9300D000D0CDB7DEB78C01F62E8A
:203740000D960E94492DF801882399F182899389A489B589892B8A2B8B2BA1F020E040E01E
:2037600060858F2D0E94C31A81110CC0D80118968C9118978F5F18968C93F801128A138A8B
:20378000148A158AD8011E961D921D921D921C9251971B968D919C911C97009709F469C050
:2037A0001996ED91FC911A97208127FF62C02FEC54C086859785A089B189892B8A2B8B2BDD
:2037C00071F4CE0101960E94300989819A81AB81BC81F80186879787A08BB18B2FC0C80172
:2037E0000E960E94832F643671058105910530F1F80182899389A489B589892B8A2B8B2BDA
:20380000E9F420E040E0F80160858F2D0E94C31A811114C0D80118968C9118978F5F18963D
:203820008C93CE0101960E94300989819A81AB81BC81F801828B938BA48BB58BD8011B967D
:203840008D919C911C970097A1F01996ED91FC911A97208127FF0DC02EEC2983DC01ED9122
:20386000FC910190F081E02DAE014F5F5F4F61E009952496CDBFDEBFDF91CF911F910F91BF
:20388000FF9008958F929F92AF92BF92CF92DF92EF92FF920F931F93CF93DF9300D000D06C
:2038A000CDB7DEB76C01F62E0D960E94492DD6011E964D915D916D917C915197882309F4B1
:2038C00041C0452B462B472B09F4B8C0C6010E960E94832F6233710581059105E0F0F60172
:2038E00082899389A489B58941E00097A105B10509F440E0892B8A2B8B2B39F4D601189634
:203900008C9118978F5F18968C9320E0F60160858F2D0E94C31AD6011E961D921D921D9271
:203920001C9251971B968D919C911C97009709F485C01996ED91FC911A97208127FF7EC0F9
:203940002FEC70C0452B462B472BC1F1F60182899389A489B589892B8A2B8B2B99F0C6011F
:2039600042960E94832F6C3271408105910508F465C0D6011996ED91FC911A97808186FDC9
:203980003AC05CC0C6010E960E94832F4B015C01D6011996ED91FC911A97218130E0A4E62B
:2039A000B0E00E94303086169706A806B90608F445C0F60180858F5F80871DC0CE0101969A
:2039C0000E94300989819A81AB81BC81F60186879787A08BB18B128A138A148A158A838577
:2039E0009485009759F10184F285E02D208127FF25C02EEC17C0CE0101960E9430098981DC
:203A00009A81AB81BC81F601828B938BA48BB58BE12C0FEF1FEF980141E060858F2D0E947B
:203A2000641A0CC02983DC01ED91FC910190F081E02DAE014F5F5F4F61E009952496CDBF69
:203A4000DEBFDF91CF911F910F91FF90EF90DF90CF90BF90AF909F908F900895FC01A18531
:203A6000B2859C9193FF12C08681882379F0977019F4CF010C94421C913019F4CF010C9443
:203A8000951B923019F4CF010C94FD1A0895FF920F931F93CF93DF93EC01E985FA859081DF
:203AA0008D8594FF16C08E01035F1F4F282F2F70F22E82958F700E940F2C27E02F1538F0B0
:203AC000FC017096EF0DF11D80818F7B8083C80114C0182F1F7082958F700E940F2C18301D
:203AE00038F4FC017096E10FF11D8081806480838F81882329F0CE010D960E944D1A13C08F
:203B00008D85182F1F7082958F700E940F2C183050F4FC017096E10FF11D8081877C808336
:203B20008081806180831E861F86188A198A1A8A1B8A1C8A1D8A1886DF91CF911F910F91BE
:203B4000FF900895CF92DF92EF92FF921F93CF93DF93EC01162F6A0179010E946B0B8AE92D
:203B600090E28883998381E08E831F821886C986DA86EB86FC861D87103E20F4CE010D96E1
:203B80000E94162DCE010E960E943009CE0142960E94300981E08A83CE01DF91CF911F91B3
:203BA000FF90EF90DF90CF900C94471DCF93DF93EC01E985FA85918194509F3280F489852E
:203BC0009A85FC016081262F2770233018F0687F0E946816CE01DF91CF910C94471D64E0B3
:203BE000CF0101960E946816EACFFC018285FB01808381E00895CF93DF931F92CDB7DEB7E6
:203C0000DC011696ED91FC9117973081232F2F77253688F059969C919F77232F2078922B0D
:203C2000391749F0998341E050E0BE016F5F7F4FCF010E94C22B0F90DF91CF910895AF9287
:203C4000BF92DF92EF92FF920F931F93CF93DF93EC01162F5A01D22E0E946B0B86EA90E2E1
:203C6000888399837E0188E0E80EF11C412F4F70612F62956F7024EC39E0C7010E94A32E3A
:203C8000CE0140960E943009CE0144960E943009098F82E08A83AE82BF828885182F1F70C5
:203CA00082958F700E940F2C183060F44096E12FF0E0E80FF91F8081DD2011F0806401C00C
:203CC0008F7B808360E070E0C7010E94FD2E19868AEC888F1A8688EC8B871C868AE08D8740
:203CE0008E878FEF8F87188A198A1A8A1B8A1C8A1D8A1E8A1F8ADF91CF911F910F91FF9040
:203D0000EF90DF90BF90AF900895DC011696ED91FC91179720812F770896222349F0629FE4
:203D2000B001112423E0759567952A95E1F707C0611103C060E070E002C064EC79E00C9466
:203D4000FD2EFF920F931F93CF93DF9300D000D0CDB7DEB78C01FA018081893C90F4D8011B
:203D60001A968C931A9754961D921D921D921C9257978081811102C08AEC01C089ECF80136
:203D800050C08E3C49F468ECC8010E94851E81E0D80119968C93A7C08F3C19F4F8011186D3
:203DA000A2C0663008F45EC09181D8011C969C931C9782811B968C931B9723811D962C93D7
:203DC0001D9724811E962C931E9725811F962C93F080BCECFB120FC0CE0101960E94300913
:203DE00089819A81AB81BC81F801848B958BA68BB78BF08E44C0FDECFF1220C0D801589677
:203E00008C918C3C81F0CE0101960E94300989819A81AB81BC81F801848B958BA68BB78BE2
:203E20008CEC808F2CC0D80154961D921D921D921C9257978AEC58968C9321C0BBECFB128B
:203E40001EC0F801208D2A3C21F092878AEC808F03C0828789EC808FF801148A158A168AA3
:203E6000178A0DC0D8011A968C911A97882319F01A961C92F1CF88ECF8018287EDCFF80180
:203E800080899189A289B389892B8A2B8B2B59F50680F781E02D808187FF25C0CE0101964E
:203EA0000E94300949815A816B817C81D80150964D935D936D937C935397E0915E21F091A0
:203EC0005F219181B4E69B9FC0011124092E000CAA0BBB0B840F951FA61FB71FF801808BE2
:203EE000918BA28BB38B2496CDBFDEBFDF91CF911F910F91FF9008950F931F93CF938C01C9
:203F0000DC011696ED91FC911797C081CF770896CC2399F00E94DD2E23E0880F991F2A9504
:203F2000E1F7D8011696ED91FC91179760816F7770E00E94FA2FC62F05C00E94DD2E892B6E
:203F400009F0C8EC8C2FCF911F910F9108954F925F926F927F928F929F92AF92BF92CF9283
:203F6000DF92EF92FF920F931F93CF93DF93CDB7DEB7CC55D109CDBFDEBF8C01F62EFC01AB
:203F800084899589A689B789892B8A2B8B2B59F1C80144960E94832F672B682B692B19F164
:203FA000C8010E947C1FF80163858613A5C0D8011E968C91B4E68B9FC0011124092E000C75
:203FC000AA0BBB0BF8014489558966897789840F951FA61FB71F848B958BA68BB78B648566
:203FE000C8010E94851EF8018185811109C084899589A689B789892B8A2B8B2B09F4B6C02D
:20400000F80180899189A289B389892B8A2B8B2B09F4B1C0C80140960E94832F672B682B78
:20402000692B09F4A8C0D801ED91FC910280F381E02DBE01645A7F4FC8010995E82EE09167
:204040005E21F0915F2182819381A481B5816C968CAF9DAFAEAFBFAF6C97CE01885A9F4F78
:204060000E949F014B015C0140900A2050900B2060900C2070900D20CE0102960E943009C5
:20408000FE0131966F0187E5DF011D928A95E9F789E6888BF98A4E2D50E0BE01645A7F4FF5
:2040A000CE0142960E94CD3188EF8A874B865C866D867E868E829F82A886B986E394E394FB
:2040C000EF86C6010E944127882371F0F80180899189A289B38986509F4FAF4FBF4F808B30
:2040E000918BA28BB38B47C0D80150961D921D921D921C9253973FC0D8011F968C911F976E
:20410000882329F11D968C91B4E68B9FC0011124092E000CAA0BBB0BF80184889588A68842
:20412000B788880D991DAA1DBB1D848B958BA68BB78BC8010E94851ED8011F968C911F9745
:204140008F3F09F450CF81501F968C934CCFF801148A158A168A178A8285681711F08AEC41
:2041600001C089ECD80158968C933DCF6285C8010E94851E45CFC45ADF4FCDBFDEBFDF9129
:20418000CF911F910F91FF90EF90DF90CF90BF90AF909F908F907F906F905F904F9008953E
:2041A0002F923F924F925F926F927F928F929F92AF92BF92CF92DF92EF92FF920F931F936D
:2041C000CF93DF93CDB7DEB7C156D109CDBFDEBF4C01162F342EF22E942F990F990F22236C
:2041E00011F083E001C082E0292E280EC12CD12CA12CB12C8BE09E012F5F3F4F6E962EAF10
:204200003FAF6E97D40112962C91129730E0A216B3060CF07BC01396ED91FC911497EC0DB8
:20422000FD1D90819F3F09F46AC0911368C0CF0101960E949F012B013C016C966CAF7DAF27
:204240008EAF9FAF6C9720910A2030910B2040910C2050910D20A2962CAF3DAF4EAF5FAFF4
:20426000A297D40113968D919C9114974216530664067506D1F4DC01AC0DBD1D8091612133
:20428000909162210097D1F1FC0120813181F90160807180E32C0F2D15962C91412FBE0124
:2042A000685A7F4FF301099529C0FC01EC0DFD1D05810E94612F6E96AEADBFAD6E97E7E58F
:2042C0001D92EA95E9F7FBE4F88B198B0A8B2B8A28EF2A87A2968CAD9DADAEADBFADA297FD
:2042E0008B879C87AD87BE874E825F826886798694E09F87CE0101960E94412780E0AFEF6A
:20430000AA1ABA0AB6E0CB0ED11C7CCFCF59DF4FCDBFDEBFDF91CF911F910F91FF90EF90C1
:20432000DF90CF90BF90AF909F908F907F906F905F904F903F902F900895FC018093632138
:204340009093642182EB90E28083918362834383548308952F923F924F925F926F927F922A
:204360008F929F92AF92BF92CF92DF92EF92FF920F931F93CF93DF93CDB7DEB72697CDBFEB
:20438000DEBF30910F203E1509F480C0F22E542E5B016C01E0920F2010E0CE0101964C0151
:2043A00022242A948BECE82E9CEC492E2DEC322ED60112968C91181708F068C0B0E11B9FBE
:2043C00030011124D6011396ED91FC911497E60DF71D8481581258C08581F81255C080818D
:2043E0009181A281B3818F3F9F4FAF4FBF4F09F44BC0CF010E949F01D5012D913D914D9132
:204400005C916217730784079507F1F5F40126E011922A95E9F72982D6011396ED91FC913C
:204420001497E60DF71D90859A8327812B8383858C8384858D8385858E83002349F0928584
:204440009A8321852B83868186958695869501C086818770833081F038F4882359F08130DF
:2044600099F4998361E00CC0843041F0853061F4398205C02983F6CFE98201C0498266E069
:20448000A4018F2D0E94C00E1F5F92CF2696CDBFDEBFDF91CF911F910F91FF90EF90DF90EA
:2044A000CF90BF90AF909F908F907F906F905F904F903F902F900895FC0180936121909305
:2044C000622188EB90E2808391836283438354830895FC01208120FF17C045815681678125
:2044E000708580910A2090910B20A0910C20B0910D20481759076A077B0741F081E04F3FA3
:204500005F4F6F4F7F4F19F080E0089581E0089521E0FC01458156816781708580910A20AA
:2045200090910B20A0910C20B0910D20481759076A077B0709F020E0822F089521E0FC016D
:20454000428553856485758580910A2090910B20A0910C20B0910D20481759076A077B07D5
:2045600009F020E0822F0895CF93CFB7F8940E94B62A80916521882319F081508093652149
:20458000CFBFCF910895DF92EF92FF920F931F93CF93DF937C01DFB6F894FC01C685C15FDF
:2045A000D0E0CE010796887F0E94B82A8C01009749F0AE01B7010E94CD31809165218F5F6B
:2045C00080936521DFBEC801DF91CF911F910F91FF90EF90DF900895FB0198E0408151819B
:2045E0009A01220F331F87FD21602083318357FF08C02081318142E0242740E13427208344
:204600003183880F915051F70895DC01FB0150968C91509780831F968C911F9781831B9686
:204620008C91828383E008950F931F93CF93DF93CDB7DEB72897CDBFDEBF8C01DC015B96D4
:204640008D919C915C97FC012081253648F022E0288741E050E0BE01685F7F4F0E94C22B06
:20466000D8015B968D919C915C97FC0121812B3F50F025E02F8341E050E0BE01695F7F4F8C
:2046800001960E94C22BD8015B968D919C915C97FC01228133812115310529F02550310964
:2046A0002C303E4050F5D8015B968D919C915C97FC01248135812115310529F02550310947
:2046C0002C303E4038F5D8015B96ED91FC915C9784819581009759F1228133818217930785
:2046E00030F519821A8242E050E0BE016F5F7F4FCF0104960E94C22B1AC02AE030E02D8314
:204700003E8342E050E0BE016B5F7F4F02960E94C22BC9CF26E930E02B833C8342E050E092
:20472000BE016D5F7F4F04960E94C22BCCCF2896CDBFDEBFDF91CF911F910F910895EF9237
:20474000FF920F931F93CF93DF93EC017B018A010E946B0B8EEB90E288839983EE82FF8291
:2047600081E089871B861C868DE495E98F87988B898B9A8BCE0143960E943009CE014796F5
:204780000E94300986E08A830B8F1C8F1B8A1C8A1D8A1E8A1A86DF91CF911F910F91FF909D
:2047A000EF9008958FEFA42FB0E0119631E3E42FF0E0AE17BF077CF0E60FF71F908189279B
:2047C00098E087FF03C0880F832701C0880F9150C1F74F5FECCF821302C080E0089582E0C7
:2047E0000895EF92FF920F93CF93DF93CDB7DEB72697CDBFDEBF7C01FC018681978101E01B
:2048000026E030E0AE014F5F5F4F64E401960E94C02C069789F52B8140E0BE016F5F7F4FC8
:20482000C7010E94D223811127C0298130E0322F22278A81282BACE5B4E40E9430308459D6
:204840009141F7018787908B2E8143E0BE016F5F7F4FC7010E94D223482F81110DC02C8156
:2048600030E0322F22278D81282BA4E6B0E00E943030F701838701C042E0842F2696CDBF21
:20488000DEBFDF91CF910F91FF90EF9008950F93CF93DF9300D0CDB7DEB769837A83FC011B
:2048A0008681978101E022E030E0AE014F5F5F4F64E401960E947E2C029711F480E001C0F1
:2048C00082E00F900F90DF91CF910F910895EF92FF920F93CF93DF93CDB7DEB72697CDBF41
:2048E000DEBF7C0167E370E80E94472481111DC0F7018681978101E026E030E0AE014F5F15
:204900005F4F64E401960E94C02C069771F42B8140E0BE016F5F7F4FC7010E94D223811162
:2049200004C029813A81232B09F482E02696CDBFDEBFDF91CF910F91FF90EF9008956CE253
:2049400076E00E944724811182E0089560E372EA0E944724EFE9FFE03197F1F700C0000090
:2049600008954F925F926F927F928F929F92AF92BF92CF92DF92EF92FF920F931F93CF9338
:20498000DF93CDB7DEB7CE55D109CDBFDEBFDC011D962D913C911E97232B09F49EC1D62EE8
:2049A0008C0143960E94832FF801258536854901A12CB12C681579058A059B0508F48DC177
:2049C000FE0131967F01CF010E94300989819A81AB81BC81F801838B948BA58BB68B8285BA
:2049E0008230B1F4C8010E949F24811109C084E190E0D8011D968D939C931E9783E005C04A
:204A000088EE93E088C082E0D8011A968C9365C1833008F484C0833009F05CC1C8010E940E
:204A2000F123811199C08AE0F801808785E08287D8015B96ED91FC915C9782819381892B0C
:204A400009F4A5C0C80147960E94832F4B015C01D8015B96ED91FC915C9722813381A8EE9C
:204A6000B3E00E943030CC24C39486169706A806B90608F4C12CD8015B96ED91FC915C9703
:204A800084819581892B09F485C0C80147960E94832F4B015C01D8015B96ED91FC915C979A
:204AA00024813581A8EEB3E00E94303086169706A806B90608F46EC021E0CC2009F4FEC0F8
:204AC000222309F4FBC0D801ED91FC910280F381E02DBE01645A7F4FC8010995F801818541
:204AE000882309F48CC011868091662190916721009709F4C9C0DC01ED91FC910190F081E3
:204B0000E02D22E0AE01445A5F4F6D2D09958111BBC084EF91E0F80185879687DEC0811110
:204B2000DCC0C8010E946724882321F080E197E2D8010DC08AE0F801808782E0828752CFB1
:204B400082E0D8011A968C931A9788E893E11D968D939C931E97C1C088EE93E0D8011D9609
:204B60008D939C931E9718968C911897815018968C93811148CFC8010E94A62485E0F801DD
:204B800082878DE495E98787908B1386A6C0CC24C39471CFD8015B96ED91FC915C97208105
:204BA000222399F0D8011B968C911B9790E01C963C91831B910997FF03C091958195910978
:204BC00030E0821793070CF077CF41814423A9F0F8018785908921893289821B930B97FF3A
:204BE00003C0919581959109FAE04F9FA001112421E0841795070CF060CF20E05ECFE0917D
:204C00005E21F0915F2182819381A481B5816C968CAF9DAFAEAFBFAF6C97CE01885A9F4FAC
:204C20000E949F014B015C0140900A2050900B2060900C2070900D20CE0102960E943009F9
:204C400087E5D7011D928A95E9F789E6888BD98A6F968DAD9EADAFAD6F978A8B9B8BAC8B1F
:204C600088EF8A874B865C866D867E868E829F82A886B98685E08F87C7010E944127811185
:204C800048CF81E0F8018187D8011F968D919C91509751968D939C9352971B968C911B973C
:204CA0001C968C93C7010E94300989819A81AB81BC81F801878B908FA18FB28FD8011F96C9
:204CC0008D919C9150978D34954909F039CFF801128603C0853009F4ABCEC25ADF4FCDBFAD
:204CE000DEBFDF91CF911F910F91FF90EF90DF90CF90BF90AF909F908F907F906F905F9042
:204D00004F9008952F923F924F925F926F927F928F929F92AF92BF92CF92DF92EF92FF92D9
:204D20000F931F93CF93DF93CDB7DEB7CE55D109CDBFDEBF6C0169966FAF69976C964EAF83
:204D40005FAF6C9700E010E0E12CF12C8BE0AE014F5F5F4F1A01A22FB0E06E96AEAFBFAF87
:204D60006E972D5F6F962FAF6F97F601228130E0E216F3060CF061C00380F481E02DE00F0D
:204D8000F11F90819F3F09F452C069962FAD699792134DC0CF0101960E949F012B013C0166
:204DA00080900A2090900B20A0900C20B0900D20681579058A059B05C9F1D6011396ED91C3
:204DC000FC911497E00FF11FB5816A96BFAF6A970E94612FF10127E511922A95E9F744EB56
:204DE000488B69965FAD6997598B6A968FAD6A978A8B6E964EAD5FAD6E976C966EAD7FAD46
:204E00006C97CE0143960E94CD3198EF9A878B869C86AD86BE864E825F82688679866F9652
:204E2000AFAD6F97AF87C1010E94412780E0BFEFEB1AFB0A0A5F1F4F98CFC25ADF4FCDBFE2
:204E4000DEBFDF91CF911F910F91FF90EF90DF90CF90BF90AF909F908F907F906F905F90E0
:204E60004F903F902F900895FC0180936621909367218AEC90E28083918362834383548365
:204E800008951F93CF93DF93EC010E944E29182F888181FF13C0CE0105960E949F016D83AA
:204EA0007E838F839887CE010A960E949F016A877B878C879D8788818D7F88838881982FF5
:204EC000969596959F5F9370990F990F837F892B88830E94612FDC01CB018A569F4FAF4FC3
:204EE000BF4F89839A83AB83BC83898580FD33C08D819E81AF81B8858F3F9F4FAF4FBF4F2E
:204F000051F18881869586958370813021F580918821803100F5CE010E94C3220097D9F040
:204F2000E0918821A8E6B1E220E0E21739F04D915D918417950779F02F5FF7CFE03158F4F7
:204F400021E02E0F20938821F0E0EE0FFF1FE859FE4D80839183812FDF91CF911F9108955C
:204F6000CF93DF93CDB7DEB76397CDBFDEBFE9E8F1E28FEF828B118A108A8B8B1A8A198A60
:204F8000109288216396CDBFDEBFDF91CF910895CF93DF93FC01208121FF13C0EC0105964A
:204FA0000E949F016D837E838F839887CE010A960E949F016A877B878C879D8788818D7F9D
:204FC0008883DF91CF910895CF93C82F0E94612F6093012270930222809303229093042210
:204FE0008091F921CC3F21F481608093F92179C0CD3FD1F482608E7F8093F9211092F72178
:205000008FEF9FEF8093F5219093F62180919C218E7F826080939C211092AA2165EF71E280
:205020008DEF0E94EC225DC081FF5BC080FF04C0C0688E7F8093F92165EF71E28C2F0E94E3
:20504000EC224091F721E42FF0E0EF55FE4DC083443049F48091A521982F97709330C9F1D1
:2050600083FF37C039C08091AA21493041F4893498F18091F9218D7F8093F9212DC050E06D
:2050800060E070E090E0A0E0B0E00996A11DB11D481759076A077B07F9F48091F5219091EE
:2050A000F621892BC9F48CE991E20E94C8278091AA2182508093AA218091F9218D7F809319
:2050C000F92180919C21816080939C218CE991E20AC088E08093F7218091F7218F5F8093C8
:2050E000F72180E090E0CF9108950F931F93CF93DF93C091FA21D091FB21209709F4BCC08A
:205100008C019091FE218091002291112EC081FD2CC08260809300228FEF9FEF8093FC2142
:205120009093FD21888181FD13C0CE0105960E949F016D837E838F839887CE010A960E94F5
:205140009F016A877B878C879D87888182608883888184FD02C08DEF01C08EEFF80180838D
:205160006CEF71E20E94EC2282C081FF82C0888184FF84C0911182C0F801108283E0809318
:20518000FE214091FE21443049F48985982F9770933009F47AC083FF78C017C0493029F452
:2051A000F80180818E5F808310C050E060E070E08E8590E0A0E0B0E00B96A11DB11D84171A
:2051C0009507A607B70708F457C08091002280FD40C06CEF71E2F80180810E94EC224091DC
:2051E000FE2150E060E070E08E8590E0A0E0B0E00996A11DB11D481759076A077B07E1F48B
:205200006CEF71E280E00E94EC226CEF71E280E00E94EC2225968091FE218F5FFE01E80F43
:20522000F11D8091FD2180838091FE218E5FC80FD11D8091FC218883F80180818C5F83307B
:2052400088F4809100228160809300228CEF80830EC0F80180818F778083809100228E7FFA
:20526000809300228091FE218F5F8093FE2181E010C0CE010E94C82780E00BC0FE01E90FF6
:20528000F11D8581F80180837CCF88E08093FE219CCFDF91CF911F910F910895EF92FF92DF
:2052A0000F931F93CF93DF931F92CDB7DEB77C018091062290910722892BE9F00E94BD31DF
:2052C000182F0FB7F89481E092E20E94832F0FBF212F2F70295F022F10E020E030E0061779
:2052E00017072807390748F0D70119968C918770813021F702C081E06FC0E092FA21F09224
:20530000FB211092FE21809100228D7F80930022D70119968C9180FD06C0F7019081969521
:2053200096959370B1F18091062290910722DC01ED91FC910190F081E02D61E0099510E054
:20534000CE0101960E947528A0910622B0910722882389F089811296ED91FC911397948145
:2053600093FD05C012E0ECCF948193FF1BC0918195FFFACF17C01296ED91FC911397818104
:2053800080648183818186FD0FC0848183FF0CC0F9CF909105229370990F897F892BF7010F
:2053A0008187C1CF8083CCCFED91FC9111970190F081E02D60E0CD01099511110AC0F70165
:2053C000818580FD08C0809105228F5F8093052202C0812F01C080E00F90DF91CF911F9170
:2053E0000F91FF90EF900895109201221092022210920322109204220E94612F87E5ECE9D5
:20540000F1E2DF011D928A95E9F708957F928F929F92AF92BF92CF92DF92EF92FF920F9313
:205420001F93CF93DF9300D01F92CDB7DEB75C014B01742EF22E10E0D50112968C91181727
:2054400008F041C0B6E31B9F60011124D5011396ED91FC911497EC0DFD1D8481871131C094
:2054600085818F112EC080819181A281B3818F3F9F4FAF4FBF4F29F1CF010E949F01D40165
:205480002D913D914D915C916217730784079507C1F4E982F50183819481C80ED91E00237C
:2054A00021F0FEE1CF0ED11C03C026E0C20ED11CCA82DB82AE014F5F5F4F63E08F2D0E9457
:2054C000C00E1F5FB9CF2396CDBFDEBFDF91CF911F910F91FF90EF90DF90CF90BF90AF908C
:2054E0009F908F907F900895FC01809361219093622180ED90E28083918362834383548302
:20550000089508951F93CF93DF93EC010E94402D182F888182958F700E940F2CFC011683F6
:20552000DF91CF911F9108951F93CF93DF93EC010E94402D182F888182958F700E940F2C89
:20554000FC011583DF91CF911F910895009769F0209110203091112042E286329407E0F38C
:2055600082179307C8F70C94E83008950C94A62ACF93DF93EC010E945030209110203091EF
:20558000112042E286329407E0F382179307C8F72197C80FD91F42E2C632D407E0F3C21774
:2055A000D307C8F7DF91CF9108950C94B82A1F93CF93DF93E0ECF1E022851FB7F89482872E
:2055C000A8E4B0E04C919C918C91809589238C93C0EAD0E038819A818A81887F84608A8377
:2055E0008C9181608C93858558ED54BF51E0538753E05587789488954C9338839A83858726
:2056000022870E94240C1FBFDF91CF911F9108950E94240C8091CF0181FF03C086E30C9415
:20562000D72A0895CF93DF93D82FC091CA010E94082B83E38093CA011092C2011092C101F3
:2056400080E08093C001D093C4018F5F8032C9F7C093CA01DF91CF910C94240C8F929F927E
:20566000AF92BF92CF92DF92EF92FF920F931F93CF93DF938C015B017A01905181159440DD
:2056800018F080E090E034C0CA019051800F911F81159440B0F7C12CD12C80E2982EE1143B
:2056A000F10429F1802E802F8F71C92DC81B8C2F90E0E816F90608F4CE2D0E94082BD0E001
:2056C000AE01B501C8010E94CD311092C2011093C1018092C00185E30E94D72AAC0EBD1EBF
:2056E000EC1AFD0ACC0EDD1E0C0F1D1FD8CFC601DF91CF911F910F91FF90EF90DF90CF9007
:20570000BF90AF909F908F9008950F931F93CF93DF931F92CDB7DEB78C0169838091CC01C7
:2057200083FF11C0011580E1180708F4105F41E050E0BE016F5F7F4FC8010E942E2B21E0A4
:20574000892BC9F404C0011584E0180710F020E012C00E94082B83E38093CA011092C2012B
:205760001093C1010093C00189818093C40185E30E94D72A21E0822F0F90DF91CF911F91B2
:205780000F910895EF92FF920F931F93CF93DF938A012091CC0123FF0EC0811520E1920769
:2057A00008F4905FA801DF91CF911F910F91FF90EF900C942E2B7B01EC01C61BD70BCE0133
:2057C0008E0D9F1D0115110551F0F70161917F010E94852B882331F001501109F0CF80E0F3
:2057E00090E001C0C801DF91CF911F910F91FF90EF9008951F920F920FB60F9211248F93D5
:20580000EF93FF93E0ECF1E085858C7F8587FF91EF918F910F900FBE0F901F9018958D3062
:2058200048F4E82FF0E0EE0FFF1FEE52FF4D80819181089588E092E208958FEF80931022B2
:205840000895CF92DF92EF92FF920F931F93CF93DF939C01240F351F2130314098F48A01A2
:20586000EB016B01C40ED51E7C01E61AF70AB7016C0F7D1FCC15DD0541F081E00E944F2C4C
:205880008993F5CF80E090E001C0C801DF91CF911F910F91FF90EF90DF90CF900895409164
:2058A000CA01E62FF72F8093CA0184914093CA01089561110FC0833039F0843041F0823000
:2058C00091F480E098E0089580E099E0089580E09AE00895613039F4823041F0833019F480
:2058E00080E499E0089580E090E0089580E498E00895FC019381907CE9F30895AF92BF9220
:20590000CF92DF92EF92FF920F93CF93DF93EC019B8193709130B1F469017A01660F6D8371
:20592000CE010E94792C5701E12CF12C8B8180FD03C0EC14FD0449F4011115C08B8180FDD5
:2059400012C013C080E090E011C0F50181915F018E83CE010E94792C8B8180FDEDCF8FEFAF
:20596000E81AF80AE3CF83E08A83C701DF91CF910F91FF90EF90DF90CF90BF90AF900895C2
:20598000AF92BF92CF92DF92EF92FF920F931F93CF93DF93EC018B818370813039F08B8197
:2059A0008370823019F080E090E02EC0B02E79018A01660F61606D83CE010E94792C8E814D
:2059C000F80181936F0101E010E082E0A82E8B8180FD03C00E151F0530F0B11012C08B81EF
:2059E00080FD0FC010C0AA82CE010E94792C8B8180FDF3CF0F5F1F4F8E81F60181936F0198
:205A0000E6CF87E08A83C801DF91CF911F910F91FF90EF90DF90CF90BF90AF900895629576
:205A2000607F4F70642BFC0160830895CF93DF93FC018081982F9F70C1E0D0E001C0CC0F27
:205A40009A95EAF782958F700E940F2CFC01C283DF91CF910895CF93DF93FC018081982FFB
:205A60009F70C1E0D0E001C0CC0F9A95EAF782958F700E940F2CFC01C183DF91CF91089579
:205A8000FC0190819F7081E001C0880F9A95EAF70895CF93DF93EC01888182958F700E9401
:205AA0000F2CFC01308528812F7081E090E001C0880F2A95EAF78323DF91CF9108950F9333
:205AC0001F93CF93DF931F92CDB7DEB78C016983CE0101960E94402DF8018083898182956B
:205AE0008F700E940F2CF8018183928330812FB7F8943093B00038E1FC01308B2FBF0F90C4
:205B0000DF91CF911F910F910895FC018081A181B28116968C938081A181B28111968C938E
:205B20008FEB92E10197F1F700C000009FB7F8948081A181B28112968C93AFE0B2E0119770
:205B4000F1F700C000002081A181B28118968C919FBFAFEEBCE01197F1F700C00000A181D3
:205B6000B28118963C919081932311F08223089581E00895FC01862F2FB7F8949081A18118
:205B8000B28111969C9395E19A95F1F70000662329F09081A181B28112969C93AAE8AA95BF
:205BA000F1F700C0A181B28118963C919081932309F480E0A7E6B1E01197F1F700C00000DB
:205BC00090810180F281E02D9283BAE6BA95F1F700C02FBF08950F931F93CF93DF938C01C7
:205BE000C62FD8E06C2F6170C8010E94BA2D2C2F30E035952795C22F8111C068D15091F7F5
:205C00008C2FDF91CF911F910F910895BF92CF92DF92EF92FF920F931F93CF93DF937C0132
:205C2000C62E8A010E94852D81113BC060EFC7010E94EB2DD0E0C0E498EFB92EBC0E61E066
:205C4000C7010E94BA2DD82E61E0C7010E94BA2D882319F0DD2071F026C0D1100BC0CC15D6
:205C600030F0F801808180FF05C0CC1519F0DC2FDD24D3946D2DC7010E94BA2DF8012081E4
:205C800030E035952795DD2011F02068F8012083C150CB11D4CF0F5F1F4FC111CDCF8D2FB6
:205CA00003C08FEF01C08EEFDF91CF911F910F91FF90EF90DF90CF90BF900895CF92DF92AB
:205CC000FF920F931F93CF93DF93EC01F62E8A010E94852D0115110591F065E5CE010E94B3
:205CE000EB2D680188E0C80ED11CF80161918F01CE010E94EB2D0C151D05B9F704C06CECE5
:205D0000CE010E94EB2D6F2DCE01DF91CF911F910F91FF90DF90CF900C94EB2DFC0180815C
:205D2000282F2F7030E02430310514F460E004C0263031052CF461E082958F700C94592C9F
:205D400080E090E008950F931F93CF93DF93EC0189010E940F2D8881803E18F4CE010E9415
:205D6000162D8881803E18F4CE010E942B2DCE010E948E2EFC01892BD9F08081807F8160BC
:205D800080838181887F8360818306A317A388818F70843008F08450418120E130E0B90198
:205DA00002C0660F771F8A95E2F7CB01842B8183DF91CF911F910F910895CF93DF93EC0121
:205DC0000E948E2E009721F0FC012081211105C0CE010E94492D90E00DC028812F70243068
:205DE00008F02450C896FC01E20FF11DE20FF11D80819181DF91CF9108950F931F93CF93A8
:205E0000DF93EC018B010E948E2EFC0198819F70943008F094503097D9F0492F50E09A01A1
:205E2000220F331FDF01D896A20FB31F0D931C9380818823E1F001151105C9F0818120E15A
:205E400030E0092E01C0220F0A94EAF7282B19C0CE01012B31F0DF91CF911F910F910C9482
:205E6000942ADF91CF911F910F910C94822A818120E130E0092E01C0220F0A94EAF7209588
:205E800028232183218140E150E0BA0102C0660F771F9A95E2F7CB0130E082239323892BA5
:205EA000B9F2DF91CF911F910F9108959091010490FDFCCF90910004987F892B80930004F5
:205EC000089531E02FB7F8944091030440FF0CC040912022509121224F5F5F4F4093202217
:205EE00050932122309303044091080450910904BA012FBF2091030420FDE4CF8091202263
:205F0000909121220895CF92DF92EF92FF920F931F93CF93DF93EC010E94612F0881198132
:205F20002A813B816B017C01C01AD10AE20AF30A601771078207930760F4C701B6016150DD
:205F400071098109910997FF06C060E070E0CB0102C0C701B601DF91CF911F910F91FF90FB
:205F6000EF90DF90CF9008951F93CF93DF93182FEB0180E00E94562F809143008E7F809383
:205F80004300153031F4C115D04219F483E09EE002C081E094E020914300217F2160922B15
:205FA0009093430020910804309109043C5F40910804509109049091010490FDFCCF6FEFAE
:205FC0007FEF60930A0470930B049091010490FDFCCF40930804509309049091010490FD40
:205FE000FCCF20930C0430930D04DF91CF911F910C94562FAA1BBB1B51E107C0AA1FBB1F63
:20600000A617B70710F0A61BB70B881F991F5A95A9F780959095BC01CD010895A1E21A2E67
:20602000AA1BBB1BFD010DC0AA1FBB1FEE1FFF1FA217B307E407F50720F0A21BB30BE40B58
:20604000F50B661F771F881F991F1A9469F760957095809590959B01AC01BD01CF01089510
:20606000A29FB001B39FC001A39F700D811D1124911DB29F700D811D1124911D08950E944D
:206080003030A59F900DB49F900DA49F800D911D11240895EE0FFF1F0590F491E02D0994A0
:2060A0000F931F93CF93DF938230910510F482E090E0E0912422F091252220E030E0A0E08B
:2060C000B0E0309719F1408151810281138148175907C8F08417950769F4109731F012963A
:2060E0000C93129713961C9327C0009324221093252222C02115310519F04217530718F440
:206100009A01BD01EF01DF01F801DBCF21153105F9F0281B390B2430310580F48A819B81B2
:206120006115710521F0FB018283938304C08093242290932522FE01329644C0FE01E20F09
:20614000F31F8193919322503109288339833AC02091222230912322232B41F42091022097
:2061600030910320209322223093232220910020309101202115310541F42DB73EB740913E
:20618000042050910520241B350BE0912222F0912322E217F307A0F42E1B3F0B2817390742
:2061A00078F0AC014E5F5F4F2417350748F04E0F5F1F40932222509323228193919302C0AC
:2061C000E0E0F0E0CF01DF91CF911F910F910895CF93DF93009709F481C0FC01329712829F
:2061E0001382A0912422B0912522109781F420813181820F931F209122223091232228171F
:20620000390751F5E0932222F093232267C0ED0120E030E0CE17DF0740F44A815B819E010F
:2062200041155105F1F0EA01F5CFC283D38340815181840F951FC817D90759F4888199817E
:20624000840F951F0296808391838A819B81828393832115310529F4E0932422F0932522FA
:206260003DC0E901EA83FB8349915991C40FD51FEC17FD0761F480819181840F951F029673
:20628000E90188839983828193818A839B83E0E0F0E012968D919C911397009719F0FD01E0
:2062A000DC01F7CF8D919C9111979D012E5F3F4F820F931F209122223091232228173907D2
:2062C00069F4309729F4109224221092252202C012821382A0932222B0932322DF91CF91F2
:2062E00008958F929F92AF92BF92CF92DF92EF92FF92CF93DF93EC01688179818A819B816E
:20630000611571058105910521F464E279ED8BE597E02DE133EF41E050E00E94DD31490152
:206320005A019B01AC01A7EAB1E40E943F306B017C01ACEEB4EFA50194010E94FF31DC0172
:20634000CB018C0D9D1DAE1DBF1DB7FF03C00197A109B04888839983AA83BB839F77DF91AC
:20636000CF91FF90EF90DF90CF90BF90AF909F908F9008950E947131089586E090E20E940D
:2063800071310895A0E0B0E08093062090930720A0930820B09309200895FB01DC0102C02C
:2063A00001900D9241505040D8F70895DC0101C06D9341505040E0F70895052E97FB1EF416
:2063C00000940E94F43157FD07D00E940E3007FC03D04EF40C94F431509540953095219545
:2063E0003F4F4F4F5F4F089590958095709561957F4F8F4F9F4F0895B7FF0C943F300E9453
:206400003F30821B930B0895F894FFCF00002622200001000000003D8F6001FF262ACC002A
:20642000C80202FFCC00C80505FF00000000812A812A60026202000000000D030A030303B5
:206440001603000000004B0448045204D506000000004B0448045204D506000000004B043C
:2064600048045204D506000000004B04480458075F0700000000660BAD083C09B708000015
:206480000000660B670B690B6A0B00000000DB1542123815841600000000660BB116C518F0
:2064A000BB1600000000660B670B2E1DD61D00000000A11EF51DA71FFB1D00000000D0204B
:2064C00000000000AA2100000000660B0523B124142300000000822600000000062A00066E
:1C64E00020064006600680060822082208220822082208220822E00759152100AC
:00000001FF
