:200000000C945F010C94CE010C94CE010C94CE010C94CE010C94CE010C94CE010C94CE01D7
:200020000C94CE010C94CE010C94CE010C94CE010C94CE010C94CE010C94CE010C94CE0148
:200040000C94CE010C94CE010C94CE010C94CE010C94CE010C94CE010C94CE010C94CE0128
:200060000C94CE010C94CE010C94CE010C94CE010C94CE010C94CE010C94CE010C94CE0108
:200080000C94402D0C94CE010C94CE010C94CE010C94CE010C94CE010C94CE010C94CE014A
:2000A0000C94CE010C94CE010C94CE010C9427030C94CE010C94CE010C94CE010C94CE016D
:2000C0000C94CE010C94CE010C94CE010C94CE010C94CE010C94CE010C94CE010C94CE01A8
:2000E0000C94CE010C94CE010C94CF020C94CE010C94CE010C94CE010C94CE010C94CE0186
:200100000C94CE010C94CE010C94D4070C94CE010C94CE010C94CE010C94CE010C94CE015B
:200120000C94CE010C94CE010C94CE010C94CE010C94CE010C94CE010C94CE010C94CE0147
:200140000C94CE010C94CE010C94CE010C940C080C94CE010C94CE010C94CE010C94CE01E2
:200160000C94CE010C94CE010C94CE010C94CE010C94CE010C94CE010C94CE010C94CE0107
:200180000C94CE010C94CE010C94CE010C94CE010C94CE010C94CE010C94CE010C94CE01E7
:2001A0000C94CE010C94CE010C94CE010C94CE010C94CE010C94CE010C94CE010C94CE01C7
:2001C0000C94CE010C94CE010C94CE010C94CE010C94CE010C94CE010C94CE010C94CE01A7
:2001E0000C94CE010C94CE010C94CE010C94CE010C94CE010C94CE010C94CE01244D4F44F2
:2002000024204842572D444556202000246600000246B08F46020C947F1E0C94AA200C94CD
:200220001E240C94D50F0C9464030C943E240C9400180C947A030C94B9020C94CB1C0C9498
:2002400073230C947D030C9494250C9404200C9457290C9469290C94BA240C94E80F0C94C4
:200260004E0A0C94810C0C94AA1C0C94E5290C94C72B0C94BB020C94792B0C94EF1B0C9468
:20028000BA0E0C945C030C94E50F0C94D01B0C94F00E0C9442080C94131A0C949A050C9444
:2002A000E60F0C945A2B0C9473030C940B2A0C9424270C94672D5C0324275729672D112427
:2002C0001FBECFEFCDBFDFE5DEBF00E00CBF80E08CBF67E280E890E00E94B0028091820038
:2002E00080FDFCCF60E081E490E00E94B00280915000866080935000809151008670863095
:20030000D9F760914000687F616080E490E00E94B00280914000809150008E7F80935000EA
:20032000809150008091600081608093600010E2A0E0B0E2E2E4F5E600E00BBF02C00790EF
:200340000D92A23EB107D9F722E2A2EEB0E201C01D92AA30B207E1F7EAE0F2E288E492E316
:200360008193EA30F907E0F383E590E68193E030F907E0F311E0CFE5D1E000E006C02197F3
:200380000109802FFE010E94E530CB35D10780E00807A9F70E9465020C949F320C940000ED
:2003A000CF93FC01680F791F2CEB31E652ECADE9B3E2C6E48CE8E617F707B9F09191942799
:2003C00090FF02C04EE501C040E091FD422792FD432793FD452794FD4A2795FD4B2796FD33
:2003E0004C2797FFE8CF4827E6CF842FCF910895FC01638172818181908108950F931F9391
:20040000CF93DF9300D01F92CDB7DEB76115710509F453C0DB01182F609340217093412196
:200420006093EA217093EB211296ED91FC911397178287E6868383E2858388E184831296BE
:20044000ED91FC91139793819F7C9061938390914221916090934221ED91FC910280F381B5
:20046000E02DCB011995109345218093432190934421FC0186819781A085B18589839A834D
:20048000AB83BC83CE0101960E94F8018B019C011D532F483046003816492849310540F4F6
:2004A00060930A2070930B2080930C2090930D20809142218260809342212496CDBFDEBFB3
:2004C000DF91CF911F910F910895CF93DF93CDB7DEB76897CDBFDEBF60E074E082E00E94B2
:2004E0004F308091CF0187FDFCCF8091CC0188608093CC0148E150E0BE016F5F7F4F80E093
:2005000090E00E946B2D489711F080EB8F8B8F890E94220C8C01BC018F890E94FE01D80108
:20052000ED91FC910280F381E02DC8011995FC01868197810E945D328091A2008F7B9FB7D6
:20054000F8941BBE28ED24BF8093A2009FBF8091A20087608093A20078940E94DE17FDCF6D
:20056000FC019FB7F8941BBE88ED84BF60839FBF089580E00895089528E130E2FC012083D8
:20058000318320EA3AE022833383E0E8F6E081858C7F8160818782858460828708951F924E
:2005A0000F920FB60F9211240BB60F922F933F934F935F936F937F938F939F93AF93BF9339
:2005C000EF93FF938091A00A0E944927009761F10E944326811123C08FE791E20E946826B8
:2005E0009C01892BE1F080917C218830C1F090917E219F5F90937E2190917E219770909358
:200600007E2190917C219F5F90937C21E0917E21F0E0EE0FFF1FE459FE4D208331838091D4
:200620008A06846080938A06FF91EF91BF91AF919F918F917F916F915F914F913F912F9143
:200640000F900BBE0F900FBE0F901F9018951F920F920FB60F9211240BB60F922F933F93E8
:200660004F935F936F937F938F939F93AF93BF93EF93FF930E94FC2F6093E4217093E521C8
:200680008093E6219093E721E0E8F6E082858B7F8287FF91EF91BF91AF919F918F917F915D
:2006A0006F915F914F913F912F910F900BBE0F900FBE0F901F901895E0E8F6E084E0828304
:2006C00088E082838183089580E2662331F08093050681E08093E50708958093060681E065
:2006E0008093E6070895809188068295817091E08927089580E090E10895CF93C62F809122
:20070000E22081110DC00E94FC2F6093EA207093EB208093EC209093ED2081E08093E220DB
:20072000C53050F4C23078F4CC2349F0C13059F582E08093E50727C0C53079F024C082E0CF
:200740008093E60720C08AEE90E20E941E30653F714081059105B8F009C08AEE90E20E9471
:200760001E30693C71058105910568F082E08093E7070E94FC2F6093EA207093EB2080934E
:20078000EC209093ED20CF910895EF92FF920F931F93CF93DF931F921F92CDB7DEB78C01DE
:2007A0000E94BC0284E290E2F80180839183E0E0F6E080E28283818380E482838183E0EEB5
:2007C000F7E081E08283818382E08283818380E180938206E1EFF7E0808180648083E4E915
:2007E000F6E08081877C808380818861808380E390E2F8018083918343E062E0CE0101967F
:200800000E94D02D43E060E0CE0102960E94D02D20E130E149816A81C80109960E94B10C42
:2008200042E062E0CE0101960E94D02D42E060E0CE0102960E94D02D28E130E149816A8118
:20084000C80185960E94B10C41E062E0CE0101960E94D02D41E060E0CE0102960E94D02D86
:2008600020E230E149816A81C8018F5B9F4F0E94B10C40E062E0CE0101960E94D02D40E029
:2008800060E0CE0102960E94D02D28E230E149816A81C801835A9F4F0E94B10C43E061E0EB
:2008A000CE0101960E94D02D43E063E0CE0102960E94D02D20E330E149816A81C801875856
:2008C0009F4F0E94B10C42E061E0CE0101960E94D02D42E063E0CE0102960E94D02D28E3ED
:2008E00030E149816A81C8018B569F4F0E94B10C41E061E0CE0101960E94D02D41E063E070
:20090000CE0102960E94D02D20E430E149816A81C8018F549F4F0E94B10C40E061E0CE01DE
:2009200001960E94D02D40E063E0CE0102960E94D02D28E430E149816A81C80183539F4FB9
:200940000E94B10C47E065E0CE0101960E94D02D20E030E040E550E16981C80187519F4FE8
:200960000E94E92346E065E0CE0101960E94D02D20E030E042E550E16981C801895F9E4F69
:200980000E94E92345E065E0CE0101960E94D02D20E030E044E550E16981C8018B5D9E4F48
:2009A0000E94E92344E065E0CE0101960E94D02D20E030E046E550E16981C8018D5B9E4F27
:2009C0000E94E92343E065E0CE0101960E94D02D20E030E048E550E16981C8018F599E4F06
:2009E0000E94E92342E065E0CE0101960E94D02D20E030E04AE550E16981C80181589E4FF4
:200A00000E94E92341E065E0CE0101960E94D02D20E030E04CE550E16981C80183569E4FD2
:200A20000E94E92340E065E0CE0101960E94D02D20E030E04EE550E16981C80185549E4FB1
:200A40000E94E92347E064E0CE0101960E94D02D20E030E040E650E16981C80187529E4F98
:200A60000E94E92346E064E0CE0101960E94D02D20E030E042E650E16981C80189509E4F77
:200A80000E94E92345E064E0CE0101960E94D02D7801FBEEEF1AFDEFFF0A6981C7010E9486
:200AA0004D2E44E650E1B701C8018A5E9D4F0E94661D4AE650E1B701C8018C5C9D4F0E948E
:200AC000661D40E750E1B701C8018E5A9D4F0E94661D46E750E1B701C80180599D4F0E947B
:200AE000661D4CE750E1B701C80182579D4F0E94661D42E850E1B701C80184559D4F0E9461
:200B0000661D40E950E168E2C80186539D4F0E94AD2440E856E160E3C80181539D4F0E94E0
:200B200087250F900F90DF91CF911F910F91FF90EF90089580E090E108950F931F93CF93DC
:200B4000DF9361E083E00E94A32DEC018B81807189688B838981887F89838FEF9FEF8EA3CA
:200B60009FA380E590E088AF99AF8CED8093800160E082E00E94A32DFC018181887F8360D5
:200B80008183838180718868838308E210EA06A317A360E083E00E94A32DFC018181887F04
:200BA00083608183838180718868838306A317A380E00E94592DFC018FB7F89490E890930E
:200BC000B00099E1908B8FBF82858068828787E58093810184E089878881807F866088831C
:200BE0008E818C7F81608E8381858C7F82608187DF91CF911F910F910895EF92FF920F937D
:200C00001F93CF93DF931F921F92CDB7DEB77C010E94BC0284E290E2F70180839183E0E04F
:200C2000F6E080E28283818380E482838183E0EEF7E081E08283818382E08283818380E12B
:200C400080938206E1EFF7E0808180648083E4E9F6E08081877C80838081886180838CE364
:200C600090E2F7018083918343E060E0CE0101960E94D02D43E062E0CE0102960E94D02D20
:200C80000DEC20E130E149816A81C70109960E94AE1842E060E0CE0101960E94D02D42E03C
:200CA00062E0CE0102960E94D02D22E130E149816A81C7018A960E94AE1841E060E0CE01A3
:200CC00001960E94D02D41E062E0CE0102960E94D02D24E130E149816A81C701855B9F4F14
:200CE0000E94AE1840E060E0CE0101960E94D02D40E062E0CE0102960E94D02D26E130E1A7
:200D000049816A81C70184599F4F0E94AE1843E061E0CE0101960E94D02D43E063E0CE0185
:200D200002960E94D02D28E130E149816A81C70183579F4F0E94AE1842E061E0CE010196EC
:200D40000E94D02D42E063E0CE0102960E94D02D2AE130E149816A81C70182559F4F0E9489
:200D6000AE1841E061E0CE0101960E94D02D41E063E0CE0102960E94D02D2CE130E14981F4
:200D80006A81C70181539F4F0E94AE1840E061E0CE0101960E94D02D40E063E0CE01029646
:200DA0000E94D02D2EE130E149816A81C70180519F4F0E94AE1847E065E0CE0101960E945C
:200DC000D02D20E030E044E057E16981C7018F5E9E4F0E94E92346E065E0CE0101960E94FD
:200DE000D02D20E030E046E057E16981C701815D9E4F0E94E92345E065E0CE0101960E94EB
:200E0000D02D20E030E048E057E16981C701835B9E4F0E94E92344E065E0CE0101960E94C9
:200E2000D02D20E030E04AE057E16981C70185599E4F0E94E92343E065E0CE0101960E94A8
:200E4000D02D20E030E04CE057E16981C70187579E4F0E94E92342E065E0CE0101960E9487
:200E6000D02D20E030E04EE057E16981C70189559E4F0E94E92341E065E0CE0101960E9466
:200E8000D02D20E030E040E157E16981C7018B539E4F0E94E92340E065E0CE0101960E9454
:200EA000D02D20E030E042E157E16981C7018D519E4F0E94E92347E064E0CE0101960E942C
:200EC000D02D20E030E044E157E16981C7018F5F9D4F0E94E92346E064E0CE0101960E94FC
:200EE000D02D20E030E046E157E16981C701815E9D4F0E94E92345E064E0CE0101960E94EA
:200F0000D02D8701035C1D4F6981C8010E944D2E40EE56E1B801C701825C9D4F0E94661DDC
:200F200046EE56E1B801C701845A9D4F0E94661D4CEE56E1B801C70186589D4F0E94661DF5
:200F400042EF56E1B801C70188569D4F0E94661D48EF56E1B801C7018A549D4F0E94661DDB
:200F60004EEF56E1B801C7018C529D4F0E94661D40E250E160E2C7018E509D4F0E94D829C3
:200F800048E157E160E2C70189509D4F0E948725C7010E949D050F900F90DF91CF911F9109
:200FA0000F91FF90EF9008951F920F920FB60F9211240BB60F922F933F934F935F936F932D
:200FC0007F938F939F93AF93BF93EF93FF9360E082E00E94A32DFC019081907F94609083CB
:200FE00060E083E00E94A32DFC019081907F94609083FF91EF91BF91AF919F918F917F91B8
:201000006F915F914F913F912F910F900BBE0F900FBE0F901F9018951F920F920FB60F92E9
:2010200011240BB60F922F933F934F935F936F937F938F939F93AF93BF93EF93FF9360E061
:2010400082E00E94A32DFC019081907F908360E083E00E94A32DFC019081907F9083FF91B7
:20106000EF91BF91AF919F918F917F916F915F914F913F912F910F900BBE0F900FBE0F902D
:201080001F90189580E090E10895EF92FF920F931F93CF93DF931F92CDB7DEB78C010E9453
:2010A000BC0284E290E2F80180839183E0E0F6E080E28283818380E482838183E0EEF7E077
:2010C00081E08283818382E08283818380E180938206E1EFF7E0808180648083E4E9F6E00D
:2010E0008081877C808380818861808388E490E2F8018083918343E060E0CE0101960E94A3
:20110000D02D40E150E16981C80109960E94642A43E062E0CE0101960E94D02D42E150E140
:201120006981C80180960E94642A42E060E0CE0101960E94D02D44E150E16981C801C796E9
:201140000E94642A42E062E0CE0101960E94D02D46E150E16981C801825B9F4F0E94642AF0
:2011600041E060E0CE0101960E94D02D48E150E16981C8018B599F4F0E94642A41E062E097
:20118000CE0101960E94D02D4AE150E16981C80184589F4F0E94642A40E060E0CE0101967B
:2011A0000E94D02D4CE150E16981C8018D569F4F0E94642A40E062E0CE0101960E94D02D17
:2011C0004EE150E16981C80186559F4F0E94642A43E063E0CE0101960E94D02D40E250E145
:2011E0006981C8018F539F4F0E94642A43E061E0CE0101960E94D02D42E250E16981C801CB
:2012000088529F4F0E94642A42E063E0CE0101960E94D02D44E250E16981C80181519F4FA2
:201220000E94642A42E061E0CE0101960E94D02D46E250E16981C8018A5F9E4F0E94642A04
:2012400041E063E0CE0101960E94D02D48E250E16981C801835E9E4F0E94642A41E061E0B7
:20126000CE0101960E94D02D4AE250E16981C8018C5C9E4F0E94642A40E063E0CE0101968B
:201280000E94D02D4CE250E16981C801855B9E4F0E94642A40E061E0CE0101960E94D02D3A
:2012A0004EE250E16981C8018E599E4F0E94642A47E065E0CE0101960E94D02D20E030E095
:2012C00040E350E16981C80187589E4F0E94E92346E065E0CE0101960E94D02D20E030E00D
:2012E00042E350E16981C80189569E4F0E94E92345E065E0CE0101960E94D02D20E030E0EC
:2013000044E350E16981C8018B549E4F0E94E92344E065E0CE0101960E94D02D20E030E0CA
:2013200046E350E16981C8018D529E4F0E94E92343E065E0CE0101960E94D02D20E030E0A9
:2013400048E350E16981C8018F509E4F0E94E92342E065E0CE0101960E94D02D20E030E088
:201360004AE350E16981C801815F9D4F0E94E92341E065E0CE0101960E94D02D20E030E067
:201380004CE350E16981C801835D9D4F0E94E92340E065E0CE0101960E94D02D20E030E046
:2013A0004EE350E16981C801855B9D4F0E94E92347E064E0CE0101960E94D02D20E030E01E
:2013C00040E450E16981C80187599D4F0E94E92346E064E0CE0101960E94D02D20E030E00C
:2013E00042E450E16981C80189579D4F0E94E92345E064E0CE0101960E94D02D7801FBE5A2
:20140000EF1AFDEFFF0A6981C7010E944D2E44E450E1B701C8018A559D4F0E94661D4AE407
:2014200050E1B701C8018C539D4F0E94661D40E550E1B701C8018E519D4F0E94661D46E518
:2014400050E1B701C8019D5F0E94661D4CE550E1B701C801825E9C4F0E94661D42E650E18D
:20146000B701C801845C9C4F0E94661D48E650E160E3C801865A9C4F0E94012648EA55E194
:2014800060E3C801815A9C4F0E9487250F90DF91CF911F910F91FF90EF90089580E090E1F1
:2014A00008952F923F924F925F926F927F928F929F92AF92BF92CF92DF92EF92FF920F93AF
:2014C0001F93CF93DF9300D0CDB7DEB78C010E94BC0284E290E2F80180839183E0E0F6E032
:2014E00080E28283818380E482838183E0EEF7E081E08283818382E08283818380E1809326
:201500008206E1EFF7E0808180648083E4E9F6E08081877C808380818861808384E590E242
:20152000F8018083918343E060E0CE0101960E94D02D4801F9E08F0E911C40E150E169818B
:20154000C4010E94642A42E060E0CE0101960E94D02D580180E2A80EB11C42E150E16981B3
:20156000C5010E94642A41E060E0CE0101960E94D02D680197E3C90ED11C44E150E1698128
:20158000C6010E94642A40E060E0CE0101960E94D02D7801EEE4EE0EF11C46E150E1698159
:2015A000C7010E94642A43E061E0CE0101960E94D02DC8018B599F4F8A839B8348E150E1AA
:2015C00069810E94642A42E061E0CE0101960E94D02D38019CE7690E711C4AE150E1698183
:2015E000C3010E94642A41E061E0CE0101960E94D02D2801E3E94E0E511C4CE150E169818A
:20160000C2010E94642A40E061E0CE0101960E94D02D1801FAEA2F0E311C4EE150E16981A0
:20162000C1010E94642A41E065E0CE0101960E94D02D20E030E040E250E16981C8018F5355
:201640009F4F0E94E92340E065E0CE0101960E94D02D20E030E042E250E16981C801815299
:201660009F4F0E94E92343E065E0CE0101960E94D02D20E030E044E250E16981C801835074
:201680009F4F0E94E92342E065E0CE0101960E94D02D20E030E046E250E16981C801855E43
:2016A0009E4F0E94E92345E065E0CE0101960E94D02D20E030E048E250E16981C801875C1F
:2016C0009E4F0E94E92344E065E0CE0101960E94D02D20E030E04AE250E16981C801895AFE
:2016E0009E4F0E94E92347E065E0CE0101960E94D02D20E030E04CE250E16981C8018B58D9
:201700009E4F0E94E92346E065E0CE0101960E94D02D20E030E04EE250E16981C8018D56B7
:201720009E4F0E94E92343E062E0CE0101960E94D02DA4016981C8018F549E4F0E946B204F
:2017400042E062E0CE0101960E94D02DA5016981C8018D539E4F0E946B2041E062E0CE019B
:2017600001960E94D02DA6016981C8018B529E4F0E946B2040E062E0CE0101960E94D02D7B
:20178000A7016981C80189519E4F0E946B2043E063E0CE0101960E94D02D4A815B816981FE
:2017A000C80187509E4F0E946B2042E063E0CE0101960E94D02DA3016981C801855F9D4FDE
:2017C0000E946B2041E063E0CE0101960E94D02DA2016981C801835E9D4F0E946B2040E003
:2017E00063E0CE0101960E94D02DA1016981C801815D9D4F0E946B2040E350E160E2C801F6
:201800008F5B9D4F0E94012640EB53E160E2C8018A5B9D4F0E9487252396CDBFDEBFDF914E
:20182000CF911F910F91FF90EF90DF90CF90BF90AF909F908F907F906F905F904F903F9095
:201840002F9008950F931F93CF93DF931F92CDB7DEB7182F809100108F3F51F4198241E003
:2018600050E0BE016F5F7F4F80E090E10E94082D183B61F480910010811138C08CEF92E0F5
:201880000E941B2C8C010E94FD0529C0193B61F48091001081112AC084E693E00E941B2C39
:2018A0008C010E9445081BC01A3B61F48091001081111CC08BE492E00E941B2C8C010E949F
:2018C000510A0DC0173B91F48091001081110EC084ED92E00E941B2C8C010E94C503C801FC
:2018E0000F90DF91CF911F910F9108958091CF0187FDFCCF40E260E070E0CB010F94DE8FCE
:20190000FFCF0F931F93FC0190E081E00681178120853185012B022B032B09F480E080FBFE
:2019200096F92481822F8B7F8150823050F42150223010F022E001C021E02295207F9F7CF9
:20194000922B8089FB018083918382E01F910F910895FC016083603E18F441110C94EC2DCA
:201960000895BF92CF92DF92EF92FF920F931F93CF93DF93EC01D62EB42E89010E94E90F76
:2019800080E690E2888399837E018EE0E80EF11C41E06D2DC7010E94A90C6E018FE0C80ECA
:2019A000D11C41E06B2DC6010E94A90C188A098B1A8B1B8A1C8A81E08D8B1E8A1F8A188ECD
:2019C000198E1A8E1B8E17E01A83C6010E94C82BC7010E94C82B1C83DF91CF911F910F9103
:2019E000FF90EF90DF90CF90BF900895DC0150962C915097261789F050966C9350974423CF
:201A000049F05196ED91FC9152976081661F6627661F01C060E00C9449100895CF93DF93CF
:201A2000FC01638F86819781A085B185892B8A2B8B2B81F48089681769F0681710F080E0E9
:201A400001C084E0EF0185830E94FC2F6E837F8388879987DF91CF910895FC016089948112
:201A60008BEF890F823010F4611108C09150923010F4683C28F0CF010C940E0D6150FBCFFB
:201A80006F5FF9CF8F929F92AF92BF92EF92FF920F931F93CF93DF937C01DC0114968C9171
:201AA000833009F43FC028F4882309F1823081F17EC0863009F466C0873021F0843009F006
:201AC00076C050C0D7015396ED91FC915497662321F0C785C295CF7001C0C0E03097B9F1BB
:201AE00001851285D081D6FBDD27D0F964C0D7015396ED91FC915497662319F0C485CF70E5
:201B000001C0C2E0309709F446C00381148145C0662309F444C0D7015396ED91FC91549739
:201B2000C58538C0D7015396ED91FC915497662321F0C585C295CF7001C0C4E0309739F0DD
:201B400007811085D081D7FBDD27D0F934C0F701938D8089981741F10188F289E02D0181EF
:201B600010E01BC0D7015396ED91FC915497662319F0C685CF7001C0C6E0309761F00581C2
:201B800016810BC0662399F0D7015396ED91FC915497C785CF7000E010E0D1E00CC000E062
:201BA00010E0D1E0C3E007C000E010ECF6CF00E010E0D1E0C7E00E94FC2F4B015C01B80122
:201BC000C7010E9415100115104C60F4DC01CB01880D991DAA1DBB1DF70186839783A087DB
:201BE000B18707C0D70116961D921D921D921C921997C83020F4F701C583D58B09C0C8308A
:201C000039F0D70116961D921D921D921C921997DF91CF911F910F91FF90EF90BF90AF90F0
:201C20009F908F9008950F931F93CF93DF931F92CDB7DEB78C01FC018081861749F069837A
:201C400041E050E0BE016F5F7F4FC8010E94082DC8010F90DF91CF911F910F9108950F9371
:201C60001F93CF93DF93EC01633071F130F4613009F468C058F41C8266C0653009F462C05E
:201C800098F16630A1F16730F9F05DC082E08C838E01025F1F4FC8010E94372E811104C001
:201CA000C8010E94DA2B06C068896F5F41E0CE010E94F60C98898B8D981708F044C0E98945
:201CC000FA89238134812EC06C83CE010F960E94C82BCE010E960E94C82B89899A89688914
:201CE00007960E94130E2FC084E08C832CC06C838C01015F1F4FC8010E94372E811104C0C6
:201D0000C8010E94DA2B06C06889615041E0CE010E94F60C98898B8D8917A8F4E989FA89ED
:201D200025813681369527958E819F81A885B985820F931FA11DB11D8E839F83A887B987B4
:201D400080E002C06C8381E0DF91CF911F910F910895CF93DF93EC016D810E942F0E88231B
:201D600031F060E0CE01DF91CF910C94420DDF91CF910895CF93DF93EC018E819F81A885EA
:201D8000B985892B8A2B8B2B19F1CE0106960E941E30672B682B692BD9F08E899F89A88D8B
:201DA000B98D892B8A2B8B2B81F0CE0146960E941E30633C71408105910538F01E8A1F8ACD
:201DC000188E198ECE010E942D0DCE010E94A90E40E050E0BA01CE01DF91CF910C94771012
:201DE0000F931F93CF93DF93EC018A01613071F4DA016C91693C18F40E940E0D04C0693C9E
:201E000011F40E942D0D1B8A1C8A51C0633009F04EC0DA011196ED91FC911297EB8BFC8BB8
:201E20009A8D8C91981307C00E94FC2F6E8B7F8B888F998F2FC0808180FF2CC08E819F8153
:201E4000A885B985892B8A2B8B2B29F08C818B7F8150823018F561E0CE010E94420DCE0168
:201E60000E94A90E8C81EB89FC89833010F4828101C081818B8FE989FA89908196FD0AC009
:201E80009889891307C0883C69F440E06EEBCE010E94F60CF80180818A8F09C08D89882314
:201EA000D1F2DDCF8111F6CF40E06AE0F0CFDF91CF911F910F9108950F931F93CF93DF934E
:201EC0001F921F92CDB7DEB78C01FC01808191818617970751F069837A8342E050E0BE0174
:201EE0006F5F7F4FC8010E94082DC8010F900F90DF91CF911F910F9108950F931F93CF932C
:201F0000DF931F92CDB7DEB78C01FC0180818F738F3359F080911120898341E050E0BE018F
:201F20006F5F7F4FC8010E94082DF80181818550863F08F5F8018281853628F060E0C801FB
:201F400002960E94130EF80183819481019780369A4EB8F4F80185819681019780369A4EE6
:201F6000B8F4F8018781893CD0F060E0C80107960E94130E14C065E0C80101960E94130E8A
:201F8000D9CF64EF71E0C80103960E945C0FE2CF64EF71E0C80105960E945C0FE2CF0F9070
:201FA000DF91CF911F910F910895CF93DF93EC0189899A890E947D0FE989FA8941E0678142
:201FC000CE01DF91CF910C94F60C089580E008950895DC018CE690E28D939C931197129629
:201FE0001C921297E09132211396EC93139714961C92149715961C92159716961D921D92E2
:202000001D921C9219971A961D921D921D921C921D9781E08E0F80933221F0E0EE0FFF1F45
:20202000E251FF4DA083B18308959B013F7364E0769F612D772711246130710509F158F0DC
:202040006230710511F5D90120E030EA4FE050E00E94DA300895C901A0E0B0E0BC01CD0171
:202060002AE0660F771F881F991F2A95D1F72AE030E040E050E00E94A930CA01B90108955E
:20208000A0E0B0EF0E94CB30089560E070E0CB0108950F931F93CF93DF93FC0102851385AA
:2020A00024853585012B022B032BE1F46623D1F0EC010E94FC2FE0914321F0914421218100
:2020C000F4E62F9FA00111248A01550F220B330BAB01BC01400F511F621F731F4A875B873A
:2020E0006C877D87DF91CF911F910F9108952F923F924F925F926F927F928F929F92AF9223
:20210000BF92CF92DF92EF92FF920F931F93CF93DF93CDB7DEB7CD57D109CDBFDEBFDC0145
:202120001A960D911D912D913C911D97012B022B032B09F478C06A017B018C010A960E94F2
:202140001E30672B682B692B09F46DC0D801ED91FC910280F381E02DBE01685A7F4FC8014F
:202160001995ED968FAFED97F801F381EE96FFAFEE97E0914321F091442182819381A48151
:20218000B581EC968CAF9DAFAEAFBFAFEC97CE0188589F4F0E94F8014B015C0140900A20D7
:2021A00050900B2060900C2070900D200E94FC2FCE0101961C0187E5D1011D928A95E9F78F
:2021C00089E6888BEE96BFADEE97B98BED96EFADED974E2F50E0BE01685A7F4FCE0142967E
:2021E0000E94683288EF8A874B865C866D867E868E829F82A886B986ED968FADED978E5FA3
:202200008F87C1010E94AA26882379F0F80182859385A485B58586509F4FAF4FBF4F82870C
:202220009387A487B58780E019C0C114D104E104F10461F00E94FC2FC60ED71EE81EF91E5C
:20224000F801C286D386E486F58607C0D8011A961D921D921D921C921D9781E0C358DF4F96
:20226000CDBFDEBFDF91CF911F910F91FF90EF90DF90CF90BF90AF909F908F907F906F904F
:202280005F904F903F902F9008958F929F92AF92BF92CF92DF92EF92FF920F931F93CF93C7
:2022A000DF936B017C01FA0188E4808382E4818387E582838A01065F1F4FEA0123968AE012
:2022C000882E912CA12CB12C0C171D0791F0C701B601A50194010E94A930605DF801629339
:2022E0008F01C114D104E104F10471F369017A01EBCFDF91CF911F910F91FF90EF90DF902A
:20230000CF90BF90AF909F908F900895CF93DF93EC010E94FC2F688379838A839B83DF91D5
:20232000CF910895CF93DF93EC0101960E94861187E5FE0111928A95E9F7DF91CF91089595
:20234000FC01808180FF03C081E09785961380E00895FC01818580FD07C08685823020F006
:2023600081E09785993609F080E008958091CF0187FDFCCF0895CF92DF92EF92FF920F93C8
:202380001F93CF93DF93CDB7DEB7C755D109CDBFDEBF8091422181FF51C08091E92118E067
:2023A000180F0FB7F89484EE91E20E941E300FBF012F10E020E030E0061717072807390727
:2023C000E8F5E0914321F0914421108100914521C0900A20D0900B20E0900C20F0900D208F
:2023E000CE0101960E949211CB86DC86ED86FE868FEF9FEFDC018E839F83A887B98788EF86
:202400008A8781E4888B198A0A8B1B8B82E08C8B86E48D8BAE014A5E5F4FC701B6010E9434
:20242000451180E18F87CE0101960E94AA26811105C0809142218D7F80934221C95ADF4F59
:20244000CDBFDEBFDF91CF911F910F91FF90EF90DF90CF900895CF92DF92EF92FF920F9334
:202460001F93CF93DF93CDB7DEB72597CDBFDEBFE0914321F09144211081C680D780E0848B
:20248000F1840091CC010E94B6118091CC01877F8093CC018FEF0E94582C0E94B61180E3CC
:2024A0000E941D2C03FF07C00E94B6118091CC0188608093CC0180914321909144211D83BE
:2024C00041E050E0BE016B5F7F4F0E94082D8091432190914421C982DA82EB82FC8244E0CC
:2024E00050E0BE016F5F7F4F06960E94082D809142218460809342212596CDBFDEBFDF91BC
:20250000CF911F910F91FF90EF90DF90CF9008951F93CF93DF9300D01F92CDB7DEB7809161
:20252000402190914121892B09F4BAC080913821811107C084E391E20E94861181E0809342
:2025400038218091402190914121DC01ED91FC910480F581E02D1995182F80913321823032
:2025600009F441C028F4882361F0813001F18BC0843009F46AC008F451C0853009F47DC080
:2025800082C0112319F081E080933321CE0101960E94861189819A81AB81BC81809334215F
:2025A00090933521A0933621B09337216CC084E391E2112351F00E941E3069387341810537
:2025C000910508F460C082E055C00E941E30653671058105910508F454C08091422182604F
:2025E000809342214EC011114EC083E080933321CE0101960E94861189819A81AB81BC8130
:202600008093342190933521A0933621B09337218091422180628093422135C084E391E219
:202620000E941E30643671058105910560F1112311F084E0A9CF84E391E20E941E306938B1
:20264000734181059105E8F41EC084E391E20E941E306436710581059105A8F0112389F0B5
:2026600084E391E20E941E30693B7B408105910550F085E08093332106C0111104C00E94BB
:202680002B12109233218091402190914121DC01ED91FC910680F781E02D6091332119952C
:2026A0002496CDBFDEBFDF91CF911F9108950F931F93CF93DF9300D01F92CDB7DEB7E091E7
:2026C0004321F091442186819781A085B18589839A83AB83BC83CE0101960E94F80100910E
:2026E0000A2010910B2020910C2030910D206017710782079307B9F08B019C011D532F484E
:202700003046003816492849310540F460930A2070930B2080930C2090930D208091422183
:20272000826080934221E0914321F0914421918191509A3FB0F410E0809132211817E8F4B7
:20274000E12FF0E0EE0FFF1FE251FF4D80819181DC01ED91FC910680F781E02D19951F5FCD
:20276000EBCF82E3898341E050E0BE016F5F7F4FCF0101960E94082DDECF2496CDBFDEBFB4
:20278000DF91CF911F910F910895CF92DF92EF92FF921F93CF93DF93CDB7DEB7C755D10903
:2027A000CDBFDEBF8091422180FF07C00E945713809142218E7F809342218091422183FF3D
:2027C00009C08FB7F8941BBE98ED94BF91E0909379008FBF8091422182FF0FC0A8958FB70B
:2027E000F8941BBE98ED94BF9BE1909380008FBF8091820080FDFCCFFFCF85FF27C0C090CB
:202800000A20D0900B20E0900C20F0900D20CE0101960E949211CB86DC86ED86FE8682E003
:2028200090E0A0E0B0E08E839F83A887B98788EF8A8783E2888B81E08F87CE0101960E94F7
:20284000AA26809142218F7D809342210E94FC2F6D3D75408105910568F1809178008823DD
:2028600039F110917800C0900A20D0900B20E0900C20F0900D20CE0101960E949211CB86CB
:20288000DC86ED86FE868FEF9FEFDC018E839F83A887B98788EF8A878FEF888B198B82E035
:2028A0008F87CE0101960E94AA268FE7809378000E94BB11C95ADF4FCDBFDEBFDF91CF9171
:2028C0001F91FF90EF90DF90CF90089590913221891778F4E82FF0E0EE0FFF1FE251FF4DCE
:2028E00080819181DC01ED91FC910280F381E02D1994DB011C9281E0089590913221891791
:2029000078F4E82FF0E0EE0FFF1FE251FF4D80819181DC01ED91FC910190F081E02D199413
:202920000895DF92EF92FF920F931F93CF93DF93EC010E940E26D82E811102C0D12CC8C1AC
:20294000898580FDFBCF65E7CE010E94A011882321F0809142218860B7C062E5CE010E946D
:20296000A011882391F08E85843041F71A89412F50E0688979897627672776277061CE01DD
:202980000F960E9468321E87A1C163E4CE010E94A011882321F080914221816095C066E733
:2029A000CE010E94A011882389F080910A2090910B20A0910C20B0910D208D839E83AF831C
:2029C000B88782E08F8796E4988B69C168E6CE010E94A011882359F0E0914321F09144215A
:2029E0008081909145219F87888B82E058C165E4CE010E94A011882309F44FC00A891B8942
:202A0000812F869586958695912F977011F48C5F01C08B5F8E8785E68F874E8550E0445026
:202A2000510960E070E0CE0143960E947132402F50E060E070E180E090E0212F30E001E07E
:202A400010E0281739070CF441C1DB01E0E0F0E0E417F507F4F4FD90EE24EA94FE14B9F0E2
:202A6000FC01A3E0F595E795AA95E1F73496EC0FFD1FDC01A770BB27780102C0EE0CFF1CB2
:202A8000AA95E2F7D701B785AB2BA78702C03196DFCF0196640F751FD4CF6BE4CE010E94CE
:202AA000A0118111BDC06BECCE010E94A0118111B7C05FC061E2CE010E94A011882309F4A8
:202AC0009CC08091422184608093422111E08D819E81AF81B8858F3F9F4FAF4FBF4F09F47C
:202AE0002DCF8091422186FF07C065E7CE010E94A011882309F422CF2985822F877083300A
:202B000021F023FB222720F901C020E08A859B85AC85BD858D839E83AF83B88780910A20E4
:202B200090910B20A0910C20B0910D208A879B87AC87BD87898586958370112321F099E1F9
:202B400099871E8602C098E999878370982F9295990F907E89858F79892B8987211102C0E9
:202B6000877F898781E02827888120FB84F98883AFC063E5CE010E94A011882321F0BE018F
:202B80006F5E7F4F86C067E5CE010E94A0118823F1F04A892E8530E0842F90E004962817C8
:202BA000390709F0CBCE88899989982789279827BE01009719F06D5E7F4F05C06C5E7F4F8D
:202BC000415081E090E050E00E94082D7FCF6EE6CE010E94A011882309F46CCF60910A20CA
:202BE00070910B2080910C2090910D20AE01415F5F4F0E9445118AE052C069E6CE010E94ED
:202C0000A011811163CF63E7CE010E94A011811135C068E7CE010E94A01181112FC041C059
:202C20009A89892F8370833051F04D815E816F8178854F3F5F4F6F4F7F4F09F447CFA0912C
:202C40004621B0914721109709F440CFE92EF12CF594E794F594E79401E0833009F000E008
:202C6000ED91FC9111970190F081E02D29894889BE01665F7F4FCD01199528CF6E856250A5
:202C80007E0181E1E80EF11CA70188890E947D14B70188890E94661499E69F878E5F8E87D8
:202CA00015C06AE7CE010E94A011882321F080914221806409CF6AE5CE010E94A0118823C4
:202CC00009F43CCE809142218F7BFECE10E0FFCE8D2DDF91CF911F910F91FF90EF90DF908F
:202CE00008950F931F93CF93DF93DC0190E090962C919097921740F5FD01E90FF11DE90FDE
:202D0000F11DEB01088119814081518104171507C9F4892F422F50E041505109E82FF0E0E4
:202D2000E417F50754F4EE0FFF1FEA0FFB1FC281D381C083D1838F5FF1CF915021509096D2
:202D40002C9390979F5FD3CFDF91CF911F910F9108951F93CF93DF931F921F92CDB7DEB72F
:202D600010E080916B211817A0F5E12FF0E0EE0FFF1FE55BFE4D8081918189839A83FC0143
:202D80004181528163817481452B462B472BF9F001960E941E30672B682B692BC1F089818E
:202DA0009A810E94AA26E981FA8180818C708C3081F4BE016F5F7F4F8BE491E20E9471160D
:202DC00067E570E089819A810E94592602C01F5FC8CF0F900F90DF91CF911F9108958F92BE
:202DE0009F92AF92BF92DF92EF92FF920F931F93CF93DF931F921F92CDB7DEB77C01D12C70
:202E000080916B21D81608F060C0ED2DF0E0EE0FFF1FE55BFE4D0081118109831A83F8014A
:202E2000818580FD50C0F70181858770813071F0F8018685843009F046C087858B3409F07D
:202E400042C0C7010E94A9118823E9F191E0F80182849384A484B584F70145815681678162
:202E6000708584169506A606B70609F090E081E0F80185809680A780B084F70142855385EF
:202E80006485758584169506A606B70609F080E08923C9F0F801918596959370F7018185B8
:202EA00082958695837098130EC0BE016F5F7F4F8BE491E20E94711667E570E089819A814D
:202EC0000E94592602C0D3949BCF0F900F90DF91CF911F910F91FF90EF90DF90BF90AF90D5
:202EE0009F908F9008950F931F93CF93DF93CDB7DEB7C755D109CDBFDEBF80917C2188232E
:202F000009F453C09FB7F89480917C218823C1F0E0917D2181E08E0F80937D21F0E0EE0F2A
:202F2000FF1FE459FE4D0081118180917D21877080937D2180917C21815080937C2102C090
:202F400000E010E09FBF0115110579F1C8010E942D26882351F0F80181858770813009F162
:202F6000C8010E94A91181111CC0F80181858770813089F087E5DE01119601900D928A955D
:202F8000E1F7CE0101960E949114882321F0CE0101960E94AA2667E570E0C8010E94592692
:202FA00004C0C8010E94EF16E0CFC95ADF4FCDBFDEBFDF91CF911F910F910895CF93C0E0F5
:202FC00080913221C817A8F4EC2FF0E0EE0FFF1FE251FF4D80819181DC01ED91FC9104800E
:202FE000F581E02D19950E9473170E94A916CF5FE7CF0E94C5130E948812A895CF9108953F
:203000000F931F93FC0190E081E00681178120853185012B022B032B09F480E080FB96F926
:203020008481813021F0843039F422E001C021E02295207F9F7C922B8489FB0180839183D6
:2030400082E01F910F910895CF93DF93D62FFC018081C82FCF7082958F700E94592DC830DE
:2030600060F44096EC2FF0E0E80FF91F8081DD2311F0806401C08F7B8083DF91CF9108950B
:20308000FC01808183700895DC0154962C91549730E05796ED91FC9158978489662319F09D
:2030A000280F311D02C0281B31098389482F50E0241735073CF48289482F50E0421753078D
:2030C0000CF4822F08950F931F93CF93DF93EC01162F042F8C898617E1F1CE014396662360
:2030E00019F00E94DA2B02C00E94C82B1C8B8D899E890E944018282FCE014296223040F467
:20310000112319F00E94DA2B13C060E070E00EC0223019F428EC211B122F1123B1F32F851E
:2031200068897989129F600D711D11240E94982F002339F0ED89FE896081661F6627661F91
:2031400001C060E0CE01DF91CF911F910F910C944910DF91CF911F910F910895BF92CF9217
:20316000DF92EF92FF920F931F93CF93DF93EC01162FB42E69010E94E90F88E790E28883A0
:2031800099830E870F87188A198A7E0182E1E80EF11C412F4F70612F62956F70C7010E94BF
:2031A000D02D8A89803E50F1BB8A8FED8B1550F58FEF8C8BCD8ADE8A1F8A188E198E1B8E67
:2031C0001C8E83E08A83C6010E94401861E0823009F060E0C7010E94241840E060E0CE0113
:2031E0000E94631885E08C83DF91CF911F910F91FF90EF90DF90CF90BF900895C7010E94EC
:20320000EC2DD2CFCE0143960E94EC2DD1CFFC01633009F443C028F46130A1F0A0F51482F8
:20322000A2C0653041F0E0F1673009F459C0683009F474C098C06483A789B08D41E01196AB
:203240006C9128C064834681578160857185858D968DA78DB0A1840F951FA61FB71F868383
:203260009783A087B1876489828D482F50E0460F511DA789B08D13962C9130E042175307D9
:2032800008F071C049C082E08483A789B08D41E013966C91CF010E94631865C0648363C043
:2032A00084E084834681578160857185858D968DA78DB0A1840F951FA61FB71F868397836A
:2032C000A087B1876489828D681708F44CC0462F50E0481B5109A789B08D11962C9138C0E1
:2032E00064834681578160857185858D968DA78DB0A1840F951FA61FB71F86839783A08787
:20330000B1876489828D482F50E0460F511D248D30E02417350738F1680F1FC064834681AA
:20332000578160857185858D968DA78DB0A1840F951FA61FB71F86839783A087B1876489CF
:20334000828D681780F0462F50E0481B5109248D30E0421753073CF0681B40E0CF010E9458
:20336000631880E0089581E00895BF92CF92DF92EF92FF920F931F93CF93DF93EC01ED8917
:20338000FE899081392F36953695337023E0122F131B92959370022F091BBE84EB2CF12C8D
:2033A00024E1B29E60011124C88AD98ACF010E944018202F30E0412F50E0823041F42C9DF4
:2033C000C0012D9D900D3C9D900D112407C04C9DC0014D9D900D5C9D900D1124888B998B20
:2033E000240F351F2E9DA0012F9D500D3E9D500D11242CEE2403C001259F900D112428EC98
:20340000B29E800D911D112468EC70E00E9495306F87DF91CF911F910F91FF90EF90DF904E
:20342000CF90BF900895EF92FF920F931F93CF93DF931F921F92CDB7DEB78C01FC01E58895
:20344000F688F701808186FD0BC0809112208A8341E050E0BE016E5F7F4FC7010E94082D0D
:20346000F70181818F3F59F08FEF898341E050E0BE016F5F7F4FC70101960E94082DF801D6
:20348000858996890E94401861E0823009F060E0C80142960E942418C8010E94B5190F9082
:2034A0000F90DF91CF911F910F91FF90EF9008958F929F92AF92BF92EF92FF920F93CF93A8
:2034C000DF93EC01613019F0643009F065C0EF88F88CF70103818181081B0A8F80859185F1
:2034E000A0E0B0E08D8F9E8FAF8FB8A3643041F486859785A0E0B0E08D8F9E8FAF8FB8A3F8
:203500008D8D9E8DAF8DB8A1BC01CD013AE0660F771F881F991F3A95D1F72AE030E040E0F1
:2035200050E00E94A930CA01B901F8E00F9F40011124092C000CAA08BB08281539054A05DF
:203540005B0568F0202F30E040E050E00E94A9302D8F3E8F4F8F58A381E08A8F1DC02D8F14
:203560003E8F4F8F58A38D8D9E8DAF8DB8A180319105A105B10580F02A8DF7013489231712
:2035800058F026952A8FB695A795979587958D8F9E8FAF8FB8A3E7CFDF91CF910F91FF9009
:2035A000EF90BF90AF909F908F9008958F929F92AF92BF92EF92FF920F931F93CF93DF93F5
:2035C0008C01DC0114968C911497833009F447C048F4813061F15796ED91FC915897823080
:2035E000E8F030C0853039F008F448C08750823008F451C07AC0D8015796ED91FC91589791
:20360000662321F0C789C295CF7001C0C0E0E088F188D081D6FBDD27D0F96BC0662319F03C
:20362000C589CF7001C0C1E0E680F78032C0662309F456C0D8015796ED91FC915897C58922
:20364000C29524C0662319F0C689CF7001C0C3E0E284F384D081D7FBDD27D0F94AC0D801FB
:203660005796ED91FC915897662321F0C689C295CF7001C0C4E0E484F5840BC06623A9F1B0
:20368000D8015796ED91FC915897C789CF70E12CF12CD0E02EC0F8018489882319F082E0F7
:2036A000848302C085E08483D8015596ED91FC9156976081661F6627661FC8010E944910DD
:2036C000F8011682178210861186DF91CF911F910F91FF90EF90BF90AF909F908F900895EC
:2036E000E12CF12CD0E0C2E004C0E12CF12CD0E0C5E00E94FC2F4B015C01B701C8010E9472
:203700001510E114F0ECFF0660F4DC01CB01880D991DAA1DBB1DF80186839783A087B1874C
:2037200007C0D80116961D921D921D921C921997C63020F4F801C583D18F09C0C63039F03F
:20374000D80116961D921D921D921C9219976C2FC801DF91CF911F910F91FF90EF90BF9098
:20376000AF909F908F900C94581ACF93DF93EC018F89988D892B29F41E821F82188619865D
:203780000CC06D81CE010E940719882331F060E0CE01DF91CF910C94D61ADF91CF91089536
:2037A000CF93DF93EC018E819F81A885B985892B8A2B8B2B41F0CE0106960E941E30672B71
:2037C000682B692B41F440E050E0BA01CE01DF91CF910C947710CE010E94B51BF4CFFF9227
:2037E0000F931F93CF93DF93EC018A016130A9F4DA016C91693C08F0A7C041E00E946318E1
:203800001E821F8218861986F8018081882311F082E001C085E08C8397C0633009F094C0B6
:20382000DA011196ED91FC911297EF8BF88F9081892F8F706C912B8D823008F44FC02613DE
:2038400002C094FF66C08530C9F030F4833071F098F4823041F05DC08830C0F0883009F0A2
:2038600058C0609513C060FF03C004C060FF02C0F18057C0F38055C061E001C060E0CE0140
:203880000E944418282F893C18F043C06170F7CF81E08A8F6C8970E0621B710977FF03C07D
:2038A0007195619571098CE291E00E949530CB01A0E0B0E08D8F9E8FAF8FB8A32C8F0E9431
:2038C000FC2F6E837F83888799879C8D8C89891710F088E001C087E08D8318C0261302C04A
:2038E00094FF17C09F709130A1F48E819F81A885B985892B8A2B8B2B29F08C81813011F068
:20390000843059F461E0CE010E94D61ACE010E94B51BF80180818B8F17C0898D8130B1F769
:20392000F1CFF8ECFF15A8F341E06F2DCE010E9463181E821F8218861986FF2011F082E08B
:2039400001C085E08C83E5CFDF91CF911F910F91FF900895FC01238DFB012083FC01828DDA
:20396000FB01818382E008950F931F93CF93DF93EC018B010E94FC2FDC01CB01800F911FF2
:20398000A11DB11D8E839F83A887B987DF91CF911F910F9108950F931F93CF93DF93CDB790
:2039A000DEB72797CDBFDEBF8C01DC0150968D919C915197FC0121812B3F50F025E02F8308
:2039C00041E050E0BE01695F7F4F01960E94082DD80150968D919C915197FC01228133818D
:2039E0002115310531F0255031092C303E4008F047C0D80150968D919C915197FC0124811E
:203A000035812115310531F0255031092C303E4008F043C0D8015096ED91FC915197848128
:203A20009581009731F0228133818217930708F441C0F801148264EF71E0C8010E94B41CC3
:203A40000E94FC2FD8015096ED91FC915197428120E030E0342F330F330FDC01CB01820FF3
:203A6000931FA11DB11DF80182879387A487B5872796CDBFDEBFDF91CF911F910F910895E2
:203A80002AE030E02D833E8342E050E0BE016B5F7F4F02960E94082DACCF26E930E02B833B
:203AA0003C8342E050E0BE016D5F7F4F04960E94082DB0CF19821A8242E050E0BE016F5F96
:203AC0007F4FCF0104960E94082DB3CFEF92FF920F931F93CF93DF93EC017B018A010E9485
:203AE000E90F84E890E288839983EE86FF8684E08A83088B198B1C8264EF71E0CE01DF91A7
:203B0000CF911F910F91FF90EF900C94B41C982F81E0983221F0903111F080E00895089518
:203B2000FF920F931F93CF93DF931F92CDB7DEB78C01F62EDC011E968D919C911F970E941D
:203B4000652EF801868597850E94372E882311F1F11004C0A8014E5E5F4F02C040E050E024
:203B600064E4D8011E968D919C911F970E94532F80910E20811110C0D8011E96ED91FC9112
:203B80001F9780818983803E48F0CE0101960E94DA2B02C081E007C080E005C0CE010196EA
:203BA0000E94EC2DF2CF0F90DF91CF911F910F91FF900895FB0120813181DC0152968C916D
:203BC000803161F42E7F43E0220F331F4A95E1F78681281B3109245F3F4F10C0883271F451
:203BE0008481982F9076903649F086FF02C02E7F05C085FF02C02C7F01C0287FC90134E004
:203C0000969587953A95E1F7B4E68B02C0011124322F23FDC29632FD499631FD0D9630FDB4
:203C200006960895AF92BF92CF92DF92EF92FF920F931F93CF93DF93CDB7DEB72997CDBF48
:203C4000DEBF8C01FC01868597850E94652EA8014E5E5F4F6EEBF801868597850E94532F41
:203C6000CE0101967C015E019AE0A90EB11C67016FEFF801868597850E94E02EF701819362
:203C80007F01EA15FB05A1F740E069E070E0C6010E94D001811109C0B601C8010E94DA1DA6
:203CA000F801828F938F80E001C083E02996CDBFDEBFDF91CF911F910F91FF90EF90DF90CF
:203CC000CF90BF90AF90089520913221EEEEF0E290E0921781F0A191B19112963C9112978C
:203CE000343039F450960D90BC91A02D3C91831721F09F5FEECF80E0089581E008954F9287
:203D00005F926F927F928F929F92AF92BF92CF92DF92EF92FF920F931F93CF93DF93CDB72C
:203D2000DEB7CD55D109CDBFDEBFDC0116964D915D916D917C911997452B462B472B09F469
:203D40004EC18C0106960E941E30672B682B692B09F445C1D8015096ED91FC9151979081BC
:203D600014968C91992309F4D0C081114CC08DE495E9F801828F938FEE24EA946801F2E1AE
:203D8000CF0ED11C58014AE1A40EB11CA6016E2DD8011E968D919C911F970E94FB2EE82EA5
:203DA00082E08E0D823068F1F601F12C8191F80EEA15FB05D9F7F80182890E94871D811124
:203DC00003C0E110E3CF1DC0D80150968D909C905197F40180818F3F31F48F2D0E94641EE7
:203DE000882309F4ECC0D8015096ED91FC9151978081F812E6CF81E014968C9364E670E039
:203E000080C083E07AC0813081F461E0C8010E94901D811107C082E0D80114968C9368EE93
:203E200073E06FC06AEF70E06CC0823009F06DC0C8010E94121EFF24F3948111F12CD80186
:203E40005096ED91FC91519784819581892B49F4D8015096ED91FC915197218121111DC01A
:203E60004BC0C8010A960E941E30AB01BC018AE076956795579547958A95D1F7D801509696
:203E8000ED91FC91519784819581A0E0B0E0481759076A077B07E0F4DBCFF801828D938DAC
:203EA000448D558D841B950B092E000CAA0BBB0BB7FF07C0B095A095909581959F4FAF4F34
:203EC000BF4FFAE02F9F9001112482179307A0F0FF2091F0D8015096ED91FC91519782814E
:203EE00040E050E0582F550F550F60E070E0C8010E94771081116DC081E0F801848368E831
:203F000073E1C8010E94B41C6AC0833009F067C0D801ED91FC910280F381E02DBE01645AB1
:203F20007F4FC8011995F82EF801E380E0914321F091442182819381A481B5816C968CAF50
:203F40009DAFAEAFBFAF6C97CE01885A9F4F0E94F8014B015C0140900A2050900B2060906F
:203F60000C2070900D200E94FC2FCE0101966C0187E5D6011D928A95E9F789E6888BE98A62
:203F80004F2D50E0BE01645A7F4FCE0142960E94683288EF8A874B865C866D867E868E8205
:203FA0009F82A886B986F394F394FF86C6010E94AA26F801168217821086118610C0F98205
:203FC00041E050E0BE016F5F7F4FC4010E94082D0ACFF801828D938D848F958F8DCFC35AE8
:203FE000DF4FCDBFDEBFDF91CF911F910F91FF90EF90DF90CF90BF90AF909F908F907F9083
:204000006F905F904F900895FF920F931F93CF93DF93CDB7DEB76097CDBFDEBFDC011E96B3
:204020002D913C911F97232B09F445C08C0140960E94372EF82E882319F0F801118A2EC029
:20404000D80151968C915197843040F58F5F51968C935197843011F51E968D919C911F9767
:20406000DC01ED91FC910280F381E02DBE016F5F7F4F19958981811102C088ECF82EF982D9
:20408000F80186859785DC01ED91FC910190F081E02DAE014F5F5F4F61E019950E94FC2F42
:2040A000DC01CB010A96A11DB11DF80186839783A087B18707C0DC0116961D921D921D9253
:2040C0001C9219976096CDBFDEBFDF91CF911F910F91FF900895EF92FF921F93CF93DF937F
:2040E000EC01162F7A010E94E90F80E990E288839983EE86FF86188B103E38F1198A81E060
:204100008A838889182F1F7082958F700E94592D183050F4FC017096E10FF11D8081877CDC
:2041200080838081886180830E94FC2FDC01CB010A96A11DB11D8E839F83A887B987DF91DB
:20414000CF911F91FF90EF900895CE0140960E94D72DD4CFCF93DF93EB0145960E94372E14
:20416000882311F080E001C088EC8883198282E0DF91CF910895CF93FC018081C82FCF70F3
:2041800082958F700E94592DC83050F4FC017096EC0FF11D8081877C8083808188618083A5
:2041A000CF9108958F929F92AF92BF92DF92EF92FF920F931F93CF93DF93CDB7DEB7C7553E
:2041C000D109CDBFDEBF082FF62EE42ED22E80900A2090900B20A0900C20B0900D20CE0152
:2041E00001960E9492118BE4888B098B1A8AE11002C082E001C083E09F2D990F990F890F3C
:204200008B8B88EF8A878B869C86AD86BE868FEF9FEFDC018E839F83A887B98784E08F8751
:20422000CE0101960E94AA26182F811117C08091482190914921009751F0DC01ED91FC9131
:204240000190F081E02D2E2D4F2D602F1995D11005C080914221826080934221812FC95AF6
:20426000DF4FCDBFDEBFDF91CF911F910F91FF90EF90DF90BF90AF909F908F9008954F92F0
:204280005F926F927F929F92AF92BF92CF92DF92EF92FF920F931F93CF93DF93CDB7DEB733
:2042A000CB55D109CDBFDEBF982EF62E6A010115110521053105B9F4E0914321F091442196
:2042C00082819381A481B5816C968CAF9DAFAEAFBFAF6C97CE01885A9F4F0E94F8015B017F
:2042E000E82E192F03C05801E22E132F40900A2050900B2060900C2070900D20CE0101963E
:204300000E94921189E6888B998A4F2D50E0B601CE0142960E94683288EF8A874B865C8632
:204320006D867E86AE82BF82E8861987F394F394FF86CE0101960E94AA26C55ADF4FCDBFC3
:20434000DEBFDF91CF911F910F91FF90EF90DF90CF90BF90AF909F907F906F905F904F902B
:204360000895EF92FF920F931F93CF93DF93CDB7DEB72C97CDBFDEBF7C0145960E94372E02
:20438000F701882309F44BC0828D938DA48DB58D892B8A2B8B2B61F10190F081E02D0280CE
:2043A000F381E02DBE016F5F7F4FC701199500E010E09801AE014F5F5F4F682FD70113961F
:2043C0008C910E943F2120E040E0F701608983810E94D22081110CC0D70150968C91509705
:2043E0008F5F50968C93F701128E138E148E158ED70156961D921D921D921C9259975396F4
:204400008D919C915497009709F483C05196ED91FC915297208127FF7CC02DEF6EC0868958
:204420009789A08DB18D892B8A2B8B2B71F4CE0101960E94861189819A81AB81BC81F70148
:20444000868B978BA08FB18F49C0C70146960E941E30643671058105910508F43FC0F701FE
:20446000828D938DA48DB58D892B8A2B8B2BB1F50190F081E02D0280F381E02DBE016F5F36
:204480007F4FC701199500E010E09801AE014F5F5F4F682FF70183810E943F2120E040E0AF
:2044A000D70150966C91509713968C910E94D220811114C0D70150968C9150978F5F509604
:2044C0008C93CE0109960E94861189859A85AB85BC85F701828F938FA48FB58FD701539615
:2044E0008D919C9154970097A1F05196ED91FC915297208127FF0DC02CEF2983DC01ED91CD
:20450000FC910190F081E02DAE014F5F5F4F61E019952C96CDBFDEBFDF91CF911F910F91FA
:20452000FF90EF900895CF92DF92EF92FF920F931F93CF93DF9300D01F92CDB7DEB78C019D
:2045400045960E94372ED80156964D915D916D917C915997882309F441C0452B462B472BF1
:2045600009F4B5C0C80146960E941E306436710581059105E0F0F801828D938DA48DB58D9D
:2045800041E00097A105B10509F440E0892B8A2B8B2B39F4D80150968C9150978F5F509607
:2045A0008C9320E0F801608983810E94D220D80156961D921D921D921C92599753968D91EB
:2045C0009C915497009709F482C05196ED91FC915297208127FF7BC02DEF6DC0452B462BE6
:2045E000472BC1F1F801828D938DA48DB58D892B8A2B8B2B99F0C8014A960E941E306C321D
:2046000071408105910508F462C0D8015196ED91FC915297808186FD3AC059C0C8014696BF
:204620000E941E306B017C01D8015196ED91FC915297218130E0A4E6B0E00E94CB30C616A8
:20464000D706E806F90608F442C0F80180898F5F808B1DC0CE0101960E94861189819A81F6
:20466000AB81BC81F801868B978BA08FB18F128E138E148E158E83899489009741F1018835
:20468000F289E02D208127FF22C02CEF14C0CE0101960E94861189819A81AB81BC81F801D4
:2046A000828F938FA48FB58F21E041E0608983810E94D2200CC02983DC01ED91FC910190BC
:2046C000F081E02DAE014F5F5F4F61E019952496CDBFDEBFDF91CF911F910F91FF90EF9051
:2046E000DF90CF900895FC01A189B2899C9193FF0EC08685882359F09770913019F4CF01BC
:204700000C949322911103C0CF010C94B12108950F931F93CF93DF93EC018F85882329F013
:20472000E989FA89808184FF05C0CE0145960E94BB2013C08D89182F1F7082958F700E949D
:20474000592D183050F4FC017096E10FF11D8081877C8083808180618083E989FA89608184
:20476000862F8770813079F464FD02C08F8501C080E06F7D811102C090E201C090E0692BA0
:20478000CF010E94130EE989FA8900818D89182F1F7082958F700E94592D183060F4409674
:2047A000E12FF0E0E80FF91F808105FD02C0806401C08F7B80831E8A1F8A188E198E1A8E4D
:2047C0001B8E1C8E1D8E188ADF91CF911F910F910895CF92DF92EF92FF921F93CF93DF9312
:2047E000EC01162F6A0179010E94E90F8CE990E28883998381E08E878F87188AC98ADA8A15
:20480000EB8AFC8A1D8B103EA0F0CE0146960E948611CE014A960E94861181E08A83CE010E
:20482000DF91CF911F91FF90EF90DF90CF900C948823CE0145960E94D72DE7CFCF93DF93F7
:20484000EC01E989FA89918194509F3288F489899A89FC016081262F2770223020F0687FEB
:2048600061600E94130ECE01DF91CF910C94882364E0CF0101960E94130EE9CF7F928F9272
:204880009F92AF92BF92CF92DF92EF92FF920F931F93CF93DF9300D0CDB7DEB75C014B01B7
:2048A000F42E722E10E0D50112968C91181708F043C0B6E21B9F60011124D5011396ED919C
:2048C000FC911497EC0DFD1D84818F1133C08581871511F0002371F180819181A281B38163
:2048E0008F3F9F4FAF4FBF4F29F1CF010E94F801D4012D913D914D915C91621773078407C1
:204900009507C1F4E982F50123813481C9018C0D9D1D002311F0469601C006968A839B83E7
:20492000F901EC0DFD1DAE014F5F5F4F63E085810E947D141F5FB7CF2396CDBFDEBFDF918D
:20494000CF911F910F91FF90EF90DF90CF90BF90AF909F908F907F900895FC0180934621CC
:204960009093472188EA90E28083918362834383548308952F923F924F925F926F927F921C
:204980008F929F92AF92BF92CF92DF92EF92FF920F931F93CF93DF93CDB7DEB7C156D1091D
:2049A000CDBFDEBF4C01162F342EF22E942F990F990F222311F083E001C082E0292E280E4E
:2049C000C12CD12CA12CB12C8BE09E012F5F3F4F6E962EAF3FAF6E97D40112962C91129766
:2049E00030E0A216B3060CF07BC01396ED91FC911497EC0DFD1D90819F3F09F46AC09113D3
:204A000068C0CF0101960E94F8012B013C016C966CAF7DAF8EAF9FAF6C9720910A20309190
:204A20000B2040910C2050910D20A2962CAF3DAF4EAF5FAFA297D40113968D919C91149789
:204A40004216530664067506D1F4DC01AC0DBD1D80914621909147210097D1F1FC01208193
:204A60003181F90160807180E32C0F2D15962C91412FBE01685A7F4FF301199529C0FC01BF
:204A8000EC0DFD1D05810E94FC2F6E96AEADBFAD6E97E7E51D92EA95E9F7FBE4F88B198B00
:204AA0000A8B2B8A28EF2A87A2968CAD9DADAEADBFADA2978B879C87AD87BE874E825F82CA
:204AC0006886798694E09F87CE0101960E94AA2680E0AFEFAA1ABA0AB6E0CB0ED11C7CCF4A
:204AE000CF59DF4FCDBFDEBFDF91CF911F910F91FF90EF90DF90CF90BF90AF909F908F905F
:204B00007F906F905F904F903F902F900895FC0180934821909349218EEA90E28083918387
:204B200062834383548308957F928F929F92AF92BF92CF92DF92EF92FF920F931F93CF93C7
:204B4000DF9300D0CDB7DEB75C014B01742EF22E10E0D50112968C91181708F041C0BCE13F
:204B60001B9F60011124D5011396ED91FC911497EC0DFD1D8481871131C085818F112EC07B
:204B800080819181A281B3818F3F9F4FAF4FBF4F29F1CF010E94F801D4012D913D914D911F
:204BA0005C916217730784079507C1F4E982F50183819481C80ED91E002321F0F1E1CF0E0F
:204BC000D11C03C026E0C20ED11CCA82DB82AE014F5F5F4F63E08F2D0E947D141F5FB9CF76
:204BE0002396CDBFDEBFDF91CF911F910F91FF90EF90DF90CF90BF90AF909F908F907F90EC
:204C00000895FC01809346219093472184EB90E2808391836283438354830895FC01208140
:204C200020FF17C0458156816781708580910A2090910B20A0910C20B0910D2048175907F3
:204C40006A077B0741F081E04F3F5F4F6F4F7F4F19F080E0089581E0089521E0FC0145813F
:204C600056816781708580910A2090910B20A0910C20B0910D20481759076A077B0709F083
:204C800020E0822F089521E0FC01428553856485758580910A2090910B20A0910C20B09121
:204CA0000D20481759076A077B0709F020E0822F0895CF93CFB7F8940E94FC2B80914A2115
:204CC000882319F0815080934A21CFBFCF910895DF92EF92FF920F931F93CF93DF937C011E
:204CE000DFB6F894FC01C685C15FD0E0CE010796887F0E94FE2B8C01009749F0AE01B70179
:204D00000E94683280914A218F5F80934A21DFBEC801DF91CF911F910F91FF90EF90DF906C
:204D20000895FB0198E0408151819A01220F331F87FD21602083318357FF08C020813181E4
:204D400042E0242740E1342720833183880F915051F708951F93CF93DF93EC010E94593216
:204D60008F7090916B21911198E0890F8093E921CE010E94B328182F888181FF13C0CE01FA
:204D800005960E94F8016D837E838F839887CE010A960E94F8016A877B878C879D8788817E
:204DA0008D7F88838881982F969596959F5F9370990F990F837F892B88830E94FC2FDC01FA
:204DC000CB018A569F4FAF4FBF4F89839A83AB83BC83898580FD33C08D819E81AF81B8857F
:204DE0008F3F9F4FAF4FBF4F51F18881869586958370813021F580916B21803100F5CE019E
:204E00000E9468260097D9F0E0916B21ABE4B1E220E0E21739F04D915D918417950779F055
:204E20002F5FF7CFE03158F421E02E0F20936B21F0E0EE0FFF1FE55BFE4D80839183812F07
:204E4000DF91CF911F910895ECE6F1E28FEF828B118A108A10926B210895CF93DF93FC0134
:204E6000208121FF13C0EC0105960E94F8016D837E838F839887CE010A960E94F8016A875E
:204E80007B878C879D8788818D7F8883DF91CF910895CF93C82F0E94FC2F6093E42170932B
:204EA000E5218093E6219093E7218091DC21CC3F21F481608093DC2179C0CD3FD1F482609C
:204EC0008E7F8093DC211092DA218FEF9FEF8093D8219093D92180917F218E7F8260809330
:204EE0007F2110928D2168ED71E28DEF0E9491265DC081FF5BC080FF04C0C0688E7F809302
:204F0000DC2168ED71E28C2F0E9491264091DA21E42FF0E0EC57FE4DC083443049F4809196
:204F20008821982F97709330C9F183FF37C039C080918D21493041F4893498F18091DC214A
:204F40008D7F8093DC212DC050E060E070E090E0A0E0B0E00996A11DB11D481759076A07AD
:204F60007B07F9F48091D8219091D921892BC9F48FE791E20E942D2780918D2182508093A9
:204F80008D218091DC218D7F8093DC2180917F21816080937F218FE791E20AC088E08093C6
:204FA000DA218091DA218F5F8093DA2180E090E0CF9108950F931F93CF93DF93C091DD21AA
:204FC000D091DE21209709F4BCC08C019091E1218091E32191112EC081FD2CC0826080938D
:204FE000E3218FEF9FEF8093DF219093E021888181FD13C0CE0105960E94F8016D837E831A
:205000008F839887CE010A960E94F8016A877B878C879D87888182608883888184FD02C0E9
:205020008DEF01C08EEFF80180836FED71E20E94912682C081FF82C0888184FF84C091113C
:2050400082C0F801108283E08093E1214091E121443049F48985982F9770933009F47AC0B1
:2050600083FF78C017C0493029F4F80180818E5F808310C050E060E070E08E8590E0A0E08C
:20508000B0E00B96A11DB11D84179507A607B70708F457C08091E32180FD40C06FED71E25D
:2050A000F80180810E9491264091E12150E060E070E08E8590E0A0E0B0E00996A11DB11D4C
:2050C000481759076A077B07E1F46FED71E280E00E9491266FED71E280E00E9491262596BE
:2050E0008091E1218F5FFE01E80FF11D8091E02180838091E1218E5FC80FD11D8091DF21C0
:205100008883F80180818C5F833088F48091E32181608093E3218CEF80830EC0F80180811D
:205120008F7780838091E3218E7F8093E3218091E1218F5F8093E12181E010C0CE010E9475
:205140002D2780E00BC0FE01E90FF11D8581F80180837CCF88E08093E1219CCFDF91CF91C6
:205160001F910F910895EF92FF920F931F93CF93DF931F92CDB7DEB77C018091EA21909184
:20518000EB21892BD9F08091E92118E0180F0FB7F89484EE91E20E941E300FBF012F10E037
:2051A00020E030E0061717072807390748F0D70119968C918770813031F702C081E06FC037
:2051C000E092DD21F092DE211092E1218091E3218D7F8093E321D70119968C9180FD06C01B
:2051E000F7019081969596959370B1F18091EA219091EB21DC01ED91FC910190F081E02D6B
:2052000061E0199510E0CE0101960E94DA27A091EA21B091EB21882389F089811296ED91C9
:20522000FC911397948193FD05C012E0ECCF948193FF1BC0918195FFFACF17C01296ED9132
:20524000FC911397818180648183818186FD0FC0848183FF0CC0F9CF9091E8219370990FE9
:20526000897F892BF7018187C1CF8083CCCFED91FC9111970190F081E02D60E0CD011995C6
:2052800011110AC0F701818580FD08C08091E8218F5F8093E82102C0812F01C080E00F9089
:2052A000DF91CF911F910F91FF90EF9008951092E4211092E5211092E6211092E7210E94DF
:2052C000FC2F87E5EFE7F1E2DF011D928A95E9F708957F928F929F92AF92BF92CF92DF929C
:2052E000EF92FF920F931F93CF93DF9300D0CDB7DEB75C014B01F42E722E10E0D5011296B2
:205300008C91181708F043C0B6E31B9F60011124D5011396ED91FC911497EC0DFD1D848110
:205320008F1133C08581871511F0002371F180819181A281B3818F3F9F4FAF4FBF4F29F166
:20534000CF010E94F801D4012D913D914D915C916217730784079507C1F4E982F5012381E2
:205360003481C9018C0D9D1D002311F04E9601C006968A839B83F901EC0DFD1DAE014F5F61
:205380005F4F63E085810E947D141F5FB7CF2396CDBFDEBFDF91CF911F910F91FF90EF90CF
:2053A000DF90CF90BF90AF909F908F907F900895FC0180934621909347218AEB90E28083AB
:2053C000918362834383548308950F931F93FC0190E081E00681178120853185012B022BA5
:2053E000032B09F480E080FB96F987852089821751F02481213019F49F7C906104C0233063
:2054000011F49F7C9062808BFB018083918382E01F910F9108950F931F93CF93DF931F9234
:205420001F92CDB7DEB7FC0101891289F80180818E7F8E3F59F0809113208A8341E050E0C1
:20544000BE016E5F7F4FC8010E94082DF80181818F3F59F08FEF898341E050E0BE016F5FD8
:205460007F4FC80101960E94082D0F900F90DF91CF911F910F9108950F931F93CF93DF9304
:20548000FC0127852617D9F0042F162FEC010E96662319F00E94DA2B02C00E94C82B1F871E
:2054A000002329F0E989FA896081617001C060E0CE01DF91CF911F910F910C944910DF91B0
:2054C000CF911F910F910895EF92FF921F93CF93DF93EC01162F7A010E94E90F80EC90E2C2
:2054E000888399831E87103EB8F08FEF8F87888BE98AFA8A1B8A1C8A1D8A1E8A86E08A833F
:2055000083E08C8340E060E0CE01DF91CF911F91FF90EF900C943C2ACE010E960E94EC2D28
:20552000E4CF8F929F92AF92BF92EF92FF920F931F93CF93DF938C01DC0114968C911497BE
:20554000813031F1B8F08230C1F1833009F04DC05396ED91FC915497662321F0C285C69598
:20556000C77001C0C0E0E780F084D081D6FBDD27D0F93FC0D8015396ED91FC915497662389
:2055800019F0C185C77001C0C1E0E180F2802BC0D8015396ED91FC915497662331F0C185BD
:2055A000C695C695C695C77001C0C2E0E380F480D081D7FBDD27D0F91CC0D8015396ED915D
:2055C000FC915497662361F0C1858C2F8295869586958370C285C170CC0FCC0FC82B01C056
:2055E000C3E0E580F680D0E004C0E12CF12CD0E0C3E0F8011682178210861186E114F0EC14
:20560000FF0698F40E94FC2F4B015C01B701C8010E941510DC01CB01880D991DAA1DBB1DA8
:20562000F80186839783A087B187C43038F4D8011596CC9315975696DC9307C0C43029F011
:20564000F8011682178210861186DF91CF911F910F91FF90EF90BF90AF909F908F9008954C
:20566000CF93DF93EC018B899C89892B39F41E821F8218861986DF91CF9108958D818130A5
:2056800059F040F0823079F0833071F48C8341E060E005C01C8208C08C8341E068ECCE0170
:2056A0000E943C2A01C08C8360E0CE01DF91CF910C94912ACF93DF93EC018E819F81A885BB
:2056C000B985892B8A2B8B2B41F0CE0106960E941E30672B682B692B41F440E050E0BA01E8
:2056E000CE01DF91CF910C947710CE010E94302BF4CFFF920F931F93CF93DF93EC01F62E8B
:205700008A0181E0681315C0DA016C91693CC8F541E0CE010E943C2A1E821F82188619869D
:20572000F8018081882311F0FC822BC083E08C8328C0F3E06F1325C0DA011196ED91FC9139
:205740001297EB8BFC8B9D898C91981789F0808180FF0EC08E819F81A885B985892B8A2BE7
:205760008B2B51F08E89813039F0CE010E94302BF80180818D8B05C061E0CE010E94912A31
:20578000F4CFDF91CF911F910F91FF90089508951F93CF93DF93EC010E94012E182F8881C9
:2057A00082958F700E94592DFC011683DF91CF911F9108951F93CF93DF93EC010E94012EB4
:2057C000182F888182958F700E94592DFC011583DF91CF911F910895009769F020910F20B9
:2057E0003091102042E28A309407E0F382179307C8F70C94853108950C94EC2BCF93DF93FC
:20580000EC010E94ED3020910F203091102042E28A309407E0F382179307C8F72197C80F3E
:20582000D91F42E2CA30D407E0F3C217D307C8F7DF91CF9108950C94FE2B1F93CF93DF9376
:20584000E0ECF1E022851FB7F8948287A8E4B0E04C919C918C91809589238C93C0EAD0E01C
:2058600038819A818A81887F84608A838C9181608C93858558ED54BF51E0538753E05587B8
:20588000789488954C9338839A83858722870E94B6111FBFDF91CF911F9108950E94B611A6
:2058A0008091CF0181FF03C086E30C941D2C0895CF93DF93D82FC091CA010E944E2C83E35C
:2058C0008093CA011092C2011092C10180E08093C001D093C4018F5F8032C9F7C093CA0147
:2058E000DF91CF910C94B6118F929F92AF92BF92CF92DF92EF92FF920F931F93CF93DF9381
:205900008C015B017A0190518115984018F080E090E034C0CA019051800F911F81159840AF
:20592000B0F7C12CD12C80E2982EE114F10429F1802E802F8F71C92DC81B8C2F90E0E8164B
:20594000F90608F4CE2D0E944E2CD0E0AE01B501C8010E9468321092C2011093C10180923F
:20596000C00185E30E941D2CAC0EBD1EEC1AFD0ACC0EDD1E0C0F1D1FD8CFC601DF91CF9107
:205980001F910F91FF90EF90DF90CF90BF90AF909F908F9008950F931F93CF93DF931F9289
:2059A000CDB7DEB78C0169838091CC0183FF11C0011580E1180708F4105F41E050E0BE0113
:2059C0006F5F7F4FC8010E94742C21E0892BC9F404C0011588E0180710F020E012C00E94D9
:2059E0004E2C83E38093CA011092C2011093C1010093C00189818093C40185E30E941D2C96
:205A000021E0822F0F90DF91CF911F910F910895EF92FF920F931F93CF93DF938A01209102
:205A2000CC0123FF0EC0811520E1920708F4905FA801DF91CF911F910F91FF90EF900C9417
:205A4000742C7B01EC01C61BD70BCE018E0D9F1D0115110551F0F70161917F010E94CB2CE4
:205A6000882331F001501109F0CF80E090E001C0C801DF91CF911F910F91FF90EF9008950B
:205A80001F920F920FB60F9211240BB60F928F93EF93FF93E0ECF1E085858C7F8587FF9133
:205AA000EF918F910F900BBE0F900FBE0F901F9018958D3048F4E82FF0E0EE0FFF1FE85341
:205AC000FF4D8081918108958CEE91E208958FEF8093F4210895CF92DF92EF92FF920F9377
:205AE0001F93CF93DF939C01240F351F2130324098F48A01EB016B01C40ED51E7C01E61A88
:205B0000F70AB7016C0F7D1FCC15DD0541F081E00E94992D8993F5CF80E090E001C0C801BE
:205B2000DF91CF911F910F91FF90EF90DF90CF9008954091CA01E62FF72F8093CA01849102
:205B40004093CA010895611112C0843069F038F48230E9F08330F1F480E099E0089585303F
:205B6000C9F480E09BE0089580E09AE00895613089F4833049F018F4823079F00BC08430D9
:205B800049F480E49AE0089580E499E0089580E098E0089580E090E0089580E498E0089578
:205BA0006295607F4F70642BFC0160830895CF93DF93FC018081982F9F70C1E0D0E001C08A
:205BC000CC0F9A95EAF782958F700E94592DFC01C283DF91CF910895CF93DF93FC0180811B
:205BE000982F9F70C1E0D0E001C0CC0F9A95EAF782958F700E94592DFC01C183DF91CF9183
:205C00000895FC0190819F7081E001C0880F9A95EAF70895FF920F931F93CF93DF93EB01BF
:205C2000F42EFC018081982F9F7001E010E001C0000F9A95EAF782958F700E94592DFC0182
:205C40003896CE01FF2039F00080002219F400000197D1F706C00080002219F00000019747
:205C6000D1F7DF91CF911F910F91FF900895CF93DF93EC01888182958F700E94592DFC010B
:205C8000308528812F7081E090E001C0880F2A95EAF78323DF91CF910895CF93FC016083E9
:205CA000C62FCF70862F82958F700E94592DC83050F4FC017096EC0FF11D8081877C80836E
:205CC000808188618083CF910895FF920F931F93CF93DF931F92CDB7DEB78C01FC018081CC
:205CE0008983803E80F1CE0101960E94C82B8FEB92E10197F1F700C00000FFB6F894C80137
:205D00000E94D72D90EA9A95F1F740E068E071E0C8010E940A2EFFBE892B11F48FEF18C024
:205D2000EFEFFEE03197F1F700C00000C8010E94372E882331F0FAE6FA95F1F700C080E024
:205D400007C08DEF05C0CE0101960E94EC2DCBCF0F90DF91CF911F910F91FF9008950F93F3
:205D60001F93CF93DF93EC01162F0FB7F8940E94EC2D85E18A95F1F70000112319F0CE01E5
:205D80000E94D72D9AE89A95F1F700C0CE010E94372E811101C010E087E691E00197F1F78D
:205DA00000C00000CE010E94D72D9AE69A95F1F700C00FBF812FDF91CF911F910F9108951C
:205DC0000F931F93CF93DF938C01C62FD8E06C2F6170C8010E94AF2E2C2F30E035952795BC
:205DE000C22F8111C068D15091F78C2FDF91CF911F910F910895BF92CF92DF92EF92FF92A2
:205E00000F931F93CF93DF937C01C62E8A010E94652E81113BC060EFC7010E94E02ED0E025
:205E2000C0E498EFB92EBC0E61E0C7010E94AF2ED82E61E0C7010E94AF2E882319F0DD20BF
:205E400071F026C0D1100BC0CC1530F0F801808180FF05C0CC1519F0DC2FDD24D3946D2D19
:205E6000C7010E94AF2EF801208130E035952795DD2011F02068F8012083C150CB11D4CFF9
:205E80000F5F1F4FC111CDCF8D2F03C08FEF01C08EEFDF91CF911F910F91FF90EF90DF90E0
:205EA000CF90BF900895CF92DF92FF920F931F93CF93DF93EC01F62E8A010E94652E011525
:205EC000110591F065E5CE010E94E02E680188E0C80ED11CF80161918F01CE010E94E02ED4
:205EE0000C151D05B9F704C06CECCE010E94E02E6F2DCE01DF91CF911F910F91FF90DF908B
:205F0000CF900C94E02EFC018081282F2F7030E02430310514F460E004C0263031052CF42E
:205F200061E082958F700C94A32D80E090E008950F931F93CF93DF93EC018B010E94832F38
:205F4000FC0198819F70943008F094503097D9F0492F50E09A01220F331FDF01D896A20F27
:205F6000B31F0D931C9380818823E1F001151105C9F0818120E130E0092E01C0220F0A94C4
:205F8000EAF7282B19C0CE01012B31F0DF91CF911F910F910C94DA2BDF91CF911F910F91F3
:205FA0000C94C82B818120E130E0092E01C0220F0A94EAF7209528232183218140E150E0FC
:205FC000BA0102C0660F771F9A95E2F7CB0130E082239323892BB9F2DF91CF911F910F917B
:205FE00008959091010490FDFCCF90910004987F892B80930004089531E02FB7F89440918E
:20600000030440FF0CC040910422509105224F5F5F4F409304225093052230930304409175
:20602000080450910904BA012FBF2091030420FDE4CF80910422909105220895CF92DF9247
:20604000EF92FF920F931F93CF93DF93EC010E94FC2F088119812A813B816B017C01C01AFF
:20606000D10AE20AF30A601771078207930760F4C701B601615071098109910997FF06C0CC
:2060800060E070E0CB0102C0C701B601DF91CF911F910F91FF90EF90DF90CF9008951F9318
:2060A000CF93DF93182FEB0180E00E94F12F809143008E7F80934300153031F4C115D042AE
:2060C00019F483E09EE002C081E094E020914300217F2160922B9093430020910804309185
:2060E00009043C5F40910804509109049091010490FDFCCF6FEF7FEF60930A0470930B04D0
:206100009091010490FDFCCF40930804509309049091010490FDFCCF20930C0430930D041D
:20612000DF91CF911F910C94F12FAA1BBB1B51E107C0AA1FBB1FA617B70710F0A61BB70BEA
:20614000881F991F5A95A9F780959095BC01CD010895A1E21A2EAA1BBB1BFD010DC0AA1FF5
:20616000BB1FEE1FFF1FA217B307E407F50720F0A21BB30BE40BF50B661F771F881F991FCC
:206180001A9469F760957095809590959B01AC01BD01CF010895A29FB001B39FC001A39F02
:2061A000700D811D1124911DB29F700D811D1124911D08950E94CB30A59F900DB49F900D87
:2061C000A49F800D911D11240895EE0FFF1F881F8BBF0790F691E02D19940F931F93CF93D5
:2061E000DF938230910510F482E090E0E0910822F091092220E030E0A0E0B0E0309719F1D7
:20620000408151810281138148175907C8F08417950769F4109731F012960C931297139668
:206220001C9327C0009308221093092222C02115310519F04217530718F49A01BD01EF01DE
:20624000DF01F801DBCF21153105F9F0281B390B2430310580F48A819B816115710521F0BD
:20626000FB018283938304C08093082290930922FE01329644C0FE01E20FF31F81939193B3
:2062800022503109288339833AC02091062230910722232B41F42091022030910320209341
:2062A00006223093072220910020309101202115310541F42DB73EB74091042050910520A2
:2062C000241B350BE0910622F0910722E217F307A0F42E1B3F0B2817390778F0AC014E5FA1
:2062E0005F4F2417350748F04E0F5F1F40930622509307228193919302C0E0E0F0E0CF0105
:20630000DF91CF911F910F910895CF93DF93009709F481C0FC01329712821382A0910822CD
:20632000B0910922109781F420813181820F931F20910622309107222817390751F5E09344
:206340000622F093072267C0ED0120E030E0CE17DF0740F44A815B819E0141155105F1F072
:20636000EA01F5CFC283D38340815181840F951FC817D90759F488819981840F951F0296EB
:20638000808391838A819B81828393832115310529F4E0930822F09309223DC0E901EA837C
:2063A000FB8349915991C40FD51FEC17FD0761F480819181840F951F0296E9018883998375
:2063C000828193818A839B83E0E0F0E012968D919C911397009719F0FD01DC01F7CF8D91EF
:2063E0009C9111979D012E5F3F4F820F931F20910622309107222817390769F4309729F449
:20640000109208221092092202C012821382A0930622B0930722DF91CF9108958F929F9272
:20642000AF92BF92CF92DF92EF92FF92CF93DF93EC01688179818A819B81611571058105A9
:20644000910521F464E279ED8BE597E02DE133EF41E050E00E94783249015A019B01AC0143
:20646000A7EAB1E40E94DA306B017C01ACEEB4EFA50194010E949A32DC01CB018C0D9D1D7F
:20648000AE1DBF1DB7FF03C00197A109B04888839983AA83BB839F77DF91CF91FF90EF901C
:2064A000DF90CF90BF90AF909F908F9008950C940E3286E090E20C940E32A0E0B0E08093DA
:2064C000062090930720A0930820B09309200895FB01DC0102C001900D9241505040D8F72D
:2064E0000895DC0101C06D9341505040E0F70895052E97FB1EF400940E948F3257FD07D0D3
:206500000E94A93007FC03D04EF40C948F3250954095309521953F4F4F4F5F4F08959095B6
:206520008095709561957F4F8F4F9F4F0895B7FF0C94DA300E94DA30821B930B0895F894A4
:20654000FFCF00000A22200001000000003D8F60010A32FFFFFF00000000C72BC72BB9021B
:20656000BB02000000006403C72B73037D030000000064037A0373037D03000000006403CE
:206580009A0573037D03000000006403420873037D030000000064034E0A73037D0300000A
:2065A0000000F00E810CBA0ED50F00000000E50FE60FE80FE80F00000000EF1B0018D01BC0
:2065C000131A00000000E50FAA1C7F1ECB1C00000000E50FE60F0420E80F00000000E50F58
:2065E000AA2073231E24000000003E2400000000BA2400000000942500000000692900006E
:206600000000792BE5295A2B0B2A00062006400660068006A006EC21EC21EC21EC21EC21C9
:08662000EC21E00788990E004F
:00000001FF
