:200000000C943C010C94A2010C94A2010C94A2010C94A2010C94A2010C94A2010C94A2012E
:200020000C94A2010C94A2010C94A2010C94A2010C94A2010C94A2010C94A2010C94A201A8
:200040000C94A2010C94A2010C94A2010C94A2010C94A2010C94A2010C94A2010C94A20188
:200060000C94A2010C94A2010C94A2010C94A2010C94A2010C94A2010C94A2010C94A20168
:200080000C94372B0C94A2010C94A2010C94A2010C94A2010C94A2010C94A2010C94A20189
:2000A0000C94A2010C94A2010C94A2010C94F7020C94A2010C94A2010C94A2010C94A201D2
:2000C0000C94A2010C94A2010C94A2010C94A2010C94A2010C94A2010C94A2010C94A20108
:2000E0000C94A2010C94A2010C94A3020C94A2010C94A2010C94A2010C94A2010C94A201E6
:200100000C94A2010C94A2010C94A2010C94A2010C94A2010C94A2010C94A2010C94A201C7
:200120000C94A2010C94A2010C94A2010C94A2010C94A2010C94A2010C94A2010C94A201A7
:200140000C94A2010C94A2010C94A2010C94A2010C94A2010C94A2010C94A2010C94A20187
:200160000C94A2010C94A2010C94A2010C94A2010C94A2010C94A2010C94A2010C94A20167
:200180000C94A2010C94A2010C94A2010C94A2010C94A2010C94A2010C94A2010C94A20147
:2001A0000C94A2010C94A2010C94A2010C94A2010C94A2010C94A2010C94A2010C94A20127
:2001C0000C94A2010C94A2010C94A2010C94A2010C94A2010C94A2010C94A2010C94A20107
:2001E0000C94A2010C94A2010C94A2010C94A2010C94A2010C94A2010C94A201244D4F4426
:2002000024204842572D444556202000C46700000232B08A320208000000BE922449123E8B
:20022000ABAAAA2ABECDCCCC4C3E00000080BEABAAAAAA3E00000000BF000000803F000045
:20024000000000084178D3BB4387D1133D190E3CC3BD4282AD2B3E68EC8276BED98FE1A9AB
:200260003E4C80EFFFBE01C4FF7F3F00000000002803ED2631295A2B11241FBECFEFCDBFCD
:20028000DFE2DEBF80E08CBF67E280E890E00E9484028091820080FDFCCF60E081E490E01C
:2002A0000E948402809150008660809350008091510086708630D9F760914000687F6160B5
:2002C00080E490E00E94840280914000809150008E7F80935000809150008091600081604D
:2002E0008093600010E2A0E0B0E2E6ECF6E602C005900D92AC3FB107D9F722E2ACEFB0E23F
:2003000001C01D92A633B207E1F7E6E3F2E288E49AE28193E633F907E0F383E590E381938F
:20032000E030F907E0F311E0CCE3D1E004C02197FE010E94A731C833D107C9F70E94390224
:200340000C9461330C940000CF93FC01680F791F2CEB31E652ECADE9B3E2C6E48CE8E617A9
:20036000F707B9F09191942790FF02C04EE501C040E091FD422792FD432793FD452794FD17
:200380004A2795FD4B2796FD4C2797FFE8CF4827E6CF842FCF910895FC01638172818181EB
:2003A000908108950F931F93CF93DF9300D000D0CDB7DEB76115710509F453C0DB01182F8F
:2003C00060936B2170936C2160931622709317221296ED91FC911397178287E6868383E2D6
:2003E000858388E184831296ED91FC91139793819F7C9061938390916D21916090936D21A1
:20040000ED91FC910280F381E02DCB0109951093702180936E2190936F21FC0186819781BF
:20042000A085B18589839A83AB83BC83CE0101960E94CC018B019C011D532F483046003838
:2004400016492849310540F460930A2070930B2080930C2090930D2080916D2182608093F4
:200460006D212496CDBFDEBFDF91CF911F910F910895CF93DF93CDB7DEB76897CDBFDEBF39
:2004800060E074E082E00E94F52E8091CF0187FDFCCF8091CC0188608093CC0148E150E072
:2004A000BE016F5F7F4F80E090E00E945E2B489711F080EB8F8B8F890E94D4078C01BC01A2
:2004C0008F890E94D201D801ED91FC910280F381E02DC8010995FC01868197810E941F3331
:2004E0008091A2008F7B9FB7F8941BBE28ED24BF8093A2009FBF8091A20087608093A2002A
:2005000078940E944513FDCFFC019FB7F8941BBE88ED84BF60839FBF089580E00895089521
:2005200023E230E2FC012083318320EA3AE022833383E0E8F6E081858C7F81608187828532
:200540008460828708951F920F920FB60F9211242F933F934F935F936F937F938F939F9354
:20056000AF93BF93EF93FF938091A00A0E942127009761F10E944A22811123C08CEA91E2D9
:200580000E946F229C01892BE1F08091A9218830C1F09091AB219F5F9093AB219091AB21FB
:2005A00097709093AB219091A9219F5F9093A921E091AB21F0E0EE0FFF1FE756FE4D20831C
:2005C000318380918A06846080938A06FF91EF91BF91AF919F918F917F916F915F914F916F
:2005E0003F912F910F900FBE0F901F9018951F920F920FB60F9211242F933F934F935F93AF
:200600006F937F938F939F93AF93BF93EF93FF930E94A22E609311227093122280931322B3
:2006200090931422E0E8F6E082858B7F8287FF91EF91BF91AF919F918F917F916F915F91B9
:200640004F913F912F910F900FBE0F901F901895E0E8F6E084E0828388E0828381830895AE
:20066000809108068295817091E08927089580E090E1089581E0662319F08093E507089598
:200680008093E6070895CF93C62F8091002181110DC00E94A22E6093FC207093FD20809321
:2006A000FE209093FF2081E080930021C53050F4C23078F4CC2349F0C13059F582E08093D2
:2006C000E50727C0C53079F024C082E08093E60720C08CEF90E20E94C42E653F7140810567
:2006E0009105B8F009C08CEF90E20E94C42E693C71058105910568F082E08093E7070E94DE
:20070000A22E6093FC207093FD208093FE209093FF20CF910895CF92DF92EF92FF920F93E4
:20072000CF93DF9300D0CDB7DEB77C016B010E9490028FE290E2F7018083918340E060E08D
:20074000CE0101960E94502C20E030E040E150E16981C70104960E94591E41E060E0CE011E
:2007600001960E94502C20E030E042E150E16981C7014E960E94591E42E060E0CE010196E9
:200780000E94502C20E030E044E150E16981C701C8960E94591E43E060E0CE0101960E9441
:2007A000502C20E030E046E150E16981C7018E5A9F4F0E94591E40E06DE0CE0101960E943F
:2007C000502C40E062E0CE0102960E94502C08E028E130E149816A81C70184599F4F0E94CA
:2007E000491441E06DE0CE0101960E94502C41E062E0CE0102960E94502C2AE130E14981DC
:200800006A81C70184579F4F0E94491442E06DE0CE0101960E94502C42E062E0CE0102969F
:200820000E94502C2CE130E149816A81C70184559F4F0E94491443E06DE0CE0101960E94C1
:20084000502C43E062E0CE0102960E94502C2EE130E149816A81C70184539F4F0E944914D1
:2008600040E250E16EE1C70184519F4F0E94492144ED50E16FE0C7018F509F4F0E94B1297D
:20088000E0EEF7E081E08283818382E08283818380E180930206E1EFF7E0808180648083D3
:2008A000E4E1F6E08081877C808380818861808360E082E00E94962BFC018181887F8360BB
:2008C000818380ECC81A89EFD80AC6A2D7A28081807F816080830F900F90DF91CF910F91F9
:2008E000FF90EF90DF90CF90089580E090E1089589579C4F61110C94D1290C94BF29CF9350
:20090000DF93EC0183589F4F0E948A2C811107C0CE0189569F4F0E948A2C91E0811190E097
:20092000892FDF91CF910895CF93DF931F92CDB7DEB7DC011A966C931A971F968D919C91B7
:200940005097009779F061110DC02FEC2983DC01ED91FC910190F081E02DAE014F5F5F4FA8
:2009600061E009950F90DF91CF910895BF92CF92DF92EF92FF920F931F93CF93DF931F927E
:20098000CDB7DEB77C01D62EC42E122F0E9490028BE390E2F7018083918340E060E0CE0138
:2009A00001960E94502C20E030E040E150E16981C70104960E94591E41E060E0CE010196F4
:2009C0000E94502C20E030E042E150E16981C7014E960E94591E42E060E0CE0101960E947C
:2009E000502C20E030E044E150E16981C701C8960E94591E43E060E0CE0101960E94502C05
:200A000020E030E046E150E16981C7018E5A9F4F0E94591E44E060E0CE0101960E94502CE5
:200A200020E030E048E150E16981C70184599F4F0E94591E45E060E0CE0101960E94502CCD
:200A400020E030E04AE150E16981C7018A579F4F0E94591E40E061E0CE0101960E94502CAB
:200A600020E030E04CE150E16981C70180569F4F0E94591E41E061E0CE0101960E94502C93
:200A800020E030E04EE150E16981C70186549F4F0E94591E42E061E0CE0101960E94502C6C
:200AA00020E030E040E250E16981C7018C529F4F0E94591E43E061E0CE0101960E94502C54
:200AC00020E030E042E250E16981C70182519F4F0E94591E46E062E0CE0101960E94502C39
:200AE00020E030E044E250E16981C701885F9E4F0E94591E47E062E0CE0101960E94502C03
:200B000020E030E046E250E16981C7018E5D9E4F0E94591E40E062E0CE0101960E94502CE3
:200B200004E6212F48E250E16981C701845C9E4F0E94F31E41E062E0CE0101960E94502C07
:200B4000212F4AE250E16981C7018A5A9E4F0E94F31E42E062E0CE0101960E94502C212F7A
:200B60004CE250E16981C70180599E4F0E94F31E43E062E0CE0101960E94502C212F4EE282
:200B800050E16981C70186579E4F0E94F31E44E062E0CE0101960E94502C212F40E350E167
:200BA0006981C7018C559E4F0E94F31E45E062E0CE0101960E94502C212F42E350E1698187
:200BC000C70182549E4F0E94F31E40E063E0CE0101960E94502C20E044E350E16981C701E6
:200BE00088529E4F0E94F31E41E063E0CE0101960E94502C20E046E350E16981C7018E50A9
:200C00009E4F0E94F31E42E063E0CE0101960E94502C20E048E350E16981C701845F9D4F6E
:200C20000E94F31E43E063E0CE0101960E94502C20E04AE350E16981C7018A5D9D4F0E9492
:200C4000F31E44E063E0CE0101960E94502C20E04CE350E16981C701805C9D4F0E94F31E0B
:200C600045E063E0CE0101960E94502C20E04EE350E16981C701865A9D4F0E94F31E87016D
:200C80000C581D4F6C2DC8010E94A02C40E450E1B801C70189589D4F0E94241846E450E1D8
:200CA000B801C70189569D4F0E9424184CE450E1B801C70189549D4F0E94241842E550E129
:200CC000B801C70189529D4F0E94241848E550E1B801C70189509D4F0E9424184EE550E108
:200CE000B801C701895E9C4F0E94241860E084E00E94962BB82EC92E46E060E0CE01019613
:200D00000E94502C04E610E12B2D3C2D40E06981C701895C9C4F0E9498094AE650E160EA89
:200D200074E0C701855A9C4F0E94632346E750E168E2C70188589C4F0E94492146E651E100
:200D400068E2C70183589C4F0E94082240E750E169E2C7018E579C4F0E947126F9E7EF1A92
:200D6000FCEFFF0AF701D082FFEDFD1518F0C7010E94572CF7018081803E18F4C7010E9415
:200D80006C2C86E58093800187E08093880197E5909381018093890160E084E00E94962BF4
:200DA000FC018181887F81838FEF9FEF86A397A38081807F876080838381807188628383EB
:200DC00083E08093B00088E18093900688E38093A1049BE99093A50491E09093A404809319
:200DE000A8048BEA8093AB048CEC8093AA040F90DF91CF911F910F91FF90EF90DF90CF903C
:200E0000BF900895FF920F931F93CF93DF93CDB7DEB72697CDBFDEBF20910821261709F41A
:200E20006BC0F62E8C0181E0681741F1681758F082E0681709F443C085E068135BC086E0BB
:200E4000E2E1F0E23FC01982AE014F5F5F4F61E0C8018C559E4F0E946F1FAE014F5F5F4F45
:200E600061E0C80182549E4F0E946F1FF801E459FF4F81E082877A9682873CC084E68983FC
:200E8000AE014F5F5F4F61E0C8018C559E4F0E946F1FAE014F5F5F4F61E0C80182549E4F67
:200EA0000E946F1F60E0C80184599F4F0E94940460E0C8018A579F4F0E9494041BC086E0A1
:200EC000E8E1F0E2DE01119601900D928A95E1F7AE014F5F5F4F66E0C8018C559E4F0E9440
:200EE0006F1FAE014F5F5F4F66E0C80182549E4F0E946F1FF09208212696CDBFDEBFDF9157
:200F0000CF911F910F91FF900895809108068095881F8827881F0895CF93C62F8091092195
:200F200081110DC00E94A22E6093112170931221809313219093142181E080930921C53053
:200F400050F4C23078F4CC2349F0C13059F580E48093050627C0C53079F024C080E4809366
:200F6000060620C081E191E20E94C42E653F714081059105B8F009C081E191E20E94C42ED1
:200F8000693C71058105910568F080E4809307060E94A22E6093112170931221809313212A
:200FA00090931421CF9108950F931F93CF93DF9300D01F92CDB7DEB7182F809100108F3FE4
:200FC00051F41B8241E050E0BE016D5F7F4F80E090E10E94FF2A113B09F07BC08091001048
:200FE000811149C089E893E00E94122A8C0147E063E0CE0101960E94502C41E064E0CE01E5
:2010000002960E94502C21E049816A81C8010E94B60487E490E2F8018083918381E08093DE
:20102000820680938106E5E1F1E2808D918DA191B1911F968D939C93509781E2ED32F807EA
:20104000A1F781E0F801878781A7ED5BFF4F80837A9680837A9680837A9680837A96808383
:201060007A9680837A9680837A9680837A9680837A96808397C0813009F089C088E893E0E4
:201080000E94122A8C0141E06CE0CE0101960E94502C40E06CE0CE0102960E94502C20E003
:2010A00049816A81C8010E94B60483E590E2F80180839183E5E1F1E2808D918DA191B19134
:2010C0001F968D939C93509781E2ED32F807A1F769C0123B09F040C080910010823008F0D2
:2010E00056C08AE893E00E94122A8C0141E06CE0CE0101960E94502C40E06CE0CE010296C6
:201100000E94502C20E049816A81C8010E94B6048FE590E2F8018083918380E48093020662
:201120008093010680E880930206E55CFC4F10821182B496108211828091160680648093CE
:20114000160680911706877C809317068091170688618093170626C0133BC9F480910010B9
:20116000811108C089EF90E00E94122A8C0168EE73E009C0813059F489EF90E00E94122A8C
:201180008C0168E270E0C8010E948B030BC08091CF0187FDFCCF40E260E070E0CB010E9414
:2011A000DC47FFCFC8012396CDBFDEBFDF91CF911F910F910895FC012589FB012083FC018F
:2011C0008489FB01818382E008950F931F93CF93DF93CDB7DEB72697CDBFDEBF8C01DC0172
:2011E00050968D919C915197FC01208131812115310531F02A50310927303E4008F044C074
:20120000D8015096ED91FC9151979281992321F09A509B3508F044C0D8015096ED91FC91BC
:20122000519793819550943C08F046C0F80180899189DC0114962D913C9115972550310976
:20124000203C394008F044C00E94A22ED8015096ED91FC915197408120E030E0342F330F23
:20126000330FDC01CB01820F931FA11DB11DF80186839783A087B1872696CDBFDEBFDF91E4
:20128000CF911F910F9108952AE030E02B833C8342E050E0BE016D5F7F4F0E94FF2AB0CF85
:2012A0008AE08E8341E050E0BE016A5F7F4FCF0102960E94FF2AB0CF8CE38D8341E050E08A
:2012C000BE016B5F7F4FCF0103960E94FF2AAECF24E330E029833A8342E050E0BE016F5FA7
:2012E0007F4F04960E94FF2AAFCFCF93DF93EC01EB85FC85218180E190E00D8402C0880F2E
:20130000991F0A94E2F7809582238183CE010A960E946C2C1E8684EF91E08C839D830E94DE
:20132000A22E68A379A38AA39BA3DF91CF9108956F927F928F92DF92EF92FF920F931F93D4
:20134000CF93DF93EC01D62E3901842E0E94830B8BE690E2888399837E018AE0E80EF11CB6
:20136000DA868FED8D1518F0C7010E94572C8A85803E18F4C7010E946C2C6B867C868D8619
:201380001E861F86088B198B1A8A1B8A1C8A1D8A1E8A1F8A188E198E1A8E1B8E1C8E1D8EF3
:2013A0001E8E1F8E0E94A22E18A219A21AA21BA2C7010E94D129CE01DF91CF911F910F9121
:2013C000FF90EF90DF908F907F906F900C9475098F929F92AF92BF92CF92DF92EF92FF927D
:2013E0000F931F93CF93DF93DC015096ED91FC9151972281211105C020813181232B09F4D7
:2014000070C1EC018C01005E1F4FC8010E94C42E2C813D816901E12CF12C6C157D058E0563
:201420009F0508F45EC18E8581113DC01FB7F894AB85BC858C91EF8525E0E29FF00111243B
:20144000ED58FF4D807F9081892B8C93EB85FC8580E190E09C010D8402C0220F331F0A9445
:20146000E2F72487EB85FC8520A131A12A8B3B8B21810D8402C0880F991F0A94E2F7822B81
:201480008183CE010A960E94572C81E090E08C839D830E94A22E68A379A38AA39BA381E04F
:2014A0008E871FBFBFC0813009F0BCC0C8010E94C42EAF854A2F50E0B5E0AB9FF001112455
:2014C000ED58FF4D0381148120E030E0061717072807390748F4A23018F481E08A0F8F877E
:2014E000CE010E9475099EC02C813D812F5F3F4F2C833D832D85EB84FC84F7019485E22FE6
:20150000F0E000E110E001C0000F2A95EAF7902309F488C0EE0FFF1F9701285D3F4FE20F0B
:20152000F31F208131816A897B89261B370B2115F2E03F0730F4AA2321F08FEF8A0F8F874F
:20154000B8C085E0849FF001859FF00D1124ED58FF4DA181B2810E948D310E946A2F0E9421
:20156000D82F4B015C01C888D988D60113966C9170E080E090E00E946C2FA50194010E9453
:2015800020300E943B2FF60144815581EAE0E49F9001E59F300D11242617370718F0261BC5
:2015A000370B02C020E030E08C8D9D8DAE8DBF8D0097A105B10549F4C90134E0880F991FF0
:2015C0003A95E1F7A0E0B0E00CC04C895D896E897F89841B950BA60BB70B820F931FA11D1B
:2015E000B11D8C8F9D8FAE8FBF8F8C8D9D8DAE8DBF8D24E0B695A795979587952A95D1F727
:201600008C8B9D8BAE8BBF8BD70111968C9111970095082311960C93CE010A960E946C2C15
:2016200082E08E878E85823009F05BC0C88CD98CEA8CFB8C08891989F801A281B0E0A7011D
:2016400096010E949C3124E630E040E050E00E946B31211531054105510519F0BA01A90166
:2016600004C041E050E060E070E08C899D89AE89BF898C199D09AE09BF09B7FF07C0B0957F
:20168000A095909581959F4FAF4FBF4F84179507A607B70770F0D8018C9140E050E0582F11
:2016A000550F550F60E070E0CE010E940B0C81110FC0CE01DF91CF911F910F91FF90EF90EC
:2016C000DF90CF90BF90AF909F908F900C9475098C899D89AE89BF89888F998FAA8FBB8FC6
:2016E000E8CFDF91CF911F910F91FF90EF90DF90CF90BF90AF909F908F900895089580E0C1
:20170000089508950895DC0186E890E28D939C93119712961C921297E0915D211396EC9328
:20172000139788EE93E014968D939C93159716961D921D921D921C92199781E08E0F809349
:201740005D21F0E0EE0FFF1FEB5EFE4DA083B18308959B013F7364E0769F612D7727112490
:201760006130710509F158F06230710511F5D90120E030EA4FE050E00E949C310895C901E9
:20178000A0E0B0E0BC01CD012AE0660F771F881F991F2A95D1F72AE030E040E050E00E94A7
:2017A0006B31CA01B9010895A0E0B0EF0E948D31089560E070E0CB0108950F931F93CF93A0
:2017C000DF93FC010681178120853185012B022B032BE1F46623D1F0EC010E94A22EE091AA
:2017E0006E21F0916F212181F4E62F9FA00111248A01550F220B330BAB01BC01400F511FA7
:20180000621F731F4E835F8368877987DF91CF911F910F9108952F923F924F925F926F92F1
:201820007F928F929F92AF92BF92CF92DF92EF92FF920F931F93CF93DF93CDB7DEB7CD576A
:20184000D109CDBFDEBFDC0116960D911D912D913C911997012B022B032B09F478C06A014E
:201860007B018C0106960E94C42E672B682B692B09F46DC0D801ED91FC910280F381E02D65
:20188000BE01685A7F4FC8010995ED968FAFED97F801F381EE96FFAFEE97E0916E21F091A8
:2018A0006F2182819381A481B581EC968CAF9DAFAEAFBFAFEC97CE0188589F4F0E94CC01C3
:2018C0004B015C0140900A2050900B2060900C2070900D200E94A22ECE0101961C0187E5B0
:2018E000D1011D928A95E9F789E6888BEE96BFADEE97B98BED96EFADED974E2F50E0BE011E
:20190000685A7F4FCE0142960E942A3388EF8A874B865C866D867E868E829F82A886B986C1
:20192000ED968FADED978E5F8F87C1010E947E26882379F0F80186819781A085B1858650FC
:201940009F4FAF4FBF4F86839783A087B18780E019C0C114D104E104F10461F00E94A22E8B
:20196000C60ED71EE81EF91EF801C682D782E086F18607C0D80116961D921D921D921C9203
:20198000199781E0C358DF4FCDBFDEBFDF91CF911F910F91FF90EF90DF90CF90BF90AF903A
:2019A0009F908F907F906F905F904F903F902F9008958F929F92AF92BF92CF92DF92EF929B
:2019C000FF920F931F93CF93DF936B017C01FA0188E4808382E4818387E582838A01065F30
:2019E0001F4FEA0123968AE0882E912CA12CB12C0C171D0791F0C701B601A50194010E942A
:201A00006B31605DF80162938F01C114D104E104F10471F369017A01EBCFDF91CF911F91E8
:201A20000F91FF90EF90DF90CF90BF90AF909F908F900895CF93DF93EC010E94A22E688393
:201A400079838A839B83DF91CF910895CF93DF93EC0101960E941A0D87E5FE0111928A95A4
:201A6000E9F7DF91CF910895FC01808180FF03C081E09785961380E00895FC01818580FD36
:201A800007C08685823020F081E09785993609F080E008958091CF0187FDFCCF0895CF9242
:201AA000DF92EF92FF920F931F93CF93DF93CDB7DEB7C755D109CDBFDEBF80916D2181FF24
:201AC00053C00E941A33182F0FB7F89481E192E20E94C42E0FBF212F2F70295F022F10E09B
:201AE00020E030E00617170728073907E8F5E0916E21F0916F21108100917021C0900A2011
:201B0000D0900B20E0900C20F0900D20CE0101960E94260DCB86DC86ED86FE868FEF9FEF00
:201B2000DC018E839F83A887B98788EF8A8781E4888B198A0A8B1B8B82E08C8B82E38D8B52
:201B4000AE014A5E5F4FC701B6010E94D90C80E18F87CE0101960E947E26811105C08091EF
:201B60006D218D7F80936D21C95ADF4FCDBFDEBFDF91CF911F910F91FF90EF90DF90CF90B4
:201B80000895CF92DF92EF92FF920F931F93CF93DF93CDB7DEB72597CDBFDEBFE0916E219E
:201BA000F0916F211081C680D780E084F1840091CC010E944A0D8091CC01877F8093CC01F2
:201BC0008FEF0E944F2A0E944A0D80E30E94142A03FF07C00E944A0D8091CC018860809395
:201BE000CC0180916E2190916F211D8341E050E0BE016B5F7F4F0E94FF2A80916E219091F3
:201C00006F21C982DA82EB82FC8244E050E0BE016F5F7F4F06960E94FF2A80916D21846009
:201C200080936D212596CDBFDEBFDF91CF911F910F91FF90EF90DF90CF9008951F93CF9372
:201C4000DF9300D000D0CDB7DEB780916B2190916C21892B09F4BAC080916321811107C0F5
:201C60008FE591E20E941A0D81E08093632180916B2190916C21DC01ED91FC910480F5818F
:201C8000E02D0995182F80915E21823009F441C028F4882361F0813001F18BC0843009F45B
:201CA0006AC008F451C0853009F47DC082C0112319F081E080935E21CE0101960E941A0D5D
:201CC00089819A81AB81BC8180935F2190936021A0936121B09362216CC08FE591E211237D
:201CE00051F00E94C42E693873418105910508F460C082E055C00E94C42E653671058105E0
:201D0000910508F454C080916D21826080936D214EC011114EC083E080935E21CE01019662
:201D20000E941A0D89819A81AB81BC8180935F2190936021A0936121B093622180916D21FB
:201D4000806280936D2135C08FE591E20E94C42E643671058105910560F1112311F084E07A
:201D6000A9CF8FE591E20E94C42E6938734181059105E8F41EC08FE591E20E94C42E643630
:201D8000710581059105A8F0112389F08FE591E20E94C42E693B7B408105910550F085E0D1
:201DA00080935E2106C0111104C00E94C10D10925E2180916B2190916C21DC01ED91FC9121
:201DC0000680F781E02D60915E2109952496CDBFDEBFDF91CF911F9108950F931F93CF9334
:201DE000DF9300D000D0CDB7DEB7E0916E21F0916F2186819781A085B18589839A83AB83D6
:201E0000BC83CE0101960E94CC0100910A2010910B2020910C2030910D20601771078207E4
:201E20009307B9F08B019C011D532F483046003816492849310540F460930A2070930B201C
:201E400080930C2090930D2080916D21826080936D21E0916E21F0916F2191819253993CF4
:201E6000B0F410E080915D211817E8F4E12FF0E0EE0FFF1FEB5EFE4D80819181DC01ED9137
:201E8000FC910680F781E02D09951F5FEBCF82E3898341E050E0BE016F5F7F4FCF01019650
:201EA0000E94FF2ADECF2496CDBFDEBFDF91CF911F910F910895CF92DF92EF92FF92CF93C4
:201EC000DF93CDB7DEB7C755D109CDBFDEBF80916D2180FF07C00E94ED0E80916D218E7F2A
:201EE00080936D2180916D2183FF09C08FB7F8941BBE98ED94BF91E0909379008FBF809168
:201F00006D2182FF0FC0A8958FB7F8941BBE98ED94BF9BE1909380008FBF8091820080FDA6
:201F2000FCCFFFCF85FF27C0C0900A20D0900B20E0900C20F0900D20CE0101960E94260D14
:201F4000CB86DC86ED86FE8682E090E0A0E0B0E08E839F83A887B98788EF8A8783E2888B53
:201F600081E08F87CE0101960E947E2680916D218F7D80936D210E94A22E6D3D754081059B
:201F8000910510F00E944F0DC95ADF4FCDBFDEBFDF91CF91FF90EF90DF90CF9008959091C9
:201FA0005D21891778F4E82FF0E0EE0FFF1FEB5EFE4D80819181DC01ED91FC910280F38110
:201FC000E02D0994DB011C9281E0089590915D21891778F4E82FF0E0EE0FFF1FEB5EFE4D8E
:201FE00080819181DC01ED91FC910190F081E02D09940895DF92EF92FF920F931F93CF9364
:20200000DF93EC010E941522D82E811102C0D12CC8C1898580FDFBCF65E7CE010E94340D55
:20202000882321F080916D218860B7C062E5CE010E94340D882391F08E85843041F71A891F
:20204000412F50E0688979897627672776277061CE010F960E942A331E87A1C163E4CE01C4
:202060000E94340D882321F080916D21816095C066E7CE010E94340D882389F080910A208E
:2020800090910B20A0910C20B0910D208D839E83AF83B88782E08F8792E3988B69C168E6FF
:2020A000CE010E94340D882359F0E0916E21F0916F218081909170219F87888B82E058C102
:2020C00065E4CE010E94340D882309F44FC00A891B89812F869586958695912F977011F44A
:2020E0008C5F01C08B5F8E8785E68F874E8550E04450510960E070E0CE0143960E94333383
:20210000402F50E060E070E180E090E0212F30E001E010E0281739070CF441C1DB01E0E071
:20212000F0E0E417F507F4F4FD90EE24EA94FE14B9F0FC01A3E0F595E795AA95E1F73496B1
:20214000EC0FFD1FDC01A770BB27780102C0EE0CFF1CAA95E2F7D701B785AB2BA78702C050
:202160003196DFCF0196640F751FD4CF6BE4CE010E94340D8111BDC06BECCE010E94340D90
:202180008111B7C05FC061E2CE010E94340D882309F49CC080916D21846080936D2111E009
:2021A0008D819E81AF81B8858F3F9F4FAF4FBF4F09F42DCF80916D2186FF07C065E7CE01BE
:2021C0000E94340D882309F422CF2985822F8770833021F023FB222720F901C020E08A8519
:2021E0009B85AC85BD858D839E83AF83B88780910A2090910B20A0910C20B0910D208A8747
:202200009B87AC87BD87898586958370112321F099E199871E8602C098E999878370982F69
:202220009295990F907E89858F79892B8987211102C0877F898781E02827888120FB84F98C
:202240008883AFC063E5CE010E94340D882321F0BE016F5E7F4F86C067E5CE010E94340DB0
:202260008823F1F04A892E8530E0842F90E004962817390709F0CBCE8889998998278927CC
:202280009827BE01009719F06D5E7F4F05C06C5E7F4F415081E090E050E00E94FF2A7FCF7F
:2022A0006EE6CE010E94340D882309F46CCF60910A2070910B2080910C2090910D20AE01B4
:2022C000415F5F4F0E94D90C8AE052C069E6CE010E94340D811163CF63E7CE010E94340DEC
:2022E000811135C068E7CE010E94340D81112FC041C09A89892F8370833051F04D815E8165
:202300006F8178854F3F5F4F6F4F7F4F09F447CFA0917121B0917221109709F440CFE92E94
:20232000F12CF594E794F594E79401E0833009F000E0ED91FC9111970190F081E02D298997
:202340004889BE01665F7F4FCD01099528CF6E8562507E0181E1E80EF11CA70188890E9413
:20236000E60FB70188890E94CF0F99E69F878E5F8E8715C06AE7CE010E94340D882321F0E4
:2023800080916D21806409CF6AE5CE010E94340D882309F43CCE80916D218F7BFECE10E0CA
:2023A000FFCE8D2DDF91CF911F910F91FF90EF90DF9008950F931F93CF93DF93DC0190E0E7
:2023C00090962C919097921740F5FD01E90FF11DE90FF11DEB01088119814081518104174E
:2023E0001507C9F4892F422F50E041505109E82FF0E0E417F50754F4EE0FFF1FEA0FFB1F6C
:20240000C281D381C083D1838F5FF1CF9150215090962C9390979F5FD3CFDF91CF911F9162
:202420000F9108951F93CF93DF9300D0CDB7DEB710E0809198211817A0F5E12FF0E0EE0F95
:20244000FF1FE858FE4D8081918189839A83FC014181528163817481452B462B472BF9F0F0
:2024600001960E94C42E672B682B692BC1F089819A810E947E26E981FA8180818C708C30BE
:2024800081F4BE016F5F7F4F88E791E20E94DA1167E570E089819A810E94602202C01F5FD8
:2024A000C8CF0F900F90DF91CF911F9108958F929F92AF92BF92DF92EF92FF920F931F936F
:2024C000CF93DF9300D0CDB7DEB77C01D12C80919821D81608F060C0ED2DF0E0EE0FFF1FF0
:2024E000E858FE4D0081118109831A83F801818580FD50C0F70181858770813071F0F80189
:202500008685843009F046C087858B3409F042C0C7010E943D0D8823E9F191E0F80182848E
:202520009384A484B584F701458156816781708584169506A606B70609F090E081E0F80150
:2025400085809680A780B084F701428553856485758584169506A606B70609F080E08923E8
:20256000C9F0F801918596959370F701818582958695837098130EC0BE016F5F7F4F88E7FF
:2025800091E20E94DA1167E570E089819A810E94602202C0D3949BCF0F900F90DF91CF91B5
:2025A0001F910F91FF90EF90DF90BF90AF909F908F9008950F931F93CF93DF93CDB7DEB794
:2025C000C755D109CDBFDEBF8091A921882309F453C09FB7F8948091A9218823C1F0E091BC
:2025E000AA2181E08E0F8093AA21F0E0EE0FFF1FE756FE4D008111818091AA2187708093C8
:20260000AA218091A92181508093A92102C000E010E09FBF0115110579F1C8010E9434221F
:20262000882351F0F80181858770813009F1C8010E943D0D81111CC0F80181858770813043
:2026400089F087E5DE01119601900D928A95E1F7CE0101960E94FA0F882321F0CE010196B5
:202660000E947E2667E570E0C8010E94602204C0C8010E945712E0CFC95ADF4FCDBFDEBFCA
:20268000DF91CF911F910F910895CF93C0E080915D21C817B0F4EC2FF0E0EE0FFF1FEB5E1A
:2026A000FE4D80819181DC01ED91FC910480F581E02D6C2F09950E94DA120E941212CF5F12
:2026C000E6CF0E945B0F0E941E0EA895CF910895FC018089FB01808381E00895CF93DF935A
:2026E000D62FFC018081C82FCF7082958F700E944C2BC83060F44096EC2FF0E0E80FF91F56
:202700008081DD2311F0806401C08F7B8083DF91CF910895FC01808183700895FC01818DFF
:20272000861304C0158A168A178A108E618F0895FC019089292F30E00388F489E02D662315
:20274000C9F08389981758F59489290F311D290F311D482F50E02417350708F5818190E002
:2027600082179307D8F48281482F50E024173507A8F408958289891790F4948942E0949F5F
:20278000201931091124482F50E04217530738F48281482F50E02417350708F0822F0895A4
:2027A0001F93CF93DF93EC01162F8889861303C0898D8730B9F5CE010F96112319F00E9426
:2027C000D12902C00E94BF29188B89899A890E948A13282FCE010E962230F8F0223019F439
:2027E00028EC211B122F111103C060E070E007C02B856C857D85129F600D711D11240E94E6
:202800003E2EE989FA896081661F6627661FCE01DF91CF911F910C94DD0B112331F30E940E
:20282000D129EFCFDF91CF911F910895FC01A189B2899C91292F26952695237083E0382F09
:20284000321B92959370891B2285239FB001112494E1969FA001979F500D11244487558754
:2028600090E0830F911D289FA001299F500D11243CEE3403C001359F900D112438EC239F38
:20288000800D911D112468EC70E00E94573163870895CF92DF92EF92FF920F931F93CF93D9
:2028A000DF93EC01F62EE42E69010E94830B82E990E2888399830A870B871C861D868E01EE
:2028C000025F1F4F4F2D4F706F2D62956F70C8010E94502C8E85803E18F4C8010E94572CCA
:2028E0008E85803E18F4C8010E946C2CEF868FED8E1520F0CE010F960E94572C8F85803EE9
:2029000020F4CE010F960E946C2C188AC98ADA8A1B8A1C8A1D8A1E8A1F8A188E1B8E83E0A7
:202920008A83C6010E948A1361E0823009F060E0C8010E946E13CE010E94161467E0CE01BB
:20294000DF91CF911F910F91FF90EF90DF90CF900C948E13EF92FF920F931F93CF93DF9300
:2029600000D0CDB7DEB78C01FC01E188F288F701808186FD0BC080911E208A8341E050E00D
:20298000BE016E5F7F4FC7010E94FF2AF70181818F3F59F08FEF898341E050E0BE016F5FD1
:2029A0007F4FC70101960E94FF2AF801818992890E948A1361E0823009F060E0C8010E9629
:2029C0000E946E13C8010E9416140F900F90DF91CF911F910F91FF90EF9008958F929F92E4
:2029E000AF92BF92EF92FF920F93CF93DF93EC01898D813019F0843009F065C0EB88FC8837
:202A0000F70103819181091B0A8F4085518560E070E04C8F5D8F6E8F7F8F843041F486857A
:202A20009785A0E0B0E08C8F9D8FAE8FBF8F8C8D9D8DAE8DBF8DBC01CD013AE0660F771F1E
:202A4000881F991F3A95D1F72AE030E040E050E00E946B31CA01B901F8E00F9F4001112457
:202A6000092C000CAA08BB08281539054A055B0568F0202F30E040E050E00E946B312C8F76
:202A80003D8F4E8F5F8F81E08A8F1DC02C8F3D8F4E8F5F8F8C8D9D8DAE8DBF8D80319105E5
:202AA000A105B10580F02A8DF7013489231758F026952A8FB695A795979587958C8F9D8FD2
:202AC000AE8FBF8FE7CFDF91CF910F91FF90EF90BF90AF909F908F9008950F931F93CF9308
:202AE000DF93EC01162F0E94A22E6D8B7E8B8F8B988F111124C0EB89FC8966817781CB01D4
:202B000001978F3F9F4B10F011E0EDCFCE010E94A90B0D891E892F89388DDC01CB01800FA1
:202B2000911FA21FB31F8D8B9E8BAF8BB88F60E0CE01DF91CF911F910F910C948E131130DF
:202B400061F4EB89FC898085918501978F3F9F4B10F012E0C8CF61E02DC0123049F462E044
:202B6000CE010E948E13EB89FC89628573853BC0133099F4EB89FC898485958501978F3F1E
:202B80009F4B10F014E0AFCF63E0CE010E948E13EB89FC89648575852BC01430A9F4EB8968
:202BA000FC898685978501978F3F9F4B10F015E09ACF64E0CE010E948E13CE01DF91CF91C6
:202BC0001F910F910C94EE14153029F01D8A1E8A1F8A188E1EC065E0CE010E948E13EB895E
:202BE000FC8960897189CB0101978F3F9F4B70F7CE010E94A90B0D891E892F89388DDC012E
:202C0000CB01800F911FA21FB31F8D8B9E8BAF8BB88FDF91CF911F910F910895EF92FF9285
:202C20000F931F93CF93DF93EC010B891C89898D0115110589F4873009F0ABC060E0CE015D
:202C40000E94D01365E0CE01DF91CF911F910F91FF90EF900C948E13823009F449C028F498
:202C60008823A1F0813001F194C0843009F44FC008F447C0853009F08CC0F8016181CE01BA
:202C80000E94D013EB89FC8967893FC06623C9F0F80165896F70CE01DF91CF911F910F91D0
:202CA000FF90EF900C946D15662359F0F888F801E380FE1430F489899A890E948A138111FA
:202CC0000BC0F801658962956F70CE010E946D15EB89FC8963813FC06A8D862F90E08F0DE5
:202CE000911D2E2D30E082179307A0F56F0D3EC0F8016381CE010E94D013EB89FC89668960
:202D0000C9CF662389F0F80166896295C3CF662359F0F888F801E180EF1430F489899A89A0
:202D20000E948A1381110AC0F80167896F70CE010E946D15EB89FC8961810DC08A8D8F15DA
:202D400048F42F2D30E0281B31094E2D50E04217530754F06E2DCE01DF91CF911F910F9122
:202D6000FF90EF900C94D0136F2D681BCE010E94D0134D895E896F89788D8C8D9D8DAE8D17
:202D8000BF8D840F951FA61FB71F8D8B9E8BAF8BB88FDF91CF911F910F91FF90EF90089578
:202DA000CF93DF93EC018D899E89AF89B88D892B8A2B8B2B21F4898D873069F408C0CE01A3
:202DC00045960E94C42E672B682B692BA1F361E0CE010E940E1640E050E0BA01CE01DF9117
:202DE000CF910C940B0CEF92FF920F931F93CF93DF93EC017A016130D9F4DA016C91693C3F
:202E000008F077C00E94D0131D8A1E8A1F8A188EF7018081882311F062E001C065E0CE01A4
:202E2000DF91CF911F910F91FF90EF900C948E13633009F05EC0DA011196ED91FC91129743
:202E4000EB8BFC8B9081892F8F706C91823070F00D891E892F89388D012B022B032B91F4D8
:202E60002B8D261313C094FD11C00CC08B8D861302C094FF07C09F70913021F460E0CE019F
:202E80000E940E16F70180818B8F33C0853011F460E006C0863028F58330C9F0E0F061E056
:202EA000CE010E949813182F193C60F7612FCE010E94D0131D8A1E8A1F8A188E112311F04C
:202EC00062E001C065E0CE010E948E13DBCF60FF06C01181E9CF8230A9F660FFFACF138172
:202EE000E3CF883010F46170DBCF883059F66095FACFDF91CF911F910F91FF90EF90089559
:202F0000FC01218DFB012083FC01808DFB01818382E008950F931F93CF93DF93CDB7DEB71D
:202F20002797CDBFDEBF8C01DC011C968D919C911D97FC0121812B3F50F025E02F8341E06E
:202F400050E0BE01695F7F4F01960E94FF2AD8011C968D919C911D97FC0122813381211576
:202F6000310531F0255031092C303E4008F046C0D8011C968D919C911D97FC012481358191
:202F80002115310531F0255031092C303E4008F042C0D8011C96ED91FC911D9784819581BC
:202FA000009731F0228133818217930708F440C0F801168684EF91E0848395830E94A22EC9
:202FC000D8011C96ED91FC911D97428120E030E0342F330F330FDC01CB01820F931FA11D43
:202FE000B11DF80186839783A087B1872796CDBFDEBFDF91CF911F910F9108952AE030E0CB
:203000002D833E8342E050E0BE016B5F7F4F02960E94FF2AADCF26E930E02B833C8342E009
:2030200050E0BE016D5F7F4F04960E94FF2AB1CF19821A8242E050E0BE016F5F7F4FCF016E
:2030400004960E94FF2AB4CFEF92FF920F931F93CF93DF93EC017B018A010E94830B8EE9B3
:2030600090E288839983EA86FB861E8681E08F870E94A22E84E08A830C871D871C8E1D8E3C
:203080001E8E1F8EDF91CF911F910F91FF90EF900895982F81E0983221F0903111F080E0E7
:2030A000089508951F93CF93DF93EC01162F8A859B850E94C62C8A859B85DC011196ED912A
:2030C000FC91129730852C912323E1F0111104C0AE01405F5F4F02C040E050E064E40E9453
:2030E0009F2D80910E2081110FC0EA85FB858081A181B28115968C9380810180F281E02D53
:20310000818302C081E001C080E0DF91CF911F910895FB0120813181DC0150968C9180316A
:2031200061F42E7F43E0220F331F4A95E1F78681281B3109245F3F4F10C0883271F48481A7
:20314000982F9076903649F086FF02C02E7F05C085FF02C02C7F01C0287FC90134E0969588
:2031600087953A95E1F7B4E68B02C0011124322F23FDC29632FD499631FD0D9630FD0696EE
:203180000895AF92BF92CF92DF92EF92FF920F931F93CF93DF93CDB7DEB72997CDBFDEBFF2
:2031A0008C01FC01828593850E94C62CA801405F5F4F6EEBF801828593850E949F2DCE012E
:2031C00001967C015E019AE0A90EB11C67016FEFF801828593850E942C2DF70181937F0119
:2031E000EA15FB05A1F740E069E070E0C6010E94A401811109C0B601C8010E948918F8015A
:20320000808F918F80E001C083E02996CDBFDEBFDF91CF911F910F91FF90EF90DF90CF9017
:20322000BF90AF90089520915D21E5E1F1E290E0921781F0A191B19112963C91129734301B
:2032400039F41C960D90BC91A02D3C91831721F09F5FEECF80E0089581E008954F925F92D8
:203260006F927F928F929F92AF92BF92CF92DF92EF92FF920F931F93CF93DF93CDB7DEB733
:20328000CD55D109CDBFDEBFFC0184819581892B09F4A4C1A485B5858C91811104C08685FA
:2032A000833009F09BC1F62E8F01CF014C960E94C42ED80114962D913C9115974901A12C3B
:2032C000B12C681579058A059B0508F487C10E94A22ED8015C966D937D938D939C935F9711
:2032E0001E968C911E97811154C08DE495E958968D939C935997EE24EA946801B0E1CB0E23
:20330000D11C5801E8E1AE0EB11CA6016E2DD8011A968D919C911B970E94472DE82E82E0BF
:203320008E0D823070F1F601F12C8191F80EAE16BF06D9F7F80180890E944918811103C000
:20334000E110E3CF1EC0D8011C968D909C901D97F40180818F3F31F48F2D0E941319882346
:2033600009F432C1D8011C96ED91FC911D978081F812E6CF81E01E968C931E9784E690E090
:20338000C8C088E893E1F8018483958383E0868725C18130A1F461E0C8010E945218811165
:2033A0000BC088EE93E0D80114968D939C93159782E01E968C9312C18AEF90E086C08230F2
:2033C00009F0ACC0C8010E94C118EE24E3948111E12CD8011C96ED91FC911D9784819581B7
:2033E000892B49F4D8011C96ED91FC911D974181411122C03DC0C80106960E94C42ED801CD
:203400001C96ED91FC911D97AB01BC018AE076956795579547958A95D1F7848195812281F4
:203420003381821B930BA0E0B0E0481759076A077B07C0F221E01DC0F801808D918D228D78
:20344000338D821B930B092E000CAA0BBB0BB7FF07C0B095A095909581959F4FAF4FBF4F87
:20346000FAE04F9FA001112421E08417950708F420E0EE2009F446C0222309F443C0D8014B
:20348000ED91FC910280F381E02DBE016F5F7F4FC8010995F80187858823D9F01786809135
:2034A0007621909177210097A1F0DC01ED91FC910190F081E02D22E0AE014F5F5F4F6F2DF4
:2034C0000995811106C084EF91E0F8018483958385C0D8011C96ED91FC911D97828140E048
:2034E00050E0582F550F550F60E070E0C8010E940B0C882339F081E0F8018787808D918DD4
:20350000828F938F81E0D8011E968C931E9788E893E114968D939C93159760C0833009F061
:203520005DC0D801ED91FC910280F381E02DBE01645A7F4FC8010995E82EE0916E21F0913E
:203540006F2182819381A481B5816C968CAF9DAFAEAFBFAF6C97CE01885A9F4F0E94CC0104
:203560004B015C0140900A2050900B2060900C2070900D200E94A22EFE0131966F0187E540
:20358000DF011D928A95E9F789E6888BF98A4E2D50E0BE01645A7F4FCE0142960E942A33FC
:2035A00088EF8A874B865C866D867E868E829F82A886B986E394E394EF86C6010E947E26CB
:2035C000F801148215820AC0F98241E050E0BE016F5F7F4FC4010E94FF2AC4CEC35ADF4F67
:2035E000CDBFDEBFDF91CF911F910F91FF90EF90DF90CF90BF90AF909F908F907F906F90BC
:203600005F904F900895CF93FC018081C82FCF7082958F700E944C2BC83050F4FC0170963B
:20362000EC0FF11D8081877C8083808188618083CF9108954F925F926F927F928F929F925A
:20364000AF92BF92CF92DF92EF92FF920F931F93CF93DF93CDB7DEB7C755D109CDBFDEBF94
:20366000C82EF62ED42E4801590140900A2050900B2060900C2070900D20CE0102960E9434
:203680001A0DFE01319687E5DF011D928A95E9F78BE4888BC98AEA8AD11002C092E001C024
:2036A00093E0FF0CFF0C9F0D9B8B88EF8A874B865C866D867E868E829F82A886B98684E07B
:2036C0008F87CF010E947E26C95ADF4FCDBFDEBFDF91CF911F910F91FF90EF90DF90CF9048
:2036E000BF90AF909F908F907F906F905F904F900895DF92EF92FF920F931F93CF93DF93CA
:20370000D82FF62ED42EE12C222339F00FEF1FEF98010E941A1BC82F1DC00FEF1FEF98010C
:203720000E941A1BC82F811115C08091732190917421009751F0DC01ED91FC910190F08137
:20374000E02D2D2D4F2D6D2F099580916D21826080936D218C2FDF91CF911F910F91FF90C0
:20376000EF90DF900895FF920F931F93CF93DF9300D000D0CDB7DEB78C01F62E41960E9422
:203780008A2CF8018823F1F086899789A08DB18D892B8A2B8B2B21F0168A178A108E118EA6
:2037A000F801128A138A148A158A87859089009709F468C00584F685E02D208127FF62C0BF
:2037C0002FEC54C082899389A489B589892B8A2B8B2B71F4CE0101960E941A0D89819A8150
:2037E000AB81BC81F801828B938BA48BB58B2FC0C80142960E94C42E64367105810591057D
:2038000030F1F80186899789A08DB18D892B8A2B8B2BE9F420E040E0F80164858F2D0E9498
:20382000791B811114C0D8011C968C911C978F5F1C968C93CE0101960E941A0D89819A8120
:20384000AB81BC81F801868B978BA08FB18FD8011F968D919C9150970097A1F01D96ED914B
:20386000FC911E97208127FF0DC02EEC2983DC01ED91FC910190F081E02DAE014F5F5F4FAA
:2038800061E009952496CDBFDEBFDF91CF911F910F91FF900895FF920F931F93CF93DF9361
:2038A00000D000D0CDB7DEB78C01F62E41960E948A2CF801882399F186899789A08DB18DA7
:2038C000892B8A2B8B2BA1F020E040E064858F2D0E94791B81110CC0D8011C968C911C9784
:2038E0008F5F1C968C93F801168A178A108E118ED80152961D921D921D921C9255971F9675
:203900008D919C915097009709F469C01D96ED91FC911E97208127FF62C02FEC54C0828922
:203920009389A489B589892B8A2B8B2B71F4CE0101960E941A0D89819A81AB81BC81F801C6
:20394000828B938BA48BB58B2FC0C80142960E94C42E643671058105910530F1F801868954
:203960009789A08DB18D892B8A2B8B2BE9F420E040E0F80164858F2D0E94791B811114C066
:20398000D8011C968C911C978F5F1C968C93CE0101960E941A0D89819A81AB81BC81F80157
:2039A000868B978BA08FB18FD8011F968D919C9150970097A1F01D96ED91FC911E97208169
:2039C00027FF0DC02EEC2983DC01ED91FC910190F081E02DAE014F5F5F4F61E00995249693
:2039E000CDBFDEBFDF91CF911F910F91FF9008958F929F92AF92BF92CF92DF92EF92FF928A
:203A00000F931F93CF93DF9300D000D0CDB7DEB76C01F62E41960E948A2CD60152964D9168
:203A20005D916D917C915597882309F441C0452B462B472B09F4B8C0C60142960E94C42EFD
:203A40006233710581059105E0F0F60186899789A08DB18D41E00097A105B10509F440E0AD
:203A6000892B8A2B8B2B39F4D6011C968C911C978F5F1C968C9320E0F60164858F2D0E94A4
:203A8000791BD60152961D921D921D921C9255971F968D919C915097009709F485C01D96B9
:203AA000ED91FC911E97208127FF7EC02FEC70C0452B462B472BC1F1F60186899789A08D9E
:203AC000B18D892B8A2B8B2B99F0C60146960E94C42E6C3271408105910508F465C0D60166
:203AE0001D96ED91FC911E97808186FD3AC05CC0C60142960E94C42E4B015C01D6011D9653
:203B0000ED91FC911E97218130E0A4E6B0E00E948D3186169706A806B90608F445C0F6011B
:203B200084858F5F84871DC0CE0101960E941A0D89819A81AB81BC81F601828B938BA48B98
:203B4000B58B168A178A108E118E87859089009759F10584F685E02D208127FF25C02EECCA
:203B600017C0CE0101960E941A0D89819A81AB81BC81F601868B978BA08FB18FE12C0FEF0D
:203B80001FEF980141E064858F2D0E941A1B0CC02983DC01ED91FC910190F081E02DAE01C3
:203BA0004F5F5F4F61E009952496CDBFDEBFDF91CF911F910F91FF90EF90DF90CF90BF909C
:203BC000AF909F908F900895FC01A585B6859C9193FF13C08285882381F09770913019F4CF
:203BE000CF010C94F81C911103C0CF010C944B1C923019F4CF010C94B31B0895FF920F9328
:203C00001F93CF93DF93EC01ED85FE859081898994FF16C08E010F5E1F4F282F2F70F22E30
:203C200082958F700E944C2B27E02F1538F0FC017096EF0DF11D80818F7B8083C80114C02A
:203C4000182F1F7082958F700E944C2B183038F4FC017096E10FF11D8081806480838B85F2
:203C6000882329F0CE0141960E94031B13C08989182F1F7082958F700E944C2B183050F4A4
:203C8000FC017096E10FF11D8081877C80838081806180831A8A1B8A1C8A1D8A1E8A1F8A50
:203CA000188E198E1C86DF91CF911F910F91FF900895CF92DF92EF92FF921F93CF93DF935F
:203CC000EC01162F6A0179010E94830B8AEA90E28883998381E08A871B861C86CD86DE8624
:203CE000EF86F88A198B103E20F4CE0141960E94572CCE0142960E941A0DCE0146960E943F
:203D00001A0D81E08A83CE01DF91CF911F91FF90EF90DF90CF900C94FE1D0F931F93CF9372
:203D2000DF931F92CDB7DEB78C01FC018081861749F0698341E050E0BE016F5F7F4FC80185
:203D40000E94FF2AC8010F90DF91CF911F910F910895CF93DF93EC01ED85FE8591819450C7
:203D60009F3288F48D859E85FC016081262F2770233020F0687F61600E948D1ECE01DF9160
:203D8000CF910C94FE1D64E0CF0101960E948D1EE9CFFC018685FB01808381E00895CF93F1
:203DA000DF931F92CDB7DEB7DC011A96ED91FC911B973081232F2F77253688F059969C91E5
:203DC0009F77232F2078922B391749F0998341E050E0BE016F5F7F4FCF010E94FF2A0F909B
:203DE000DF91CF910895AF92BF92DF92EF92FF920F931F93CF93DF93EC01162F5A01D22E8C
:203E00000E94830B86EB90E2888399837E018CE0E80EF11C412F4F70612F62956F7024ECD5
:203E200039E0C7010E94E42D0E94A22E6C8B7D8B8E8B9F8B098F82E08A83AA86BB868C85B1
:203E4000182F1F7082958F700E944C2B183060F44096E12FF0E0E80FF91F8081DD2011F0FD
:203E6000806401C08F7B808360E070E0C7010E943E2E1D868AEC888F1E8688EC8F87188A2A
:203E80008AE0898B8A8B8FEF8B8B1C8A1D8A1E8A1F8ADF91CF911F910F91FF90EF90DF90C0
:203EA000BF90AF900895DC011A96ED91FC911B9720812F770C96222349F0629FB00111243F
:203EC00023E0759567952A95E1F707C0611103C060E070E002C064EC79E00C943E2ECF93DD
:203EE000DF93EC01FA018081893C50F48E871C8A1D8A1E8A1F8A8081882379F189EC2EC032
:203F00008E3C39F468ECCE010E94531F81E08D874AC08F3C11F41D8646C0663088F12181CA
:203F2000288B92819F878381898B84818A8B85818B8B80818C3C41F40E94A22E6C8B7D8BD8
:203F40008E8B9F8B8CEC0AC08D3C51F4888D8C3C99F71C8A1D8A1E8A1F8A8AEC888F18C05E
:203F60008B3CB1F4888D8A3C19F02E878AEC02C09E8789EC888F1C8A1D8A1E8A1F8A08C0ED
:203F80008E85882311F01E86F6CF88EC8E87F3CFEA85FB856081661F6627661FCE01DF9108
:203FA000CF910C94DD0BDF91CF9108950F931F93CF938C01DC011A96ED91FC911B97C081DE
:203FC000CF770C96CC2399F00E941E2E23E0880F991F2A95E1F7D8011A96ED91FC911B9764
:203FE00060816F7770E00E945731C62F05C00E941E2E892B09F0C8EC8C2FCF911F910F910C
:2040000008950F931F93CF93DF93EC018C899D89AE89BF89892B8A2B8B2B39F1CE01449642
:204020000E94C42E672B682B692BF9F0CE010E94D61F6F8586132EC08A8924E6829FC0016A
:204040001124092E000CAA0BBB0B4C895D896E897F89840F951FA61FB71F8C8B9D8BAE8B59
:20406000BF8B6889CE010E94531F8D85811108C08C899D89AE89BF89892B8A2B8B2BB9F133
:2040800040E050E0BA01CE01DF91CF911F910F910C940B0C8B898823F1F0898924E6829F92
:2040A000C0011124092E000CAA0BBB0B0C891D892E893F89800F911FA21FB31F8C8B9D8B81
:2040C000AE8BBF8BCE010E94531F8B898F3F69F281508B8BCACF1C8A1D8A1E8A1F8A8E850C
:2040E000681711F08AEC01C089EC888FBECF6E85CE010E94531FC4CF2F923F924F925F9223
:204100006F927F928F929F92AF92BF92CF92DF92EF92FF920F931F93CF93DF93CDB7DEB784
:20412000C156D109CDBFDEBF4C01162F342EF22E942F990F990F222311F083E001C082E072
:20414000292E280EC12CD12CA12CB12C8BE09E012F5F3F4F6E962EAF3FAF6E97D4011296C7
:204160002C91129730E0A216B3060CF07BC01396ED91FC911497EC0DFD1D90819F3F09F4C3
:204180006AC0911368C0CF0101960E94CC012B013C016C966CAF7DAF8EAF9FAF6C97209162
:2041A0000A2030910B2040910C2050910D20A2962CAF3DAF4EAF5FAFA297D40113968D91FF
:2041C0009C9114974216530664067506D1F4DC01AC0DBD1D80917121909172210097D1F18C
:2041E000FC0120813181F90160807180E32C0F2D15962C91412FBE01685A7F4FF3010995A0
:2042000029C0FC01EC0DFD1D05810E94A22E6E96AEADBFAD6E97E7E51D92EA95E9F7FBE424
:20422000F88B198B0A8B2B8A28EF2A87A2968CAD9DADAEADBFADA2978B879C87AD87BE87DC
:204240004E825F826886798694E09F87CE0101960E947E2680E0AFEFAA1ABA0AB6E0CB0E85
:20426000D11C7CCFCF59DF4FCDBFDEBFDF91CF911F910F91FF90EF90DF90CF90BF90AF90FD
:204280009F908F907F906F905F904F903F902F900895FC01809373219093742182EC90E28D
:2042A0008083918362834383548308952F923F924F925F926F927F928F929F92AF92BF926E
:2042C000CF92DF92EF92FF920F931F93CF93DF93CDB7DEB72697CDBFDEBF30910F203E1590
:2042E00009F480C0F22E542E5B016C01E0920F2010E0CE0101964C0122242A948BECE82E41
:204300009CEC492E2DEC322ED60112968C91181708F068C0B0E11B9F30011124D601139609
:20432000ED91FC911497E60DF71D8481581258C08581F81255C080819181A281B3818F3FDC
:204340009F4FAF4FBF4F09F44BC0CF010E94CC01D5012D913D914D915C9162177307840771
:204360009507F1F5F40126E011922A95E9F72982D6011396ED91FC911497E60DF71D908581
:204380009A8327812B8383858C8384858D8385858E83002349F092859A8321852B83868174
:2043A00086958695869501C086818770833081F038F4882359F0813099F4998361E00CC042
:2043C000843041F0853061F4398205C02983F6CFE98201C0498266E0A4018F2D0E94E60FC8
:2043E0001F5F92CF2696CDBFDEBFDF91CF911F910F91FF90EF90DF90CF90BF90AF909F9040
:204400008F907F906F905F904F903F902F900895FC01809371219093722188EC90E2808335
:2044200091836283438354830895FC01208120FF17C0458156816781708580910A209091DF
:204440000B20A0910C20B0910D20481759076A077B0741F081E04F3F5F4F6F4F7F4F19F051
:2044600080E0089581E0089521E0FC01458156816781708580910A2090910B20A0910C20E5
:20448000B0910D20481759076A077B0709F020E0822F089521E0FC01428553856485758535
:2044A00080910A2090910B20A0910C20B0910D20481759076A077B0709F020E0822F0895B1
:2044C000CF93CFB7F8940E94F32980917521882319F0815080937521CFBFCF910895DF92D9
:2044E000EF92FF920F931F93CF93DF937C01DFB6F894FC01C685C15FD0E0CE010796887F59
:204500000E94F5298C01009749F0AE01B7010E942A33809175218F5F80937521DFBEC80174
:20452000DF91CF911F910F91FF90EF90DF900895FB0198E0408151819A01220F331F87FD98
:2045400021602083318357FF08C02081318142E0242740E1342720833183880F915051F712
:204560000895DC01FB0154968C915497808353968C91539781831F968C91828383E0089505
:204580000F931F93CF93DF93CDB7DEB72897CDBFDEBF8C01DC015B968D919C915C97FC015C
:2045A0002081253648F022E0288741E050E0BE01685F7F4F0E94FF2AD8015B968D919C9191
:2045C0005C97FC0121812B3F50F025E02F8341E050E0BE01695F7F4F01960E94FF2AD80107
:2045E0005B968D919C915C97FC01228133812115310529F0255031092C303E40F0F5D8016C
:204600005B968D919C915C97FC01248135812115310529F0255031092C303E40D8F5D8015F
:204620005B96ED91FC915C9784819581009729F02281338182179307D0F10E94A22ED8012A
:204640005B96ED91FC915C97428120E030E0342F330F330FDC01CB01820F931FA11DB11D39
:20466000F80186839783A087B1872896CDBFDEBFDF91CF911F910F9108952AE030E02D8351
:204680003E8342E050E0BE016B5F7F4F02960E94FF2AB5CF26E930E02B833C8342E050E0EB
:2046A000BE016D5F7F4F04960E94FF2AB8CF19821A8242E050E0BE016F5F7F4FCF01049667
:2046C0000E94FF2ABACFEF92FF920F931F93CF93DF93EC017B018A010E94830B8EEC90E23C
:2046E00088839983EA86FB8681E08D871F86188A8DE495E98B8B9C8B8D8B9E8B0E94A22E07
:2047000086E08A830B8F1C8F1F8A188E198E1A8E1E86DF91CF911F910F91FF90EF900895D4
:204720008FEFA42FB0E0119631E3E42FF0E0AE17BF077CF0E60FF71F9081892798E087FF39
:2047400003C0880F832701C0880F9150C1F74F5FECCF821302C080E0089582E00895EF9227
:20476000FF920F93CF93DF93CDB7DEB72697CDBFDEBF7C01FC018285938501E026E030E0A3
:20478000AE014F5F5F4F64E401960E94012C069789F52B8140E0BE016F5F7F4FC7010E94B4
:2047A0009023811127C0298130E0322F22278A81282BACE5B4E40E948D3184599141F701DB
:2047C000838B948B2E8143E0BE016F5F7F4FC7010E949023482F81110DC02C8130E0322F6E
:2047E00022278D81282BA4E6B0E00E948D31F701878701C042E0842F2696CDBFDEBFDF91A4
:20480000CF910F91FF90EF9008950F93CF93DF9300D0CDB7DEB769837A83FC018285938589
:2048200001E022E030E0AE014F5F5F4F64E401960E94BF2B029711F480E001C082E00F904F
:204840000F90DF91CF910F910895EF92FF920F93CF93DF93CDB7DEB72697CDBFDEBF7C01A8
:2048600067E370E80E94052481111DC0F7018285938501E026E030E0AE014F5F5F4F64E4FB
:2048800001960E94012C069771F42B8140E0BE016F5F7F4FC7010E949023811104C029816C
:2048A0003A81232B09F482E02696CDBFDEBFDF91CF910F91FF90EF9008956CE276E00E944A
:2048C0000524811182E0089560E372EA0E940524EFE9FFE03197F1F700C0000008958F92CF
:2048E0009F92AF92BF92FF920F931F93CF93DF9300D01F92CDB7DEB7DC0151962D913C9153
:204900005297232B09F42EC1F62E8C0147960E94C42EF801218932894901A12CB12C681583
:2049200079058A059B0508F41DC10E94A22EF801678B708F818F928F86858230B1F4C80138
:204940000E945D24811109C084E190E0D80151968D939C93529783E005C088EE93E069C0D2
:2049600082E0D8011E968C93FDC0833008F465C0833009F0F4C0C8010E94AF2381117AC02F
:204980008AE0F801848785E08687D8015B96ED91FC915C9784819581892B09F486C0C80194
:2049A00006960E94C42ED8015B96ED91FC915C97AB01BC018AE076956795579547958A953E
:2049C000D1F78481958122813381821B930BA0E0B0E0481759076A077B0708F466C0D801A5
:2049E000ED91FC910280F381E02DBE016F5F7F4FC8010995F8018585882309F489C0D8011A
:204A00001D961C928091762190917721009709F47FC0DC01ED91FC910190F081E02D22E008
:204A2000AE014F5F5F4F6F2D0995811171C084EF91E0F801818B928B95C0811193C0C80165
:204A40000E942524882321F080E197E2D8010DC08AE0F801848782E0868771CF82E0D801D7
:204A60001E968C931E9788E893E151968D939C93529778C088EE93E0D80151968D939C937B
:204A800052971C968C911C9781501C968C93811167CFC8010E94642485E0F80186878DE472
:204AA00095E9838B948B17865DC0D8015B96ED91FC915C972081222399F0D8011F968C91AF
:204AC0001F9790E050963C91831B910997FF03C091958195910930E0821793070CF07FCF09
:204AE0002181222381F1F8018389948945895689841B950B97FF03C0919581959109FAE046
:204B00002F9F90011124821793070CF068CF1BC0D8015B96ED91FC915C97828140E050E0A5
:204B2000582F550F550F60E070E0C8010E940B0C882349F081E0F801858783899489858B91
:204B4000968B8785808BD80153968D919C9154978D34954909F082CFF801168603C085302F
:204B600009F413CF2396CDBFDEBFDF91CF911F910F91FF90BF90AF909F908F9008952F928B
:204B80003F924F925F926F927F928F929F92AF92BF92CF92DF92EF92FF920F931F93CF93E2
:204BA000DF93CDB7DEB7CE55D109CDBFDEBF6C0169966FAF69976C964EAF5FAF6C9700E0CA
:204BC00010E0E12CF12C8BE0AE014F5F5F4F1A01A22FB0E06E96AEAFBFAF6E972D5F6F9664
:204BE0002FAF6F97F601228130E0E216F3060CF061C00380F481E02DE00FF11F90819F3F26
:204C000009F452C069962FAD699792134DC0CF0101960E94CC012B013C0180900A2090905F
:204C20000B20A0900C20B0900D20681579058A059B05C9F1D6011396ED91FC911497E00F77
:204C4000F11FB5816A96BFAF6A970E94A22EF10127E511922A95E9F744EB488B69965FADE0
:204C60006997598B6A968FAD6A978A8B6E964EAD5FAD6E976C966EAD7FAD6C97CE014396FA
:204C80000E942A3398EF9A878B869C86AD86BE864E825F82688679866F96AFAD6F97AF8788
:204CA000C1010E947E2680E0BFEFEB1AFB0A0A5F1F4F98CFC25ADF4FCDBFDEBFDF91CF9153
:204CC0001F910F91FF90EF90DF90CF90BF90AF909F908F907F906F905F904F903F902F9062
:204CE0000895FC0180937621909377218AED90E28083918362834383548308951F93CF9382
:204D0000DF93EC010E948B28182F888181FF13C0CE0105960E94CC016D837E838F83988741
:204D2000CE010A960E94CC016A877B878C879D8788818D7F88838881982F969596959F5F27
:204D40009370990F990F837F892B88830E94A22EDC01CB018A569F4FAF4FBF4F89839A8321
:204D6000AB83BC83898580FD33C08D819E81AF81B8858F3F9F4FAF4FBF4F51F18881869580
:204D800086958370813021F580919821803100F5CE010E946F220097D9F0E0919821A8E7B3
:204DA000B1E220E0E21739F04D915D918417950779F02F5FF7CFE03158F421E02E0F209330
:204DC0009821F0E0EE0FFF1FE858FE4D80839183812FDF91CF911F910895CF93DF93CDB768
:204DE000DEB76397CDBFDEBFE9E9F1E28FEF828B118A108A8B8B1A8A198A109298216396E5
:204E0000CDBFDEBFDF91CF910895CF93DF93FC01208121FF13C0EC0105960E94CC016D83B0
:204E20007E838F839887CE010A960E94CC016A877B878C879D8788818D7F8883DF91CF9148
:204E40000895CF93C82F0E94A22E6093112270931222809313229093142280910922CC3FA5
:204E600021F481608093092279C0CD3FD1F482608E7F80930922109207228FEF9FEF8093DD
:204E80000522909306228091AC218E7F82608093AC211092BA2165E072E28DEF0E94982205
:204EA0005DC081FF5BC080FF04C0C0688E7F8093092265E072E28C2F0E94982240910722DA
:204EC000E42FF0E0EF54FE4DC083443049F48091B521982F97709330C9F183FF37C039C0C9
:204EE0008091BA21493041F4893498F1809109228D7F809309222DC050E060E070E090E02F
:204F0000A0E0B0E00996A11DB11D481759076A077B07F9F48091052290910622892BC9F4C5
:204F20008CEA91E20E9405278091BA2182508093BA21809109228D7F809309228091AC21AA
:204F400081608093AC218CEA91E20AC088E080930722809107228F5F8093072280E090E005
:204F6000CF9108950F931F93CF93DF93C0910A22D0910B22209709F4BCC08C0190910E22F3
:204F80008091102291112EC081FD2CC08260809310228FEF9FEF80930C2290930D22888105
:204FA00081FD13C0CE0105960E94CC016D837E838F839887CE010A960E94CC016A877B87D4
:204FC0008C879D87888182608883888184FD02C08DEF01C08EEFF80180836CE072E20E9460
:204FE000982282C081FF82C0888184FF84C0911182C0F801108283E080930E2240910E220D
:20500000443049F48985982F9770933009F47AC083FF78C017C0493029F4F80180818E5FFB
:20502000808310C050E060E070E08E8590E0A0E0B0E00B96A11DB11D84179507A607B7077B
:2050400008F457C08091102280FD40C06CE072E2F80180810E94982240910E2250E060E016
:2050600070E08E8590E0A0E0B0E00996A11DB11D481759076A077B07E1F46CE072E280E09B
:205080000E9498226CE072E280E00E949822259680910E228F5FFE01E80FF11D80910D222A
:2050A000808380910E228E5FC80FD11D80910C228883F80180818C5F833088F48091102259
:2050C0008160809310228CEF80830EC0F80180818F778083809110228E7F809310228091B5
:2050E0000E228F5F80930E2281E010C0CE010E94052780E00BC0FE01E90FF11D8581F80152
:2051000080837CCF88E080930E229CCFDF91CF911F910F910895EF92FF920F931F93CF93A6
:20512000DF931F92CDB7DEB77C018091162290911722892BE9F00E941A33182F0FB7F894FE
:2051400081E192E20E94C42E0FBF212F2F70295F022F10E020E030E00617170728073907C5
:2051600048F0D70119968C918770813021F702C081E06FC0E0920A22F0920B2210920E2222
:20518000809110228D7F80931022D70119968C9180FD06C0F7019081969596959370B1F190
:2051A0008091162290911722DC01ED91FC910190F081E02D61E0099510E0CE0101960E947E
:2051C000B227A0911622B0911722882389F089811296ED91FC911397948193FD05C012E02C
:2051E000ECCF948193FF1BC0918195FFFACF17C01296ED91FC9113978181806481838181E3
:2052000086FD0FC0848183FF0CC0F9CF909115229370990F897F892BF7018187C1CF8083CF
:20522000CCCFED91FC9111970190F081E02D60E0CD01099511110AC0F701818580FD08C036
:20524000809115228F5F8093152202C0812F01C080E00F90DF91CF911F910F91FF90EF906E
:205260000895109211221092122210921322109214220E94A22E87E5ECEAF1E2DF011D9221
:205280008A95E9F708957F928F929F92AF92BF92CF92DF92EF92FF920F931F93CF93DF9371
:2052A00000D01F92CDB7DEB75C014B01742EF22E10E0D50112968C91181708F041C0B6E39D
:2052C0001B9F60011124D5011396ED91FC911497EC0DFD1D8481871131C085818F112EC014
:2052E00080819181A281B3818F3F9F4FAF4FBF4F29F1CF010E94CC01D4012D913D914D91E4
:205300005C916217730784079507C1F4E982F50183819481C80ED91E002321F0FEE1CF0E9A
:20532000D11C03C026E0C20ED11CCA82DB82AE014F5F5F4F63E08F2D0E94E60F1F5FB9CFAA
:205340002396CDBFDEBFDF91CF911F910F91FF90EF90DF90CF90BF90AF909F908F907F9084
:205360000895FC01809371219093722180EE90E280839183628343835483089508951F93D3
:20538000CF93DF93EC010E94812C182F888182958F700E944C2BFC011683DF91CF911F9168
:2053A00008951F93CF93DF93EC010E94812C182F888182958F700E944C2BFC011583DF910A
:2053C000CF911F910895009769F0209110203091112042E286339407E0F382179307C8F720
:2053E0000C94453208950C94E329CF93DF93EC010E94AD31209110203091112042E286335C
:205400009407E0F382179307C8F72197C80FD91F42E2C633D407E0F3C217D307C8F7DF91F8
:20542000CF9108950C94F5291F93CF93DF93E0ECF1E022851FB7F8948287A8E4B0E04C9183
:205440009C918C91809589238C93C0EAD0E038819A818A81887F84608A838C9181608C93D4
:20546000858558ED54BF51E0538753E05587789488954C9338839A83858722870E944A0D22
:205480001FBFDF91CF911F9108950E944A0D8091CF0181FF03C086E30C94142A0895CF93AE
:2054A000DF93D82FC091CA010E94452A83E38093CA011092C2011092C10180E08093C00105
:2054C000D093C4018F5F8032C9F7C093CA01DF91CF910C944A0D8F929F92AF92BF92CF921A
:2054E000DF92EF92FF920F931F93CF93DF938C015B017A0190518115944018F080E090E07A
:2055000034C0CA019051800F911F81159440B0F7C12CD12C80E2982EE114F10429F1802ED7
:20552000802F8F71C92DC81B8C2F90E0E816F90608F4CE2D0E94452AD0E0AE01B501C801D5
:205540000E942A331092C2011093C1018092C00185E30E94142AAC0EBD1EEC1AFD0ACC0EEB
:20556000DD1E0C0F1D1FD8CFC601DF91CF911F910F91FF90EF90DF90CF90BF90AF909F90B2
:205580008F9008950F931F93CF93DF931F92CDB7DEB78C0169838091CC0183FF11C001159D
:2055A00080E1180708F4105F41E050E0BE016F5F7F4FC8010E946B2A21E0892BC9F404C01E
:2055C000011584E0180710F020E012C00E94452A83E38093CA011092C2011093C1010093AE
:2055E000C00189818093C40185E30E94142A21E0822F0F90DF91CF911F910F910895EF9231
:20560000FF920F931F93CF93DF938A012091CC0123FF0EC0811520E1920708F4905FA80114
:20562000DF91CF911F910F91FF90EF900C946B2A7B01EC01C61BD70BCE018E0D9F1D01159F
:20564000110551F0F70161917F010E94C22A882331F001501109F0CF80E090E001C0C801AB
:20566000DF91CF911F910F91FF90EF9008951F920F920FB60F9211248F93EF93FF93E0EC70
:20568000F1E085858C7F8587FF91EF918F910F900FBE0F901F9018958D3048F4E82FF0E0A1
:2056A000EE0FFF1FEE51FF4D80819181089588E192E208958FEF809320220895CF92DF92D8
:2056C000EF92FF920F931F93CF93DF939C01240F351F2130314098F48A01EB016B01C40E69
:2056E000D51E7C01E61AF70AB7016C0F7D1FCC15DD0541F081E00E948C2B8993F5CF80E07C
:2057000090E001C0C801DF91CF911F910F91FF90EF90DF90CF9008954091CA01E62FF72F1F
:205720008093CA0184914093CA010895611110C0833059F028F48230B9F480E098E008950D
:20574000843091F480E09AE0089580E099E00895613051F4833029F08D3031F0823021F4DC
:2057600006C080E499E0089580E090E0089580E498E00895FC019381907CE9F30895AF922C
:20578000BF92CF92DF92EF92FF920F93CF93DF93EC019B8193709130B1F469017A01660F92
:2057A0006D83CE010E94BA2B5701E12CF12C8B8180FD03C0EC14FD0449F4011115C08B81A4
:2057C00080FD12C013C080E090E011C0F50181915F018E83CE010E94BA2B8B8180FDEDCFF2
:2057E0008FEFE81AF80AE3CF83E08A83C701DF91CF910F91FF90EF90DF90CF90BF90AF9063
:205800000895AF92BF92CF92DF92EF92FF920F931F93CF93DF93EC018B818370813039F087
:205820008B818370823019F080E090E02EC0B02E79018A01660F61606D83CE010E94BA2B91
:205840008E81F80181936F0101E010E082E0A82E8B8180FD03C00E151F0530F0B11012C06D
:205860008B8180FD0FC010C0AA82CE010E94BA2B8B8180FDF3CF0F5F1F4F8E81F60181933D
:205880006F01E6CF87E08A83C801DF91CF911F910F91FF90EF90DF90CF90BF90AF9008957F
:2058A0006295607F4F70642BFC0160830895CF93DF93FC018081982F9F70C1E0D0E001C08D
:2058C000CC0F9A95EAF782958F700E944C2BFC01C283DF91CF910895CF93DF93FC0180812D
:2058E000982F9F70C1E0D0E001C0CC0F9A95EAF782958F700E944C2BFC01C183DF91CF9195
:205900000895FC0190819F7081E001C0880F9A95EAF70895CF93DF93EC01888182958F7087
:205920000E944C2BFC01308528812F7081E090E001C0880F2A95EAF78323DF91CF91089578
:205940000F931F93CF93DF931F92CDB7DEB78C016983CE0101960E94812CF8018083898121
:2059600082958F700E944C2BF8018183928330812FB7F8943093B00038E1FC01308B2FBF91
:205980000F90DF91CF911F910F910895FC018081A181B28116968C938081A181B281119690
:2059A0008C938FEB92E10197F1F700C000009FB7F8948081A181B28112968C93AFE0B2E07B
:2059C0001197F1F700C000002081A181B28118968C919FBFAFEEBCE01197F1F700C00000CF
:2059E000A181B28118963C919081932311F08223089581E00895FC01862F2FB7F89490819A
:205A0000A181B28111969C9395E19A95F1F70000662329F09081A181B28112969C93AAE85D
:205A2000AA95F1F700C0A181B28118963C919081932309F480E0A7E6B1E01197F1F700C01D
:205A4000000090810180F281E02D9283BAE6BA95F1F700C02FBF08950F931F93CF93DF93D5
:205A60008C01C62FD8E06C2F6170C8010E94FB2C2C2F30E035952795C22F8111C068D15031
:205A800091F78C2FDF91CF911F910F910895BF92CF92DF92EF92FF920F931F93CF93DF93A9
:205AA0007C01C62E8A010E94C62C81113BC060EFC7010E942C2DD0E0C0E498EFB92EBC0E2B
:205AC00061E0C7010E94FB2CD82E61E0C7010E94FB2C882319F0DD2071F026C0D1100BC078
:205AE000CC1530F0F801808180FF05C0CC1519F0DC2FDD24D3946D2DC7010E94FB2CF801E6
:205B0000208130E035952795DD2011F02068F8012083C150CB11D4CF0F5F1F4FC111CDCF52
:205B20008D2F03C08FEF01C08EEFDF91CF911F910F91FF90EF90DF90CF90BF900895CF92E1
:205B4000DF92FF920F931F93CF93DF93EC01F62E8A010E94C62C0115110591F065E5CE0125
:205B60000E942C2D680188E0C80ED11CF80161918F01CE010E942C2D0C151D05B9F704C09A
:205B80006CECCE010E942C2D6F2DCE01DF91CF911F910F91FF90DF90CF900C942C2DFC0105
:205BA0008081282F2F7030E02430310514F460E004C0263031052CF461E082958F700C94A5
:205BC000962B80E090E008950F931F93CF93DF93EC0189010E94502C8881803E18F4CE0138
:205BE0000E94572C8881803E18F4CE010E946C2CCE010E94CF2DFC01892BD9F08081807FBD
:205C0000816080838181887F8360818306A317A388818F70843008F08450418120E130E0F2
:205C2000B90102C0660F771F8A95E2F7CB01842B8183DF91CF911F910F910895CF93DF93D5
:205C4000EC010E94CF2D009721F0FC012081211105C0CE010E948A2C90E00DC028812F70D0
:205C6000243008F02450C896FC01E20FF11DE20FF11D80819181DF91CF9108950F931F9337
:205C8000CF93DF93EC018B010E94CF2DFC0198819F70943008F094503097D9F0492F50E01C
:205CA0009A01220F331FDF01D896A20FB31F0D931C9380818823E1F001151105C9F0818142
:205CC00020E130E0092E01C0220F0A94EAF7282B19C0CE01012B31F0DF91CF911F910F91A3
:205CE0000C94D129DF91CF911F910F910C94BF29818120E130E0092E01C0220F0A94EAF7A7
:205D0000209528232183218140E150E0BA0102C0660F771F9A95E2F7CB0130E08223932325
:205D2000892BB9F2DF91CF911F910F9108959091010490FDFCCF90910004987F892B8093C6
:205D40000004089531E02FB7F8944091030440FF0CC040913022509131224F5F5F4F4093B6
:205D6000302250933122309303044091080450910904BA012FBF2091030420FDE4CF8091C4
:205D80003022909131220895CF92DF92EF92FF920F931F93CF93DF93EC010E94A22E0881AC
:205DA00019812A813B816B017C01C01AD10AE20AF30A601771078207930760F4C701B60176
:205DC000615071098109910997FF06C060E070E0CB0102C0C701B601DF91CF911F910F915B
:205DE000FF90EF90DF90CF9008951F93CF93DF93182FEB0180E00E94972E809143008E7F49
:205E000080934300153031F4C115D04219F483E09EE002C081E094E020914300217F216040
:205E2000922B9093430020910804309109043C5F40910804509109049091010490FDFCCFD0
:205E40006FEF7FEF60930A0470930B049091010490FDFCCF409308045093090490910104F0
:205E600090FDFCCF20930C0430930D04DF91CF911F910C94972E0E94AF2F88F09F5798F0D8
:205E8000B92F9927B751B0F0E1F0660F771F881F991F1AF0BA95C9F714C0B13091F00E9486
:205EA000C92FB1E008950C94C92F672F782F8827B85F39F0B93FCCF3869577956795B395D6
:205EC000D9F73EF490958095709561957F4F8F4F9F4F0895E89409C097FB3EF49095809511
:205EE000709561957F4F8F4F9F4F9923A9F0F92F96E9BB279395F695879577956795B7950C
:205F0000F111F8CFFAF4BB0F11F460FF1BC06F5F7F4F8F4F9F4F16C0882311F096E911C087
:205F2000772321F09EE8872F762F05C0662371F096E8862F70E060E02AF09A95660F771F0F
:205F4000881FDAF7880F9695879597F9089557FD9058440F551F59F05F3F71F04795880F00
:205F600097FB991F61F09F3F79F087950895121613061406551FF2CF4695F1DF08C0161657
:205F800017061806991FF1CF86957105610508940895E894BB2766277727CB0197F908959C
:205FA00016F00C9400310C940E3168940C94FA300E94AF2FA8F39923C1F3AEF3DF93CF9365
:205FC0001F930F93FF92C92FDD2788232AF02197660F771F881FDAF720E030E040E85FEB5E
:205FE0009FE3883920F0803E38F021968F770E948E30E6E1F2E004C00E948E30E3E4F2E0F5
:206000000E9411318B01BE01EC01FB2E6F5771097595771F880B990B0E946C2F28E132E7C5
:2060200041E35FE30E943330AF2D9801AE01FF900F911F91CF91DF910E94A5300C94463194
:206040000E9433300C9446310E94383138F00E943F3120F0952311F00C94FA300C940E316D
:2060600011240C94CA2F0E94A72F70F3959FC1F3950F50E0551F629FF001729FBB27F00D65
:20608000B11D639FAA27F00DB11DAA1F649F6627B00DA11D661F829F2227B00DA11D621FD5
:2060A000739FB00DA11D621F839FA00D611D221F749F3327A00D611D231F849F600D211D9C
:2060C000822F762F6A2F11249F5750409AF0F1F088234AF0EE0FFF1FBB1F661F771F881F0F
:2060E00091505040A9F79E3F510580F00C94FA300C94CA2F5F3FE4F3983ED4F38695779550
:206100006795B795F795E7959F5FC1F7FE2B880F911D9695879597F908955058BB27AA273C
:206120000E94A5300C9446310E94383138F00E943F3120F039F49F3F19F426F40C940E316B
:206140000EF4E095E7FB0C94FA30E92F0E94A72F58F3BA17620773078407950720F079F4E9
:20616000A6F50C94C92F0EF4E0950B2EBA2FA02D0B01B90190010C01CA01A0011124FF275B
:20618000591B99F0593F50F4503E68F11A16F040A22F232F342F4427585FF3CF46953795CE
:2061A0002795A795F0405395C9F77EF41F16BA0B620B730B840BBAF09150A1F0FF0FBB1F25
:2061C000661F771F881FC2F70EC0BA0F621F731F841F48F4879577956795B795F7959E3FE2
:2061E00008F0B0CF9395880F08F09927EE0F97958795089597F99F6780E870E060E00895A4
:206200009F3F31F0915020F4879577956795B795880F911D9695879597F908959FEF80EC67
:206220000895DF93CF931F930F93FF92EF92DF927B018C01689406C0DA2EEF010E9433304E
:20624000FE01E894A5912591359145915591A6F3EF010E94A530FE019701A801DA9469F747
:20626000DF90EF90FF900F911F91CF91DF91089500240A94161617061806090608950024EB
:206280000A9412161306140605060895092E0394000C11F4882352F0BB0F40F4BF2B11F4A4
:2062A00060FF04C06F5F7F4F8F4F9F4F0895AA1BBB1B51E107C0AA1FBB1FA617B70710F004
:2062C000A61BB70B881F991F5A95A9F780959095BC01CD010895A1E21A2EAA1BBB1BFD0187
:2062E0000DC0AA1FBB1FEE1FFF1FA217B307E407F50720F0A21BB30BE40BF50B661F771F14
:20630000881F991F1A9469F760957095809590959B01AC01BD01CF010895A29FB001B39F24
:20632000C001A39F700D811D1124911DB29F700D811D1124911D08950E948D31A59F900D2F
:20634000B49F900DA49F800D911D11240895EE0FFF1F0590F491E02D09940F931F93CF9368
:20636000DF938230910510F482E090E0E0913422F091352220E030E0A0E0B0E0309719F1FD
:20638000408151810281138148175907C8F08417950769F4109731F012960C9312971396E7
:2063A0001C9327C0009334221093352222C02115310519F04217530718F49A01BD01EF0105
:2063C000DF01F801DBCF21153105F9F0281B390B2430310580F48A819B816115710521F03C
:2063E000FB018283938304C08093342290933522FE01329644C0FE01E20FF31F81939193DA
:2064000022503109288339833AC02091322230913322232B41F42091022030910320209367
:2064200032223093332220910020309101202115310541F42DB73EB74091042050910520C8
:20644000241B350BE0913222F0913322E217F307A0F42E1B3F0B2817390778F0AC014E5FC7
:206460005F4F2417350748F04E0F5F1F40933222509333228193919302C0E0E0F0E0CF012B
:20648000DF91CF911F910F910895CF93DF93009709F481C0FC01329712821382A091342220
:2064A000B0913522109781F420813181820F931F20913222309133222817390751F5E0933F
:2064C0003222F093332267C0ED0120E030E0CE17DF0740F44A815B819E0141155105F1F099
:2064E000EA01F5CFC283D38340815181840F951FC817D90759F488819981840F951F02966A
:20650000808391838A819B81828393832115310529F4E0933422F09335223DC0E901EA83A2
:20652000FB8349915991C40FD51FEC17FD0761F480819181840F951F0296E90188839983F3
:20654000828193818A839B83E0E0F0E012968D919C911397009719F0FD01DC01F7CF8D916D
:206560009C9111979D012E5F3F4F820F931F20913222309133222817390769F4309729F46F
:20658000109234221092352202C012821382A0933222B0933322DF91CF9108958F929F9241
:2065A000AF92BF92CF92DF92EF92FF92CF93DF93EC01688179818A819B8161157105810528
:2065C000910521F464E279ED8BE597E02DE133EF41E050E00E943A3349015A019B01AC01FF
:2065E000A7EAB1E40E949C316B017C01ACEEB4EFA50194010E945C33DC01CB018C0D9D1D78
:20660000AE1DBF1DB7FF03C00197A109B04888839983AA83BB839F77DF91CF91FF90EF909A
:20662000DF90CF90BF90AF909F908F9008950E94CE32089586E090E20E94CE320895A0E03D
:20664000B0E08093062090930720A0930820B09309200895FB01DC0102C001900D92415067
:206660005040D8F70895DC0101C06D9341505040E0F70895052E97FB1EF400940E9451335A
:2066800057FD07D00E946B3107FC03D04EF40C94513350954095309521953F4F4F4F5F4F46
:2066A000089590958095709561957F4F8F4F9F4F0895B7FF0C949C310E949C31821B930B04
:2066C0000895F894FFCF00003622200001000000003D8F6001FF362ACC00C80202FFCC005B
:2066E000C80505FFFF00000000BE29BE298D028F02000000003A03370330034303000000EC
:2067000000780475047F04020700000000780475047F04020700000000780475047F0402FD
:2067200007000000007804750485078C07000000007E0BDB08E809E50803010002000510D9
:20674000001E00070001F401000000007E0B7F0B810B820B00000000F3166813D016AA14CA
:20676000000000007E0B80172E198A17000000007E0B7F0BE41DA91E000000006F1FC91EC1
:206780000120CF1E000000007C20000000005621000000007E0BB1226F24C0220000000007
:2067A000BF2500000000432900062006400660068006182218221822182218221822182295
:0867C000E0070000FD75010077
:00000001FF
