:200000000C940F010C9475010C9475010C9475010C9475010C9475010C9475010C94750196
:200020000C9475010C9475010C9475010C9475010C9475010C9475010C9475010C94750110
:200040000C9475010C9475010C9475010C9475010C9475010C9475010C9475010C947501F0
:200060000C9475010C9475010C9475010C9475010C9475010C9475010C9475010C947501D0
:200080000C94192C0C9475010C9475010C9475010C9475010C9475010C9475010C947501E1
:2000A0000C9475010C9475010C9475010C94CA020C9475010C9475010C9475010C9475013A
:2000C0000C9475010C9475010C9475010C9475010C9475010C9475010C9475010C94750170
:2000E0000C9475010C9475010C9476020C9475010C9475010C9475010C9475010C9475014E
:200100000C9475010C9475010C9475010C9475010C9475010C9475010C9475010C9475012F
:200120000C9475010C9475010C9475010C9475010C9475010C9475010C9475010C9475010F
:200140000C9475010C9475010C9475010C9475010C9475010C9475010C9475010C947501EF
:200160000C9475010C9475010C9475010C9475010C9475010C9475010C9475010C947501CF
:200180000C9475010C9475010C9475010C9475010C9475010C9475010C9475010C947501AF
:2001A0000C9475010C9475010C9475010C9475010C9475010C9475010C9475010C9475018F
:2001C0000C9475010C9475010C9475010C9475010C9475010C9475010C9475010C9475016F
:2001E0000C9475010C9475010C9475010C9475010C9475010C9475010C947501244D4F4461
:2002000024204842572D444556202000806500000232B0D73202FB02B327F7293C2C112405
:200220001FBECFEFCDBFDFE2DEBF80E08CBF67E280E890E00E9457028091820080FDFCCF97
:2002400060E081E490E00E945702809150008660809350008091510086708630D9F7609115
:200260004000687F616080E490E00E94570280914000809150008E7F809350008091500044
:200280008091600081608093600011E2A0E0B0E2EAE7F4E602C005900D92A630B107D9F795
:2002A00022E2A6E0B1E201C01D92A534B207E1F7E5E4F2E288E49AE28193E534F907E0F3C2
:2002C00083E590E38193E030F907E0F311E0CFE0D1E004C02197FE010E948130CB30D1075A
:2002E000C9F70E940C020C943B320C940000CF93FC01680F791F2CEB31E652ECADE9B3E2DC
:20030000C6E48CE8E617F707B9F09191942790FF02C04EE501C040E091FD422792FD4327E9
:2003200093FD452794FD4A2795FD4B2796FD4C2797FFE8CF4827E6CF842FCF910895FC0197
:20034000638172818181908108950F931F93CF93DF9300D000D0CDB7DEB76115710509F44C
:2003600053C0DB01182F6093792170937A2160932422709325221296ED91FC9113971782A3
:2003800087E6868383E2858388E184831296ED91FC91139793819F7C9061938390917B21BA
:2003A000916090937B21ED91FC910280F381E02DCB01099510937E2180937C2190937D2162
:2003C000FC0186819781A085B18589839A83AB83BC83CE0101960E949F018B019C011D53CF
:2003E0002F483046003816492849310540F460930A2070930B2080930C2090930D208091B3
:200400007B21826080937B212496CDBFDEBFDF91CF911F910F910895CF93DF93CDB7DEB722
:200420006897CDBFDEBF60E074E082E00E94D72F8091CF0187FDFCCF8091CC0188608093ED
:20044000CC0148E150E0BE016F5F7F4F80E090E00E94402C489711F080EB8F8B8F890E941E
:20046000CB078C01BC018F890E94A501D801ED91FC910280F381E02DC8010995FC018681AE
:2004800097810E94F9318091A2008F7B9FB7F8941BBE28ED24BF8093A2009FBF8091A20042
:2004A00087608093A20078940E940B14FDCFFC019FB7F8941BBE88ED84BF60839FBF0895B9
:2004C00080E00895089523E230E2FC012083318320EA3AE022833383E0E8F6E081858C7FE9
:2004E0008160818782858460828708951F920F920FB60F9211242F933F934F935F936F932B
:200500007F938F939F93AF93BF93EF93FF938091A00A0E94E727009761F10E941023811112
:2005200023C08AEB91E20E9435239C01892BE1F08091B7218830C1F09091B9219F5F909366
:20054000B9219091B92197709093B9219091B7219F5F9093B721E091B921F0E0EE0FFF1F9A
:20056000E955FE4D2083318380918A06846080938A06FF91EF91BF91AF919F918F917F9173
:200580006F915F914F913F912F910F900FBE0F901F9018951F920F920FB60F9211242F93E5
:2005A0003F934F935F936F937F938F939F93AF93BF93EF93FF930E94842F60931F227093F9
:2005C00020228093212290932222E0E8F6E082858B7F8287FF91EF91BF91AF919F918F9174
:2005E0007F916F915F914F913F912F910F900FBE0F901F901895E0E8F6E084E0828388E0B5
:20060000828381830895809108068295817091E08927089580E090E1089581E0662319F0EE
:200620008093E50708958093E6070895CF93C62F80910A2181110DC00E94842F6093062120
:2006400070930721809308219093092181E080930A21C53050F4C23078F4CC2349F0C13097
:2006600059F582E08093E50727C0C53079F024C082E08093E60720C086E091E20E94A62F10
:20068000653F714081059105B8F009C086E091E20E94A62F693C71058105910568F082E037
:2006A0008093E7070E94842F60930621709307218093082190930921CF910895CF92DF9247
:2006C000EF92FF920F93CF93DF9300D0CDB7DEB77C016B010E9463028FE290E2F7018083DB
:2006E000918340E060E0CE0101960E94322D20E030E040E150E16981C70104960E941F1F91
:2007000041E060E0CE0101960E94322D20E030E042E150E16981C7014E960E941F1F42E015
:2007200060E0CE0101960E94322D20E030E044E150E16981C701C8960E941F1F43E060E059
:20074000CE0101960E94322D20E030E046E150E16981C7018E5A9F4F0E941F1F40E06DE0F5
:20076000CE0101960E94322D40E062E0CE0102960E94322D08E028E130E149816A81C701C9
:2007800084599F4F0E940F1541E06DE0CE0101960E94322D41E062E0CE0102960E94322D28
:2007A0002AE130E149816A81C70184579F4F0E940F1542E06DE0CE0101960E94322D42E019
:2007C00062E0CE0102960E94322D2CE130E149816A81C70184559F4F0E940F1543E06DE0D7
:2007E000CE0101960E94322D43E062E0CE0102960E94322D2EE130E149816A81C701845351
:200800009F4F0E940F1540E250E16EE1C70184519F4F0E940F2244ED50E16FE0C7018F50CC
:200820009F4F0E94772AE0EEF7E081E08283818382E08283818380E180930206E1EFF7E0EA
:20084000808180648083E4E1F6E08081877C808380818861808360E082E00E94782CFC013C
:200860008181887F8360818380ECC81A89EFD80AC6A2D7A28081807F816080830F900F90DD
:20088000DF91CF910F91FF90EF90DF90CF90089580E090E10895815F9B4F61110C94972A64
:2008A0000C94852ACF93DF93EC0183589F4F0E946C2D811107C0CE0189569F4F0E946C2DF4
:2008C00091E0811190E0892FDF91CF910895CF93DF931F92CDB7DEB7DC011A966C931A97A5
:2008E0001F968D919C915097009779F061110DC02FEC2983DC01ED91FC910190F081E02D14
:20090000AE014F5F5F4F61E009950F90DF91CF9108958F929F92AF92BF92DF92EF92FF927A
:200920000F931F93CF93DF931F92CDB7DEB77C01D62EB42E122F0E9463028BE390E2F70142
:200940008083918340E060E0CE0101960E94322D20E030E040E150E16981C70104960E9469
:200960001F1F41E060E0CE0101960E94322D20E030E042E150E16981C7014E960E941F1F97
:2009800042E060E0CE0101960E94322D20E030E044E150E16981C701C8960E941F1F43E015
:2009A00060E0CE0101960E94322D20E030E046E150E16981C7018E5A9F4F0E941F1F44E09C
:2009C00060E0CE0101960E94322D20E030E048E150E16981C70184599F4F0E941F1F45E084
:2009E00060E0CE0101960E94322D20E030E04AE150E16981C7018A579F4F0E941F1F40E063
:200A000061E0CE0101960E94322D20E030E04CE150E16981C70180569F4F0E941F1F41E049
:200A200061E0CE0101960E94322D20E030E04EE150E16981C70186549F4F0E941F1F42E022
:200A400061E0CE0101960E94322D20E030E040E250E16981C7018C529F4F0E941F1F43E00A
:200A600061E0CE0101960E94322D20E030E042E250E16981C70182519F4F0E941F1F46E0F0
:200A800062E0CE0101960E94322D20E030E044E250E16981C701885F9E4F0E941F1F47E0B9
:200AA00062E0CE0101960E94322D20E030E046E250E16981C7018E5D9E4F0E941F1F40E09A
:200AC00062E0CE0101960E94322D04E6212F48E250E16981C701845C9E4F0E94B91F41E0BE
:200AE00062E0CE0101960E94322D212F4AE250E16981C7018A5A9E4F0E94B91F42E062E03F
:200B0000CE0101960E94322D212F4CE250E16981C70180599E4F0E94B91F43E062E0CE0199
:200B200001960E94322D212F4EE250E16981C70186579E4F0E94B91F44E062E0CE010196AA
:200B40000E94322D212F40E350E16981C7018C559E4F0E94B91F45E062E0CE0101960E9487
:200B6000322D212F42E350E16981C70182549E4F0E94B91F40E063E0CE0101960E94322DB7
:200B800020E044E350E16981C70188529E4F0E94B91F41E063E0CE0101960E94322D20E03F
:200BA00046E350E16981C7018E509E4F0E94B91F42E063E0CE0101960E94322D20E048E3ED
:200BC00050E16981C701845F9D4F0E94B91F43E063E0CE0101960E94322D20E04AE350E1BE
:200BE0006981C7018A5D9D4F0E94B91F44E063E0CE0101960E94322D20E04CE350E16981DE
:200C0000C701805C9D4F0E94B91F45E063E0CE0101960E94322D20E04EE350E16981C701E7
:200C2000865A9D4F0E94B91F87010C581D4F6B2DC8010E94822D40E450E1B801C7018958AD
:200C40009D4F0E94EA1846E450E1B801C70189569D4F0E94EA184CE450E1B801C7018954FA
:200C60009D4F0E94EA1842E550E1B801C70189529D4F0E94EA1848E550E1B801C7018950E8
:200C80009D4F0E94EA184EE550E1B801C701895E9C4F0E94EA180D531F4F24E630E146E05A
:200CA00060E0C8010E94870A4701F5EA8F1AFCEF9F0A2AE630E147E060E0C4010E94870A14
:200CC00040E750E160EA74E0C70181589C4F0E9429244CE750E168E2C70184569C4F0E94C6
:200CE0000F224CE651E168E2C7018F559C4F0E94CE2246E750E169E2C7018A559C4F0E940F
:200D00003727570185E5A81A8CEFB80A4CEE53E1B801C5010E94180C09561F4F4EEE53E1C4
:200D2000B401C8010E94180C40EF53E1B501C7018F509C4F0E943F0B42EF53E1B801C701F2
:200D40009C5F0E943F0BE1EFEE1AEBEFFE0AF701D082FFEDFD1518F0C7010E94392DF701DA
:200D60008081803E18F4C7010E944E2D86E58093800187E08093880197E59093810180938D
:200D8000890160E084E00E94782CFC018181887F81838FEF9FEF86A397A38081807F87607F
:200DA0008083838180718862838383E08093B00088E18093900688E38093A1049BE9909349
:200DC000A50491E09093A4048093A8048BEA8093AB048CEC8093AA040F90DF91CF911F91E0
:200DE0000F91FF90EF90DF90BF90AF909F908F900895FF920F931F93CF93DF93CDB7DEB78B
:200E00002697CDBFDEBF20911221261709F46BC0F62E8C0181E0681741F1681758F082E0B7
:200E2000681709F443C085E068135BC086E0E2E1F0E23FC01982AE014F5F5F4F61E0C8018E
:200E40008C559E4F0E943520AE014F5F5F4F61E0C80182549E4F0E943520F801E459FF4F7A
:200E600081E082877A9682873CC084E68983AE014F5F5F4F61E0C8018C559E4F0E943520A3
:200E8000AE014F5F5F4F61E0C80182549E4F0E94352060E0C80184599F4F0E94670460E062
:200EA000C8018A579F4F0E9467041BC086E0E8E1F0E2DE01119601900D928A95E1F7AE0155
:200EC0004F5F5F4F66E0C8018C559E4F0E943520AE014F5F5F4F66E0C80182549E4F0E9463
:200EE0003520F09212212696CDBFDEBFDF91CF911F910F91FF900895809108068095881FDC
:200F00008827881F0895CF93C62F8091132181110DC00E94842F60931B2170931C2180930C
:200F20001D2190931E2181E080931321C53050F4C23078F4CC2349F0C13059F580E48093F4
:200F4000050627C0C53079F024C080E48093060620C08BE191E20E94A62F653F71408105C9
:200F60009105B8F009C08BE191E20E94A62F693C71058105910568F080E4809307060E945F
:200F8000842F60931B2170931C2180931D2190931E21CF9108950F931F93CF93DF9300D087
:200FA0001F92CDB7DEB7182F809100108F3F51F41B8241E050E0BE016D5F7F4F80E090E1D4
:200FC0000E94E12B113B09F07BC080910010811149C081E194E00E94D82A8C0147E063E0B6
:200FE000CE0101960E94322D41E064E0CE0102960E94322D21E049816A81C8010E9489040F
:2010000087E490E2F8018083918381E08093820680938106EFE1F1E2808D918DA191B1910B
:201020001F968D939C93509781E2E733F807A1F781E0F801878781A7ED5BFF4F80837A9678
:2010400080837A9680837A9680837A9680837A9680837A9680837A9680837A9680837A96F8
:20106000808393C0813009F085C080E194E00E94D82A8C0141E06CE0CE0101960E94322D51
:2010800040E06CE0CE0102960E94322D20E049816A81C8010E94890483E590E2F8018083F9
:2010A0009183EFE1F1E2808D918DA191B1911F968D939C93509781E2E733F807A1F765C0B6
:2010C000123BE9F580910010823008F053C082E194E00E94D82A8C0141E06CE0CE0101962C
:2010E0000E94322D40E06CE0CE0102960E94322D20E049816A81C8010E9489048FE590E288
:20110000F8018083918380E4809302068093010680E880930206ED57FC4F108211828091DE
:20112000160680648093160680911706877C809317068091170688618093170626C0133BA4
:20114000C9F480910010811108C089EF90E00E94D82A8C0168EE73E009C0813059F489EF56
:2011600090E00E94D82A8C0168E270E0C8010E945E030BC08091CF0187FDFCCF40E260E00B
:2011800070E0CB010E94DC47FFCFC8012396CDBFDEBFDF91CF911F910F910895FC01238593
:2011A000FB012083FC018285FB01818382E00895DF92EF92FF920F931F93CF93DF93FC01E5
:2011C00023893489232B09F409C1EC0147960E94A62F2B893C89890120E030E0601771074E
:2011E0008207930708F4FAC00E94842F6F8B788F898F9A8F8F850E94DA2A8C018E85833072
:20120000C9F018F4823089F01AC0863019F0873031F015C07801F0E2EF0EF11C11C07801F9
:2012200048E2E40EF11C92E00CC0780180E3E80EF11C06C07801E8E3EE0EF11C01C0FFCFC6
:2012400091E08A8981111AC0F8018181897E81838181818382818F7882838281828380E417
:20126000838386E084838E858F70880F880F880F91E0F701908381839A8BB0C08130A1F4C9
:20128000DFB6F894C8010E94DF2AF801808181608083DFBEF7018081806880838CE791E076
:2012A0008B8B9C8B82E041C0823009F040C0F8018681892309F492C096838BA191E0980F8B
:2012C0009BA39FB7F894F701248135819FBFFE01E80FF11DE80FF11D238F348F81E08A8B49
:2012E0008BA1843008F47AC01BA229A13AA18F8D98A1A0E0B0E0820F931FA11DB11D2D8D88
:201300003E8D820F931FA11DB11D2B8D3C8D820F931FA11DB11D22E0B695A7959795879512
:201320002A95D1F78A879B8783E08A8B57C0833009F054C0E889F98984819581892B31F4BD
:20134000E889F989218121111EC042C0CE0106960E94A62FE889F989AB01BC018AE0769533
:201360006795579547958A95D1F78481958122813381821B930BA0E0B0E0481759076A07D5
:201380007B0798F4DDCF8A859B854D895E89841B950B97FF03C0919581959109FAE02F9F91
:2013A000900111248217930798F0E889F989828140E050E0582F550F550F60E070E0CE01B8
:2013C0000E94D10C882321F08A859B858D8B9E8B81E08A8B88E893E18B8B9C8BDF91CF91FB
:2013E0001F910F91FF90EF90DF9008950F931F93CF93DF93CDB7DEB72797CDBFDEBF8C01CE
:20140000DC0150968D919C915197FC0121812B3F50F022E32F8341E050E0BE01695F7F4F30
:2014200001960E94E12BD80150968D919C915197FC01228133812115310529F025503109ED
:201440002C303E40F0F5D80150968D919C915197FC01248135812115310529F0255031094F
:201460002C303E40D8F5D8015096ED91FC91519784819581009729F02281338182179307BE
:20148000D0F10E94842FD8015096ED91FC915197428120E030E0342F330F330FDC01CB0121
:2014A000820F931FA11DB11DF80186839783A087B1872796CDBFDEBFDF91CF911F910F91DC
:2014C00008952AE030E02D833E8342E050E0BE016B5F7F4F02960E94E12BB5CF26E930E052
:2014E0002B833C8342E050E0BE016D5F7F4F04960E94E12BB8CF19821A8242E050E0BE01BD
:201500006F5F7F4FCF0104960E94E12BBACFEF92FF920F931F93CF93DF93EC01F62EE42E31
:2015200089010E94490C8BE690E28883998380E092E08C879D87EE86FF86088B198B1A8A43
:201540001D8A1E8A1F8A188E198E1A8EFE017B9688E0DF011D928A95E9F71BA284EC99E0F2
:201560008B8B9C8B1A861B86DF91CF911F910F91FF90EF900895DC011E961C921E971C967C
:20158000ED91FC911D97128608958F929F92AF92BF92EF92FF920F931F93CF93DF93CDB7B5
:2015A000DEB7C755D109CDBFDEBFDC011C96ED91FC911D9723852F3F09F452C02285222318
:2015C00009F44EC0F62E8C01FC01E68480900A2090900B20A0900C20B0900D200E94842F45
:2015E000FE01319687E5DF011D928A95E9F78BE4888BF98A9E2D990F990F9E5F9B8B88EF71
:201600008A878B869C86AD86BE868FEF9FEFDC018E839F83A887B98784E08F87CF010E9498
:20162000442781111DC08091812190918221009751F0DC01ED91FC910190F081E02D20E08A
:201640004E2D6F2D099580917B21826080937B21F80186858F5F86870484F585E02D1286F1
:20166000C95ADF4FCDBFDEBFDF91CF911F910F91FF90EF90BF90AF909F908F900895EF92C8
:20168000FF920F931F93CF93DF93EC018B017A010E94490C87E790E288839983EA86FB86AE
:2016A0000C871D871E86F8011286DF91CF911F910F91FF90EF900895FC012385FB012083AF
:2016C000FC0182A1FB01818382E00895FC01A485B58511964C9128EE33E0429FC001439F5A
:2016E000900D1124808B918B12A208950F931F93CF93DF93EC0188899989892B19F48FEF19
:201700008B8757C0CE0142960E94A62F28893989EAE0E29FA001E39F500D11248A0120E084
:2017200030E0601771078207930708F442C00E94842F6A8B7B8B8C8B9D8B8AA186FF0EC07C
:201740008F7B8AA3EC85FD85418128EE33E0429FC001439F900D1124888B998BEE85FF85F0
:201760008285938564E170E00E941D30693C08F068EC28A1FE01E20FF11D36898E8D9F8D08
:20178000831B9109668B860F911D8E8F9F8F2F5F277028A329A1283010F42F5F29A31816F4
:2017A000190634F469A170E00E9431306B8701C01B86DF91CF911F910F910895FC01DA019C
:2017C00081A18823A1F1663090F1128682A18F7E82A39C919B3C19F09C3C59F014C02385FC
:2017E00012969C911297921770F091E09287806209C0238512969C911297291720F091E046
:2018000092878F7D82A38285882389F082A1806182A315962C91222341F094E6299F900179
:201820001124208B318B806401C08F7B82A30895EF92FF920F931F93CF93DF93EC018B01E8
:201840007A010E94490C83E890E288839983EC86FD860E871F871A8A1B8A1C8A1D8AFE014D
:20186000769688E0DF011D928A95E9F71E8E1F8E18A219A21B861A861AA2DF91CF911F911B
:201880000F91FF90EF900895089580E0089508950895DC018FE890E28D939C9311971296C4
:2018A0001C921297E0916B211396EC93139788EE93E014968D939C93159716961D921D926A
:2018C0001D921C92199781E08E0F80936B21F0E0EE0FFF1FE15EFE4DA083B18308959B0159
:2018E0003F7364E0769F612D772711246130710509F158F06230710511F5D90120E030EA31
:201900004FE050E00E9476300895C901A0E0B0E0BC01CD012AE0660F771F881F991F2A95EB
:20192000D1F72AE030E040E050E00E944530CA01B9010895A0E0B0EF0E946730089560E007
:2019400070E0CB0108950F931F93CF93DF93FC010681178120853185012B022B032BE1F4D3
:201960006623D1F0EC010E94842FE0917C21F0917D212181F4E62F9FA00111248A01550F9F
:20198000220B330BAB01BC01400F511F621F731F4E835F8368877987DF91CF911F910F91DF
:2019A00008952F923F924F925F926F927F928F929F92AF92BF92CF92DF92EF92FF920F93AA
:2019C0001F93CF93DF93CDB7DEB7CD57D109CDBFDEBFDC0116960D911D912D913C91199731
:2019E000012B022B032B09F478C06A017B018C0106960E94A62F672B682B692B09F46DC0C1
:201A0000D801ED91FC910280F381E02DBE01685A7F4FC8010995ED968FAFED97F801F38177
:201A2000EE96FFAFEE97E0917C21F0917D2182819381A481B581EC968CAF9DAFAEAFBFAF7C
:201A4000EC97CE0188589F4F0E949F014B015C0140900A2050900B2060900C2070900D202D
:201A60000E94842FCE0101961C0187E5D1011D928A95E9F789E6888BEE96BFADEE97B98B67
:201A8000ED96EFADED974E2F50E0BE01685A7F4FCE0142960E94043288EF8A874B865C86ED
:201AA0006D867E868E829F82A886B986ED968FADED978E5F8F87C1010E944427882379F068
:201AC000F80186819781A085B18586509F4FAF4FBF4F86839783A087B18780E019C0C11433
:201AE000D104E104F10461F00E94842FC60ED71EE81EF91EF801C682D782E086F18607C06D
:201B0000D80116961D921D921D921C92199781E0C358DF4FCDBFDEBFDF91CF911F910F91E2
:201B2000FF90EF90DF90CF90BF90AF909F908F907F906F905F904F903F902F9008958F92C5
:201B40009F92AF92BF92CF92DF92EF92FF920F931F93CF93DF936B017C01FA0188E4808363
:201B600082E4818387E582838A01065F1F4FEA0123968AE0882E912CA12CB12C0C171D07BA
:201B800091F0C701B601A50194010E944530605DF80162938F01C114D104E104F10471F3D0
:201BA00069017A01EBCFDF91CF911F910F91FF90EF90DF90CF90BF90AF909F908F90089511
:201BC000CF93DF93EC010E94842F688379838A839B83DF91CF910895CF93DF93EC01019618
:201BE0000E94E00D87E5FE0111928A95E9F7DF91CF910895FC01808180FF03C081E097851F
:201C0000961380E00895FC01818580FD07C08685823020F081E09785993609F080E00895C8
:201C20008091CF0187FDFCCF0895CF92DF92EF92FF920F931F93CF93DF93CDB7DEB7C75596
:201C4000D109CDBFDEBF80917B2181FF53C00E94F431182F0FB7F8948FE192E20E94A62F86
:201C60000FBF212F2F70295F022F10E020E030E00617170728073907E8F5E0917C21F091D8
:201C80007D21108100917E21C0900A20D0900B20E0900C20F0900D20CE0101960E94EC0D96
:201CA000CB86DC86ED86FE868FEF9FEFDC018E839F83A887B98788EF8A8781E4888B198A4C
:201CC0000A8B1B8B82E08C8B82E38D8BAE014A5E5F4FC701B6010E949F0D80E18F87CE01BB
:201CE00001960E944427811105C080917B218D7F80937B21C95ADF4FCDBFDEBFDF91CF9137
:201D00001F910F91FF90EF90DF90CF900895CF92DF92EF92FF920F931F93CF93DF93CDB76A
:201D2000DEB72597CDBFDEBFE0917C21F0917D211081C680D780E084F1840091CC010E94F5
:201D4000100E8091CC01877F8093CC018FEF0E94312B0E94100E80E30E94F62A03FF07C077
:201D60000E94100E8091CC0188608093CC0180917C2190917D211D8341E050E0BE016B5F16
:201D80007F4F0E94E12B80917C2190917D21C982DA82EB82FC8244E050E0BE016F5F7F4F19
:201DA00006960E94E12B80917B21846080937B212596CDBFDEBFDF91CF911F910F91FF9006
:201DC000EF90DF90CF9008951F93CF93DF9300D000D0CDB7DEB78091792190917A21892BBF
:201DE00009F4BAC080917121811107C08DE691E20E94E00D81E08093712180917921909129
:201E00007A21DC01ED91FC910480F581E02D0995182F80916C21823009F441C028F488233E
:201E200061F0813001F18BC0843009F46AC008F451C0853009F47DC082C0112319F081E0AC
:201E400080936C21CE0101960E94E00D89819A81AB81BC8180936D2190936E21A0936F2149
:201E6000B09370216CC08DE691E2112351F00E94A62F693873418105910508F460C082E0A1
:201E800055C00E94A62F653671058105910508F454C080917B21826080937B214EC011110B
:201EA0004EC083E080936C21CE0101960E94E00D89819A81AB81BC8180936D2190936E213B
:201EC000A0936F21B093702180917B21806280937B2135C08DE691E20E94A62F64367105CB
:201EE0008105910560F1112311F084E0A9CF8DE691E20E94A62F6938734181059105E8F4BA
:201F00001EC08DE691E20E94A62F6436710581059105A8F0112389F08DE691E20E94A62FB8
:201F2000693B7B408105910550F085E080936C2106C0111104C00E94870E10926C218091BE
:201F4000792190917A21DC01ED91FC910680F781E02D60916C2109952496CDBFDEBFDF91C9
:201F6000CF911F9108950F931F93CF93DF9300D000D0CDB7DEB7E0917C21F0917D2186819F
:201F80009781A085B18589839A83AB83BC83CE0101960E949F0100910A2010910B20209158
:201FA0000C2030910D206017710782079307B9F08B019C011D532F483046003816492849BE
:201FC000310540F460930A2070930B2080930C2090930D2080917B21826080937B21E0910E
:201FE0007C21F0917D2191819253993CB0F410E080916B211817E8F4E12FF0E0EE0FFF1F22
:20200000E15EFE4D80819181DC01ED91FC910680F781E02D09951F5FEBCF82E3898341E0C8
:2020200050E0BE016F5F7F4FCF0101960E94E12BDECF2496CDBFDEBFDF91CF911F910F9150
:202040000895CF92DF92EF92FF92CF93DF93CDB7DEB7C755D109CDBFDEBF80917B2180FFC7
:2020600007C00E94B30F80917B218E7F80937B2180917B2183FF09C08FB7F8941BBE98EDA4
:2020800094BF91E0909379008FBF80917B2182FF0FC0A8958FB7F8941BBE98ED94BF9BE159
:2020A000909380008FBF8091820080FDFCCFFFCF85FF27C0C0900A20D0900B20E0900C207A
:2020C000F0900D20CE0101960E94EC0DCB86DC86ED86FE8682E090E0A0E0B0E08E839F8393
:2020E000A887B98788EF8A8783E2888B81E08F87CE0101960E94442780917B218F7D8093BB
:202100007B210E94842F6D3D75408105910510F00E94150EC95ADF4FCDBFDEBFDF91CF9144
:20212000FF90EF90DF90CF90089590916B21891778F4E82FF0E0EE0FFF1FE15EFE4D8081E0
:202140009181DC01ED91FC910280F381E02D0994DB011C9281E0089590916B21891778F4A4
:20216000E82FF0E0EE0FFF1FE15EFE4D80819181DC01ED91FC910190F081E02D099408958F
:20218000DF92EF92FF920F931F93CF93DF93EC010E94DB22D82E811102C0D12CC8C189851A
:2021A00080FDFBCF65E7CE010E94FA0D882321F080917B218860B7C062E5CE010E94FA0D8D
:2021C000882391F08E85843041F71A89412F50E0688979897627672776277061CE010F9691
:2021E0000E9404321E87A1C163E4CE010E94FA0D882321F080917B21816095C066E7CE0186
:202200000E94FA0D882389F080910A2090910B20A0910C20B0910D208D839E83AF83B887FD
:2022200082E08F8792E3988B69C168E6CE010E94FA0D882359F0E0917C21F0917D2180817C
:2022400090917E219F87888B82E058C165E4CE010E94FA0D882309F44FC00A891B89812FAB
:20226000869586958695912F977011F48C5F01C08B5F8E8785E68F874E8550E04450510924
:2022800060E070E0CE0143960E940D32402F50E060E070E180E090E0212F30E001E010E0F4
:2022A000281739070CF441C1DB01E0E0F0E0E417F507F4F4FD90EE24EA94FE14B9F0FC017D
:2022C000A3E0F595E795AA95E1F73496EC0FFD1FDC01A770BB27780102C0EE0CFF1CAA9518
:2022E000E2F7D701B785AB2BA78702C03196DFCF0196640F751FD4CF6BE4CE010E94FA0DAE
:202300008111BDC06BECCE010E94FA0D8111B7C05FC061E2CE010E94FA0D882309F49CC0F8
:2023200080917B21846080937B2111E08D819E81AF81B8858F3F9F4FAF4FBF4F09F42DCF11
:2023400080917B2186FF07C065E7CE010E94FA0D882309F422CF2985822F8770833021F00D
:2023600023FB222720F901C020E08A859B85AC85BD858D839E83AF83B88780910A2090917C
:202380000B20A0910C20B0910D208A879B87AC87BD87898586958370112321F099E19987A2
:2023A0001E8602C098E999878370982F9295990F907E89858F79892B8987211102C0877FAB
:2023C000898781E02827888120FB84F98883AFC063E5CE010E94FA0D882321F0BE016F5E1A
:2023E0007F4F86C067E5CE010E94FA0D8823F1F04A892E8530E0842F90E0049628173907A7
:2024000009F0CBCE88899989982789279827BE01009719F06D5E7F4F05C06C5E7F4F4150E3
:2024200081E090E050E00E94E12B7FCF6EE6CE010E94FA0D882309F46CCF60910A207091D4
:202440000B2080910C2090910D20AE01415F5F4F0E949F0D8AE052C069E6CE010E94FA0D38
:20246000811163CF63E7CE010E94FA0D811135C068E7CE010E94FA0D81112FC041C09A89E3
:20248000892F8370833051F04D815E816F8178854F3F5F4F6F4F7F4F09F447CFA0917F2157
:2024A000B0918021109709F440CFE92EF12CF594E794F594E79401E0833009F000E0ED9160
:2024C000FC9111970190F081E02D29894889BE01665F7F4FCD01099528CF6E8562507E015C
:2024E00081E1E80EF11CA70188890E94AC10B70188890E94951099E69F878E5F8E8715C0D4
:202500006AE7CE010E94FA0D882321F080917B21806409CF6AE5CE010E94FA0D882309F45E
:202520003CCE80917B218F7BFECE10E0FFCE8D2DDF91CF911F910F91FF90EF90DF9008955D
:202540000F931F93CF93DF93DC0190E090962C919097921740F5FD01E90FF11DE90FF11D14
:20256000EB01088119814081518104171507C9F4892F422F50E041505109E82FF0E0E4179F
:20258000F50754F4EE0FFF1FEA0FFB1FC281D381C083D1838F5FF1CF9150215090962C93B6
:2025A00090979F5FD3CFDF91CF911F910F9108951F93CF93DF9300D0CDB7DEB710E0809127
:2025C000A6211817A0F5E12FF0E0EE0FFF1FEA57FE4D8081918189839A83FC01418152811B
:2025E00063817481452B462B472BF9F001960E94A62F672B682B692BC1F089819A810E9487
:202600004427E981FA8180818C708C3081F4BE016F5F7F4F86E891E20E94A01267E570E010
:2026200089819A810E94262302C01F5FC8CF0F900F90DF91CF911F9108958F929F92AF92C5
:20264000BF92DF92EF92FF920F931F93CF93DF9300D0CDB7DEB77C01D12C8091A621D81655
:2026600008F060C0ED2DF0E0EE0FFF1FEA57FE4D0081118109831A83F801818580FD50C0E9
:20268000F70181858770813071F0F8018685843009F046C087858B3409F042C0C7010E944C
:2026A000030E8823E9F191E0F80182849384A484B584F701458156816781708584169506F5
:2026C000A606B70609F090E081E0F80185809680A780B084F7014285538564857585841644
:2026E0009506A606B70609F080E08923C9F0F801918596959370F7018185829586958370B8
:2027000098130EC0BE016F5F7F4F86E891E20E94A01267E570E089819A810E94262302C042
:20272000D3949BCF0F900F90DF91CF911F910F91FF90EF90DF90BF90AF909F908F90089574
:202740000F931F93CF93DF93CDB7DEB7C755D109CDBFDEBF8091B721882309F453C09FB71F
:20276000F8948091B7218823C1F0E091B82181E08E0F8093B821F0E0EE0FFF1FE955FE4DE0
:20278000008111818091B82187708093B8218091B72181508093B72102C000E010E09FBFC4
:2027A0000115110579F1C8010E94FA22882351F0F80181858770813009F1C8010E94030EF3
:2027C00081111CC0F80181858770813089F087E5DE01119601900D928A95E1F7CE010196EC
:2027E0000E94C010882321F0CE0101960E94442767E570E0C8010E94262304C0C8010E94B9
:202800001D13E0CFC95ADF4FCDBFDEBFDF91CF911F910F910895CF93C0E080916B21C81724
:20282000B0F4EC2FF0E0EE0FFF1FE15EFE4D80819181DC01ED91FC910480F581E02D6C2FC7
:2028400009950E94A0130E94D812CF5FE6CF0E9421100E94E40EA895CF910895FC0180896F
:20286000FB01808381E00895CF93DF93D62FFC018081C82FCF7082958F700E942E2CC83044
:2028800060F44096EC2FF0E0E80FF91F8081DD2311F0806401C08F7B8083DF91CF910895F3
:2028A000FC01808183700895FC01818D861304C0158A168A178A108E618F0895FC01908901
:2028C000292F30E00388F489E02D6623C9F08389981758F59489290F311D290F311D482F91
:2028E00050E02417350708F5818190E082179307D8F48281482F50E024173507A8F4089569
:202900008289891790F4948942E0949F201931091124482F50E04217530738F48281482F6E
:2029200050E02417350708F0822F08951F93CF93DF93EC01162F8889861303C0898D8730B8
:20294000B9F5CE010F96112319F00E94972A02C00E94852A188B89899A890E945014282F6D
:20296000CE010E962230F8F0223019F428EC211B122F111103C060E070E007C02B856C85DD
:202980007D85129F600D711D11240E94202FE989FA896081661F6627661FCE01DF91CF9157
:2029A0001F910C94A30C112331F30E94972AEFCFDF91CF911F910895FC01A189B2899C91F3
:2029C000292F26952695237083E0382F321B92959370891B2285239FB001112494E1969FB8
:2029E000A001979F500D11244487558790E0830F911D289FA001299F500D11243CEE3403F4
:202A0000C001359F900D112438EC239F800D911D112468EC70E00E941D3063870895CF927E
:202A2000DF92EF92FF920F931F93CF93DF93EC01F62EE42E69010E94490C8BE990E2888376
:202A400099830A870B871C861D868E01025F1F4F4F2D4F706F2D62956F70C8010E94322D1D
:202A60008E85803E18F4C8010E94392D8E85803E18F4C8010E944E2DEF868FED8E1520F041
:202A8000CE010F960E94392D8F85803E20F4CE010F960E944E2D188AC98ADA8A1B8A1C8A9F
:202AA0001D8A1E8A1F8A188E1B8E83E08A83C6010E94501461E0823009F060E0C8010E94FB
:202AC0003414CE010E94DC1467E0CE01DF91CF911F910F91FF90EF90DF90CF900C94541433
:202AE000EF92FF920F931F93CF93DF9300D0CDB7DEB78C01FC01E188F288F701808186FDCA
:202B00000BC080911E208A8341E050E0BE016E5F7F4FC7010E94E12BF70181818F3F59F05C
:202B20008FEF898341E050E0BE016F5F7F4FC70101960E94E12BF801818992890E9450142E
:202B400061E0823009F060E0C8010E960E943414C8010E94DC140F900F90DF91CF911F91D9
:202B60000F91FF90EF9008958F929F92AF92BF92EF92FF920F93CF93DF93EC01898D8130EA
:202B800019F0843009F065C0EB88FC88F70103819181091B0A8F4085518560E070E04C8F12
:202BA0005D8F6E8F7F8F843041F486859785A0E0B0E08C8F9D8FAE8FBF8F8C8D9D8DAE8DAE
:202BC000BF8DBC01CD013AE0660F771F881F991F3A95D1F72AE030E040E050E00E94453082
:202BE000CA01B901F8E00F9F40011124092C000CAA08BB08281539054A055B0568F0202FCD
:202C000030E040E050E00E9445302C8F3D8F4E8F5F8F81E08A8F1DC02C8F3D8F4E8F5F8F42
:202C20008C8D9D8DAE8DBF8D80319105A105B10580F02A8DF7013489231758F026952A8F55
:202C4000B695A795979587958C8F9D8FAE8FBF8FE7CFDF91CF910F91FF90EF90BF90AF9011
:202C60009F908F9008950F931F93CF93DF93EC01162F0E94842F6D8B7E8B8F8B988F111156
:202C800024C0EB89FC8966817781CB0101978F3F9F4B10F011E0EDCFCE010E946F0C0D892D
:202CA0001E892F89388DDC01CB01800F911FA21FB31F8D8B9E8BAF8BB88F60E0CE01DF9134
:202CC000CF911F910F910C945414113061F4EB89FC898085918501978F3F9F4B10F012E050
:202CE000C8CF61E02DC0123049F462E0CE010E945414EB89FC89628573853BC0133099F4D2
:202D0000EB89FC898485958501978F3F9F4B10F014E0AFCF63E0CE010E945414EB89FC89C0
:202D2000648575852BC01430A9F4EB89FC898685978501978F3F9F4B10F015E09ACF64E0D2
:202D4000CE010E945414CE01DF91CF911F910F910C94B415153029F01D8A1E8A1F8A188E46
:202D60001EC065E0CE010E945414EB89FC8960897189CB0101978F3F9F4B70F7CE010E9487
:202D80006F0C0D891E892F89388DDC01CB01800F911FA21FB31F8D8B9E8BAF8BB88FDF9151
:202DA000CF911F910F910895EF92FF920F931F93CF93DF93EC010B891C89898D0115110524
:202DC00089F4873009F0ABC060E0CE010E94961465E0CE01DF91CF911F910F91FF90EF90BE
:202DE0000C945414823009F449C028F48823A1F0813001F194C0843009F44FC008F447C001
:202E0000853009F08CC0F8016181CE010E949614EB89FC8967893FC06623C9F0F8016589B1
:202E20006F70CE01DF91CF911F910F91FF90EF900C943316662359F0F888F801E380FE140D
:202E400030F489899A890E94501481110BC0F801658962956F70CE010E943316EB89FC8946
:202E600063813FC06A8D862F90E08F0D911D2E2D30E082179307A0F56F0D3EC0F80163817F
:202E8000CE010E949614EB89FC896689C9CF662389F0F80166896295C3CF662359F0F888D2
:202EA000F801E180EF1430F489899A890E94501481110AC0F80167896F70CE010E94331678
:202EC000EB89FC8961810DC08A8D8F1548F42F2D30E0281B31094E2D50E04217530754F0C8
:202EE0006E2DCE01DF91CF911F910F91FF90EF900C9496146F2D681BCE010E9496144D89E0
:202F00005E896F89788D8C8D9D8DAE8DBF8D840F951FA61FB71F8D8B9E8BAF8BB88FDF91EF
:202F2000CF911F910F91FF90EF900895CF93DF93EC018D899E89AF89B88D892B8A2B8B2B9C
:202F400021F4898D873069F408C0CE0145960E94A62F672B682B692BA1F361E0CE010E944A
:202F6000D41640E050E0BA01CE01DF91CF910C94D10CEF92FF920F931F93CF93DF93EC0119
:202F80007A016130D9F4DA016C91693C08F077C00E9496141D8A1E8A1F8A188EF7018081C9
:202FA000882311F062E001C065E0CE01DF91CF911F910F91FF90EF900C945414633009F08C
:202FC0005EC0DA011196ED91FC911297EB8BFC8B9081892F8F706C91823070F00D891E898C
:202FE0002F89388D012B022B032B91F42B8D261313C094FD11C00CC08B8D861302C094FF50
:2030000007C09F70913021F460E0CE010E94D416F70180818B8F33C0853011F460E006C0A3
:20302000863028F58330C9F0E0F061E0CE010E945E14182F193C60F7612FCE010E949614BF
:203040001D8A1E8A1F8A188E112311F062E001C065E0CE010E945414DBCF60FF06C011811B
:20306000E9CF8230A9F660FFFACF1381E3CF883010F46170DBCF883059F66095FACFDF916D
:20308000CF911F910F91FF90EF900895FC01218DFB012083FC01808DFB01818382E0089582
:2030A0000F931F93CF93DF93CDB7DEB72797CDBFDEBF8C01DC011C968D919C911D97FC01D0
:2030C00021812B3F50F025E02F8341E050E0BE01695F7F4F01960E94E12BD8011C968D9159
:2030E0009C911D97FC01228133812115310531F0255031092C303E4008F046C0D8011C96FC
:203100008D919C911D97FC01248135812115310531F0255031092C303E4008F042C0D8016F
:203120001C96ED91FC911D9784819581009731F0228133818217930708F440C0F801168630
:2031400084EF91E0848395830E94842FD8011C96ED91FC911D97428120E030E0342F330F55
:20316000330FDC01CB01820F931FA11DB11DF80186839783A087B1872796CDBFDEBFDF91C4
:20318000CF911F910F9108952AE030E02D833E8342E050E0BE016B5F7F4F02960E94E12B68
:2031A000ADCF26E930E02B833C8342E050E0BE016D5F7F4F04960E94E12BB1CF19821A825D
:2031C00042E050E0BE016F5F7F4FCF0104960E94E12BB4CFEF92FF920F931F93CF93DF936D
:2031E000EC017B018A010E94490C87EA90E288839983EA86FB861E8681E08F870E94842F79
:2032000084E08A830C871D871C8E1D8E1E8E1F8EDF91CF911F910F91FF90EF900895982FC6
:2032200081E0983221F0903111F080E0089508951F93CF93DF93EC01162F8A859B850E946D
:20324000A82D8A859B85DC011196ED91FC91129730852C912323E1F0111104C0AE01405F75
:203260005F4F02C040E050E064E40E94812E80910E2081110FC0EA85FB858081A181B28110
:2032800015968C9380810180F281E02D818302C081E001C080E0DF91CF911F910895FB0101
:2032A00020813181DC0150968C91803161F42E7F43E0220F331F4A95E1F78681281B310947
:2032C000245F3F4F10C0883271F48481982F9076903649F086FF02C02E7F05C085FF02C01E
:2032E0002C7F01C0287FC90134E0969587953A95E1F7B4E68B02C0011124322F23FDC296F9
:2033000032FD499631FD0D9630FD06960895AF92BF92CF92DF92EF92FF920F931F93CF933C
:20332000DF93CDB7DEB72997CDBFDEBF8C01FC01828593850E94A82DA801405F5F4F6EEBAA
:20334000F801828593850E94812ECE0101967C015E019AE0A90EB11C67016FEFF8018285FE
:2033600093850E940E2EF70181937F01EA15FB05A1F740E069E070E0C6010E947701811108
:2033800009C0B601C8010E944F19F801808F918F80E001C083E02996CDBFDEBFDF91CF9176
:2033A0001F910F91FF90EF90DF90CF90BF90AF90089520916B21EFE1F1E290E0921781F04C
:2033C000A191B19112963C911297343039F41C960D90BC91A02D3C91831721F09F5FEECF2E
:2033E00080E0089581E008954F925F926F927F928F929F92AF92BF92CF92DF92EF92FF9226
:203400000F931F93CF93DF93CDB7DEB7CD55D109CDBFDEBFFC0184819581892B09F4A4C118
:20342000A485B5858C91811104C08685833009F09BC1F62E8F01CF014C960E94A62FD801ED
:2034400014962D913C9115974901A12CB12C681579058A059B0508F487C10E94842FD801FB
:203460005C966D937D938D939C935F971E968C911E97811154C08DE495E958968D939C93AD
:203480005997EE24EA946801B0E1CB0ED11C5801E8E1AE0EB11CA6016E2DD8011A968D9158
:2034A0009C911B970E94292EE82E82E08E0D823070F1F601F12C8191F80EAE16BF06D9F789
:2034C000F80180890E940F19811103C0E110E3CF1EC0D8011C968D909C901D97F4018081CC
:2034E0008F3F31F48F2D0E94D919882309F432C1D8011C96ED91FC911D978081F812E6CFE4
:2035000081E01E968C931E9784E690E0C8C088E893E1F8018483958383E0868725C181305D
:20352000A1F461E0C8010E94181981110BC088EE93E0D80114968D939C93159782E01E963F
:203540008C9312C18AEF90E086C0823009F0ACC0C8010E948719EE24E3948111E12CD80127
:203560001C96ED91FC911D9784819581892B49F4D8011C96ED91FC911D974181411122C08E
:203580003DC0C80106960E94A62FD8011C96ED91FC911D97AB01BC018AE076956795579542
:2035A00047958A95D1F78481958122813381821B930BA0E0B0E0481759076A077B07C0F227
:2035C00021E01DC0F801808D918D228D338D821B930B092E000CAA0BBB0BB7FF07C0B095BF
:2035E000A095909581959F4FAF4FBF4FFAE04F9FA001112421E08417950708F420E0EE2081
:2036000009F446C0222309F443C0D801ED91FC910280F381E02DBE016F5F7F4FC8010995B9
:20362000F80187858823D9F0178680918421909185210097A1F0DC01ED91FC910190F081E5
:20364000E02D22E0AE014F5F5F4F6F2D0995811106C084EF91E0F8018483958385C0D801A4
:203660001C96ED91FC911D97828140E050E0582F550F550F60E070E0C8010E94D10C8823B4
:2036800039F081E0F8018787808D918D828F938F81E0D8011E968C931E9788E893E11496EB
:2036A0008D939C93159760C0833009F05DC0D801ED91FC910280F381E02DBE01645A7F4FF4
:2036C000C8010995E82EE0917C21F0917D2182819381A481B5816C968CAF9DAFAEAFBFAF7A
:2036E0006C97CE01885A9F4F0E949F014B015C0140900A2050900B2060900C2070900D20EF
:203700000E94842FFE0131966F0187E5DF011D928A95E9F789E6888BF98A4E2D50E0BE01B5
:20372000645A7F4FCE0142960E94043288EF8A874B865C866D867E868E829F82A886B986AE
:20374000E394E394EF86C6010E944427F801148215820AC0F98241E050E0BE016F5F7F4F1B
:20376000C4010E94E12BC4CEC35ADF4FCDBFDEBFDF91CF911F910F91FF90EF90DF90CF90D4
:20378000BF90AF909F908F907F906F905F904F900895CF93FC018081C82FCF7082958F7028
:2037A0000E942E2CC83050F4FC017096EC0FF11D8081877C8083808188618083CF910895D4
:2037C0004F925F926F927F928F929F92AF92BF92CF92DF92EF92FF920F931F93CF93DF9315
:2037E000CDB7DEB7C755D109CDBFDEBFC82EF62ED42E4801590140900A2050900B206090DD
:203800000C2070900D20CE0102960E94E00DFE01319687E5DF011D928A95E9F78BE4888B17
:20382000C98AEA8AD11002C092E001C093E0FF0CFF0C9F0D9B8B88EF8A874B865C866D8662
:203840007E868E829F82A886B98684E08F87CF010E944427C95ADF4FCDBFDEBFDF91CF9125
:203860001F910F91FF90EF90DF90CF90BF90AF909F908F907F906F905F904F900895DF9256
:20388000EF92FF920F931F93CF93DF93D82FF62ED42EE12C222339F00FEF1FEF98010E94FF
:2038A000E01BC82F1DC00FEF1FEF98010E94E01BC82F811115C0809181219091822100978B
:2038C00051F0DC01ED91FC910190F081E02D2D2D4F2D6D2F099580917B21826080937B2162
:2038E0008C2FDF91CF911F910F91FF90EF90DF900895FF920F931F93CF93DF9300D000D07A
:20390000CDB7DEB78C01F62E41960E946C2DF8018823F1F086899789A08DB18D892B8A2B43
:203920008B2B21F0168A178A108E118EF801128A138A148A158A87859089009709F468C0F2
:203940000584F685E02D208127FF62C02FEC54C082899389A489B589892B8A2B8B2B71F428
:20396000CE0101960E94E00D89819A81AB81BC81F801828B938BA48BB58B2FC0C8014296A1
:203980000E94A62F643671058105910530F1F80186899789A08DB18D892B8A2B8B2BE9F4D4
:2039A00020E040E0F80164858F2D0E943F1C811114C0D8011C968C911C978F5F1C968C93CC
:2039C000CE0101960E94E00D89819A81AB81BC81F801868B978BA08FB18FD8011F968D911D
:2039E0009C9150970097A1F01D96ED91FC911E97208127FF0DC02EEC2983DC01ED91FC91D6
:203A00000190F081E02DAE014F5F5F4F61E009952496CDBFDEBFDF91CF911F910F91FF901B
:203A20000895FF920F931F93CF93DF9300D000D0CDB7DEB78C01F62E41960E946C2DF801BB
:203A4000882399F186899789A08DB18D892B8A2B8B2BA1F020E040E064858F2D0E943F1C25
:203A600081110CC0D8011C968C911C978F5F1C968C93F801168A178A108E118ED801529696
:203A80001D921D921D921C9255971F968D919C915097009709F469C01D96ED91FC911E9768
:203AA000208127FF62C02FEC54C082899389A489B589892B8A2B8B2B71F4CE0101960E94D0
:203AC000E00D89819A81AB81BC81F801828B938BA48BB58B2FC0C80142960E94A62F643637
:203AE00071058105910530F1F80186899789A08DB18D892B8A2B8B2BE9F420E040E0F8016B
:203B000064858F2D0E943F1C811114C0D8011C968C911C978F5F1C968C93CE0101960E947B
:203B2000E00D89819A81AB81BC81F801868B978BA08FB18FD8011F968D919C915097009718
:203B4000A1F01D96ED91FC911E97208127FF0DC02EEC2983DC01ED91FC910190F081E02D10
:203B6000AE014F5F5F4F61E009952496CDBFDEBFDF91CF911F910F91FF9008958F929F92DA
:203B8000AF92BF92CF92DF92EF92FF920F931F93CF93DF9300D000D0CDB7DEB76C01F62E3D
:203BA00041960E946C2DD60152964D915D916D917C915597882309F441C0452B462B472B75
:203BC00009F4B8C0C60142960E94A62F6233710581059105E0F0F60186899789A08DB18DD2
:203BE00041E00097A105B10509F440E0892B8A2B8B2B39F4D6011C968C911C978F5F1C964F
:203C00008C9320E0F60164858F2D0E943F1CD60152961D921D921D921C9255971F968D91B3
:203C20009C915097009709F485C01D96ED91FC911E97208127FF7EC02FEC70C0452B462BF3
:203C4000472BC1F1F60186899789A08DB18D892B8A2B8B2B99F0C60146960E94A62F6C324F
:203C600071408105910508F465C0D6011D96ED91FC911E97808186FD3AC05CC0C6014296D3
:203C80000E94A62F4B015C01D6011D96ED91FC911E97218130E0A4E6B0E00E946730861619
:203CA0009706A806B90608F445C0F60184858F5F84871DC0CE0101960E94E00D89819A8109
:203CC000AB81BC81F601828B938BA48BB58B168A178A108E118E87859089009759F10584DD
:203CE000F685E02D208127FF25C02EEC17C0CE0101960E94E00D89819A81AB81BC81F60125
:203D0000868B978BA08FB18FE12C0FEF1FEF980141E064858F2D0E94E01B0CC02983DC0197
:203D2000ED91FC910190F081E02DAE014F5F5F4F61E009952496CDBFDEBFDF91CF911F911C
:203D40000F91FF90EF90DF90CF90BF90AF909F908F900895FC01A585B6859C9193FF13C07A
:203D60008285882381F09770913019F4CF010C94BE1D911103C0CF010C94111D923019F42E
:203D8000CF010C94791C0895FF920F931F93CF93DF93EC01ED85FE859081898994FF16C05A
:203DA0008E010F5E1F4F282F2F70F22E82958F700E942E2C27E02F1538F0FC017096EF0DFF
:203DC000F11D80818F7B8083C80114C0182F1F7082958F700E942E2C183038F4FC017096CB
:203DE000E10FF11D8081806480838B85882329F0CE0141960E94C91B13C08989182F1F7022
:203E000082958F700E942E2C183050F4FC017096E10FF11D8081877C808380818061808317
:203E20001A8A1B8A1C8A1D8A1E8A1F8A188E198E1C86DF91CF911F910F91FF900895CF92FF
:203E4000DF92EF92FF921F93CF93DF93EC01162F6A0179010E94490C83EB90E28883998344
:203E600081E08A871B861C86CD86DE86EF86F88A198B103E20F4CE0141960E94392DCE015C
:203E800042960E94E00DCE0146960E94E00D81E08A83CE01DF91CF911F91FF90EF90DF9047
:203EA000CF900C94C41E0F931F93CF93DF931F92CDB7DEB78C01FC018081861749F06983E2
:203EC00041E050E0BE016F5F7F4FC8010E94E12BC8010F90DF91CF911F910F910895CF9338
:203EE000DF93EC01ED85FE85918194509F3288F48D859E85FC016081262F2770233020F0C9
:203F0000687F61600E94531FCE01DF91CF910C94C41E64E0CF0101960E94531FE9CFFC0150
:203F20008685FB01808381E00895CF93DF931F92CDB7DEB7DC011A96ED91FC911B973081E0
:203F4000232F2F77253688F059969C919F77232F2078922B391749F0998341E050E0BE0108
:203F60006F5F7F4FCF010E94E12B0F90DF91CF910895AF92BF92DF92EF92FF920F931F93B2
:203F8000CF93DF93EC01162F5A01D22E0E94490C8FEB90E2888399837E018CE0E80EF11CC8
:203FA000412F4F70612F62956F7024EC39E0C7010E94C62E0E94842F6C8B7D8B8E8B9F8B4E
:203FC000098F82E08A83AA86BB868C85182F1F7082958F700E942E2C183060F44096E12FEE
:203FE000F0E0E80FF91F8081DD2011F0806401C08F7B808360E070E0C7010E94202F1D8645
:204000008AEC888F1E8688EC8F87188A8AE0898B8A8B8FEF8B8B1C8A1D8A1E8A1F8ADF910E
:20402000CF911F910F91FF90EF90DF90BF90AF900895DC011A96ED91FC911B9720812F7797
:204040000C96222349F0629FB001112423E0759567952A95E1F707C0611103C060E070E02D
:2040600002C064EC79E00C94202FCF93DF93EC01FA018081893C50F48E871C8A1D8A1E8A16
:204080001F8A8081882379F189EC2EC08E3C39F468ECCE010E94192081E08D874AC08F3CBF
:2040A00011F41D8646C0663088F12181288B92819F878381898B84818A8B85818B8B808166
:2040C0008C3C41F40E94842F6C8B7D8B8E8B9F8B8CEC0AC08D3C51F4888D8C3C99F71C8AE9
:2040E0001D8A1E8A1F8A8AEC888F18C08B3CB1F4888D8A3C19F02E878AEC02C09E8789EC8C
:20410000888F1C8A1D8A1E8A1F8A08C08E85882311F01E86F6CF88EC8E87F3CFEA85FB85C0
:204120006081661F6627661FCE01DF91CF910C94A30CDF91CF9108950F931F93CF938C0169
:20414000DC011A96ED91FC911B97C081CF770C96CC2399F00E94002F23E0880F991F2A9592
:20416000E1F7D8011A96ED91FC911B9760816F7770E00E941D30C62F05C00E94002F892BDC
:2041800009F0C8EC8C2FCF911F910F9108950F931F93CF93DF93EC018C899D89AE89BF899B
:2041A000892B8A2B8B2B39F1CE0144960E94A62F672B682B692BF9F0CE010E949C206F85D3
:2041C00086132EC08A8924E6829FC0011124092E000CAA0BBB0B4C895D896E897F89840F19
:2041E000951FA61FB71F8C8B9D8BAE8BBF8B6889CE010E9419208D85811108C08C899D896C
:20420000AE89BF89892B8A2B8B2BB9F140E050E0BA01CE01DF91CF911F910F910C94D10CDF
:204220008B898823F1F0898924E6829FC0011124092E000CAA0BBB0B0C891D892E893F8933
:20424000800F911FA21FB31F8C8B9D8BAE8BBF8BCE010E9419208B898F3F69F281508B8BFC
:20426000CACF1C8A1D8A1E8A1F8A8E85681711F08AEC01C089EC888FBECF6E85CE010E94C0
:204280001920C4CF2F923F924F925F926F927F928F929F92AF92BF92CF92DF92EF92FF9214
:2042A0000F931F93CF93DF93CDB7DEB7C156D109CDBFDEBF4C01162F342EF22E942F990F24
:2042C000990F222311F083E001C082E0292E280EC12CD12CA12CB12C8BE09E012F5F3F4F23
:2042E0006E962EAF3FAF6E97D40112962C91129730E0A216B3060CF07BC01396ED91FC919B
:204300001497EC0DFD1D90819F3F09F46AC0911368C0CF0101960E949F012B013C016C96E9
:204320006CAF7DAF8EAF9FAF6C9720910A2030910B2040910C2050910D20A2962CAF3DAFD7
:204340004EAF5FAFA297D40113968D919C9114974216530664067506D1F4DC01AC0DBD1DDA
:2043600080917F21909180210097D1F1FC0120813181F90160807180E32C0F2D15962C91A3
:20438000412FBE01685A7F4FF301099529C0FC01EC0DFD1D05810E94842F6E96AEADBFAD2D
:2043A0006E97E7E51D92EA95E9F7FBE4F88B198B0A8B2B8A28EF2A87A2968CAD9DADAEADF0
:2043C000BFADA2978B879C87AD87BE874E825F826886798694E09F87CE0101960E944427DF
:2043E00080E0AFEFAA1ABA0AB6E0CB0ED11C7CCFCF59DF4FCDBFDEBFDF91CF911F910F91F1
:20440000FF90EF90DF90CF90BF90AF909F908F907F906F905F904F903F902F900895FC01E0
:2044200080938121909382218BEC90E28083918362834383548308952F923F924F925F927E
:204440006F927F928F929F92AF92BF92CF92DF92EF92FF920F931F93CF93DF93CDB7DEB741
:204460002697CDBFDEBF30910F203E1509F480C0F22E542E5B016C01E0920F2010E0CE010B
:2044800001964C0122242A948BECE82E9CEC492E2DEC322ED60112968C91181708F068C044
:2044A000B0E11B9F30011124D6011396ED91FC911497E60DF71D8481581258C08581F81277
:2044C00055C080819181A281B3818F3F9F4FAF4FBF4F09F44BC0CF010E949F01D5012D91E7
:2044E0003D914D915C916217730784079507F1F5F40126E011922A95E9F72982D6011396BB
:20450000ED91FC911497E60DF71D90859A8327812B8383858C8384858D8385858E830023E8
:2045200049F092859A8321852B83868186958695869501C086818770833081F038F48823A8
:2045400059F0813099F4998361E00CC0843041F0853061F4398205C02983F6CFE98201C09F
:20456000498266E0A4018F2D0E94AC101F5F92CF2696CDBFDEBFDF91CF911F910F91FF90F8
:20458000EF90DF90CF90BF90AF909F908F907F906F905F904F903F902F900895FC018093DB
:2045A0007F219093802181ED90E2808391836283438354830895FC01208120FF17C0458127
:2045C00056816781708580910A2090910B20A0910C20B0910D20481759076A077B0741F0F2
:2045E00081E04F3F5F4F6F4F7F4F19F080E0089581E0089521E0FC01458156816781708516
:2046000080910A2090910B20A0910C20B0910D20481759076A077B0709F020E0822F08954F
:2046200021E0FC01428553856485758580910A2090910B20A0910C20B0910D2048175907E9
:204640006A077B0709F020E0822F0895CF93CFB7F8940E94B92A80918321882319F08150ED
:2046600080938321CFBFCF910895DF92EF92FF920F931F93CF93DF937C01DFB6F894FC01B2
:20468000C685C15FD0E0CE010796887F0E94BB2A8C01009749F0AE01B7010E940432809158
:2046A00083218F5F80938321DFBEC801DF91CF911F910F91FF90EF90DF900895FB0198E09D
:2046C000408151819A01220F331F87FD21602083318357FF08C02081318142E0242740E1CE
:2046E000342720833183880F915051F70895DC01FB0154968C915497808353968C915397ED
:2047000081831F968C91828383E008950F931F93CF93DF93CDB7DEB72897CDBFDEBF8C0108
:20472000DC015B968D919C915C97FC012081253648F022E0288741E050E0BE01685F7F4FE6
:204740000E94E12BD8015B968D919C915C97FC0121812B3F50F025E02F8341E050E0BE0193
:20476000695F7F4F01960E94E12BD8015B968D919C915C97FC01228133812115310529F07D
:20478000255031092C303E40F0F5D8015B968D919C915C97FC01248135812115310529F0C6
:2047A000255031092C303E40D8F5D8015B96ED91FC915C9784819581009729F022813381B9
:2047C00082179307D0F10E94842FD8015B96ED91FC915C97428120E030E0342F330F330F0E
:2047E000DC01CB01820F931FA11DB11DF80186839783A087B1872896CDBFDEBFDF91CF910F
:204800001F910F9108952AE030E02D833E8342E050E0BE016B5F7F4F02960E94E12BB5CFAD
:2048200026E930E02B833C8342E050E0BE016D5F7F4F04960E94E12BB8CF19821A8242E019
:2048400050E0BE016F5F7F4FCF0104960E94E12BBACFEF92FF920F931F93CF93DF93EC0105
:204860007B018A010E94490C87ED90E288839983EA86FB8681E08D871F86188A8DE495E991
:204880008B8B9C8B8D8B9E8B0E94842F86E08A830B8F1C8F1F8A188E198E1A8E1E86DF91DB
:2048A000CF911F910F91FF90EF9008958FEFA42FB0E0119631E3E42FF0E0AE17BF077CF027
:2048C000E60FF71F9081892798E087FF03C0880F832701C0880F9150C1F74F5FECCF82131B
:2048E00002C080E0089582E00895EF92FF920F93CF93DF93CDB7DEB72697CDBFDEBF7C01F6
:20490000FC018285938501E026E030E0AE014F5F5F4F64E401960E94E32C069789F52B8122
:2049200040E0BE016F5F7F4FC7010E945624811127C0298130E0322F22278A81282BACE54C
:20494000B4E40E94673084599141F701838B948B2E8143E0BE016F5F7F4FC7010E945624A1
:20496000482F81110DC02C8130E0322F22278D81282BA4E6B0E00E946730F701878701C07F
:2049800042E0842F2696CDBFDEBFDF91CF910F91FF90EF9008950F93CF93DF9300D0CDB778
:2049A000DEB769837A83FC018285938501E022E030E0AE014F5F5F4F64E401960E94A12C11
:2049C000029711F480E001C082E00F900F90DF91CF910F910895EF92FF920F93CF93DF93E3
:2049E000CDB7DEB72697CDBFDEBF7C0167E370E80E94CB2481111DC0F7018285938501E0A1
:204A000026E030E0AE014F5F5F4F64E401960E94E32C069771F42B8140E0BE016F5F7F4FBC
:204A2000C7010E945624811104C029813A81232B09F482E02696CDBFDEBFDF91CF910F91D5
:204A4000FF90EF9008956CE276E00E94CB24811182E0089560E372EA0E94CB24EFE9FFE0FE
:204A60003197F1F700C0000008958F929F92AF92BF92FF920F931F93CF93DF9300D01F920B
:204A8000CDB7DEB7DC0151962D913C915297232B09F42EC1F62E8C0147960E94A62FF8018D
:204AA000218932894901A12CB12C681579058A059B0508F41DC10E94842FF801678B708F5A
:204AC000818F928F86858230B1F4C8010E942325811109C084E190E0D80151968D939C9351
:204AE000529783E005C088EE93E069C082E0D8011E968C93FDC0833008F465C0833009F048
:204B0000F4C0C8010E94752481117AC08AE0F801848785E08687D8015B96ED91FC915C9769
:204B200084819581892B09F486C0C80106960E94A62FD8015B96ED91FC915C97AB01BC0156
:204B40008AE076956795579547958A95D1F78481958122813381821B930BA0E0B0E0481719
:204B600059076A077B0708F466C0D801ED91FC910280F381E02DBE016F5F7F4FC801099517
:204B8000F8018585882309F489C0D8011D961C928091842190918521009709F47FC0DC01BA
:204BA000ED91FC910190F081E02D22E0AE014F5F5F4F6F2D0995811171C084EF91E0F801F4
:204BC000818B928B95C0811193C0C8010E94EB24882321F080E197E2D8010DC08AE0F80159
:204BE000848782E0868771CF82E0D8011E968C931E9788E893E151968D939C93529778C0FD
:204C000088EE93E0D80151968D939C9352971C968C911C9781501C968C93811167CFC801FE
:204C20000E942A2585E0F80186878DE495E9838B948B17865DC0D8015B96ED91FC915C977A
:204C40002081222399F0D8011F968C911F9790E050963C91831B910997FF03C09195819594
:204C6000910930E0821793070CF07FCF2181222381F1F8018389948945895689841B950BA6
:204C800097FF03C0919581959109FAE02F9F90011124821793070CF068CF1BC0D8015B966C
:204CA000ED91FC915C97828140E050E0582F550F550F60E070E0C8010E94D10C882349F098
:204CC00081E0F801858783899489858B968B8785808BD80153968D919C9154978D34954966
:204CE00009F082CFF801168603C0853009F413CF2396CDBFDEBFDF91CF911F910F91FF90ED
:204D0000BF90AF909F908F9008952F923F924F925F926F927F928F929F92AF92BF92CF925F
:204D2000DF92EF92FF920F931F93CF93DF93CDB7DEB7CE55D109CDBFDEBF6C0169966FAFFF
:204D400069976C964EAF5FAF6C9700E010E0E12CF12C8BE0AE014F5F5F4F1A01A22FB0E057
:204D60006E96AEAFBFAF6E972D5F6F962FAF6F97F601228130E0E216F3060CF061C00380AF
:204D8000F481E02DE00FF11F90819F3F09F452C069962FAD699792134DC0CF0101960E94FE
:204DA0009F012B013C0180900A2090900B20A0900C20B0900D20681579058A059B05C9F1B8
:204DC000D6011396ED91FC911497E00FF11FB5816A96BFAF6A970E94842FF10127E5119203
:204DE0002A95E9F744EB488B69965FAD6997598B6A968FAD6A978A8B6E964EAD5FAD6E97C1
:204E00006C966EAD7FAD6C97CE0143960E94043298EF9A878B869C86AD86BE864E825F82C3
:204E2000688679866F96AFAD6F97AF87C1010E94442780E0BFEFEB1AFB0A0A5F1F4F98CFC3
:204E4000C25ADF4FCDBFDEBFDF91CF911F910F91FF90EF90DF90CF90BF90AF909F908F9007
:204E60007F906F905F904F903F902F900895FC01809384219093852183EE90E280839183B3
:204E800062834383548308951F93CF93DF93EC010E945129182F888181FF13C0CE01059657
:204EA0000E949F016D837E838F839887CE010A960E949F016A877B878C879D8788818D7F9E
:204EC00088838881982F969596959F5F9370990F990F837F892B88830E94842FDC01CB0191
:204EE0008A569F4FAF4FBF4F89839A83AB83BC83898580FD33C08D819E81AF81B8858F3F5C
:204F00009F4FAF4FBF4F51F18881869586958370813021F58091A621803100F5CE010E946D
:204F200035230097D9F0E091A621A6E8B1E220E0E21739F04D915D918417950779F02F5F44
:204F4000F7CFE03158F421E02E0F2093A621F0E0EE0FFF1FEA57FE4D80839183812FDF91C8
:204F6000CF911F910895CF93DF93CDB7DEB76397CDBFDEBFE7EAF1E28FEF828B118A108A10
:204F80008B8B1A8A198A1092A6216396CDBFDEBFDF91CF910895CF93DF93FC01208121FF2A
:204FA00013C0EC0105960E949F016D837E838F839887CE010A960E949F016A877B878C877B
:204FC0009D8788818D7F8883DF91CF910895CF93C82F0E94842F60931F22709320228093E6
:204FE00021229093222280911722CC3F21F481608093172279C0CD3FD1F482608E7F809364
:205000001722109215228FEF9FEF80931322909314228091BA218E7F82608093BA21109266
:20502000C82163E172E28DEF0E945E235DC081FF5BC080FF04C0C0688E7F8093172263E190
:2050400072E28C2F0E945E2340911522E42FF0E0E154FE4DC083443049F48091C321982F03
:2050600097709330C9F183FF37C039C08091C821493041F4893498F1809117228D7F8093E3
:2050800017222DC050E060E070E090E0A0E0B0E00996A11DB11D481759076A077B07F9F4E0
:2050A0008091132290911422892BC9F48AEB91E20E94CB278091C82182508093C82180918D
:2050C00017228D7F809317228091BA2181608093BA218AEB91E20AC088E08093152280910F
:2050E00015228F5F8093152280E090E0CF9108950F931F93CF93DF93C0911822D091192225
:20510000209709F4BCC08C0190911C2280911E2291112EC081FD2CC0826080931E228FEF75
:205120009FEF80931A2290931B22888181FD13C0CE0105960E949F016D837E838F8398870A
:20514000CE010A960E949F016A877B878C879D87888182608883888184FD02C08DEF01C0F5
:205160008EEFF80180836AE172E20E945E2382C081FF82C0888184FF84C0911182C0F80143
:20518000108283E080931C2240911C22443049F48985982F9770933009F47AC083FF78C079
:2051A00017C0493029F4F80180818E5F808310C050E060E070E08E8590E0A0E0B0E00B96D4
:2051C000A11DB11D84179507A607B70708F457C080911E2280FD40C06AE172E2F801808127
:2051E0000E945E2340911C2250E060E070E08E8590E0A0E0B0E00996A11DB11D4817590740
:205200006A077B07E1F46AE172E280E00E945E236AE172E280E00E945E23259680911C2278
:205220008F5FFE01E80FF11D80911B22808380911C228E5FC80FD11D80911A228883F801D9
:2052400080818C5F833088F480911E22816080931E228CEF80830EC0F80180818F7780835F
:2052600080911E228E7F80931E2280911C228F5F80931C2281E010C0CE010E94CB2780E0FB
:205280000BC0FE01E90FF11D8581F80180837CCF88E080931C229CCFDF91CF911F910F91AD
:2052A0000895EF92FF920F931F93CF93DF931F92CDB7DEB77C018091242290912522892B5D
:2052C000E9F00E94F431182F0FB7F8948FE192E20E94A62F0FBF212F2F70295F022F10E0D4
:2052E00020E030E0061717072807390748F0D70119968C918770813021F702C081E06FC006
:20530000E0921822F092192210921C2280911E228D7F80931E22D70119968C9180FD06C0AD
:20532000F7019081969596959370B1F18091242290912522DC01ED91FC910190F081E02DB3
:2053400061E0099510E0CE0101960E947828A0912422B0912522882389F089811296ED9183
:20536000FC911397948193FD05C012E0ECCF948193FF1BC0918195FFFACF17C01296ED91F1
:20538000FC911397818180648183818186FD0FC0848183FF0CC0F9CF909123229370990F6C
:2053A000897F892BF7018187C1CF8083CCCFED91FC9111970190F081E02D60E0CD01099595
:2053C00011110AC0F701818580FD08C0809123228F5F8093232202C0812F01C080E00F90D0
:2053E000DF91CF911F910F91FF90EF90089510921F221092202210922122109222220E94AE
:20540000842F87E5EAEBF1E2DF011D928A95E9F708957F928F929F92AF92BF92CF92DF92D3
:20542000EF92FF920F931F93CF93DF9300D01F92CDB7DEB75C014B01742EF22E10E0D50167
:2054400012968C91181708F041C0B6E31B9F60011124D5011396ED91FC911497EC0DFD1D2E
:205460008481871131C085818F112EC080819181A281B3818F3F9F4FAF4FBF4F29F1CF01EE
:205480000E949F01D4012D913D914D915C916217730784079507C1F4E982F5018381948155
:2054A000C80ED91E002321F0FEE1CF0ED11C03C026E0C20ED11CCA82DB82AE014F5F5F4F08
:2054C00063E08F2D0E94AC101F5FB9CF2396CDBFDEBFDF91CF911F910F91FF90EF90DF90EA
:2054E000CF90BF90AF909F908F907F900895FC0180937F219093802189EE90E28083918351
:20550000628343835483089508951F93CF93DF93EC010E94632D182F888182958F700E9422
:205520002E2CFC011683DF91CF911F9108951F93CF93DF93EC010E94632D182F8881829552
:205540008F700E942E2CFC011583DF91CF911F910895009769F0209110203091112042E2B7
:2055600085349407E0F382179307C8F70C941F3108950C94A92ACF93DF93EC010E948730F8
:20558000209110203091112042E285349407E0F382179307C8F72197C80FD91F42E2C53457
:2055A000D407E0F3C217D307C8F7DF91CF9108950C94BB2A8111FFCF80E092E00895811574
:2055C000924099F4809126228F3F79F0811108C09FB7F894809171008D7F809371009FBF30
:2055E000809126228F5F8093262208951F93CF93DF93E0ECF1E022851FB7F8948287A8E4AB
:20560000B0E04C919C918C91809589238C93C0EAD0E038819A818A81887F84608A838C91A5
:2056200081608C93858558ED54BF51E0538753E05587789488954C9338839A838587228759
:205640000E94100E1FBFDF91CF911F9108950E94100E8091CF0181FF03C086E30C94F62A82
:205660000895CF93DF93D82FC091CA010E94272B83E38093CA011092C2011092C10180E035
:205680008093C001D093C4018F5F8032C9F7C093CA01DF91CF910C94100E8F929F92AF926F
:2056A000BF92CF92DF92EF92FF920F931F93CF93DF938C015B017A0190518115944018F0D6
:2056C00080E090E034C0CA019051800F911F81159440B0F7C12CD12C80E2982EE114F1040E
:2056E00029F1802E802F8F71C92DC81B8C2F90E0E816F90608F4CE2D0E94272BD0E0AE01E8
:20570000B501C8010E9404321092C2011093C1018092C00185E30E94F62AAC0EBD1EEC1AD0
:20572000FD0ACC0EDD1E0C0F1D1FD8CFC601DF91CF911F910F91FF90EF90DF90CF90BF907D
:20574000AF909F908F9008950F931F93CF93DF931F92CDB7DEB78C0169838091CC0183FF54
:2057600011C0011580E1180708F4105F41E050E0BE016F5F7F4FC8010E944D2B21E0892B13
:20578000C9F404C0011584E0180710F020E012C00E94272B83E38093CA011092C2011093DD
:2057A000C1010093C00189818093C40185E30E94F62A21E0822F0F90DF91CF911F910F9156
:2057C0000895EF92FF920F931F93CF93DF938A012091CC0123FF0EC0811520E1920708F4CD
:2057E000905FA801DF91CF911F910F91FF90EF900C944D2B7B01EC01C61BD70BCE018E0D35
:205800009F1D0115110551F0F70161917F010E94A42B882331F001501109F0CF80E090E0BE
:2058200001C0C801DF91CF911F910F91FF90EF9008951F920F920FB60F9211248F93EF9382
:20584000FF93E0ECF1E085858C7F8587FF91EF918F910F900FBE0F901F9018958D3048F468
:20586000E82FF0E0EE0FFF1FE551FF4D80819181089587E292E208958FEF80932F220895FB
:20588000CF92DF92EF92FF920F931F93CF93DF939C01240F351F2130314098F48A01EB0113
:2058A0006B01C40ED51E7C01E61AF70AB7016C0F7D1FCC15DD0541F081E00E946E2C8993BD
:2058C000F5CF80E090E001C0C801DF91CF911F910F91FF90EF90DF90CF9008954091CA0175
:2058E000E62FF72F8093CA0184914093CA010895611110C0833059F028F48230B9F480E026
:2059000098E00895843091F480E09AE0089580E099E00895613051F4833029F08D3031F0CC
:20592000823021F406C080E499E0089580E090E0089580E498E00895FC019381907CE9F381
:205940000895AF92BF92CF92DF92EF92FF920F93CF93DF93EC019B8193709130B1F46901E2
:205960007A01660F6D83CE010E949C2C5701E12CF12C8B8180FD03C0EC14FD0449F40111F0
:2059800015C08B8180FD12C013C080E090E011C0F50181915F018E83CE010E949C2C8B81A5
:2059A00080FDEDCF8FEFE81AF80AE3CF83E08A83C701DF91CF910F91FF90EF90DF90CF90F6
:2059C000BF90AF900895AF92BF92CF92DF92EF92FF920F931F93CF93DF93EC018B81837012
:2059E000813039F08B818370823019F080E090E02EC0B02E79018A01660F61606D83CE017D
:205A00000E949C2C8E81F80181936F0101E010E082E0A82E8B8180FD03C00E151F0530F0D4
:205A2000B11012C08B8180FD0FC010C0AA82CE010E949C2C8B8180FDF3CF0F5F1F4F8E8110
:205A4000F60181936F01E6CF87E08A83C801DF91CF911F910F91FF90EF90DF90CF90BF908E
:205A6000AF9008956295607F4F70642BFC0160830895CF93DF93FC018081982F9F70C1E060
:205A8000D0E001C0CC0F9A95EAF782958F700E942E2CFC01C283DF91CF910895CF93DF9315
:205AA000FC018081982F9F70C1E0D0E001C0CC0F9A95EAF782958F700E942E2CFC01C183C2
:205AC000DF91CF910895FC0190819F7081E001C0880F9A95EAF70895CF93DF93EC0188810C
:205AE00082958F700E942E2CFC01308528812F7081E090E001C0880F2A95EAF78323DF91BB
:205B0000CF9108950F931F93CF93DF931F92CDB7DEB78C016983CE0101960E94632DF8018C
:205B20008083898182958F700E942E2CF8018183928330812FB7F8943093B00038E1FC0188
:205B4000308B2FBF0F90DF91CF911F910F910895FC018081A181B28116968C938081A181FF
:205B6000B28111968C938FEB92E10197F1F700C000009FB7F8948081A181B28112968C9300
:205B8000AFE0B2E01197F1F700C000002081A181B28118968C919FBFAFEEBCE01197F1F7AC
:205BA00000C00000A181B28118963C919081932311F08223089581E00895FC01862F2FB7B5
:205BC000F8949081A181B28111969C9395E19A95F1F70000662329F09081A181B2811296C0
:205BE0009C93AAE8AA95F1F700C0A181B28118963C919081932309F480E0A7E6B1E0119743
:205C0000F1F700C0000090810180F281E02D9283BAE6BA95F1F700C02FBF08950F931F933F
:205C2000CF93DF938C01C62FD8E06C2F6170C8010E94DD2D2C2F30E035952795C22F811101
:205C4000C068D15091F78C2FDF91CF911F910F910895BF92CF92DF92EF92FF920F931F9372
:205C6000CF93DF937C01C62E8A010E94A82D81113BC060EFC7010E940E2ED0E0C0E498EF80
:205C8000B92EBC0E61E0C7010E94DD2DD82E61E0C7010E94DD2D882319F0DD2071F026C0EB
:205CA000D1100BC0CC1530F0F801808180FF05C0CC1519F0DC2FDD24D3946D2DC7010E9498
:205CC000DD2DF801208130E035952795DD2011F02068F8012083C150CB11D4CF0F5F1F4FFC
:205CE000C111CDCF8D2F03C08FEF01C08EEFDF91CF911F910F91FF90EF90DF90CF90BF90B0
:205D00000895CF92DF92FF920F931F93CF93DF93EC01F62E8A010E94A82D0115110591F09B
:205D200065E5CE010E940E2E680188E0C80ED11CF80161918F01CE010E940E2E0C151D056D
:205D4000B9F704C06CECCE010E940E2E6F2DCE01DF91CF911F910F91FF90DF90CF900C9442
:205D60000E2EFC018081282F2F7030E02430310514F460E004C0263031052CF461E0829549
:205D80008F700C94782C80E090E008950F931F93CF93DF93EC0189010E94322D8881803EEC
:205DA00018F4CE010E94392D8881803E18F4CE010E944E2DCE010E94B12EFC01892BD9F077
:205DC0008081807F816080838181887F8360818306A317A388818F70843008F08450418142
:205DE00020E130E0B90102C0660F771F8A95E2F7CB01842B8183DF91CF911F910F910895D7
:205E0000CF93DF93EC010E94B12E009721F0FC012081211105C0CE010E946C2D90E00DC0BC
:205E200028812F70243008F02450C896FC01E20FF11DE20FF11D80819181DF91CF91089581
:205E40000F931F93CF93DF93EC018B010E94B12EFC0198819F70943008F094503097D9F0CB
:205E6000492F50E09A01220F331FDF01D896A20FB31F0D931C9380818823E1F00115110593
:205E8000C9F0818120E130E0092E01C0220F0A94EAF7282B19C0CE01012B31F0DF91CF9176
:205EA0001F910F910C94972ADF91CF911F910F910C94852A818120E130E0092E01C0220F86
:205EC0000A94EAF7209528232183218140E150E0BA0102C0660F771F9A95E2F7CB0130E040
:205EE00082239323892BB9F2DF91CF911F910F9108959091010490FDFCCF90910004987F71
:205F0000892B80930004089531E02FB7F8944091030440FF0CC040913F22509140224F5F90
:205F20005F4F40933F2250934022309303044091080450910904BA012FBF2091030420FD27
:205F4000E4CF80913F22909140220895CF92DF92EF92FF920F931F93CF93DF93EC010E9461
:205F6000842F088119812A813B816B017C01C01AD10AE20AF30A601771078207930760F4F7
:205F8000C701B601615071098109910997FF06C060E070E0CB0102C0C701B601DF91CF916A
:205FA0001F910F91FF90EF90DF90CF9008951F93CF93DF93182FEB0180E00E94792F8091A4
:205FC00043008E7F80934300153031F4C115D04219F483E09EE002C081E094E02091430050
:205FE000217F2160922B9093430020910804309109043C5F40910804509109049091010446
:2060000090FDFCCF6FEF7FEF60930A0470930B049091010490FDFCCF4093080450930904FC
:206020009091010490FDFCCF20930C0430930D04DF91CF911F910C94792FAA1BBB1B51E1B6
:2060400007C0AA1FBB1FA617B70710F0A61BB70B881F991F5A95A9F780959095BC01CD0125
:20606000089597FB072E16F4009407D077FD09D00E941D3007FC05D03EF4909581959F4FD8
:206080000895709561957F4F0895A1E21A2EAA1BBB1BFD010DC0AA1FBB1FEE1FFF1FA21745
:2060A000B307E407F50720F0A21BB30BE40BF50B661F771F881F991F1A9469F76095709543
:2060C000809590959B01AC01BD01CF010895A29FB001B39FC001A39F700D811D1124911DCD
:2060E000B29F700D811D1124911D08950E946730A59F900DB49F900DA49F800D911D1124F7
:206100000895EE0FFF1F0590F491E02D09940F931F93CF93DF938230910510F482E090E0BD
:20612000E0914322F091442220E030E0A0E0B0E0309719F140815181028113814817590748
:20614000C8F08417950769F4109731F012960C93129713961C9327C00093432210934422FB
:2061600022C02115310519F04217530718F49A01BD01EF01DF01F801DBCF21153105F9F0E8
:20618000281B390B2430310580F48A819B816115710521F0FB018283938304C08093432203
:2061A00090934422FE01329644C0FE01E20FF31F8193919322503109288339833AC0209193
:2061C000412230914222232B41F4209102203091032020934122309342222091002030912E
:2061E00001202115310541F42DB73EB74091042050910520241B350BE0914122F0914222D1
:20620000E217F307A0F42E1B3F0B2817390778F0AC014E5F5F4F2417350748F04E0F5F1FEB
:2062200040934122509342228193919302C0E0E0F0E0CF01DF91CF911F910F910895CF9368
:20624000DF93009709F481C0FC01329712821382A0914322B0914422109781F4208131815C
:20626000820F931F20914122309142222817390751F5E0934122F093422267C0ED0120E00B
:2062800030E0CE17DF0740F44A815B819E0141155105F1F0EA01F5CFC283D383408151813F
:2062A000840F951FC817D90759F488819981840F951F0296808391838A819B818283938330
:2062C0002115310529F4E0934322F09344223DC0E901EA83FB8349915991C40FD51FEC1714
:2062E000FD0761F480819181840F951F0296E90188839983828193818A839B83E0E0F0E070
:2063000012968D919C911397009719F0FD01DC01F7CF8D919C9111979D012E5F3F4F820F62
:20632000931F20914122309142222817390769F4309729F4109243221092442202C012824D
:206340001382A0934122B0934222DF91CF9108958F929F92AF92BF92CF92DF92EF92FF9236
:20636000CF93DF93EC01688179818A819B81611571058105910521F464E279ED8BE597E0A2
:206380002DE133EF41E050E00E94143249015A019B01AC01A7EAB1E40E9476306B017C014F
:2063A000ACEEB4EFA50194010E943632DC01CB018C0D9D1DAE1DBF1DB7FF03C00197A109FD
:2063C000B04888839983AA83BB839F77DF91CF91FF90EF90DF90CF90BF90AF909F908F9095
:2063E00008950E94A831089586E090E20E94A8310895A0E0B0E08093062090930720A09332
:206400000820B09309200895FB01DC0102C001900D9241505040D8F70895DC0101C06D9355
:2064200041505040E0F70895052E97FB1EF400940E942B3257FD07D00E94453007FC03D045
:206440004EF40C942B3250954095309521953F4F4F4F5F4F089590958095709561957F4F4E
:206460008F4F9F4F0895B7FF0C9476300E947630821B930B0895F894FFCF000045222000B6
:2064800001000000003D8F6001FF452ACC00C80202FFCC00C80505FFFF00000000842A84FB
:2064A0002A60026202000000000D030A0303031603000000004B0448045204F906000000C0
:2064C000004B0448045204F906000000004B0448045204F906000000004B0448047C07833B
:2064E0000700000000440CCE08D808F60900000000440C450CC50ABB0A00000000DE0B5C16
:206500000B760B660B00000000440C450C470C480C00000000B9172E1496177015000000F2
:2065200000440C4618F419501800000000440C450CAA1E6F1F0000000035208F1FC72095C2
:206540001F000000004221000000001C2200000000440C77233525862300000000852600E3
:20656000000000092A000620064006600680062722272227222722272227222722E00700A4
:0465800050402A005D
:00000001FF
