:200000000C940F010C9475010C9475010C9475010C9475010C9475010C9475010C94750196
:200020000C9475010C9475010C9475010C9475010C9475010C9475010C9475010C94750110
:200040000C9475010C9475010C9475010C9475010C9475010C9475010C9475010C947501F0
:200060000C9475010C9475010C9475010C9475010C9475010C9475010C9475010C947501D0
:200080000C94A52D0C9475010C9475010C9475010C9475010C9475010C9475010C94750154
:2000A0000C9475010C9475010C9475010C94DA020C9475010C9475010C9475010C9475012A
:2000C0000C9475010C9475010C9475010C9475010C9475010C9475010C9475010C94750170
:2000E0000C9475010C9475010C9476020C9475010C9475010C9475010C9475010C9475014E
:200100000C9475010C9475010C9475010C9475010C9475010C9475010C9475010C9475012F
:200120000C9475010C9475010C9475010C9475010C9475010C9475010C9475010C9475010F
:200140000C9475010C9475010C9475010C9475010C9475010C9475010C9475010C947501EF
:200160000C9475010C9475010C9475010C9475010C9475010C9475010C9475010C947501CF
:200180000C9475010C9475010C9475010C9475010C9475010C9475010C9475010C947501AF
:2001A0000C9475010C9475010C9475010C9475010C9475010C9475010C9475010C9475018F
:2001C0000C9475010C9475010C9475010C9475010C9475010C9475010C9475010C9475016F
:2001E0000C9475010C9475010C9475010C9475010C9475010C9475010C947501244D4F4461
:2002000024204842572D444556202000F86800000256B0DE56020B030629812BC82D1124BC
:200220001FBECFEFCDBFDFE2DEBF80E08CBF67E280E890E00E9457028091820080FDFCCF97
:2002400060E081E490E00E945702809150008660809350008091510086708630D9F7609115
:200260004000687F616080E490E00E94570280914000809150008E7F809350008091500044
:200280008091600081608093600011E2A0E0B0E2E2EFF7E602C005900D92A630B107D9F792
:2002A00022E2A6E0B1E201C01D92A634B207E1F7E6E4F2E288E49AE28193E634F907E0F3BF
:2002C00083E590E38193E030F907E0F311E0CFE0D1E004C02197FE010E943D32CB30D1079C
:2002E000C9F70E940C020C94F7330C940000CF93FC01680F791F2CEB31E652ECADE9B3E21F
:20030000C6E48CE8E617F707B9F09191942790FF02C04EE501C040E091FD422792FD4327E9
:2003200093FD452794FD4A2795FD4B2796FD4C2797FFE8CF4827E6CF842FCF910895FC0197
:20034000638172818181908108950F931F93CF93DF9300D000D0CDB7DEB76115710509F44C
:2003600053C0DB01182F6093792170937A2160932522709326221296ED91FC9113971782A1
:2003800087E6868383E2858388E184831296ED91FC91139793819F7C9061938390917B21BA
:2003A000916090937B21ED91FC910280F381E02DCB01099510937E2180937C2190937D2162
:2003C000FC0186819781A085B18589839A83AB83BC83CE0101960E949F018B019C011D53CF
:2003E0002F483046003816492849310540F460930A2070930B2080930C2090930D208091B3
:200400007B21826080937B212496CDBFDEBFDF91CF911F910F910895CF93DF93CDB7DEB722
:200420006897CDBFDEBF60E074E082E00E9493318091CF0187FDFCCF8091CC01886080932F
:20044000CC0148E150E0BE016F5F7F4F80E090E00E94CC2D489711F080EB8F8B8F890E9491
:20046000E4078C01BC018F890E94A501D801ED91FC910280F381E02DC8010995FC01868195
:2004800097810E94B5338091A2008F7B9FB7F8941BBE28ED24BF8093A2009FBF8091A20084
:2004A00087608093A20078940E94A914FDCFFC019FB7F8941BBE88ED84BF60839FBF08951B
:2004C00080E00895089523E230E2FC012083318320EA3AE022833383E0E8F6E081858C7FE9
:2004E0008160818782858460828708951F920F920FB60F9211242F933F934F935F936F932B
:200500007F938F939F93AF93BF93CF93DF93EF93FF938091A00A0E947929EC010097B9F1CC
:200520000E942D2481112EC089858770833041F4CE010E944D24882351F10E943E2927C09C
:20054000CE010E9491249C01892BE1F08091B7218830C1F09091B9219F5F9093B9219091EA
:20056000B92197709093B9219091B7219F5F9093B721E091B921F0E0EE0FFF1FE955FE4DEC
:200580002083318380918A06846080938A06FF91EF91DF91CF91BF91AF919F918F917F910C
:2005A0006F915F914F913F912F910F900FBE0F901F9018951F920F920FB60F9211242F93C5
:2005C0003F934F935F936F937F938F939F93AF93BF93EF93FF930E94403160931F2270931B
:2005E00020228093212290932222E0E8F6E082858B7F8287FF91EF91BF91AF919F918F9154
:200600007F916F915F914F913F912F910F900FBE0F901F901895E0E8F6E084E0828388E094
:20062000828381830895809108068295817091E08927089580E090E1089581E0662319F0CE
:200640008093E50708958093E6070895CF93C62F80910A2181110DC00E9440316093062142
:2006600070930721809308219093092181E080930A21C53050F4C23078F4CC2349F0C13077
:2006800059F582E08093E50727C0C53079F024C082E08093E60720C086E091E20E94623132
:2006A000653F714081059105B8F009C086E091E20E946231693C71058105910568F082E059
:2006C0008093E7070E94403160930621709307218093082190930921CF910895CF92DF9269
:2006E000EF92FF920F93CF93DF9300D0CDB7DEB77C016B010E9463028FE290E2F7018083BB
:20070000918340E060E0CE0101960E94BE2E20E030E040E150E16981C70104960E94DA1F28
:2007200041E060E0CE0101960E94BE2E20E030E042E150E16981C70185960E94DA1F42E076
:2007400060E0CE0101960E94BE2E20E030E044E150E16981C7018A5B9F4F0E94DA1F43E0BC
:2007600060E0CE0101960E94BE2E20E030E046E150E16981C70189599F4F0E94DA1F40E0A0
:200780006DE0CE0101960E94BE2E40E062E0CE0102960E94BE2E08E028E130E149816A810A
:2007A000C70188579F4F0E94791541E06DE0CE0101960E94BE2E41E062E0CE0102960E94A6
:2007C000BE2E2AE130E149816A81C70186559F4F0E94791542E06DE0CE0101960E94BE2E38
:2007E00042E062E0CE0102960E94BE2E2CE130E149816A81C70184539F4F0E94791543E0ED
:200800006DE0CE0101960E94BE2E43E062E0CE0102960E94BE2E2EE130E149816A81C701A0
:2008200082519F4F0E94791540E250E16EE1C701805F9E4F0E94322344ED50E16FE0C70121
:200840008B5E9E4F0E94032CE0EEF7E081E08283818382E08283818380E180930206E1EF2B
:20086000F7E0808180648083E4E1F6E08081877C8083808188618083F701148A15AAEA5A91
:20088000FF4F1082B196108260E082E00E94042EFC018181887F8360818380ECC81A89EF76
:2008A000D80AC6A2D7A28081807F816080830F900F90DF91CF910F91FF90EF90DF90CF9007
:2008C000089580E090E1089585589B4F61110C94232C0C94112CCF93DF93EC0180569F4F83
:2008E0000E94252F811107C0CE018F539F4F0E94252F91E0811190E0892FDF91CF9108957C
:20090000CF93DF931F92CDB7DEB7DC011F966C931F9756968D919C915797009779F061115B
:200920000DC02DEF2983DC01ED91FC910190F081E02DAE014F5F5F4F61E009950F90DF9132
:20094000CF9108958F929F92AF92BF92CF92DF92EF92FF920F931F93CF93DF931F92CDB775
:20096000DEB77C01C62EB42E122FD02E0E9463028BE390E2F7018083918340E060E0CE012B
:2009800001960E94BE2E20E030E040E150E16981C70104960E94DA1F41E060E0CE01019622
:2009A0000E94BE2E20E030E042E150E16981C70185960E94DA1F42E060E0CE0101960E9473
:2009C000BE2E20E030E044E150E16981C7018A5B9F4F0E94DA1F43E060E0CE0101960E943A
:2009E000BE2E20E030E046E150E16981C70189599F4F0E94DA1F44E060E0CE0101960E941A
:200A0000BE2E20E030E048E150E16981C70188579F4F0E94DA1F45E060E0CE0101960E94F9
:200A2000BE2E20E030E04AE150E16981C70187559F4F0E94DA1F40E061E0CE0101960E94DE
:200A4000BE2E20E030E04CE150E16981C70186539F4F0E94DA1F41E061E0CE0101960E94BE
:200A6000BE2E20E030E04EE150E16981C70185519F4F0E94DA1F42E061E0CE0101960E949E
:200A8000BE2E20E030E040E250E16981C701845F9E4F0E94DA1F43E061E0CE0101960E947E
:200AA000BE2E20E030E042E250E16981C701835D9E4F0E94DA1F46E062E0CE0101960E945B
:200AC000BE2E20E030E044E250E16981C701825B9E4F0E94DA1F47E062E0CE0101960E943B
:200AE000BE2E20E030E046E250E16981C70181599E4F0E94DA1F40E062E0CE0101960E9423
:200B0000BE2E04E6212F48E250E16981C70180579E4F0E94EA2041E062E0CE0101960E94C7
:200B2000BE2E212F4AE250E16981C70185559E4F0E94EA2042E062E0CE0101960E94BE2E9F
:200B4000212F4CE250E16981C7018A539E4F0E94EA2043E062E0CE0101960E94BE2E212F15
:200B60004EE250E16981C7018F519E4F0E94EA2044E062E0CE0101960E94BE2E212F40E31C
:200B800050E16981C70184509E4F0E94EA2045E062E0CE0101960E94BE2E212F42E350E104
:200BA0006981C701895E9D4F0E94EA2040E063E0CE0101960E94BE2E20E044E350E169816B
:200BC000C7018E5C9D4F0E94EA2041E063E0CE0101960E94BE2E20E046E350E16981C70167
:200BE000835B9D4F0E94EA2042E063E0CE0101960E94BE2E20E048E350E16981C701885937
:200C00009D4F0E94EA2043E063E0CE0101960E94BE2E20E04AE350E16981C7018D579D4F02
:200C20000E94EA2044E063E0CE0101960E94BE2E20E04CE350E16981C70182569D4F0E9435
:200C4000EA2045E063E0CE0101960E94BE2E20E04EE350E16981C70187549D4F0E94EA20A7
:200C600087010C521D4F6B2DC8010E943B2F40E450E1B801C7018B529D4F0E94421A46E4EE
:200C800050E1B801C7018B509D4F0E94421A4CE450E1B801C7018B5E9C4F0E94421A42E502
:200CA00050E1B801C7018B5C9C4F0E94421A48E550E1B801C7018B5A9C4F0E94421A4EE5D2
:200CC00050E1B801C7018B589C4F0E94421A40E750E160EA74E0C7018B569C4F0E948525C0
:200CE00004521F4F24E630E146E060E0C8010E94CD0A4701FEE28F1AFCEF9F0A2AE630E1E7
:200D000047E060E0C4010E94CD0A4CE750E168E2C7018C509C4F0E9432234CE651E168E24C
:200D2000C70187509C4F0E94EB2346E750E169E2C70182509C4F0E94782857012DEFA21AD9
:200D40002BEFB20A4CEE53E1B801C5010E94CC0C05581F4F4EEE53E1B401C8010E94CC0C23
:200D600040EF53E1B501C7018D5A9B4F0E94810B42EF53E1B801C70189599B4F0E94810BB3
:200D8000C70185589B4FFC01C082FFEDFC15C8F586E58093800187E08093880197E590932A
:200DA00081018093890160E084E00E94042EFC018181887F81838FEF9FEF86A397A3808122
:200DC000807F876080838381807188628383DD20D9F083E08093B00088E18093900688E3DC
:200DE0008093A1049BE99093A50491E09093A4048093A8048BEA8093AB048CEC8093AA0480
:200E000003C00E94DA2EC4CF0F90DF91CF911F910F91FF90EF90DF90CF90BF90AF909F907A
:200E20008F900895FF920F931F93CF93DF93CDB7DEB72697CDBFDEBF20911221261709F420
:200E40006BC0F62E8C0181E0681741F1681758F082E0681709F443C085E068135BC086E09B
:200E6000E1E1F0E23FC01982AE014F5F5F4F61E0C80184509E4F0E946421AE014F5F5F4F3C
:200E800061E0C801895E9D4F0E946421F801E857FF4F81E08787B19687873CC084E6898392
:200EA000AE014F5F5F4F61E0C80184509E4F0E946421AE014F5F5F4F61E0C801895E9D4F4D
:200EC0000E94642160E0C80188579F4F0E94800460E0C80187559F4F0E9480041BC086E0B5
:200EE000E7E1F0E2DE01119601900D928A95E1F7AE014F5F5F4F66E0C80184509E4F0E942E
:200F00006421AE014F5F5F4F66E0C801895E9D4F0E946421F09212212696CDBFDEBFDF912E
:200F2000CF911F910F91FF900895809108068095881F8827881F0895CF93C62F809113216B
:200F400081110DC00E94403160931B2170931C2180931D2190931E2181E080931321C53060
:200F600050F4C23078F4CC2349F0C13059F580E48093050627C0C53079F024C080E4809346
:200F8000060620C08BE191E20E946231653F714081059105B8F009C08BE191E20E9462315B
:200FA000693C71058105910568F080E4809307060E94403160931B2170931C2180931D214B
:200FC00090931E21CF910895EF92FF920F931F93CF93DF9300D01F92CDB7DEB7182F809186
:200FE00000108F3F51F41B8241E050E0BE016D5F7F4F80E090E10E946D2D113B09F068C00D
:2010000080910010811132C08DE794E00E94642C7C0147E063E0CE0101960E94BE2E41E015
:2010200064E0CE0102960E94BE2E00E021E049816A81C7010E94A20487E490E2F7018083F9
:20104000918381E08093820680938106EFE1F1E287E391E2A191B1912689378956962D93D7
:201060003C9357978E179F07A9F7B1C0813009F0A3C08CE794E00E94642C7C0141E06CE047
:20108000CE0101960E94BE2E40E06CE0CE0102960E94BE2E01E020E049816A81C7010E94FB
:2010A000A20483E590E2F70180839183EFE1F1E287E391E2A191B1912689378956962D9392
:2010C0003C93579750961C928E179F0799F77FC0123B09F055C080910010823008F06CC053
:2010E0008EE794E00E94642C7C0141E06CE0CE0101960E94BE2E40E06CE0CE0102960E9482
:20110000BE2E00E020E049816A81C7010E94A2048FE590E2F7018083918380E480930206CA
:201120008093010680E880930206EA54FC4F1082118212821382B2961082118212821382A5
:20114000FD9710821182128213828091160680648093160680911706877C809317068091FB
:201160001706886180931706EFE1F1E287E391E2A191B19150961C928E179F07C9F727C0BF
:20118000133BD1F480910010811108C08DE191E00E94642C8C0168EE73E009C0813061F4AB
:2011A0008DE191E00E94642C8C0168E270E0C8010E946E03C8010CC08091CF0187FDFCCF56
:2011C00040E260E070E0CB010E94DC47FFCFC7012396CDBFDEBFDF91CF911F910F91FF90A5
:2011E000EF900895FC012089FB012083FC018785FB01818382E008950F931F93CF93DF935E
:20120000CDB7DEB72797CDBFDEBF8C01DC0155968D919C915697FC0121812B3F50F022E3F3
:201220002F8341E050E0BE01695F7F4F01960E946D2DD80155968D919C915697FC012281E7
:2012400033812115310531F0255031092C303E4008F04CC0D80155968D919C915697FC01C7
:20126000248135812115310531F0255031092C303E4008F048C0D8015596ED91FC91569741
:2012800084819581009731F0228133818217930708F446C00E944031D8015596ED91FC910D
:2012A0005697428120E030E0342F330F330FAB01BC01420F531F611D711D1A964D935D93CF
:2012C0006D937C931D978181811136C082819381892B91F584819581892B71F5F8011786A5
:2012E000108A168217821086118626C02AE030E02D833E8342E050E0BE016B5F7F4F029644
:201300000E946D2DA7CF26E930E02B833C8342E050E0BE016D5F7F4F04960E946D2DABCF94
:2013200019821A8242E050E0BE016F5F7F4FCF0104960E946D2DAECF2796CDBFDEBFDF9150
:20134000CF911F910F910895DF92EF92FF920F931F93CF93DF93FC0146815781608571851E
:20136000452B462B472B09F410C1EC0106960E946231672B682B692B09F407C18C890E9459
:20138000662C8C018B89833029F47801E8E3EE0EF11C1AC0843040F4823029F4780180E390
:2013A000E80EF11C11C0FFCF863029F47801F0E2EF0EF11C09C0873009F0E6C0780148E2A1
:2013C000E40EF11C92E001C091E08C8181111BC0F8018181897E81838181818382818F78DA
:2013E000828382818061828380E4838386E084838B898F70880F880F880F91E0F7019083D4
:2014000081839C83C2C08130E1F4DFB6F894C8010E946B2CF801808181608083DFBEF7010B
:201420008081806880830E944031DC01CB0184589E4FAF4FBF4F8E839F83A887B98782E02B
:2014400041C0823009F040C0F8018681892309F49CC0968389A191E0980F99A39FB7F89462
:20146000F701248135819FBFFE01E80FF11DE80FF11D218F328F81E08C8389A1843008F4F7
:2014800084C019A22F8D38A18D8D9E8DA0E0B0E0820F931FA11DB11D2B8D3C8D820F931FD0
:2014A000A11DB11D298D3A8D820F931FA11DB11D22E0B695A795979587952A95D1F78F87E6
:2014C000988B83E08C8361C0833009F05EC0ED89FE8984819581892B31F4ED89FE892181FC
:2014E00021111EC042C0CE010A960E946231ED89FE89AB01BC018AE0769567955795479597
:201500008A95D1F78481958122813381821B930BA0E0B0E0481759076A077B0798F4DDCF3D
:201520008F8598894F89588D841B950B97FF03C0919581959109FAE02F9F90011124821744
:20154000930798F0ED89FE89828140E050E0582F550F550F60E070E0CE010E94980D882379
:2015600021F08F8598898F8B988F81E08C830E944031DC01CB0188579C4EAF4FBF4F8E83D2
:201580009F83A887B98701C00ECFDF91CF911F910F91FF90EF90DF900895EF92FF920F932E
:2015A0001F93CF93DF93EC01F62EE42E89010E94000D8BE690E28883998380E092E0898B59
:2015C0009A8BEB8AFC8A0D8B1E8B1F8A188EFE01799688E0DF011D928A95E9F719A21C82FE
:2015E0000E944031DC01CB018C53964FAF4FBF4F8E839F83A887B9871F86188ADF91CF91A6
:201600001F910F91FF90EF900895DC015196ED91FC915297178608958F929F92AF92BF92F9
:20162000EF92FF920F931F93CF93DF93CDB7DEB7C755D109CDBFDEBFDC015196ED91FC9169
:20164000529720892F3F09F44DC02785222309F449C08C01FC01E388F38080900A209090C7
:201660000B20A0900C20B0900D200E944031FE01319687E5DF011D928A95E9F78BE4888B21
:20168000F98A9E2D990F990F9E5F9B8B88EF8A878B869C86AD86BE868FEF9FEFDC018E835D
:2016A0009F83A887B98784E08F87CF010E948528811118C08091812190918221009751F047
:2016C000DC01ED91FC910190F081E02D20E04E2D6F2D0995F80183898F5F838B0188F28959
:2016E000E02D1786C95ADF4FCDBFDEBFDF91CF911F910F91FF90EF90BF90AF909F908F90BC
:201700000895EF92FF920F931F93CF93DF93EC018B017A010E94000D87E790E28883998348
:20172000EF86F88A098B1A8B1B8AF8011786DF91CF911F910F91FF90EF900895FC012089CD
:20174000FB012083FC0187A1FB01818382E00895EF92FF920F931F93CF93DF9300D0CDB738
:20176000DEB77C01DC0151960D911C915297F80180818C7F8C3F59F080911D208A8341E0CA
:2017800050E0BE016E5F7F4FC8010E946D2DD80111968C918F3F59F48EE0898341E050E037
:2017A000BE016F5F7F4FC80101960E946D2DD7015196ED91FC9152978181B4E68B9FC001F8
:2017C0001124F701858B968B0F900F90DF91CF911F910F91FF90EF900895CF93DF93FC01D1
:2017E000DA0186A18823F1F16630E0F1178687A18F7E87A39C919B3C19F09C3C59F014C0F5
:20180000208912969C911297921770F091E09787806209C0208912969C911297291720F0E7
:2018200091E097878F7D87A38785882309F187A1806187A315969C91992389F0EF0124E6F8
:20184000929FC0011124858B968B0E9440316F8B788F898F9A8F8FA180648FA309C08F7BC2
:2018600087A306C0613021F48C91893C08F4808BDF91CF910895CF92DF92EF92FF92CF9336
:20188000DF93EC01E989FA89818124E6829FC0011124892B19F48FEF888B77C0CE0147969C
:2018A0000E9462316B017C012D893E89A4E6B0E00E942332C616D706E806F90608F465C0B5
:2018C0000E9440316F8B788F898F9A8F8FA186FF0CC08F7B8FA3E989FA89818124E6829FD4
:2018E000C00111248D8B9E8B50C0EB89FC898785908964E170E00E94D931693C08F068EC51
:201900002DA1FE01E20FF11D338D8BA19CA1831B9109638F860F911D8BA39CA33EA13830B1
:2019200010F43F5F3EA3E989FA89308133703230F1F018F4313029F125C03EA140E0842F7A
:2019400090E0332371F03150FE01E30FF11DDE01A80FB91F538D5B968C91851780F3432F03
:20196000EECFFE01E80FF91F838D888B0BC0181619062CF46EA170E00E94ED3102C0188ABE
:2019800001C0688B2F5F27702DA3DF91CF91FF90EF90DF90CF900895EF92FF920F931F93EF
:2019A000CF93DF93EC018B017A010E94000D83E890E288839983E98AFA8A0B8B1C8B1F8ACF
:2019C000188E198E1A8EFE017B9688E0DF011D928A95E9F71BA21CA21DA21EA284EB90E033
:2019E0008D8B9E8B8FEF888B1FA2DF91CF911F910F91FF90EF900895089580E00895089552
:201A0000DC018FE890E28D939C93119712961C921297E0916B211396EC93139714961C92E3
:201A2000149715961C92159716961D921D921D921C9219971A961D921D921D921C921D97C0
:201A40001E961C921E97E63258F481E08E0F80936B21F0E0EE0FFF1FE15EFE4DA083B183A2
:201A600008959B013F7364E0769F612D772711246130710509F158F06230710511F5D90190
:201A800020E030EA4FE050E00E9432320895C901A0E0B0E0BC01CD012AE0660F771F881F09
:201AA000991F2A95D1F72AE030E040E050E00E940132CA01B9010895A0E0B0EF0E94233270
:201AC000089560E070E0CB0108950F931F93CF93DF93FC010285138524853585012B022B70
:201AE000032B09F56623F9F0EC010E944031E0917C21F0917D213097A1F02181F4E62F9F79
:201B0000A00111248A01550F220B330BAB01BC01400F511F621F731F4A875B876C877D87B0
:201B200002C020E0EBCFDF91CF911F910F9108952F923F924F925F926F927F928F929F92A4
:201B4000AF92BF92CF92DF92EF92FF920F931F93CF93DF93CDB7DEB7CD57D109CDBFDEBFA7
:201B6000DC011A960D911D912D913C911D97012B022B032B09F478C06A017B018C010A967D
:201B80000E946231672B682B692B09F46DC0D801ED91FC910280F381E02DBE01685A7F4FF7
:201BA000C8010995ED968FAFED97F801F381EE96FFAFEE97E0917C21F0917D218281938111
:201BC000A481B581EC968CAF9DAFAEAFBFAFEC97CE0188589F4F0E949F014B015C014090FB
:201BE0000A2050900B2060900C2070900D200E944031CE0101961C0187E5D1011D928A95C5
:201C0000E9F789E6888BEE96BFADEE97B98BED96EFADED974E2F50E0BE01685A7F4FCE013B
:201C200042960E94C03388EF8A874B865C866D867E868E829F82A886B986ED968FADED9724
:201C40008E5F8F87C1010E948528882379F0F80182859385A485B58586509F4FAF4FBF4F11
:201C600082879387A487B58780E019C0C114D104E104F10461F00E944031C60ED71EE81EEA
:201C8000F91EF801C286D386E486F58607C0D8011A961D921D921D921C921D9781E0C35873
:201CA000DF4FCDBFDEBFDF91CF911F910F91FF90EF90DF90CF90BF90AF909F908F907F90E6
:201CC0006F905F904F903F902F9008958F929F92AF92BF92CF92DF92EF92FF920F931F93F0
:201CE000CF93DF936B017C01FA0188E4808382E4818387E582838A01065F1F4FEA012396E0
:201D00008AE0882E912CA12CB12C0C171D0791F0C701B601A50194010E940132605DF8012F
:201D200062938F01C114D104E104F10471F369017A01EBCFDF91CF911F910F91FF90EF9069
:201D4000DF90CF90BF90AF909F908F900895FC01808180FF03C081E09785961380E00895D9
:201D6000FC01818580FD07C08685823020F081E09785993609F080E008958091CF0187FDA8
:201D8000FCCF0895AF92BF92CF92DF92EF92FF920F931F93CF93DF93CDB7DEB7C755D1092E
:201DA000CDBFDEBF80917B2181FF56C08091242218E0180F0FB7F8948FE192E20E946231D6
:201DC0000FBF012F10E020E030E0061717072807390708F041C0E0917C21F0917D21B08005
:201DE000A0907E21C0900A20D0900B20E0900C20F0900D200E9440318E010F5F1F4F87E5DC
:201E0000F80111928A95E9F7CB86DC86ED86FE868FEF9FEFDC018E839F83A887B98788EF7B
:201E20008A8781E4888BAA8ABB8A82E08C8B86E58D8BAE014A5E5F4FC701B6010E94660E0A
:201E400080E18F87C8010E948528811105C080917B218D7F80937B21C95ADF4FCDBFDEBFBA
:201E6000DF91CF911F910F91FF90EF90DF90CF90BF90AF900895CF92DF92EF92FF920F93B5
:201E80001F93CF93DF93CDB7DEB72597CDBFDEBFE0917C21F0917D211081C680D780E084FF
:201EA000F1840091CC010E94BD0E8091CC01877F8093CC018FEF0E94BD2C0E94BD0E80E345
:201EC0000E94822C03FF07C00E94BD0E8091CC0188608093CC0180917C2190917D211D83C9
:201EE00041E050E0BE016B5F7F4F0E946D2D80917C2190917D21C982DA82EB82FC8244E0DB
:201F000050E0BE016F5F7F4F06960E946D2D80917B218460816080937B212596CDBFDEBF59
:201F2000DF91CF911F910F91FF90EF90DF90CF900895CF938091792190917A21892B09F48E
:201F4000A1C08091712181110DC00E94403160936D2170936E2180936F219093702181E040
:201F6000809371218091792190917A21DC01ED91FC910480F581E02D0995C82F80916C2133
:201F80008230C9F128F4882359F08130C9F06CC0843009F44BC098F1853009F45FC064C0F5
:201FA000CC2319F081E080936C210E94403160936D2170936E2180936F219093702154C097
:201FC0008DE691E2CC2351F00E946231693873418105910508F448C082E03DC00E946231AD
:201FE0006536710581059105E8F180917B21826080937B2137C0C11137C083E0D4CF8DE664
:2020000091E20E946231643671058105910560F1CC2311F084E0C7CF8DE691E20E94623196
:202020006938734181059105E8F41EC08DE691E20E9462316436710581059105A8F0CC23A7
:2020400089F08DE691E20E946231693B7B408105910550F085E080936C2106C0C11104C0D0
:202060000E943B0F10926C218091792190917A21DC01ED91FC910680F781E02D60916C216D
:20208000CF910994CF9108950F931F93CF93DF9300D000D0CDB7DEB7E0917C21F0917D2138
:2020A00086819781A085B18589839A83AB83BC83CE0101960E949F0100910A2010910B20E1
:2020C00020910C2030910D206017710782079307B9F08B019C011D532F483046003816495D
:2020E0002849310540F460930A2070930B2080930C2090930D2080917B21826080937B21ED
:20210000E0917C21F0917D21918191509A3FB0F410E080916B211817E8F4E12FF0E0EE0FAD
:20212000FF1FE15EFE4D80819181DC01ED91FC910680F781E02D09951F5FEBCF82E38983AA
:2021400041E050E0BE016F5F7F4FCF0101960E946D2DDECF2496CDBFDEBFDF91CF911F9120
:202160000F91089580917B2180FF07C00E94441080917B218E7F80937B2180917B2183FFA1
:2021800009C08FB7F8941BBE98ED94BF91E0909379008FBF80917B2182FF0FC0A8958FB718
:2021A000F8941BBE98ED94BF9BE1909380008FBF8091820080FDFCCFFFCF0E9440316D3D0F
:2021C00075408105910548F080917800882319F08FE7809378000C94C20E089590916B21FE
:2021E000891778F4E82FF0E0EE0FFF1FE15EFE4D80819181DC01ED91FC910280F381E02D49
:202200000994DB011C9281E0089590916B21891778F4E82FF0E0EE0FFF1FE15EFE4D808153
:202220009181DC01ED91FC910190F081E02D09940895EF920F9330916B214317F8F4E42F92
:20224000F0E0EE0FFF1FE15EFE4D0190F081E02D3685311113C0A0917F21B09180211097D0
:2022600069F0E02E022F242F462FBC01ED91FC9111970190F081E02DCD0109950F91EF90F4
:202280000895CF92DF92EF92FF920F931F93CF93DF93EC010E94F823F82E811102C0F12C54
:2022A000E3C1898580FDFBCF65E7CE010E94A70E882321F080917B218860D2C062E5CE01BA
:2022C0000E94A70E882391F08E85843041F71A89412F50E0688979897627672776277061AD
:2022E000CE010F960E94C0331E87BCC163E4CE010E94A70E882321F080917B218160B0C08C
:2023000066E7CE010E94A70E882389F080910A2090910B20A0910C20B0910D208D839E83A3
:20232000AF83B88782E08F8796E5988B84C168E6CE010E94A70E882359F0E0917C21F091DA
:202340007D21808190917E219F87888B82E073C16CE6CE010E94A70E882391F0E989809128
:202360006B21E81708F07EC0F0E0EE0FFF1FE15EFE4D0190F081E02D8A898170868772C0D5
:2023800065E4CE010E94A70E882309F44FC00A891B89812F869586958695912F977011F413
:2023A0008C5F01C08B5F8E8785E68F874E8550E04450510960E070E0CE0143960E94C9332A
:2023C000402F50E060E070E180E090E0212F30E001E010E0281739070CF444C1DB01E0E0AC
:2023E000F0E0E417F507F4F4ED90CC24CA94EC14B9F0FC01A3E0F595E795AA95E1F7349653
:20240000EC0FFD1FDC01A770BB27680102C0CC0CDD1CAA95E2F7D601B785AB2BA78702C0E2
:202420003196DFCF0196640F751FD4CF6BE4CE010E94A70E811169C06BECCE010E94A70E39
:20244000811163C073C061E2CE010E94A70E882309F4BEC08889813229F480917B21846093
:2024600080937B2111E08D819E81AF81B8858F3F9F4FAF4FBF4F09F412CF80917B2186FF4A
:2024800007C065E7CE010E94A70E882309F407CF2985822F8770833021F023FB222720F9EB
:2024A00001C020E08A859B85AC85BD858D839E83AF83B88780910A2090910B20A0910C2033
:2024C000B0910D208A879B87AC87BD87898586958370112321F099E199871E8602C098E902
:2024E00099878370982F9295990F907E89858F79892B8987211102C0877F898781E0282791
:20250000888120FB84F98883AFC00A89802F8370833009F470C04D815E816F8178854F3F63
:202520005F4F6F4F7F4F09F066C09CCF63E5CE010E94A70E882321F0BE016F5E7F4F75C01E
:2025400067E5CE010E94A70E882361F12A898E8590E0422F50E0BA016C5F7F4F86179707A6
:2025600009F09DCE88899989982789279827BE016D5E7F4F009799F4E0917C21F0917D21ED
:2025800030813B8B2A3058F0298D2F3F41F4369624E0DE01599601900D922A95E1F70E94C2
:2025A0006D2D60CF6EE6CE010E94A70E882309F44ACF60910A2070910B2080910C20909172
:2025C0000D20AE01415F5F4F0E94660E8AE033C069E6CE010E94A70E811144CF63E7CE012B
:2025E0000E94A70E811117C068E7CE010E94A70E811111C022C010E01595079515950795E5
:2026000021E0833009F020E049896889CE010A960E94191127CF6E8562508E010F5E1F4F0A
:20262000A80188890E940511B80188890E94EE1099E69F878E5F8E8715C06AE7CE010E9480
:20264000A70E882321F080917B21806409CF6AE5CE010E94A70E882309F421CE80917B21E7
:202660008F7BFECE10E0FFCE8F2DDF91CF911F910F91FF90EF90DF90CF9008950F931F931E
:20268000CF93DF93DC0190E090962C919097921740F5FD01E90FF11DE90FF11DEB010881B2
:2026A00019814081518104171507C9F4892F422F50E041505109E82FF0E0E417F50754F48F
:2026C000EE0FFF1FEA0FFB1FC281D381C083D1838F5FF1CF9150215090962C9390979F5F94
:2026E000D3CFDF91CF911F910F9108951F93CF93DF9300D0CDB7DEB710E08091A621181715
:20270000A0F5E12FF0E0EE0FFF1FEA57FE4D8081918189839A83FC014181528163817481F6
:20272000452B462B472BF9F001960E946231672B682B692BC1F089819A810E948528E98149
:20274000FA8180818C708C3081F4BE016F5F7F4F86E891E20E943E1367E570E089819A81E0
:202760000E94822402C01F5FC8CF0F900F90DF91CF911F9108958F929F92AF92BF92DF928A
:20278000EF92FF920F931F93CF93DF9300D0CDB7DEB77C01D12C8091A621D81608F060C0BE
:2027A000ED2DF0E0EE0FFF1FEA57FE4D0081118109831A83F801818580FD50C0F7018185C2
:2027C0008770813071F0F8018685843009F046C087858B3409F042C0C7010E94B00E8823A0
:2027E000E9F191E0F80182849384A484B584F701458156816781708584169506A606B70607
:2028000009F090E081E0F80185809680A780B084F701428553856485758584169506A60624
:20282000B70609F080E08923C9F0F801918596959370F701818582958695837098130EC044
:20284000BE016F5F7F4F86E891E20E943E1367E570E089819A810E94822402C0D3949BCFAD
:202860000F900F90DF91CF911F910F91FF90EF90DF90BF90AF909F908F9008950F931F93B0
:20288000CF93DF93CDB7DEB7C755D109CDBFDEBF8091B721882309F453C09FB7F894809195
:2028A000B7218823C1F0E091B82181E08E0F8093B821F0E0EE0FFF1FE955FE4D0081118129
:2028C0008091B82187708093B8218091B72181508093B72102C000E010E09FBF011511056A
:2028E00079F1C8010E941724882351F0F80181858770813009F1C8010E94B00E81111CC0A4
:20290000F80181858770813089F087E5DE01119601900D928A95E1F7CE0101960E94411124
:20292000882321F0CE0101960E94852867E570E0C8010E94822404C0C8010E94BB13E0CFCD
:20294000C95ADF4FCDBFDEBFDF91CF911F910F910895CF93C0E080916B21C817A8F4EC2F0B
:20296000F0E0EE0FFF1FE15EFE4D80819181DC01ED91FC910480F581E02D09950E943E144E
:202980000E947613CF5FE7CF0E94B2100E94990FA895CF9108950F931F93FC0190E081E01E
:2029A0000681178120853185012B022B032B09F480E080FB96F98481813021F0843039F407
:2029C00022E001C021E02295207F9F7C922B8589FB018083918382E01F910F910895CF9333
:2029E000DF93D62FFC018081C82FCF7082958F700E94BA2DC83060F44096EC2FF0E0E80F89
:202A0000F91F8081DD2311F0806401C08F7B8083DF91CF910895FC01808183700895DC0112
:202A200055962C91559730E05896ED91FC9159978489662319F0280F311D02C0281B3109A6
:202A40008389482F50E0241735073CF48289482F50E0421753070CF4822F08950F931F9315
:202A6000CF93DF93EC01162F042F8D898617E1F1CE014496662319F00E94232C02C00E9408
:202A8000112C1D8B8E899F890E940B15282FCE014396223040F4112319F00E94232C13C0CA
:202AA00060E070E00EC0223019F428EC211B122F1123B1F3288969897A89129F600D711D9E
:202AC00011240E94DC30002339F0EE89FF896081661F6627661F01C060E0CE01DF91CF91B0
:202AE0001F910F910C94650DDF91CF911F910F910895BF92CF92DF92EF92FF920F931F932E
:202B0000CF93DF93EC01162FB42E69010E94000D8BE990E2888399830F87088B198A1A8A37
:202B20007E0183E1E80EF11C412F4F70612F62956F70C7010E94BE2E8B89803E50F1BC8A6B
:202B40008FED8B1550F58FEF8D8BCE8ADF8A188E198E1A8E8C8F1D8E83E08A83C6010E9429
:202B60000B1561E0823009F060E0C7010E94EF1440E060E0CE010E942E1585E08C83DF91A4
:202B8000CF911F910F91FF90EF90DF90CF90BF900895C7010E94DA2ED2CFCE0144960E945F
:202BA000DA2ED1CFFC01633009F443C028F46130A1F0A0F51482A2C0653041F0E0F16730E4
:202BC00009F459C0683009F474C098C06483A08DB18D41E011966C9128C064834681578139
:202BE00060857185868D978DA0A1B1A1840F951FA61FB71F86839783A087B1876589838DCE
:202C0000482F50E0460F511DA08DB18D13962C9130E04217530708F071C049C082E084831B
:202C2000A08DB18D41E013966C91CF010E942E1565C0648363C084E084834681578160858F
:202C40007185868D978DA0A1B1A1840F951FA61FB71F86839783A087B1876589838D6817D3
:202C600008F44CC0462F50E0481B5109A08DB18D11962C9138C064834681578160857185C2
:202C8000868D978DA0A1B1A1840F951FA61FB71F86839783A087B1876589838D482F50E061
:202CA000460F511D258D30E02417350738F1680F1FC064834681578160857185868D978D01
:202CC000A0A1B1A1840F951FA61FB71F86839783A087B1876589838D681780F0462F50E06B
:202CE000481B5109258D30E0421753073CF0681B40E0CF010E942E1580E0089581E0089523
:202D0000BF92CF92DF92EF92FF920F931F93CF93DF93EC01EE89FF899081392F369536955B
:202D2000337023E0122F131B92959370022F091BBF84EB2CF12C24E1B29E60011124C98A4A
:202D4000DA8ACF010E940B15202F30E0412F50E0823041F42C9DC0012D9D900D3C9D900D30
:202D6000112407C04C9DC0014D9D900D5C9D900D1124898B9A8B240F351F2E9DA0012F9D63
:202D8000500D3E9D500D11242CEE2403C001259F900D112428ECB29E800D911D112468ECA9
:202DA00070E00E94D931688BDF91CF911F910F91FF90EF90DF90CF90BF900895EF92FF922A
:202DC0000F931F93CF93DF9300D0CDB7DEB78C01FC01E688F788F701808186FD0BC0809113
:202DE0001E208A8341E050E0BE016E5F7F4FC7010E946D2DF70181818F3F59F08FEF89833E
:202E000041E050E0BE016F5F7F4FC70101960E946D2DF801868997890E940B1561E082308E
:202E200009F060E0C80143960E94EF14C8010E9480160F900F90DF91CF911F910F91FF9024
:202E4000EF9008958F929F92AF92BF92EF92FF920F93CF93DF93EC01613019F0643009F0D6
:202E600065C0E88CF98CF70103818181081B0B8F80859185A0E0B0E08E8F9F8FA8A3B9A3DC
:202E8000643041F486859785A0E0B0E08E8F9F8FA8A3B9A38E8D9F8DA8A1B9A1BC01CD01CB
:202EA0003AE0660F771F881F991F3A95D1F72AE030E040E050E00E940132CA01B901F8E05B
:202EC0000F9F40011124092C000CAA08BB08281539054A055B0568F0202F30E040E050E0E7
:202EE0000E9401322E8F3F8F48A359A381E08B8F1DC02E8F3F8F48A359A38E8D9F8DA8A131
:202F0000B9A180319105A105B10580F02B8DF7013489231758F026952B8FB695A79597952D
:202F200087958E8F9F8FA8A3B9A3E7CFDF91CF910F91FF90EF90BF90AF909F908F900895D6
:202F40008F929F92AF92BF92EF92FF920F931F93CF93DF938C01DC0114968C9114978330C4
:202F600009F447C048F4813061F15896ED91FC9159978230E8F030C0853039F008F448C0C9
:202F80008750823008F451C07AC0D8015896ED91FC915997662321F0C789C295CF7001C05E
:202FA000C0E0E088F188D081D6FBDD27D0F96BC0662319F0C589CF7001C0C1E0E680F78018
:202FC00032C0662309F456C0D8015896ED91FC915997C589C29524C0662319F0C689CF70F8
:202FE00001C0C3E0E284F384D081D7FBDD27D0F94AC0D8015896ED91FC915997662321F03A
:20300000C689C295CF7001C0C4E0E484F5840BC06623A9F1D8015896ED91FC915997C78985
:20302000CF70E12CF12CD0E02EC0F8018589882319F082E0848302C085E08483D801569672
:20304000ED91FC9157976081661F6627661FC8010E94650DF8011682178210861186DF915B
:20306000CF911F910F91FF90EF90BF90AF909F908F900895E12CF12CD0E0C2E004C0E12CCC
:20308000F12CD0E0C5E00E9440314B015C01B701C8010E94310DE114F0ECFF0660F4DC019A
:2030A000CB01880D991DAA1DBB1DF80186839783A087B18707C0D80116961D921D921D9286
:2030C0001C921997C63020F4F801C583D28F09C0C63039F0D80116961D921D921D921C92BE
:2030E00019976C2FC801DF91CF911F910F91FF90EF90BF90AF909F908F900C942217CF9377
:20310000DF93EC01888D998D892B29F41E821F82188619860CC06D81CE010E94D215882309
:2031200031F060E0CE01DF91CF910C94A017DF91CF910895CF93DF93EC018E819F81A885AE
:20314000B985892B8A2B8B2B41F0CE0106960E946231672B682B692B41F440E050E0BA0148
:20316000CE01DF91CF910C94980DCE010E947F18F4CFFF920F931F93CF93DF93EC018A016F
:203180006130A9F4DA016C91693C08F0A7C041E00E942E151E821F8218861986F8018081A7
:2031A000882311F082E001C085E08C8397C0633009F094C0DA011196ED91FC911297E88FE8
:2031C000F98F9081892F8F706C912C8D823008F44FC0261302C094FF66C08530C9F030F4E6
:2031E000833071F098F4823041F05DC08830C0F0883009F058C0609513C060FF03C004C050
:2032000060FF02C0F18057C0F38055C061E001C060E0CE010E940F15282F893C18F043C07F
:203220006170F7CF81E08B8F6D8970E0621B710977FF03C07195619571098CE291E00E940F
:20324000D931CB01A0E0B0E08E8F9F8FA8A3B9A32D8F0E9440316E837F83888799879D8D7B
:203260008D89891710F088E001C087E08D8318C0261302C094FF17C09F709130A1F48E8147
:203280009F81A885B985892B8A2B8B2B29F08C81813011F0843059F461E0CE010E94A01742
:2032A000CE010E947F18F80180818C8F17C08A8D8130B1F7F1CFF8ECFF15A8F341E06F2D9A
:2032C000CE010E942E151E821F8218861986FF2011F082E001C085E08C83E5CFDF91CF9181
:2032E0001F910F91FF900895FC01258DFB012083FC01848DFB01818382E008950F931F93A3
:20330000CF93DF93EC018B010E944031DC01CB01800F911FA11DB11D8E839F83A887B98737
:20332000DF91CF911F910F9108950F931F93CF93DF93CDB7DEB72797CDBFDEBF8C01DC013E
:2033400052968D919C915397FC0121812B3F50F025E02F8341E050E0BE01695F7F4F019613
:203360000E946D2DD80152968D919C915397FC01228133812115310531F0255031092C302F
:203380003E4008F051C0D80152968D919C915397FC01248135812115310531F0255031091C
:2033A0002C303E4008F04DC0D8015296ED91FC91539784819581009731F0228133818217B5
:2033C000930708F44BC0D8015296ED91FC9153978081882309F114961C920E944031D801AC
:2033E0005296ED91FC915397428120E030E0342F330F330FDC01CB01820F931FA11DB11DBE
:20340000F80182879387A487B587118A64EF71E0C8010E947E192EC0D80116961D921D9217
:203420001D921C92199726C02AE030E02D833E8342E050E0BE016B5F7F4F02960E946D2D91
:20344000A2CF26E930E02B833C8342E050E0BE016D5F7F4F04960E946D2DA6CF19821A8242
:2034600042E050E0BE016F5F7F4FCF0104960E946D2DA9CF2796CDBFDEBFDF91CF911F911B
:203480000F910895EF92FF920F931F93CF93DF93EC017B018A010E94000D87EA90E2888324
:2034A0009983EF86F88A198A8DE495E98C8F9D8F8E8F9F8F84E08A830A8B1B8BDF91CF9159
:2034C0001F910F91FF90EF900895982F81E0983221F0903111F080E008950895FC0191897B
:2034E0009A3010F49F5F918BCF010C947E19FF920F931F93CF93DF931F92CDB7DEB78C01CD
:20350000F62EDC011F968D919C9150970E94532F811107C0F801878590890E94252F8111A0
:2035200002C081E028C0F11004C0A8014C5E5F4F02C040E050E064E4D8011F968D919C9187
:2035400050970E94413080910E2081110DC0D8011F96ED91FC91509780818983803E30F068
:20356000CE0101960E94232C80E005C0CE0101960E94DA2EF5CF0F90DF91CF911F910F913C
:20358000FF900895FB0120813181DC0154968C91803161F42E7F43E0220F331F4A95E1F7BC
:2035A0008681281B3109245F3F4F10C0883271F48481982F9076903649F086FF02C02E7FC2
:2035C00005C085FF02C02C7F01C0287FC90134E0969587953A95E1F7B4E68B02C0011124E4
:2035E000322F23FDC29632FD499631FD0D9630FD069608958F929F92BF92CF92DF92EF92B7
:20360000FF920F931F93CF93DF93CDB7DEB72997CDBFDEBF8C01FC01878590890E94532F1C
:20362000A8014C5E5F4F6EEBF801878590890E944130CE0101967C014E019AE0890E911C0F
:20364000BB24B39467016FEFF801878590890E94CE2FF70181937F018111B12C8E149F0481
:2036600091F740E069E070E0C6010E947701811102C0BB2011F083E008C0B601C8010E94AB
:20368000C21AF801848F958F80E02996CDBFDEBFDF91CF911F910F91FF90EF90DF90CF90DA
:2036A000BF909F908F90089520916B21EFE1F1E290E0921781F0A191B19112963C911297D4
:2036C000343039F452960D90BC91A02D3C91831721F09F5FEECF80E0089581E008958F926B
:2036E0009F92AF92BF92CF92DF92EF92FF920F931F93CF93DF9300D0CDB7DEB7DC01169689
:203700004D915D916D917C911997452B462B472B09F435C18C0106960E946231672B682B59
:20372000692B09F42CC1F8018481811160C0EE24EA946801B4E1CB0ED11C5801ECE1AE0E25
:20374000B11CA6016E2DD8011F968D919C9150970E94E92FE82E82E08E0D8230A8F1F6018B
:20376000F12C8191F80EEA15FB05D9F7F80184890E94651A811103C0E110E3CF25C0D80168
:2037800052968D909C905397F40180818F3F31F48F2D0E94541B882309F4AEC0D801529681
:2037A000ED91FC9153978081F812E6CF81E014968C93149713966C91B4E66B9FB00111244F
:2037C000C8010E947E19DBC0F8018189823048F08DE495E9848F958F1682178210861186DB
:2037E000CEC060E177E2C8010E946E1AC8C08130A9F461E0C8010E94771A811109C082E0DE
:20380000F801848368EE73E0C8010E947E191EC064EC79E0C8010E946E1A18C08230B1F454
:20382000C8010E94FA1A882331F060ED77E0C8010E946E1A08C0D80151961C9268E873E1CC
:20384000C8010E947E1981E0F8018483D80151968C9151978A3030F08EE495E95C968D9364
:203860009C935D97D8015296ED91FC91539784819581892B49F4D8015296ED91FC915397AD
:20388000218121111DC07BC0C8010A960E946231AB01BC018AE076956795579547958A95DD
:2038A000D1F7D8015296ED91FC91539784819581A0E0B0E0481759076A077B0738F5DBCFD6
:2038C000F801848D958D468D578D841B950B092E000CAA0BBB0BB7FF07C0B095A0959095EC
:2038E00081959F4FAF4FBF4FFAE02F9F900111248217930758F443C0F98241E050E0BE013D
:203900006F5F7F4FC4010E946D2D48CFD8015296ED91FC915397828140E050E0582F550FFF
:20392000550F60E070E0C8010E94980D882339F1D8015C968D919C915D975E968D939C9361
:203940005F97ED91FC910280F381E02DBE016F5F7F4FC8010995809184219091852100978D
:2039600071F0DC01ED91FC910190F081E02D22E0AE014F5F5F4FD80113966C9109950F9026
:203980000F90DF91CF911F910F91FF90EF90DF90CF90BF90AF909F908F900895CF93DF933F
:2039A000EC010E944031688379838A839B83DF91CF91089548960E94252F91E0811190E041
:2039C000892F0895CF93DF93EB010E94DA1C811188EC888381E0DF91CF910895CF93DF9387
:2039E0001F92CDB7DEB76983FC01A689B789109791F084899589FC01808187FF0CC0ED9184
:203A0000FC9111970190F081E02DAE014F5F5F4F61E0CD0109950F90DF91CF910895CF933C
:203A2000DF93EC010E94403187E5FE0111928A95E9F7DF91CF9108958F929F92AF92BF92B6
:203A4000EF92FF920F931F93CF93DF93CDB7DEB7C755D109CDBFDEBF082FF62EE42E809077
:203A60000A2090900B20A0900C20B0900D20CE0101960E940F1D8BE4888B098B1A8AE11029
:203A800002C082E001C083E09F2D990F990F890F8B8B88EF8A878B869C86AD86BE868FEF64
:203AA0009FEFDC018E839F83A887B98784E08F87CE0101960E948528182F811110C0809110
:203AC000812190918221009751F0DC01ED91FC910190F081E02D2E2D4F2D602F0995812FFD
:203AE000C95ADF4FCDBFDEBFDF91CF911F910F91FF90EF90BF90AF909F908F900895CF9343
:203B0000DF93EC010E94DA1C81111CC08D8D9E8DAF8DB8A1892B8A2B8B2B71F040E06B89D2
:203B20008B810E941C1D811107C08B898F5F8B8B1D8E1E8E1F8E18A2198E1A8E1B8E1C8ECD
:203B40006DEF28C0498D5A8D6B8D7C8DCE014996452B462B472BD9F00E9462316436710554
:203B600081059105B0F08D8D9E8DAF8DB8A1892B8A2B8B2B71F440E06B898B810E941C1D30
:203B8000811107C08B898F5F8B8BCE014D960E94CE1C6CEFCE01DF91CF910C94EE1CCF9271
:203BA000DF92EF92FF920F931F93CF93DF93EC010E94DA1C498D5A8D6B8D7C8D811129C09C
:203BC000452B462B472B09F483C0CE0149960E9462316436710581059105A8F08D8D9E8D66
:203BE000AF8DB8A141E00097A105B10509F440E0892B8A2B8B2B19F48B898F5F8B8B6B89C7
:203C00008B810E941C1D198E1A8E1B8E1C8E6DEF4AC0452B462B472BE9F18D8D9E8DAF8D07
:203C2000B8A1892B8A2B8B2BC1F08E01035E1F4FC8010E9462316C3271408105910508F498
:203C400047C0EC89FD89808186FF42C041E06B898B810E941C1DC80131C0CE0149960E94D4
:203C600062316B017C01EC89FD89218130E0A4E6B0E00E942332C616D706E806F90640F133
:203C80006B896F5F6B8B41E08B810E941C1DCE014D9614C0CE0149960E94CE1C1D8E1E8E4D
:203CA0001F8E18A26CEFCE01DF91CF911F910F91FF90EF90DF90CF900C94EE1CDF91CF91FD
:203CC0001F910F91FF90EF90DF90CF900C94CE1CDF91CF911F910F91FF90EF90DF90CF9032
:203CE00008950F931F93CF93DF93EC018989882391F0EC89FD89808186FF0DC00E94403173
:203D0000683B7B408105910508F453C0CE010E94DA1C81114EC0198ACE010E94DA1C811177
:203D200012C08D8D9E8DAF8DB8A1892B8A2B8B2B21F01D8E1E8E1F8E18A2198E1A8E1B8EF1
:203D40001C8E6DEF2FC0898D9A8DAB8DBC8D8E01075E1F4F892B8A2B8B2B11F4C8011FC082
:203D6000C8010E9462316436710581059105C8F08D8D9E8DAF8DB8A1892B8A2B8B2B89F4EB
:203D8000C8010E94CE1C40E06B898B810E941C1D811107C08B898F5F8B8BCE014D960E940E
:203DA000CE1C6CEFCE01DF91CF911F910F910C94EE1CDF91CF911F910F9108954F925F9296
:203DC0006F927F928F929F92AF92BF92CF92DF92EF92FF920F931F93CF93DF93CDB7DEB7C8
:203DE000CC55D109CDBFDEBF8C010E94DA1CF82ED80152968C91F81609F48AC0F11002C05E
:203E00006DEF01C06CEFC8010E94EE1CF801818D928DA38DB48D9801275E3F4F6901892B54
:203E20008A2B8B2B21F4C9010E94CE1C78C0C9010E9462316C3271408105910508F46FC0DF
:203E4000C6010E94CE1CD8015496ED91FC915597808186FF4BC0ED91FC910280F381E02DB6
:203E6000BE01645A7F4FC8010995E82EF801D380E0917C21F0917D2182819381A481B5818F
:203E80006C968CAF9DAFAEAFBFAF6C97CE01885A9F4F0E949F014B015C0140900A20509067
:203EA0000B2060900C2070900D20CE0101960E940F1D89E6888BD98A4E2D50E0BE01645A4D
:203EC0007F4FCE0142960E94C03388EF8A874B865C866D867E868E829F82A886B986E39491
:203EE000E394EF86CE0101960E94852841E04F25D80153966C91539713968C910E941C1D42
:203F000081110DC0F80183898F5F838BF28A07C0D80159961D921D921D921C925C97C45A6A
:203F2000DF4FCDBFDEBFDF91CF911F910F91FF90EF90DF90CF90BF90AF909F908F907F9043
:203F40006F905F904F900895FC01A489B5899C9193FF18C087858823A9F09770913019F4D3
:203F6000CF010C94CF1D911103C0CF010C947F1D923019F4CF010C94711E933019F4CF0106
:203F80000C94DE1E0895CF93DF93EC01198E1A8E1B8E1C8E1D8E1E8E1F8E18A20E94DA1C2F
:203FA000811102C06DEF01C06CEFCE01DF91CF910C94EE1CCF92DF92EF92FF921F93CF93F4
:203FC000DF93EC01162F6A0179010E94000D83EB90E28883998381E08F87888B898B1B8A5F
:203FE000CC8ADD8AEE8AFF8A188F103EC0F00E944031698F7A8F8B8F9C8F0E9440316D8FF6
:204000007E8F8F8F98A381E08A83CE01DF91CF911F91FF90EF90DF90CF900C94C31FCE0150
:2040200048960E94C52EE3CF0F931F93CF93DF931F92CDB7DEB78C01FC018081861749F008
:20404000698341E050E0BE016F5F7F4FC8010E946D2DC8010F90DF91CF911F910F9108959E
:204060000F931F93CF93DF938C01DC015496ED91FC915597918194509F3208F065C0F801F0
:2040800084899589DC016C91262F2770243020F0687F61600E941420F8018089811107C0F2
:2040A00084899589DC016C9160610E941420D8015496ED91FC915597908158968C91C82F97
:2040C000CF7082958F7094FF0EC00E94BA2DC830C0F4FC017096EC0FF11D8081877C8083E2
:2040E000808188610DC00E94BA2DC83050F4FC017096EC0FF11D8081877C8083808180614F
:204100008083D8015496ED91FC915597D08158968C91C82FCF7082958F700E94BA2DC830B9
:2041200060F44096EC2FF0E0E80FF91F8081D5FD02C0806401C08F7B8083C801DF91CF917B
:204140001F910F910C94C31F64E0CF0101960E94142095CF0F931F93FC019481995C977046
:204160009295907F81E00681178120853185012B022B032B09F480E080FB97F98389FB0137
:204180008083918382E01F910F910895CF93DF931F92CDB7DEB7DC011F96ED91FC91509797
:2041A0003081232F2F77253688F05A969C919F77232F2078922B391749F0998341E050E0B3
:2041C000BE016F5F7F4FCF010E946D2D0F90DF91CF910895AF92BF92DF92EF92FF920F93B5
:2041E0001F93CF93DF93EC01162F5A01D22E0E94000D8FEB90E2888399837E0181E1E80E13
:20420000F11C412F4F70612F62956F7024EC39E0C7010E9486300A8F82E08A83AF86B88A34
:204220008989182F1F7082958F700E94BA2D183060F44096E12FF0E0E80FF91F8081DD2098
:2042400011F0806401C08F7B8083C7010E94112C60E070E0C7010E94DC301A8A8AEC8C83D5
:204260001B8A88EC8C8B1D8A8AE08E8B8F8B8FEF888F898F1E821F8218861986DF91CF91CF
:204280001F910F91FF90EF90DF90BF90AF900895DC011F96ED91FC91509720812F77419684
:2042A000222349F0629FB001112423E0759567952A95E1F707C0611103C060E070E002C0AB
:2042C00064EC79E00C94DC30CF93DF93EC01FA018081893C48F48B8B1E821F821886198637
:2042E0008823A9F189EC28C08C3F39F468ECCE010E94482181E08A8B4EC08D3F11F41A8AFD
:204300004AC0663090F18681998D9817C9F1898F21812D8B92819C8B83818E8B84818F8BFE
:204320008581888F80818C3C49F40E9440316E837F83888799878CEC8C8322C08D3C49F4B6
:204340008C818C3C91F71E821F82188619868AECF3CF8B3CA9F48C818A3C19F02B8B8AECDE
:2043600002C09B8B89EC8C8307C08B89811102C088EC01C080E08B8B1E821F821886198679
:20438000EF85F8896081661F6627661FCE01DF91CF910C94650DDF91CF9108950F931F933E
:2043A000CF938C01DC011F96ED91FC915097C081CF774196CC2399F00E94BC3023E0880F8C
:2043C000991F2A95E1F7D8011F96ED91FC91509760816F7770E00E94D931C62F05C00E94EF
:2043E000BC30892B09F0C8EC8C2FCF911F910F9108950F931F93CF93DF93EC018E819F8124
:20440000A885B985892B8A2B8B2B39F1CE0106960E946231672B682B692BF9F0CE010E9435
:20442000CE216C8986132EC08F8924E6829FC0011124092E000CAA0BBB0B4E815F8168857E
:204440007985840F951FA61FB71F8E839F83A887B9876D89CE010E9448218A89811108C09D
:204460008E819F81A885B985892B8A2B8B2BB9F140E050E0BA01CE01DF91CF911F910F91DF
:204480000C94980D888D8823F1F08E8924E6829FC0011124092E000CAA0BBB0B0E811F8111
:2044A00028853985800F911FA21FB31F8E839F83A887B987CE010E944821888D8F3F69F205
:2044C0008150888FCACF1E821F82188619868B89681302C089EC01C08AEC8C83BECF6B8950
:2044E000CE010E944821C4CF2F923F924F925F926F927F928F929F92AF92BF92CF92DF9223
:20450000EF92FF920F931F93CF93DF93CDB7DEB7C056D109CDBFDEBF6E968EAF9FAF6E979B
:20452000162F6F964FAF6F97A0962FAFA097942F990F990F222311F083E001C082E0980F5C
:20454000A1969FAFA197E12CF12CC12CD12C8BE09E012F5F3F4F19016E96AEADBFAD6E977A
:2045600012962C91129730E0C216D3060CF063C01396ED91FC911497EE0DFF1D90819F3FE8
:2045800009F452C0911350C0CF0101960E949F012B013C016C966CAF7DAF8EAF9FAF6C976F
:2045A00080900A2090900B20A0900C20B0900D206E96EEADFFAD6E9783819481FC01EE0D4C
:2045C000FF1D481459046A047B0471F46F960FAD6F97A0962FADA0974581612FCE01885A9D
:2045E0009F4F0E9419111FC005810E944031D101E7E51D92EA95E9F7FBE4F88B198B0A8B42
:20460000A1962FADA1972B8B38EF3A878B869C86AD86BE864E825F826886798684E08F87EF
:20462000C1010E94852880E09FEFC91AD90AA6E0EA0EF11C91CFC05ADF4FCDBFDEBFDF91E9
:20464000CF911F910F91FF90EF90DF90CF90BF90AF909F908F907F906F905F904F903F9047
:204660002F900895FC0180938121909382218BEC90E28083918362834383548308952F9286
:204680003F924F925F926F927F928F929F92AF92BF92CF92DF92EF92FF920F931F93CF93E7
:2046A000DF93CDB7DEB72797CDBFDEBF6C014B01242EF22E10E0CE0101965C018BEC582EAD
:2046C0009CEC492E2DEC322ED60112968C91181708F06BC0B0E11B9F30011124D601139643
:2046E000ED91FC911497E60DF71D848182115BC085818F1158C080819181A281B3818F3F54
:204700009F4FAF4FBF4F09F44EC0CF010E949F01D4012D913D914D915C91621773078407D8
:20472000950709F040C0F50127E011922A95E9F78FEF8983D6011396ED91FC911497E60DF2
:20474000F71D90859A8327812B8383858C8384858D8385858E83EF82002349F092859A8371
:2047600021852B83868186958695869501C086818770833081F030F4882351F0813099F45C
:20478000998307C0843049F0853069F4398206C0298361E004C0598201C0498267E0A501B1
:2047A0008F2D0E9405111F5F8FCF2796CDBFDEBFDF91CF911F910F91FF90EF90DF90CF90C7
:2047C000BF90AF909F908F907F906F905F904F903F902F900895FC0180937F219093802182
:2047E00081ED90E2808391836283438354830895FC01208120FF17C0458156816781708595
:2048000080910A2090910B20A0910C20B0910D20481759076A077B0741F081E04F3F5F4FC6
:204820006F4F7F4F19F080E0089581E0089521E0FC01458156816781708580910A20909114
:204840000B20A0910C20B0910D20481759076A077B0709F020E0822F08950F931F93FC0118
:204860008185982F97709330A1F083FF12C081E0028513852485358540910A2050910B20D2
:2048800060910C2070910D20041715072607370709F080E01F910F9108950F931F93FC0194
:2048A0009185892F8770833049F59695969596952FE130E0A901491B5109CA014FEF5FEFE2
:2048C000BA0104C0440F551F661F771F8A95D2F700910A2010910B2020910C2030910D203D
:2048E000402351236223732381E00581168127813085401751076207730709F080E01F9150
:204900000F910895CF93CFB7F8940E94452C80918321882319F0815080938321CFBFCF91F4
:204920000895DF92EF92FF920F931F93CF93DF937C01DFB6F894FC01C685C15FD0E0CE01AA
:204940000796887F0E94472C8C01009749F0AE01B7010E94C033809183218F5F80938321EB
:20496000DFBEC801DF91CF911F910F91FF90EF90DF900895FB0198E0408151819A01220FC4
:20498000331F87FD21602083318357FF08C02081318142E0242740E1342720833183880F21
:2049A000915051F70895DC01FB0156968C915697808355968C915597818353968C9182835C
:2049C00083E008950F931F93CF93DF93CDB7DEB72897CDBFDEBF8C01DC0159968D919C910A
:2049E0005A97FC012081253648F022E0288741E050E0BE01685F7F4F0E946D2DD80159963B
:204A00008D919C915A97FC0121812B3F50F025E02F8341E050E0BE01695F7F4F01960E947B
:204A20006D2DD80159968D919C915A97FC01228133812115310529F0255031092C303E4076
:204A4000F0F5D80159968D919C915A97FC01248135812115310529F0255031092C303E4007
:204A6000D8F5D8015996ED91FC915A9784819581009729F02281338182179307D0F10E94ED
:204A80004031D8015996ED91FC915A97428120E030E0342F330F330FDC01CB01820F931F3B
:204AA000A11DB11DF80182879387A487B5872896CDBFDEBFDF91CF911F910F9108952AE039
:204AC00030E02D833E8342E050E0BE016B5F7F4F02960E946D2DB5CF26E930E02B833C83C8
:204AE00042E050E0BE016D5F7F4F04960E946D2DB8CF19821A8242E050E0BE016F5F7F4FCA
:204B0000CF0104960E946D2DBACFEF92FF920F931F93CF93DF93EC017B018A010E94000D89
:204B200087ED90E288839983EF86F88A81E08A8B1B8A1C8A8DE495E98D8B9E8B8F8B988F3F
:204B4000098F1A8F88E08A831C8264EF71E0CE01DF91CF911F910F91FF90EF900C947E1929
:204B60008FEFA42FB0E0119631E3E42FF0E0AE17BF077CF0E60FF71F9081892798E087FFF5
:204B800003C0880F832701C0880F9150C1F74F5FECCF821302C080E0089582E00895EF92E3
:204BA000FF920F93CF93DF93CDB7DEB72697CDBFDEBF7C01FC018785908901E026E030E059
:204BC000AE014F5F5F4F64E401960E946F2E069789F52B8140E0BE016F5F7F4FC7010E9400
:204BE000B025811127C0298130E0322F22278A81282BACE5B4E40E94233284599141F701DE
:204C0000858B968B2E8143E0BE016F5F7F4FC7010E94B025482F81110DC02C8130E0322F03
:204C200022278D81282BA4E6B0E00E942332F701838B01C042E0842F2696CDBFDEBFDF91C8
:204C4000CF910F91FF90EF9008950F93CF93DF9300D0CDB7DEB769837A83FC01878590893F
:204C600001E022E030E0AE014F5F5F4F64E401960E942D2E029711F480E001C082E00F909A
:204C80000F90DF91CF910F910895EF92FF920F93CF93DF93CDB7DEB72697CDBFDEBF7C0164
:204CA00067E370E80E94252681111DC0F7018785908901E026E030E0AE014F5F5F4F64E48F
:204CC00001960E946F2E069771F42B8140E0BE016F5F7F4FC7010E94B025811104C0298196
:204CE0003A81232B09F482E02696CDBFDEBFDF91CF910F91FF90EF9008956CE276E00E9406
:204D00002526811182E0089560E372EA0E942526EFE9FFE03197F1F700C0000008950F93C5
:204D20001F93CF93DF9300D01F92CDB7DEB7DC0116964D915D916D917C911997452B462B62
:204D4000472B09F41BC18C0106960E946231672B682B692B09F412C1F80184818230A9F4D4
:204D6000C8010E947D2681110AC064E170E0C8010E947E1983E0D80114968C93FFC068EE18
:204D800073E0C8010E947E19F9C0833080F48111F5C0C8010E944526882319F060E177E273
:204DA000F0CF8AE0F801818B82E08483D9CF833009F0CDC0C8010E94CF25882301F168EE29
:204DC00073E0C8010E947E19F80181898150818B811111C0C8010E94842685E0D80114963E
:204DE0008C9314978DE495E955968D939C93569753961C92C3C082E0F8018483BFC08AE06E
:204E0000D80151968C93519785E014968C93D8015996ED91FC915A9784819581892B49F4CD
:204E2000D8015996ED91FC915A972081211121C032C0C8010A960E946231D8015996ED9124
:204E4000FC915A97AB01BC018AE076956795579547958A95D1F78481958122813381821B3C
:204E6000930BA0E0B0E0481759076A077B0750F5D7CFD80153968C91539790E054963C91F7
:204E8000831B910997FF03C091958195910930E082179307BCF42181222309F446C0F801D5
:204EA000858996894789508D841B950B97FF03C0919581959109FAE02F9F900111248217A3
:204EC00093079CF1D80152968C91882399F0D801ED91FC910280F381E02DBE016F5F7F4F57
:204EE000C8010995F801128A8091842190918521009789F5D8015996ED91FC915A9782815D
:204F000040E050E0582F550F550F60E070E0C8010E94980D882349F081E0F801828B8589F9
:204F20009689878B908F8389848BD80155968D919C9156978D34954919F4F80114821EC0F1
:204F400082E0D80114968C9368E873E11ACF853009F45DCF13C0DC01ED91FC910190F08125
:204F6000E02D22E0AE014F5F5F4FD80113966C9109958111BFCF64EF71E003CF2396CDBF1F
:204F8000DEBFDF91CF911F910F9108952F923F924F925F926F927F928F929F92AF92BF925D
:204FA000CF92DF92EF92FF920F931F93CF93DF93CDB7DEB7CE55D109CDBFDEBF6C0169963A
:204FC0006FAF69976C964EAF5FAF6C9700E010E0E12CF12C8BE0AE014F5F5F4F1A01A22F47
:204FE000B0E06E96AEAFBFAF6E972D5F6F962FAF6F97F601228130E0E216F3060CF061C020
:205000000380F481E02DE00FF11F90819F3F09F452C069962FAD699792134DC0CF0101969A
:205020000E949F012B013C0180900A2090900B20A0900C20B0900D20681579058A059B054D
:20504000C9F1D6011396ED91FC911497E00FF11FB5816A96BFAF6A970E944031F10127E5AB
:2050600011922A95E9F744EB488B69965FAD6997598B6A968FAD6A978A8B6E964EAD5FADA0
:205080006E976C966EAD7FAD6C97CE0143960E94C03398EF9A878B869C86AD86BE864E8260
:2050A0005F82688679866F96AFAD6F97AF87C1010E94852880E0BFEFEB1AFB0A0A5F1F4F85
:2050C00098CFC25ADF4FCDBFDEBFDF91CF911F910F91FF90EF90DF90CF90BF90AF909F903D
:2050E0008F907F906F905F904F903F902F900895FC01809384219093852183EE90E2808326
:20510000918362834383548308951F93CF93DF9320917B2126FD49C0EC010E94B0338F70EC
:205120009091A621911198E0890F80932422CE010E94E32A182F888181FF13C0CE010596F1
:205140000E949F016D837E838F839887CE010A960E949F016A877B878C879D8788818D7FFB
:2051600088838881982F969596959F5F9370990F990F837F892B88830E944031DC01CB0130
:205180008A569F4FAF4FBF4F89839A83AB83BC83898580FD36C08D819E81AF81B8858F3FB6
:2051A0009F4FAF4FBF4F19F42CC081E02BC08881869586958370813021F58091A62180312E
:2051C00000F5CE010E9491240097D9F0E091A621A6E8B1E220E0E21739F04D915D91841772
:2051E000950779F02F5FF7CFE03158F421E02E0F2093A621F0E0EE0FFF1FEA57FE4D8083C7
:205200009183812FDF91CF911F910895E7EAF1E28FEF828B118A108A1092A6210895CF93E1
:20522000DF93FC01208121FF13C0EC0105960E949F016D837E838F839887CE010A960E946E
:205240009F016A877B878C879D8788818D7F8883DF91CF910895FC01218125FD03C02481CE
:2052600023FDF9CF0895FC01818180648183818186FD03C0848183FDFACF0895CF93DF93BB
:205280008091252290912622009779F1DC01ED91FC910190F081E02D61E00995E0912522BE
:2052A000F0912622C281D3818C8183FF07C0CE010E942B2988EF8883C0E001C0C2E0E0917D
:2052C0002522F0912622828193810E9433298091252290912622DC01ED91FC910190F081FE
:2052E000E02D60E009958C2F01C081E0DF91CF910895CF93C82F0E94403160931F227093D6
:205300002022809321229093222280911722CC3F21F481608093172279C0CD3FD1F482600B
:205320008E7F80931722109215228FEF9FEF80931322909314228091BA218E7F82608093A0
:20534000BA211092C82163E172E28DEF0E94BA245DC081FF5BC080FF04C0C0688E7F809310
:20536000172263E172E28C2F0E94BA2440911522E42FF0E0E154FE4DC083443049F48091B1
:20538000C321982F97709330C9F183FF37C039C08091C821493041F4893498F18091172234
:2053A0008D7F809317222DC050E060E070E090E0A0E0B0E00996A11DB11D481759076A070D
:2053C0007B07F9F48091132290911422892BC9F48AEB91E20E940F298091C82182508093AF
:2053E000C821809117228D7F809317228091BA2181608093BA218AEB91E20AC088E080933A
:205400001522809115228F5F8093152280E090E0CF9108950F931F93CF93DF93C091182255
:20542000D0911922209709F4BCC08C0190911C2280911E2291112EC081FD2CC08260809374
:205440001E228FEF9FEF80931A2290931B22888181FD13C0CE0105960E949F016D837E835A
:205460008F839887CE010A960E949F016A877B878C879D87888182608883888184FD02C0DE
:205480008DEF01C08EEFF80180836AE172E20E94BA2482C081FF82C0888184FF84C09111C1
:2054A00082C0F801108283E080931C2240911C22443049F48985982F9770933009F47AC0D5
:2054C00083FF78C017C0493029F4F80180818E5F808310C050E060E070E08E8590E0A0E028
:2054E000B0E00B96A11DB11D84179507A607B70708F457C080911E2280FD40C06AE172E2CD
:20550000F80180810E94BA2440911C2250E060E070E08E8590E0A0E0B0E00996A11DB11D84
:20552000481759076A077B07E1F46AE172E280E00E94BA246AE172E280E00E94BA2425962B
:2055400080911C228F5FFE01E80FF11D80911B22808380911C228E5FC80FD11D80911A226B
:205560008883F80180818C5F833088F480911E22816080931E228CEF80830EC0F801808141
:205580008F77808380911E228E7F80931E2280911C228F5F80931C2281E010C0CE010E9421
:2055A0000F2980E00BC0FE01E90FF11D8581F80180837CCF88E080931C229CCFDF91CF9142
:2055C0001F910F910895CF92DF92EF92FF920F931F93CF93DF931F92CDB7DEB77C0180917A
:2055E000252290912622892BD9F08091242218E0180F0FB7F8948FE192E20E9462310FBFCF
:20560000012F10E020E030E0061717072807390748F0D70119968C918770813031F702C042
:2056200081E065C0E0921822F092192210921C2280911E228D7F80931E22D70119968C9147
:2056400080FD07C0F701908196959695937009F444C08091252290912622DC01ED91FC91FA
:205660000190F081E02D61E0099510E0CE0101960E940A2AE0912522F0912622882379F07B
:20568000C280D380F601848183FD02C012E0EECF0981C6010E942B29D6010C93E7CF828112
:2056A00093810E9433298091252290912622DC01ED91FC910190F081E02D60E00995111120
:2056C0000AC0F701818580FD11C0809123228F5F809323220BC0812F0AC09091232293706A
:2056E000990F897F892BF7018187B3CF80E00F90DF91CF911F910F91FF90EF90DF90CF90C9
:20570000089510921F221092202210922122109222220E94403187E5EAEBF1E2DF011D92A4
:205720008A95E9F708957F928F929F92AF92BF92CF92DF92EF92FF920F931F93CF93DF93CC
:2057400000D01F92CDB7DEB75C014B01F42E722E10E0D50112968C91181708F043C0B6E3F6
:205760001B9F60011124D5011396ED91FC911497EC0DFD1D84818F1133C08581871511F056
:20578000002371F180819181A281B3818F3F9F4FAF4FBF4F29F1CF010E949F01D4012D9193
:2057A0003D914D915C916217730784079507C1F4E982F50123813481C9018C0D9D1D002387
:2057C00011F04E9601C006968A839B83F901EC0DFD1DAE014F5F5F4F63E085810E94051143
:2057E0001F5FB7CF2396CDBFDEBFDF91CF911F910F91FF90EF90DF90CF90BF90AF909F900A
:205800008F907F900895FC0180937F219093802189EE90E28083918362834383548308952A
:2058200008951F93CF93DF93EC010E94EF2E182F888182958F700E94BA2DFC011683DF91A4
:20584000CF911F9108951F93CF93DF93EC010E94EF2E182F888182958F700E94BA2DFC017D
:205860001583DF91CF911F910895009769F020910F203091102042E286349407E0F38217CD
:205880009307C8F70C94DB3208950C94352CCF93DF93EC010E94433220910F2030911020BB
:2058A00042E286349407E0F382179307C8F72197C80FD91F42E2C634D407E0F3C217D307A4
:2058C000C8F7DF91CF9108950C94472C8111FFCF80E092E008958115924099F4809127226B
:2058E0008F3F79F0811108C09FB7F894809171008D7F809371009FBF809127228F5F80936A
:20590000272208951F93CF93DF93E0ECF1E022851FB7F8948287A8E4B0E04C919C918C9129
:20592000809589238C93C0EAD0E038819A818A81887F84608A838C9181608C93858558EDEA
:2059400054BF51E0538753E05587789488954C9338839A83858722870E94BD0E1FBFDF91CA
:20596000CF911F9108950E94BD0E8091CF0181FF03C086E30C94822C0895CF93DF93D82FBA
:20598000C091CA010E94B32C83E38093CA011092C2011092C10180E08093C001D093C40101
:2059A0008F5F8032C9F7C093CA01DF91CF910C94BD0E8F929F92AF92BF92CF92DF92EF92F7
:2059C000FF920F931F93CF93DF938C015B017A0190518115944018F080E090E034C0CA01C8
:2059E0009051800F911F81159440B0F7C12CD12C80E2982EE114F10429F1802E802F8F7103
:205A0000C92DC81B8C2F90E0E816F90608F4CE2D0E94B32CD0E0AE01B501C8010E94C0339A
:205A20001092C2011093C1018092C00185E30E94822CAC0EBD1EEC1AFD0ACC0EDD1E0C0F7F
:205A40001D1FD8CFC601DF91CF911F910F91FF90EF90DF90CF90BF90AF909F908F90089527
:205A60000F931F93CF93DF931F92CDB7DEB78C0169838091CC0183FF11C0011580E11807F4
:205A800008F4105F41E050E0BE016F5F7F4FC8010E94D92C21E0892BC9F404C0011584E0CF
:205AA000180710F020E012C00E94B32C83E38093CA011092C2011093C1010093C001898108
:205AC0008093C40185E30E94822C21E0822F0F90DF91CF911F910F910895EF92FF920F9374
:205AE0001F93CF93DF938A012091CC0123FF0EC0811520E1920708F4905FA801DF91CF9193
:205B00001F910F91FF90EF900C94D92C7B01EC01C61BD70BCE018E0D9F1D0115110551F0C3
:205B2000F70161917F010E94302D882331F001501109F0CF80E090E001C0C801DF91CF91DC
:205B40001F910F91FF90EF9008951F920F920FB60F9211248F93EF93FF93E0ECF1E0858580
:205B60008C7F8587FF91EF918F910F900FBE0F901F9018958D3048F4E82FF0E0EE0FFF1F7C
:205B8000E551FF4D80819181089588E292E208958FEF809330220895CF92DF92EF92FF92F4
:205BA0000F931F93CF93DF939C01240F351F2130314098F48A01EB016B01C40ED51E7C0126
:205BC000E61AF70AB7016C0F7D1FCC15DD0541F081E00E94FA2D8993F5CF80E090E001C066
:205BE000C801DF91CF911F910F91FF90EF90DF90CF9008954091CA01E62FF72F8093CA018E
:205C000084914093CA010895611110C0833059F028F48230B9F480E098E00895843091F4CD
:205C200080E09AE0089580E099E00895613051F4833029F08D3031F0823021F406C080E406
:205C400099E0089580E090E0089580E498E00895FC019381907CE9F30895AF92BF92CF92BF
:205C6000DF92EF92FF920F93CF93DF93EC019B8193709130B1F469017A01660F6D83CE01A0
:205C80000E94282E5701E12CF12C8B8180FD03C0EC14FD0449F4011115C08B8180FD12C0BE
:205CA00013C080E090E011C0F50181915F018E83CE010E94282E8B8180FDEDCF8FEFE81A6B
:205CC000F80AE3CF83E08A83C701DF91CF910F91FF90EF90DF90CF90BF90AF900895AF9220
:205CE000BF92CF92DF92EF92FF920F931F93CF93DF93EC018B818370813039F08B81837082
:205D0000823019F080E090E02EC0B02E79018A01660F61606D83CE010E94282E8E81F80132
:205D200081936F0101E010E082E0A82E8B8180FD03C00E151F0530F0B11012C08B8180FD07
:205D40000FC010C0AA82CE010E94282E8B8180FDF3CF0F5F1F4F8E81F60181936F01E6CF4B
:205D600087E08A83C801DF91CF911F910F91FF90EF90DF90CF90BF90AF9008956295607FE9
:205D80004F70642BFC0160830895CF93DF93FC018081982F9F70C1E0D0E001C0CC0F9A9574
:205DA000EAF782958F700E94BA2DFC01C283DF91CF910895CF93DF93FC018081982F9F700C
:205DC000C1E0D0E001C0CC0F9A95EAF782958F700E94BA2DFC01C183DF91CF910895FC017C
:205DE00090819F7081E001C0880F9A95EAF70895FF920F931F93CF93DF93EB01F42EFC0159
:205E00008081982F9F7001E010E001C0000F9A95EAF782958F700E94BA2DFC013896CE01C1
:205E2000FF2039F00080002219F400000197D1F706C00080002219F000000197D1F7DF91CA
:205E4000CF911F910F91FF900895CF93DF93EC01888182958F700E94BA2DFC0130852881A2
:205E60002F7081E090E001C0880F2A95EAF78323DF91CF910895CF93FC016083C62FCF7031
:205E8000862F82958F700E94BA2DC83050F4FC017096EC0FF11D8081877C80838081886175
:205EA0008083CF910895FF920F931F93CF93DF931F92CDB7DEB78C01FC0180818983803E0A
:205EC00080F1CE0101960E94112C8FEB92E10197F1F700C00000FFB6F894C8010E94C52E40
:205EE00090EA9A95F1F740E068E071E0C8010E94F82EFFBE892B11F48FEF18C0EFEFFEE03F
:205F00003197F1F700C00000C8010E94252F882331F0FAE6FA95F1F700C080E007C08DEFCC
:205F200005C0CE0101960E94DA2ECBCF0F90DF91CF911F910F91FF9008950F931F93CF9351
:205F4000DF93EC01162F0FB7F8940E94DA2E85E18A95F1F70000112319F0CE010E94C52E93
:205F60009AE89A95F1F700C0CE010E94252F811101C010E087E691E00197F1F700C00000A2
:205F8000CE010E94C52E9AE69A95F1F700C00FBF812FDF91CF911F910F9108950F931F93B7
:205FA000CF93DF938C01C62FD8E06C2F6170C8010E949D2F2C2F30E035952795C22F8111BC
:205FC000C068D15091F78C2FDF91CF911F910F910895BF92CF92DF92EF92FF920F931F93EF
:205FE000CF93DF937C01C62E8A010E94532F81113BC060EFC7010E94CE2FD0E0C0E498EF8F
:20600000B92EBC0E61E0C7010E949D2FD82E61E0C7010E949D2F882319F0DD2071F026C0E3
:20602000D1100BC0CC1530F0F801808180FF05C0CC1519F0DC2FDD24D3946D2DC7010E9414
:206040009D2FF801208130E035952795DD2011F02068F8012083C150CB11D4CF0F5F1F4FB6
:20606000C111CDCF8D2F03C08FEF01C08EEFDF91CF911F910F91FF90EF90DF90CF90BF902C
:206080000895CF92DF92FF920F931F93CF93DF93EC01F62E8A010E94532F0115110591F06B
:2060A00065E5CE010E94CE2F680188E0C80ED11CF80161918F01CE010E94CE2F0C151D0568
:2060C000B9F704C06CECCE010E94CE2F6F2DCE01DF91CF911F910F91FF90DF90CF900C94FE
:2060E000CE2FFC018081282F2F7030E02430310514F460E004C0263031052CF461E0829505
:206100008F700C94042E80E090E008950F931F93CF93DF93EC0189010E94BE2E8881803E4D
:2061200010F1CE010E947130FC01892B01F18081807F816080838181887F8360818306A32C
:2061400017A388818F70843008F08450418120E130E0B90102C0660F771F8A95E2F7CB01DF
:20616000842B818304C0CE010E94DA2EDACFDF91CF911F910F910895CF93DF93EC010E9466
:206180007130009721F0FC012081211105C0CE010E94252F90E00DC028812F70243008F08B
:2061A0002450C896FC01E20FF11DE20FF11D80819181DF91CF9108950F931F93CF93DF936A
:2061C000EC018B010E947130FC0198819F70943008F094503097D9F0492F50E09A01220F3A
:2061E000331FDF01D896A20FB31F0D931C9380818823E1F001151105C9F0818120E130E0B8
:20620000092E01C0220F0A94EAF7282B19C0CE01012B31F0DF91CF911F910F910C94232C7F
:20622000DF91CF911F910F910C94112C818120E130E0092E01C0220F0A94EAF720952823A6
:206240002183218140E150E0BA0102C0660F771F9A95E2F7CB0130E082239323892BB9F281
:20626000DF91CF911F910F9108959091010490FDFCCF90910004987F892B8093000408953F
:2062800031E02FB7F8944091030440FF0CC040914022509141224F5F5F4F409340225093AD
:2062A0004122309303044091080450910904BA012FBF2091030420FDE4CF80914022909121
:2062C00041220895CF92DF92EF92FF920F931F93CF93DF93EC010E944031088119812A81E4
:2062E0003B816B017C01C01AD10AE20AF30A601771078207930760F4C701B601615071094B
:206300008109910997FF06C060E070E0CB0102C0C701B601DF91CF911F910F91FF90EF9032
:20632000DF90CF9008951F93CF93DF93182FEB0180E00E943531809143008E7F809343001A
:20634000153031F4C115D04219F483E09EE002C081E094E020914300217F2160922B909371
:20636000430020910804309109043C5F40910804509109049091010490FDFCCF6FEF7FEF9F
:2063800060930A0470930B049091010490FDFCCF40930804509309049091010490FDFCCF1F
:2063A00020930C0430930D04DF91CF911F910C943531AA1BBB1B51E107C0AA1FBB1FA617CC
:2063C000B70710F0A61BB70B881F991F5A95A9F780959095BC01CD01089597FB072E16F45B
:2063E000009407D077FD09D00E94D93107FC05D03EF4909581959F4F0895709561957F4FA0
:206400000895A1E21A2EAA1BBB1BFD010DC0AA1FBB1FEE1FFF1FA217B307E407F50720F076
:20642000A21BB30BE40BF50B661F771F881F991F1A9469F760957095809590959B01AC01ED
:20644000BD01CF010895A29FB001B39FC001A39F700D811D1124911DB29F700D811D11242B
:20646000911D08950E942332A59F900DB49F900DA49F800D911D11240895EE0FFF1F059009
:20648000F491E02D09940F931F93CF93DF938230910510F482E090E0E0914422F0914522C8
:2064A00020E030E0A0E0B0E0309719F1408151810281138148175907C8F08417950769F436
:2064C000109731F012960C93129713961C9327C0009344221093452222C02115310519F06B
:2064E0004217530718F49A01BD01EF01DF01F801DBCF21153105F9F0281B390B24303105AB
:2065000080F48A819B816115710521F0FB018283938304C08093442290934522FE0132963E
:2065200044C0FE01E20FF31F8193919322503109288339833AC02091422230914322232B87
:2065400041F42091022030910320209342223093432220910020309101202115310541F4BC
:206560002DB73EB74091042050910520241B350BE0914222F0914322E217F307A0F42E1B3D
:206580003F0B2817390778F0AC014E5F5F4F2417350748F04E0F5F1F4093422250934322B9
:2065A0008193919302C0E0E0F0E0CF01DF91CF911F910F910895CF93DF93009709F481C01B
:2065C000FC01329712821382A0914422B0914522109781F420813181820F931F20914222C6
:2065E000309143222817390751F5E0934222F093432267C0ED0120E030E0CE17DF0740F4CD
:206600004A815B819E0141155105F1F0EA01F5CFC283D38340815181840F951FC817D907C4
:2066200059F488819981840F951F0296808391838A819B81828393832115310529F4E093B6
:206640004422F09345223DC0E901EA83FB8349915991C40FD51FEC17FD0761F4808191811E
:20666000840F951F0296E90188839983828193818A839B83E0E0F0E012968D919C911397BB
:20668000009719F0FD01DC01F7CF8D919C9111979D012E5F3F4F820F931F209142223091F4
:2066A00043222817390769F4309729F4109244221092452202C012821382A0934222B093DF
:2066C0004322DF91CF9108958F929F92AF92BF92CF92DF92EF92FF92CF93DF93EC01688176
:2066E00079818A819B81611571058105910521F464E279ED8BE597E02DE133EF41E050E048
:206700000E94D03349015A019B01AC01A7EAB1E40E9432326B017C01ACEEB4EFA501940159
:206720000E94F233DC01CB018C0D9D1DAE1DBF1DB7FF03C00197A109B04888839983AA83E8
:20674000BB839F77DF91CF91FF90EF90DF90CF90BF90AF909F908F9008950E9464330895EA
:2067600086E090E20E9464330895A0E0B0E08093062090930720A0930820B0930920089574
:20678000FB01DC0102C001900D9241505040D8F70895DC0101C06D9341505040E0F708956E
:2067A000052E97FB1EF400940E94E73357FD07D00E94013207FC03D04EF40C94E7335095FB
:2067C0004095309521953F4F4F4F5F4F089590958095709561957F4F8F4F9F4F0895B7FFD0
:2067E0000C9432320E943232821B930B0895F894FFCF00004622200001000000003D8F60A8
:2068000001462ACC00C80202FFCC00C80505FFFFFF00000000102C102C6002620200000097
:20682000001D031A031303260300000000640461046B04120700000000640461046B041239
:206840000700000000640461046B041207000000006404610495079C0700000000FC0CF2D6
:2068600008A409FC0800000000FC0CFD0C0C0B050B00000000ED0B9E0B3B0CA80B0000008C
:2068800000FC0CFD0CFF0CFF0C00000000B918CB149A18DE1600000000FC0C74196F1B95C7
:2068A0001900000000FC0CE21CA41F3020000000006421AA20F921C62000000000742200C1
:2068C0000000003F2300000000FC0CD3248F26E22400000000C62700000000932B000620CB
:1C68E000064006600680062822282228222822282228222822E007004AE73E0008
:00000001FF
